:020000040000FA
:1000000090060020D9000000E7000000A51B0000BA
:1000100000000000000000000000000000000000E0
:10002000000000000000000000000000EB000000E5
:100030000000000000000000ED000000EF000000E4
:10004000F1000000F1000000251F0000F100000099
:10005000F1000000F1000000F1000000F1000000DC
:10006000F92F00009D05000041030000F100000091
:10007000F1000000F100000000000000000000009E
:100080000000000000000000000000000000000070
:100090000000000000000000000000000000000060
:1000A0000000000000000000000000000000000050
:1000B0000000000000000000000000000000000040
:1000C0000448854600F0FCF800480047113900005C
:1000D000C046C04690060020064880F308880648BF
:1000E000804706480047FEE7FEE7FEE7FEE7FEE73B
:1000F000FEE7000090060020312E0000C100000045
:1001000030B50B46014600202022012409E00D46AF
:10011000D5409D4205D31D469540491B2546954037
:1001200040191546521E002DF1DC30BD70B500247B
:100130002546002801DA01244042002901DA012580
:100140004942FFF7DDFFAC4200D04042002C00D016
:10015000494270BDF8B500242546002904DA0E4650
:10016000012400214042B141002B04DA1E46002345
:1001700052420125B34100F062F88C4617461E46F4
:10018000AC4203D0002540428D41AC46002C02D049
:10019000002657429E4161463A46334601B0F0BDC3
:1001A000F0B51FB486B00020009001900290069830
:1001B000069980B204900798090C020400141143B8
:1001C00007900027089D099806913E463C460390FB
:1001D0000398A9B20204000C039004982D0C154357
:1001E00048430021224600F05AF8C71971411034E3
:1001F0000E46402CECDB3846029A00F050F8009A8C
:10020000019B801800905941029801911030029092
:100210004028CCDB00980BB0F0BDD2B201E00270F8
:10022000401C491EFBD270470022F6E710B513466A
:100230000A4604461946FFF7F0FF204610BDF0B508
:100240001FB40646002082B005464024019100906C
:100250001BE0019922460F46304600F043F8049A0D
:10026000059B801A994110D310461946224600F08A
:1002700016F8361A8F410197224601200021009F6F
:1002800000F00DF838184D4100902046641E0028FB
:10029000DFDC019B00982946324607B0F0BD10B55F
:1002A000202A04DB0146203A9140002010BD9140F5
:1002B00020239C1A0346E3401943904010BD0000E0
:1002C000064C0125064E05E0E36807CC2B430C3CA9
:1002D00098471034B442F7D3FFF7F6FE083C00000D
:1002E000283C000010B5202A04DB0846203AD04004
:1002F000002110BD0B46D340D0402024A21A9140CB
:100300000843194610BD30B58C180278401C1307FD
:100310001B0F01D10378401C120906D10278401C42
:1003200003E005780D70401C491C5B1EF9D101E00B
:100330000B70491C521EFBD1A142E6D3002030BDF8
:1003400070B51C48C16A03221143C1624169C214DD
:1003500011434161184D288B184CA08100F034F8EE
:1003600002F0C8FD288BE0810C21615E00B2401ACA
:1003700001D5134940182082208A618A884201D918
:10038000208A60820C4D60356869C00602D46869B5
:1003900080060DD56869A080A86AE0800948406998
:1003A00020816089401C608102F03DFD3020686141
:1003B00070BD0000400401402007014008000020FB
:1003C000640D00000002014070B50F4DA88A0F4C6B
:1003D0006080288BA08002B20221615E0C4800F090
:1003E000D1FE00F019F8A889E0800A4800780028BA
:1003F00009D1074808224030825E04210220615E54
:10040000205E00F09FFD70BD000401406C000020E4
:10041000B80100203C000020FEB5344C344A274689
:1004200008370820105E26680421515E02911E21C3
:10043000715E081A00F062FB05462020305E0299CA
:10044000401A00F05BFB2B4A291849421580508066
:10045000084600F06DFB908010883D46403568816D
:100460000020105E244948430221515E234A514333
:100470004018C01300F05CFBA881204603F070F91F
:10048000288802F055F8029068460089388068464E
:1004900040897880A079092825D080341620205EF4
:1004A00000901820205E019026212A20715E305E87
:1004B00003F070FA040000D54442002C07DD214609
:1004C000684603F081FA214601A803F07DFA0098FE
:1004D00000F02EFBA882019800F02AFBE8820120A0
:1004E00001F02EFFFEBD0020A882F7E7B801002032
:1004F0000004014078000020E7490000CD9300008F
:10050000F8B51E4E002430781D4F254602282DD107
:10051000F078092811D13079AA280ED17079AA284B
:100520000BD1B079002808D100220621301D02F03D
:100530000BFD002801D0F47901250020307011490D
:10054000F0700870002D0DD00F490C700F490C7021
:100550000F4A1168491C11600E493870087002F08A
:1005600027FE03E00C480168491C01603878052823
:1005700003D10A20387002F0B3FBF8BD5801002007
:100580001C0000201D0000201E0000202100002073
:1005900028000020300000202C0000200CB50D4861
:1005A00041680D4A11804168C90710D000216A4690
:1005B000117007E04169C90702D01178491C117018
:1005C0001179491C117111790529F3D3117803218F
:1005D00041600CBD000201400800002010B5044637
:1005E0000121082002F0E6FB6069616C40020143D2
:1005F000A06CA26900025200104301432948016027
:10060000216862680901D2001143A2681143816028
:10061000E169226AC90192011143626A52011143E0
:10062000A26A12011143E26CD2001143226D9200C2
:100630001143626D52001143A26D1143C160616BA1
:10064000A26BC90192011143E26B52011143226C6A
:1006500012011143626ED2001143A26E9200114347
:10066000E26E52001143226F114301610F4A0E499D
:100670009162E16AE3680903DB021943E36D1B023F
:1006800019432369DB011943236B1B011943236EB3
:100690009B00194343055961002191620321416088
:1006A00010BD000000020140837A0000800000407D
:1006B0000021012206C001608160C16001614161C9
:1006C0008161C161016241628162C1620163416312
:1006D0008163C163016441648164C16401654165F2
:1006E0008165C165016641664260816670470000B0
:1006F00010B50F4C0D48A062012002F06DFBE00523
:10070000016905225203114301610A4A104602F0B1
:1007100013FF104602F010FF2068074908432060CD
:100720000020A0610548E06110BD0000837A000050
:100730008000004088130000FF010000FF0300005C
:100740000348024901600349416070478850000036
:10075000400401403B060000FEB572B60026234867
:1007600000960099491C00918142FAD3204A002545
:100770002C4656615069D31418435061FFF7E0FFCF
:10078000684686801A4F403F18E000960098401C4B
:1007900000909842FAD3D06A03210843D06250698E
:1007A000184350610820385E45190420385E04194A
:1007B0001048906169468888401C88806846818816
:1007C000012040028142E0D301F062FAFFF7B8FF56
:1007D00062B66812084A611210805180074A136895
:1007E000D8831068018410684684FEBDFFFF0200B4
:1007F00040040140A55A000034000020B801002048
:1008000070B504460121C80202F0A4FA0120800755
:10081000416861701849174A8A62426923785B000F
:100820001A43426115488862FF216078C131144D36
:100830000E1D012813D002281AD1A07800280DD04F
:10084000012815D103202870084602F01BFA001475
:100850006880304602F016FA001408E00220287082
:10086000084602F00FFA6880304602F00BFAA880C2
:1008700070BD0000837A000080000040FFFF000090
:100880004C01002010B5144C00212278022A01D816
:10089000552102E0032A00D135214843010BFF29ED
:1008A00000DBFF210223E35E042218464843A25ED8
:1008B0004012801800B2002801DA002002E0FF2870
:1008C00000DDFF200124A407002B01D1002A01D064
:1008D000E06210BDE16210BD4C01002010B50321A3
:1008E000FFF7A2FC10BD0000F0B58446184D174874
:1008F000A862174B17484033174E991382420ED106
:100900001E61164C164F54407C402768154807401E
:100910002760604648602068CF03384320600D4858
:1009200082420AD11E611048104C42406240104879
:1009300010600868400040080860002018610A68DC
:10094000520052080A60A862F0BD0000837A0000DD
:10095000800000401F360D9ACA8F00000A060CB0B6
:100960001530002AFF7FFF7F1A3401B015020D2ACF
:10097000BADC5476F0B51C46564B85B04B43DB13BE
:100980005D4200290BDB002803DB834205DC0125E7
:1009900010E0854201DD03250CE002250AE0002875
:1009A00003DB854205DC062504E0834201DD0425E6
:1009B00000E005250023009301930293454B4B4330
:1009C000DE13454B871B5943CB136743F91304913F
:1009D00019466143C91303913118301A0E46664314
:1009E000F7136043C61348426043C1135842604343
:1009F000C0132B0002F06EFC064204101B2631428D
:100A00000499039863181B18DE0FF3185B10591A2A
:100A1000081A0093019108E0E0198019C10F081825
:100A200040100190801B0090C01B029020E00398B2
:100A300023185B18DE0FF3185B10181A029001934D
:100A4000401A08E0A1190918CB0F59184910081AC3
:100A500001900291801B00900AE0049863181B1813
:100A6000DE0FF3185B10591A02930091081A0190D7
:100A70000120C003002A0ADA00220BE02118C9195C
:100A8000CB0F591849100091C91B0291EEE7824221
:100A900000DD024610184443241422460021684613
:100AA00002F04EF92246002101A802F049F922463F
:100AB000002102A802F044F90A98009901600B98FD
:100AC000019901600C98029901600D98056005B0CC
:100AD000F0BD0000E7490000CD93000010B50649C5
:100AE0004888401C80B24880642803D90020488090
:100AF00001F0A4F810BD000008000020034900B573
:100B00004843C01300F014F800BD00005A4D000027
:100B1000002901DC00207047024A5143C9134843B1
:100B2000C013704755550000401A00B270470000CE
:100B30000449884202DCC943884201DA084670470A
:100B400000B27047FF7F00000121C907884201D130
:100B5000401E70470028FCDA4042704770B50A46D4
:100B6000024314D00023002903DA49424042012302
:100B7000DB030E4D00220C460028064609DD164117
:100B800031191441001B54002C5BE31808E00020CD
:100B900070BD1641A11B1441201854002C5B1B1B77
:100BA000521CD2B20F2AE6D398B270BDEA3B0000C5
:100BB00070B504460068002822D112480021206048
:100BC000217161710A21A1712423C35E0E4E00219F
:100BD0003246184600F026F8054621681C20085EBB
:100BE0003246002100F01EF80146284648430749D6
:100BF000C0134843C11325878034A1830120208777
:100C000070BD000010010020FF7F0000DA6E0000C0
:100C100010B51C6851436218D113CC03121B1A6023
:100C2000401810BD904201DD104670478842FCDA42
:100C3000084670470449884202DCC943884201DA09
:100C40000846704700B27047FF7F00000A4B10B59E
:100C5000984200D91846994200D919469A4200D9BB
:100C60001A46064B54421C829A824A421A81998142
:100C700041421980988010BDB20600000007014073
:100C800070B5002301252A460C689A40144094420E
:100C90002AD10C79002C04D0012C11D0022C04D0C4
:100CA00006E00468164626430660446894434460A0
:100CB0004C79012C0BD0022C10D0002C0BD00DE065
:100CC000046894430460466814463443EFE70669B9
:100CD0001446344301E004699443046184698E68D6
:100CE000012E05D0944384615B1C102BCBD370BDC7
:100CF0001443F8E7F0B5324F1601150214030B0048
:100D000002F0E8FA10090D13181E22282D33373D82
:100D100042484C52571D016A394089180EE0016A59
:100D2000274AE13A1140711808E0016A254A11404A
:100D3000691803E0016A0905090D61180162F0BD37
:100D4000416A394089180EE0416A1D4AE13A114072
:100D5000711808E0416A1B4A1140691803E0416AB2
:100D60000905090D61184162F0BD816A3940891891
:100D70000EE0816A124AE13A1140711808E0816A76
:100D8000104A1140691803E0816A0905090D6118CC
:100D90008162F0BDC16A394089180EE0C16A084A13
:100DA000E13A1140711808E0C16A064A1140691819
:100DB00003E0C16A0905090D6118C162F0BD0000B8
:100DC000F0FF0000FFF0000000210160017141719F
:100DD0008160704701239B07996A02468906890E44
:100DE0002032202903D3914201DC20200EE03F294C
:100DF00001D8914203DC1F2904D8814202DB081A82
:100E0000C0B203E0081A0007000F30309862704744
:100E1000002800DA40427047FEB5174601AB6A462B
:100E200000F064F800990198FFF798FE054600214C
:100E300000F05CFC06460121284600F057FC174CE8
:100E4000009961640199A164A584BD1B3F1AA8B2F1
:100E500001F06EFB029069460820085E216D401883
:100E6000206569460A20085E616D40186065B8B269
:100E700001F05EFB029069460820085EA16D4018F3
:100E8000A06569460A20085EE16D4018E065206EA5
:100E9000401C2066E6846585FEBD000080000020C1
:100EA00070B50D46FFF7B4FF04462846FFF7B0FFC4
:100EB000844201DB214601E00146204642008018C1
:100EC000C010401870BD000010B5002809DD8A036D
:100ED00001461046FFF72AF9002802DD0249884240
:100EE00000DD002010BD0000FFFF0000FFB5104C2A
:100EF0001746626881B01E460021615E00F05CFC0E
:100F0000A26805460221615E029800F055FC014688
:100F1000681A62696D18E16800F04EFC3860A269D9
:100F20002169284600F048FC306005B0F0BD0000A3
:100F30007401002002480078002800D0012070478A
:100F400094010020024B9885D9851A8670470000CD
:100F5000800000200022134601E08354521C8A4284
:100F6000FBD37047084800210180418041608160C7
:100F7000C160016141618161818304228277C1770F
:100F800020300170704700007401002070B51C49CA
:100F900050C9301BC20F10180CC94010991ACD0F40
:100FA00069184D1001214902884201DB8D4201DAA6
:100FB000032021E03119CC0F6118114C4910243C59
:100FC000E1609918CA0F5118491021610126760372
:100FD0003146FFF779FF606131462846FFF774FF1D
:100FE000A0616069002806D0A069002803D0042011
:100FF00000F062FD70BD042000F0B6F870BD000086
:101000009801002070B51C4950C9301BC20F101840
:101010000CC94010991ACD0F69184D1001214902D1
:10102000884201DB8D4201DA012021E03119CC0F29
:101030006118114C4910243C21809918CA0F51188D
:1010400049106180012676033146FFF73DFF60605D
:1010500031462846FFF738FFA0606068002806D0B8
:10106000A068002803D0032000F026FD70BD0220F8
:1010700000F07AF870BD00009801002010B5044619
:101080003421FFF767FF164820600320A08034203A
:10109000E080144801882181418861814168E160D4
:1010A00081682161C16861610169A1614169E16192
:1010B00081692162818BA184827F214620318A71DE
:1010C000C07FC87107482030007808720648408BFE
:1010D000A0853021204600F02DF8206310BD0000CF
:1010E0004C4C414874010020800000200F490289C7
:1010F0000A8042894A80C2684A6002698A604269FD
:10110000CA6082690A61C2694A61026A8A61828C24
:101110008A830246203293798B77D379CB77127A00
:1011200020310A700249808D488370477401002085
:101130008000002070B50022D2430024094D0DE04C
:10114000035D5A400023D60702D052086A4000E0EF
:1011500052085B1CDBB2082BF5D3641C8C42EFD326
:10116000D04370BD2083B8ED044900220A700449C1
:101170008870CA70082048707047000094010020F1
:1011800080000020F7B586B0002813D00168002940
:1011900010D0584A1278584E012A06D1574A127870
:1011A000002A02D0C978022906D00020B072F0725D
:1011B0003073F06609B0F0BD0146F27A4831074657
:1011C000054604466C37603580340391002A11D1FE
:1011D000384602F03BFA0020287103990A8812046D
:1011E000E2600988218120823073B087F066012097
:1011F000B072F072002040490290887A401CC0B260
:10120000887202286BD30020887201AB6A46089965
:101210000798FFF76BFE00990198FFF79FFC374E88
:101220000490203EF07F002801D0012100E0002141
:10123000049800F05BFAB18B081886B22E48007B48
:1012400000282D4844D0818F711A09B205918687F4
:101250000846FFF7DDFD01214903884219DC264AD3
:101260000598D16E0004401AC3171B0F18180011FF
:1012700040182349D066FEF759FF208201200290D2
:1012800030041D493861C96E796101213976E06009
:10129000297119480799018408994184009941648A
:1012A0000199816404998184C6840298002816D02B
:1012B0002879002800D17DE7E06800142081039997
:1012C00008800D490885C88C0A8D801A488571E709
:1012D0008687012101730021C1662182CEE728792A
:1012E0000028F4D07869E168C20F1018401008187F
:1012F000E060E2E73C000020800000209401002034
:10130000E44F0000F8B515460E4607001BD0002E2E
:1013100019D0002D17D0174C206E002813D0216D46
:10132000606DFFF7BDFD0090A16DE06DFFF7B8FDAA
:101330000099814209DB002038702046476D016E1C
:10134000246D009807E00020F8BD01213970214686
:10135000CF6DA46D096EFEF7E9FE0749884200DDF6
:101360000846288039462046FFF7F8FB30800120E8
:10137000F8BD000080000020FF7F0000F8B50400E9
:101380001DD012480078002819D100F027F8002657
:101390000125A670012813D0022810D10C4F0E2071
:1013A000385EFFF735FD0B49884200DD08462570A1
:1013B00002216170A571398A21816081A681F8BD01
:1013C000257065700448A080F8BD00003C00002036
:1013D00080000020FF7F00008813000000B50A484D
:1013E000007800280DD109484078030001F072FF11
:1013F00007090505050509070900012000BD0220B0
:1014000000BD002000BD00003C0000208000002046
:10141000F0B51E4C8DB00025A585E5852586A57205
:101420001B4FE57201263E7038783878012823D1A9
:1014300034216846FFF78EFD1F2000230D226946E8
:10144000800201F0FFFB684600F0CCFA002813D0C0
:101450006846FFF74BFEE57007206070A570658257
:10146000E5822564032020700A480068002801D026
:101470000221C1700DB0F0BD3D7006480068002823
:1014800000D0C570E67000F0EBFAF3E780000020B2
:101490003C000020B8010020F0B59BB0040052D001
:1014A0008A48007801284ED072B689482C26865F7B
:1014B0002E25455F3021415E009162B60684458449
:1014C000844902910A78844F002AB97948D00446A9
:1014D0000078012837D18148002505700A2932D1CA
:1014E000387900282FD10EA8FFF7C8FD342101A8B4
:1014F000FFF730FD72B67A4A1F2000218002FFF705
:10150000F3F9784800901F2000230EAA34218002AE
:1015100001F004FB06461F2000230D2201A98002D2
:1015200001F090FB62B6002E0FD001A800F05AFA2D
:1015300000280AD002202070644901220A7039680C
:10154000C870E572A5721BB0F0BD042020700820A1
:1015500060700620A0705D4805703868C570F2E7BD
:10156000C278002AEFD04278052A10D05848407837
:10157000062818D05848102180300190415E084656
:10158000FFF746FC0146387902281BD110E00A29F2
:10159000D9D139790029D6D18183416681664172DA
:1015A00006214170CFE72946304600F06FF9CAE7BF
:1015B0003868002806D0C078002803D1FF202D30DD
:1015C00081420EDA424C6078022805D06078032808
:1015D00002D06078042801D100F042FA0020608235
:1015E000B1E701981021415E002901DB012001E0F3
:1015F0000020C043364F7978012906D0052179565D
:1016000088420FD000F02CFA9DE7798AFF22F5324C
:10161000914203D2788A0019788294E77871022087
:1016200000F04AFA009880B200F090FA386C401C42
:1016300038642D48BA8A011B914201D9B88A001931
:10164000B8827878022819D0032823D0042886D1BC
:1016500029463046009AFFF7DFFB00F0B1F800287A
:10166000A0D0029900200870B883F8837866B86625
:101670003887788778720520787064E72946304685
:1016800000F050FA182000F061F800288AD0FFF727
:10169000B9FC58E70F4C203C62680021615E30467F
:1016A00000F08AF8A26806460221615E284600F032
:1016B00083F8321A3118104600F034FA302000F066
:1016C00045F800288CD0FFF761FC3CE73C00002087
:1016D0008000002094010020B80100205E0000205E
:1016E0001F360D9A0CA4FD9AFFFF00008004000C29
:1016F000002901D0404280B27047000070B5124D01
:1017000004462E46103628683168401AFFF780FBE1
:10171000A04216DC68687168401AFFF779FBA042A6
:101720000FDCA868B168401AFFF772FBA04208DC22
:10173000E868F168401AFFF76BFBA04201DC01206A
:1017400070BD002070BD00009801002070B5174CDE
:10175000E18A002928D0E18AA28E914224D0E18A30
:10176000A186A179002500290BD0FFF7C7FF00282B
:101770000BD0208B0E49884208D2208B401C20833E
:1017800004E000F0BFF925830EE0258300F0BAF9EC
:10179000A08A0849884207D3E08A0C2804D3208B0A
:1017A000062801D3012070BD002070BD80000020FC
:1017B000FFFF000088130000401A50438013704759
:1017C0003EB52D4CE08A00284FD0E08AA18E884299
:1017D0004BD0E08AA0866A4602A901A8FFF792FDD5
:1017E00000281ED000F05EF9684600886083207AE9
:1017F000224D002818D068460079E179884213D13B
:1018000068460089E18E401A00B2FFF701FBFF2114
:101810000131884208DC68460088A84204D30120D0
:1018200003E000F03FF920E00020002805D0208BE5
:101830001349884202D2208B401C20836A4608202C
:10184000105EE0861179E1711288AA4201D301226B
:1018500000E000222272A28A0A4B9A4205D3E28A51
:101860000C2A02D3228B062A01D200203EBD064A52
:10187000D177908301203EBD80000020606D000084
:10188000FFFF00008813000074010020F3B5524DE3
:101890000E2083B0285EFFF7BBFA504916228A5EFD
:1018A000101AFFF7B5FA4D4C0646803C2079012707
:1018B00002281ED100F070FE00281AD0A07902285C
:1018C00017D1204660304079002812D0322E10DC2B
:1018D0000E20285EFFF79CFA0E21615E081AFFF7C2
:1018E00097FA962805DC0C20205EFFF791FA9628DF
:1018F00004DD002068726F7305B0F0BD01AB6A466D
:1019000004990398FFF7F2FA00990198FFF726F976
:1019100006463348C07F002801D0012100E00021A5
:101920003046FFF7E3FE0446009868640198A86417
:10193000AE8426B2EE83687A002812D0288F2E87D4
:10194000201A00B2FFF764FA802808DC688F201A9A
:1019500000B2FFF75DFAFF210131884207DD6E8793
:10196000CAE72E876E876F7202206873C4E7032070
:101970006873288A001B06B2B0B200F0D9FD02904D
:101980006A460820105E696E40180A216866515E3A
:10199000AA6E8918A966AA8BFF23F5339A4202D250
:1019A000AA8B521CAA83A219EA846E85AA8B9A423A
:1019B000A2D3AA8B002A9FD0FFF7D0F808498883CA
:1019C00004208877084620300770072068700020C0
:1019D000E8702F7090E7000080000020380200209F
:1019E0007401002070B5044600681A4988422FD15E
:1019F000A08803282CD1E088342829D12046203023
:101A0000017A002924D08079042821D1A08D12499F
:101A100088421DD3E06800281ADD2169002917DDFE
:101A2000E269002A14DD236A002B11DD0B4DA84268
:101A30000EDCA9420CDCAA420ADCAB4208DC3021F5
:101A40002046FFF777FB216B814201D1012070BD59
:101A5000002070BD4C4C4148606D0000FFFF00004D
:101A600010B5FFF77FFA0E48002181704183418253
:101A700001844184416481648184C18401854185FC
:101A80008183C1834166816601874187417201700C
:101A900041718172C172012000F00EF810BD00008A
:101AA0008000002003480021016541658165C16512
:101AB00001667047800000200F4A1049931C0CC13A
:101AC0000CC10E4A00211032116051609160D1604A
:101AD0000B4AD164518611719186917111655165DE
:101AE0009165D1651166D186D171117211649182AF
:101AF000D182118350707047FFFFFF7F9801002053
:101B000080000020054810B5014624311EC934303C
:101B10001EC003490120887110BD0000740100201F
:101B200080000020084A1368834200DD106053687B
:101B3000834200DA50609068884200DD9160D0688E
:101B4000884200DAD16070479801002070B5144DCA
:101B50002979002911D0698E6886411A0CB2204675
:101B6000FFF756F901214903884209DC0520285670
:101B7000002806DD002C08DC0DE0688601202871B5
:101B800070BD002807DA002C05DA2046FFF740F97F
:101B9000E96C4018E864E86C800CE88270BD0000D5
:101BA0008000002007490648086301F03CF9BFF3B4
:101BB0004F8F06490448C860BFF34F8FFEE700000F
:101BC000ADDE0000800701400400FA0500ED00E0F2
:101BD00010B572B616481749886288130168C200AA
:101BE0001143016000F054F800F020F900F072F8A1
:101BF00000F00CF900F070F900F0E2F800F084F960
:101C000001F0BAF901F084F9642001F095FC01219A
:101C10000A2000F061FF0021092000F05DFF012093
:101C2000054940020860044940008039086010BD41
:101C3000837A00008000004080E100E00348024910
:101C40000160034981607047B4A60000000C0140A8
:101C50008D7900000168426809011143094A516009
:101C6000094B1360C1681161C1688068814201D964
:101C7000081A01E001200003D0601360034890605F
:101C800070470000000C0140B4A600008D790000F0
:101C900010B50121080201F05DF80B4801218162B5
:101CA0004161072101610A49084A8A62072212023A
:101CB00003069A6100228A62FF21C1624169C2144F
:101CC0001143416110BD000040040140837A0000CF
:101CD00080000040FEB56846FFF776F801256846AB
:101CE00005713F208002354E009069463046FEF770
:101CF000C7FF03220A213046FEF7FCFF03220B2117
:101D00003046FEF7F7FF03220C213046FEF7F2FFC4
:101D100003220D213046FEF7EDFF03220E2130464F
:101D2000FEF7E8FF03220F213046FEF7E3FF02240F
:101D3000684604718020009069463046FEF7A0FF97
:101D4000684604711D4F2020403700906946384690
:101D5000FEF796FF684604710820009069463846F1
:101D6000FEF78EFF68460471694638460094FEF718
:101D700087FF684604710420009069463846FEF7E4
:101D80007FFF684604714020009069463046FEF7A8
:101D900077FF68460471E001009069463046FEF71F
:101DA0006FFF684605711020009000216846417160
:101DB00069463846FEF764FFFEBD0000000801409A
:101DC00030B59DB06846FEF773FCFEF791FC012428
:101DD00000250095214660030295019400F0BAFFAA
:101DE0000021A00300F0B6FF0220119409950C9089
:101DF0001890069505200321159417900A951695BD
:101E00000B916846FEF7EAFB1DB030BD08B5684689
:101E1000FEF764FD0020694688706846FEF7F0FC16
:101E200001208002FEF72EFD08BD000000B59FB026
:101E3000684600F097F900206B461871012159712E
:101E40009971D971D882188358831D4A10AB9A862C
:101E50006B46187258721B4A1A805A801A4ADA83E3
:101E60001A4A1A843022DA841A855A859A85DA85C4
:101E70001A8608AB9875D87510AB0E90D875169069
:101E800018771974197158719971D87118AB187045
:101E9000D87310AB99721973987318AB187410AB90
:101EA000D8725973D8730B4809490163672141639C
:101EB00008486946803800F043F81FB000BD0000B4
:101EC000FF1F0000B206000053F9000042FB0000B3
:101ED000ADDE00008007014010B50121480200F08E
:101EE00039FF0120800701690909090101610549DC
:101EF000034A8A62026902610020886210BD000004
:101F0000837A00008000004010B505480349016055
:101F10000F218902416000F03FFF10BDB4A6000010
:101F2000000C014004484169C21411434161034956
:101F300003204860704700004004014080070140D2
:101F4000F8B50D4606460121102000F033FF30465B
:101F50008149803001636A79297992001143AA7A14
:101F6000EB7A12015B011A431143AA7992011143E2
:101F7000EA79D20111432A7B120211436A7B520291
:101F80001143F1672988316369887163E98B316294
:101F9000298C7162698CB162A98CF16229893167DF
:101FA00029462031CB7D8A7D5B001A438B7FEC8AEA
:101FB0009B01E40123431A430B7E1B021A434B7E11
:101FC0005B021A43CB7F9B031A432B8BDB031A4321
:101FD0000262CB7E8A7E5B002C461A434034237813
:101FE0006F8B9B01FF013B431A430B7F497F1B0211
:101FF0001A4349020A43617889030A43A98BC9033A
:102000000A434262A27B217B92001143A27AE37AC7
:1020100012015B011A431143627B52001143E27BC0
:10202000D2001143227CD2011143227E12021143BD
:10203000E27D52021143A27E92021143627ED202DD
:102040001143227F12031143E27E52031143816246
:10205000627DE17C92001143627CA37C12015B01F2
:102060001A431143227D52001143A27DD200114335
:10207000227CD2011143627F12021143A27F5202DD
:102080001143C1622279A178120111436279237A46
:1020900052019B011A431143E27812021143A279C3
:1020A00012031143E27952031143627A92031143FE
:1020B0007167E98C3165298D7165A18EB167E989F8
:1020C000B164298AF1641221695EB1631421695EE9
:1020D000F16360352A78E17F520011436A78AB786A
:1020E0009202DB021A43114301602A79E978520017
:1020F00011436A79AB799202DB021A431143816082
:10210000E97B2A7C0901520111436A7C9201114347
:10211000AA7CD201114301612A7AE9795200114364
:102120006A7AAB7A9200DB001A431143EA7A120111
:1021300011432A7B520111436A7B92011143AA7B0E
:10214000D20111438161054931644160C16041613F
:1021500003490163F8BD0000ADDE0000FFFF000091
:10216000FECA000010B57621FEF75EF810BD000033
:1021700010B504001BD02088002813D000F02CF9E3
:1021800000F022F900280DD1208800F059F82188AC
:10219000074800F02DFB2188054800F081F82088D1
:1021A000FFF77AF96088002801D000F095F910BD9A
:1021B000B8010020002800DA4042704770B572B6BE
:1021C00000241148104D44710A20603DA87120463A
:1021D00000F020FD62B60C48603800F055F8012090
:1021E00000F0F6FA00F0E4F80848047001214170AC
:1021F000074941802C716C710348203044830348A7
:102200002238848370BD0000180200205E00002088
:1022100088130000904201DD104670478842FCDAC6
:1022200008467047884203DA8018884205DC05E0DA
:10223000884203DD801A884200DA084600B27047FF
:102240001FB504001CD000206A4610700A2353708A
:102250009070908090711081508190810948007831
:10226000002802D0012807D103E01046FFF786F8C6
:1022700002E0104600F098F92146684600F0FEF9A9
:102280001FBD00003C000020002807D00021803046
:102290004182818272B6C182018362B670470000BA
:1022A000F3B583B0050045D02868002842D00499D2
:1022B00000293FD00A262C46865F80341427A8794F
:1022C000E75F01280ED11C48C189002900D0C689CA
:1022D000284600F0ABFB0246414200903846FFF72B
:1022E00099FF07B2049930464843002803DC1226C0
:1022F000A65F384612E0114A0121FFF78BFF0190DB
:1023000012211620615E205E019AFFF78BFF0646C0
:102310001820205E3946019AFFF784FFA979012928
:1023200004D1009A5142FFF775FF00B272B6E682FF
:10233000208362B605B0F0BD3C000020FF7F0000A6
:1023400010B50146014800F0E1FF10BDB8010020C2
:10235000002800DA4042704770B5134E30880028DC
:102360001FD0124D0020285EFFF7F2FF0446022026
:10237000285EFFF7EDFFA04204DD0220285EFFF794
:10238000E7FF04460420285EFFF7E2FFA04204DDD9
:102390000420285EFFF7DCFF04463088844201DD1C
:1023A000012070BD002070BD680000207800002072
:1023B00003490020487103490880488070470000A5
:1023C000B80100203800002002484079002800D0E1
:1023D00001207047B801002070B504001ED0FFF73F
:1023E000F3FF0026244D002825D000F0D5F8002862
:1023F0001FD1224840698006800F1AD1FFF7ACFF39
:102400000121484015D0FF20F530844207D2001B3F
:1024100081B26888814202D90019688070BD72B6A5
:102420000A2117488171014660314E71467106716B
:1024300062B66E8070BD6E80114800F0A3F800286F
:1024400017D000F0A9F8002813D0FFF785FF002867
:102450000FD00C4928880A1B824205D9001980B286
:102460002880032801D270BD2980012000F00CF8DB
:1024700070BD2E8070BD0000380000208007014034
:10248000B8010020FFFF000010B572B60A210B4A08
:1024900000249171114680314C834C828C82CC8215
:1024A0000C83507104201071204600F0B3FB62B61B
:1024B0000348047003480480448010BDB801002024
:1024C0005E0000203800002010B50248FEF770FBC7
:1024D00010BD0000B801002070B5124C0625655FE4
:1024E000281E01DC002205E00F4900F0DBFE490454
:1024F000C20B0A430020205E281A4003C0130021AB
:10250000615E4018FEF714FB2080A068A168101AD5
:102510004003C013401800D50020A060A068034904
:10252000C86370BD6C00002050270100B801002076
:1025300018B500226B461A805A80820B8004000E68
:1025400041000F4BFF24201A4000595E185E002AFC
:1025500009D0012A0AD0022A0DD040426A461080D2
:102560005180009818BD6A46118002E06A461080CA
:1025700048425080F5E749426A4611804042F8E7F8
:10258000EA390000002804D080790A2801D001200F
:1025900070470020704700000248806A4006C00F64
:1025A000704700008007014070B5040022D0124837
:1025B000007801281ED1104D22352878002800D03F
:1025C00001202070012060700020A070FEF7B2FC96
:1025D000002801D00220A0700220285EFFF7EAFD4B
:1025E000064A0021FFF716FE01216956491C00D159
:1025F0004042A08070BD00003C000020FF7F000032
:1026000070B51C4C217900291BD0204600251A4E9C
:102610008030012916D0022920D0032911D1C18A86
:1026200000290ED1008B00280BD172B60A20A071B0
:10263000104860304571002000F0ECFA62B6257158
:10264000B58370BD4583002211460A4800F08EF81C
:10265000012000F0BDF8B583257170BD45830022CF
:102660001146044800F082F8012000F0B1F8032080
:10267000207170BDB80100203C000020F3B581B08E
:1026800004001FD0029800281CD0FFF79DFE0028F0
:1026900018D12078002813D03248FFF773FF314952
:1026A00000280AD088796278904204D10868A2781C
:1026B000C078904201D0012000E00020002802D024
:1026C000FFF79EFFFEBD27480079264D2F462E4678
:1026D000603740368035002803D022480079012831
:1026E00022D1204A012010711F4B988B59888842B3
:1026F00003D2029940189883FEBD1168A078C87073
:10270000A0797871A079002801D020893081A08833
:10271000688372B6617813488171012000F07AFAFB
:1027200062B602200F4908710E480179032901D1D0
:102730000221017100790228DED1A0797871A07997
:10274000002801D020893081A08868836078022821
:10275000D2D10C220A21A25E615E024800F006F886
:10276000FEBD0000B80100203C000020F7B50F4678
:10277000040029D02068002826D02A21415E08467E
:10278000FFF718FD054621682620085EFFF712FDB9
:10279000A84205DD21682620085EFFF70BFD0546EF
:1027A0000A4A00212846FFF735FD054602466942E0
:1027B0000E463846FFF72EFD803460822A463146A9
:1027C0000298FFF727FDA082FEBD0000FF7F0000FA
:1027D000064900228A62CA834A700A834A83002813
:1027E00002D08A820A84CA82704700003C0000201E
:1027F000F0B587B00F46040046D02068002843D0CB
:10280000002F41D0207902283BD1A079012838D16E
:10281000FFF7C2FE002834D0204680301A250690EB
:10282000455F2846FFF7C6FC7D4E00213246FFF784
:10283000F1FC05903946284600F024F903900699EA
:102840001020085E3246F143FFF7E4FC754904901E
:10285000C882204600F0EAF802900598002815D0BA
:102860000298002812D0860202464B200021000167
:10287000FFF7D0FC002D0EDD800240420096019053
:102880000DE00120FFF7A4FF07B0F0BD0120FFF726
:102890009FFF0022BEE071428002019100906148DA
:1028A000068A0599B14200DA0E46322E00DA322647
:1028B0005C484078002867D15A48818900291DD09A
:1028C00000218089029AFFF7A5FC002D00DA404222
:1028D00002B25448428300212046FFF747FF64209C
:1028E000005D002820D00498FFF764FCB0421BDB99
:1028F000002D09DD049800280BDC15E00021C183C0
:102900008162012141703FE0002D0DDA049800281A
:102910000ADA4449444BC88BDA1B824202D9C019F7
:10292000C88304E0CB8302E03E480021C1833D48D8
:10293000C18B428A9142A7D3049A039903468E1A07
:102940000620374A0021185EFFF764FC7043002D13
:1029500002DD002E04DC0BE0002D09DA002E07DA80
:10296000069918228A5E9102091A2E48816202E0B5
:102970002C49002088622B4D009A0199A86AFFF724
:1029800049FCA8620120687004990398244A451AFA
:10299000D1432846FFF73EFC224E30830620204AD2
:1029A0000021305EFFF736FC68430290142F00D9F7
:1029B000142708201A4A0021305EFFF72BFC01463D
:1029C000284600F06FFCFB173A46FDF7E9FB7D2235
:1029D000D2000023FDF7BEFBB16A009A08180199E6
:1029E000FFF718FC0299009A0918914201DD002DA9
:1029F00005DC019A914201DA002D00DBB0620298F9
:102A0000B16A009A40180199FFF704FC80127083A4
:102A10001A22B25E00212046FFF7A8FE34E700002C
:102A2000FF7F00003C000020FFFF000070B50400A5
:102A3000124845891CD02068002819D02A21415EFF
:102A40000846FFF7B7FBA84205DA21682A20085E8E
:102A5000FFF7B0FB054621682620085EFFF7AAFBBA
:102A6000A84205DA21682620085EFFF7A3FB054689
:102A7000034A00212846FFF7CDFB70BD3C00002033
:102A8000FF7F000070B5124C0546A08800280ED0CC
:102A9000A0884843218C40187D21C900FDF730FBF8
:102AA00021840C490246884206DD0A4606E0A582DA
:102AB00000202084284670BD002A05DD1420294608
:102AC000205EFFF7AFFBA0821420205E70BD0000E7
:102AD0003C000020FF7F00008307FF22DB0E9A40AE
:102AE0008907090E994000280BDA0007000F083803
:102AF000830808489B001818C36993430B43C361BC
:102B00007047830804489B001818036893430B43DD
:102B10000360704700ED00E000E400E0FEB5012432
:102B20006D46089B2C72344C324DA562334C012605
:102B30003604A34250D1304C314D40346561314DA3
:102B4000314C6B4063401C68304D2C401C60706001
:102B50001C68F5022C431C60C91C8F08BF0013467B
:102B60000097019015E00199890889007160197832
:102B70005C78240209199C78DD7824042D066419F8
:102B80000919B1600099091F00910199091D1B1DC8
:102B9000019100990029E6D10097019019E0019870
:102BA000800880007060107853781B02C0189378FA
:102BB000D4781B0424061B19C018F368834201D083
:102BC000684601720098001F00900198001D121DB8
:102BD000019000980028E2D1074900204031486167
:102BE00031680B4A11403160034988626846007AB7
:102BF000FEBD0000837A0000800000400CA4FD9A16
:102C0000358F00000F045C6A03A0A0F0FF7FFF7FF8
:102C1000FFF7FFF70849074A0A630128886A05D0C9
:102C2000064A1040886206480863704740221043F5
:102C3000F8E70000ADDE000080070140BFFF0000A4
:102C4000FECA000070B50125ED026C01AB4202D155
:102C500023682B4303E0002B02D12368AB4323609E
:102C600025680123DB051D4325606060002003E02B
:102C7000E56886008D51401C9042F9D32068984346
:102C8000206070BD014672B6FF209130814201D2B2
:102C9000012000E00020FF23E033994201D9012305
:102CA00000E000231843002801D0002070470120D5
:102CB000000400680123DB0218435B0118605920FF
:102CC0000006586018464160C268952000065860AA
:102CD000184600685B1198435B0118601046E5E7F1
:102CE00010B513494888401C48801248007868286D
:102CF0001CD0114C5520E073207400206074A07427
:102D0000E07420756075E0752076607620460122BB
:102D100006210F3000F018F9092060700120A07022
:102D200003202070E17B054800F026FA10BD00006A
:102D3000300000201E000020580100200009014042
:102D400003688B4201DA016070479342FCDD026048
:102D50007047000010B50F4C0D4AA26223151A05EA
:102D600001290BD0410503D511691943116118439D
:102D70001169814311610020A06210BD410503D596
:102D8000116999431161984311690143F2E7000009
:102D9000837A0000800000401FB5002000903F2093
:102DA0000003039001200190000302906846FEF7A3
:102DB00051FF1FBD074A064B93620029D16901D01C
:102DC000014300E08143D161002090627047000020
:102DD000837A00008000004070B50546FF20D530A2
:102DE000FFF750FF000C032819D3FF20993001246E
:102DF000A407061D002D09D0FFF744FF80B26062D2
:102E00003046FFF73FFF80B2A06270BDFFF73AFF88
:102E1000000C60623046FFF735FF000CF4E702203B
:102E2000FDF7D8FF70BD10B50220FFF72DFB10BDD8
:102E300010B5FDF75DFC10BD7CB500200090019041
:102E400072B62A4A1188108062B629487D25ED00A5
:102E500031E00288491E521C92B289B202800E2AC9
:102E600029D30E3A02806B461A88521C1A80428877
:102E7000521C94B244808288521C92B28280C388D1
:102E80005B1C9BB2C3800A2C05D30A3C44806E466F
:102E90007488641C7480642A05D3643A82806C460A
:102EA000A288521CA280AB4205D35A1BC2806B463B
:102EB000DA88521CDA800029CBD100F0B5F96846D7
:102EC000008800280BD168464088002807D1684652
:102ED0008088002803D16846C088002805D068464D
:102EE000FFF746F9684600F08FF97CBD220000200C
:102EF000000000200448C188044A914202D2C188DF
:102F0000491CC180704700001C000020FFFF00002A
:102F100010B50B4909488862C8050169821411433C
:102F20000161FF20C930FFF7ADFE064C2080FF2075
:102F3000CD30FFF7A7FE608010BD0000837A00004F
:102F4000800000405201002010B50023801C03E0E7
:102F50000478E318DBB2401C0C46491EC9B2002CB1
:102F6000F6D1002A01D0037004E00078984201D025
:102F7000002010BD012010BD30B587B06846FDF7B8
:102F800023FF00246A4614711020184D042200907B
:102F900011462846FDF7AEFE69462846FDF770FE4D
:102FA00001216A4611712021009104220521284641
:102FB000FDF7A0FE69462846FDF762FE03A800F073
:102FC000DDF84B20C0010390049403206A4610767C
:102FD00003A9074800F07CF802210820FFF77CFDD8
:102FE0000449A815086007B030BD00000008014082
:102FF0000009014000E100E0F8B52F4D286A0127E3
:10300000C00700242D4E002812D028462F623178A8
:1030100003290BD1B27871788A4207D231460F3139
:10302000515C521CB27000F0A7F801E03470B4702B
:10303000286A80073AD502212846296200F09AF8CA
:103040001F49C0B208701F490A68521C0A603178D3
:103050001D4A1E4B002902D0012909D026E0F47038
:10306000AA2803D01068401C1060F8BD377008E033
:10307000F178012905D1AA2803D0F47034701C70AE
:10308000F0E71C70F1780B290BD20C4A121D885402
:10309000F078401CC0B2F070092807D102203070CF
:1030A00004E0F47034701068401C1060286A400717
:1030B000DBD504202862F8BD00090140580100203A
:1030C00020000020240000202C0000201D000020F3
:1030D000FEB50C46064601210420FFF76BFE0025D5
:1030E0002B46214829462268FDF734F801220023A7
:1030F00000910190FDF72EF81C4F06E0AA1C00235A
:103100006D1C00990198FDF725F8B842F6D81849CA
:103110008D61401EC1B2B1600004000E7060E079A4
:10312000012802D002281CD00020002163792279D6
:103130005B001A43A379C9009B000B431A430001AB
:103140000243207A400102433260E17BA07B4900C8
:103150000843706260893061607BB061207BF06100
:10316000FEBD01200146E1E7006CDC02FFFF00002C
:1031700080000040C0687047C16070474B21C901A2
:1031800001600021017141718171C171017241734E
:10319000418101738173C17370470000034908784E
:1031A0000A2801D2401C087070470000300000203F
:1031B00010B511480078012816D1104C217810481C
:1031C0000278914210D021780170FFF7FDF80028B5
:1031D0000AD1207801220B49012806D0022806D006
:1031E000032801D10020087010BD4A7002E00020C1
:1031F000C04348700A7010BD3C0000201E00002033
:103200001F0000205E00002010B504000BD02088B5
:10321000002803D0FDF762FC00F00AF8A08800281F
:1032200001D0FFF7BBFF10BD10B5FDF769F910BD68
:103230000E490F480A78012A0ED1CA78002A0BD00D
:103240000278032A02D20278521C02700078032806
:1032500004D30220087001E00021017005490878BC
:10326000642801D2401C08707047000058010020FB
:103270001D0000201C000020084900200870C870B4
:103280008870487006494870087003228A70CA70B6
:103290008860C86008610871487170475801002053
:1032A0001C000020F8B504148BB2264682B25E439F
:1032B0000D14104637145843360480190021794103
:1032C00016466E43371436048019794126466E43FC
:1032D0008919F8BD30B47446641E2578641CAB426D
:1032E00000D21D46635D5B00E31830BC184702E066
:1032F00008C8121F08C1002AFAD170477047002081
:1033000001E001C1121F002AFBD17047F0B504464D
:1033100006468DB0006808340190B07925464035E6
:103320000A287DD060886F467880208838803020D9
:10333000205E9C210B90885F0A220690AA5E0221E3
:10334000795E4A430C23EB5E0020385E4343D2187B
:10335000D21304920C22AA5E4A430A21695E4143B9
:10336000501AC01302900498FDF764FCE0800298A4
:10337000FDF760FCA080B07909287DD01421695E3A
:103380000498091A1622AA5E02982162161A666229
:10339000019A0C20105E0623D35E0A464243704316
:1033A000019305920390206923461833019AFDF793
:1033B0002FFC0746606923461C333146019AFDF70E
:1033C00027FC5A4A019051423846FDF72BFC06462D
:1033D000B84201D00020A061544A019851420C909B
:1033E000FDF720FC07460C98874201D00020E061E1
:1033F00005984E4A30185142FDF714FC019003988D
:103400004A4A38185142FDF70DFC03900198FDF728
:103410009BFB05900398FDF797FB0599814200E01F
:1034200070E001DA014605981B22504380114118D3
:103430000698814213DD002911DDC003FCF776FEFA
:10344000019946434143C91301910399F61341433E
:10345000C9134743FF1300200391A061E061266177
:1034600067610198FDF7E6FBA0810398FDF7E2FB99
:10347000E081A089E88000E053E0E0892881049899
:10348000FDF762FB06460298FDF75EFBB04203DDE6
:103490000298FDF759FB06463046FDF7CBFB288224
:1034A0006B460221595E00229A5E0198039B4843B5
:1034B0005343C01A019BC0135A43039B59435118ED
:1034C000CE13FDF7B7FB68803046FDF7B3FBA8804D
:1034D0000AAB09AA08A907A86F460FC70421695EAD
:1034E0000220285E124B0B9AFDF744FA07982085BC
:1034F00008996185099AA2850A9BE385FDF7A6FBD9
:103500000DB0F0BD002020616061A061E061A0818C
:10351000E081206260626880A88006480246114609
:10352000ECE7002020626062EAE70000FF7F000015
:10353000B206000059030000002102E000BF491C50
:1035400089B28142FAD37047F8B5044608688569A4
:10355000002D04DC2148002141808180F8BD2048F5
:10356000854200DD05462068626829464043524393
:1035700069438018081AC217D20C1018490B40135F
:103580000029EBDD4003FCF7D1FD0121490300F0E8
:10359000F6F907460002C117C90C0818461320683F
:1035A00001467043C217D20C101842136068704372
:1035B000C317DB0C1818401300908818294600F038
:1035C000DEF92060616800980818294600F0D7F9F4
:1035D000024960604F808E80F8BD0000F00000203E
:1035E000FF7F0000F8B50546087E16460C46002809
:1035F0001FD0626920698018010C691A09B24B0357
:10360000C018C901206150180D49606100F0B7F978
:10361000606127690B49380C2D1A6069FCF786FD3B
:1036200039148036318130820748C5806169C160B4
:10363000F8BD280420610020606101202076E8E7C1
:1036400080746118E44F0000F00000200021016048
:1036500041608160C1600161416101760248418041
:103660008180C180C1607047F0000020FFB583B049
:1036700010980E9F05680F9CAE69002E37DD002F55
:1036800035D01E48864200DD06462869504300F0CA
:1036900069F9019028690699484300F063F90090A0
:1036A000A2680C986969801A4143039A0198101A1C
:1036B0007843401A00F056F90190E2680D98696964
:1036C000801A4143049A0098101A7843401A00F077
:1036D00049F90546216801980818314600F04FF96C
:1036E000206060683146401900F049F960600C982C
:1036F000A0600D98E06007B0F0BD0000FF7F000003
:1037000010B50C0004D001684068FDF727FA20804E
:1037100010BD000070B50E464036104D33880024B1
:103720002C616C61AC61EC6102462C706C706C3089
:10373000FFF78CFF0A20305E50670C20305E9067E8
:10374000642084541046190480304032C1601385CF
:10375000038104822B816C8170BD0000F000002089
:10376000F0B589B0040011D0206800280ED026469C
:1037700008362046FEF706FF25466035002803D0B0
:103780002068C078002803D00020A87109B0F0BDDF
:10379000A879002805D131462046FFF7BBFF01205C
:1037A000A871002006903746584840370221795EBC
:1037B0000269891801618C460421795E4269891881
:1037C00041610A22BA5E8369D21882610C22BA5E14
:1037D000C369D218C2610278521CD2B2027020466C
:1037E0006C300590042A41D36046C017820F6046B2
:1037F0001018CA17920F5118891080100091FDF708
:1038000097F9716BFDF784F907900098FDF790F92F
:10381000716BFDF77DF901460798F163B0633B4892
:10382000FF2680691D36C217920F1018801084463B
:103830003648C069C217920F10180C22BA5E831066
:10384000059801920390029604940A20385E009035
:1038500062460798FFF70AFF2C490020086148617B
:103860008861C86108700120487026E0274E707892
:10387000012802D0022806D01FE021460598FFF754
:1038800063FE022018E0214668310598FFF738FFF3
:10389000264640362820305E22460599FFF7A2FED4
:1038A000012006902820305E184E30810021795E7C
:1038B000FDF73AF970810020707005988034027E1F
:1038C0000699002A02D000291AD102E000202871AE
:1038D0000CE02979002913D04069E168C217920FE2
:1038E000101880100818E060001420816879002802
:1038F00000D04BE728790028FBD02089388045E7A5
:103900000069E06001202871E068EDE7F000002028
:10391000FEF75EF900F008F8FFF7AEFCFEF74EFC8C
:10392000FFF78AFAFCE7000070B5FEF7CDFD0A4DFF
:1039300000242846FFF700FE641CE4B20A2CF8D3EA
:10394000FCF70AFF0548FFF781FEFDF761FD04491A
:103950003020486162B670BD60EA00002402002099
:103960008007014010B5002802DBFF30F53001E090
:10397000FF38F5387D21C900FCF7D8FB10BD88421F
:1039800002DC4942884200DA08467047002800DA23
:103990004042704770B50D460646FFF7F7FF0446F4
:1039A0002846FFF7F3FF844201D9304670BD284610
:1039B00070BD002803D00368934201DD02607047A8
:1039C0008B42FCDA0160704700B500280CD0012260
:1039D000D207914201D14A1E03E0002900DA494290
:1039E0000A465142FFF7E5FF00BD0000C900920101
:1039F0005B022403ED03B6047F0548061107D907CF
:103A0000A2086B09330AFB0AC40B8C0C540D1C0E64
:103A1000E40EAB0F73103A110112C8128F13551434
:103A20001C15E215A8166E173318F918BE19831A5B
:103A3000471B0C1CD01C931D571E1A1FDD1F9F20F7
:103A400062212422E522A72367242825E825A82629
:103A500068272728E528A429622A1F2BDC2B992C0C
:103A6000552D112ECC2E872F4230FC30B5316E32C1
:103A70002733DF3397344E350436BA36703725385E
:103A8000D9388D39403AF33AA53B573C083DB83D0B
:103A9000683E173FC63F74402141CE417A422643DB
:103AA000D1437B442445CD4575461D47C4476A48EC
:103AB0000F49B449584AFB4A9E4B404CE14C814D5A
:103AC000214EC04E5E4FFB4F98503451CF5169523A
:103AD00003539B533354CA546055F6558A561E57A8
:103AE000B1574358D4586459F459825A105B9D5BBE
:103AF000295CB45C3E5DC85D505ED75E5E5FE45F8E
:103B00006860EC606F61F1617262F2627163EF6331
:103B10006C64E9646465DE655766D0664767BD67B7
:103B20003268A7681A698C69FD696E6ADD6A4B6B39
:103B3000B86B246C8F6CF96C626DCA6D316E976EC8
:103B4000FB6E5F6FC26F23708370E37041719E7173
:103B5000FA715572AF7208735F73B6730B74607449
:103B6000B37405755675A675F47542768E76D9765A
:103B700023776C77B477FB7740788578C8780A79B3
:103B80004A798A79C979067A427A7D7AB77AEF7A60
:103B9000277B5D7B927BC67BF97B2A7C5A7C897C68
:103BA000B77CE47C0F7D3A7D637D8A7DB17DD67DD7
:103BB000FB7D1E7E3F7E607E7F7E9D7EBA7ED67EB2
:103BC000F07E0A7F227F387F4E7F627F757F877FFE
:103BD000987FA77FB57FC27FCE7FD97FE27FEA7FC4
:103BE000F17FF67FFA7FFE7FFF7F0020E412FB0962
:103BF00011058B024601A3005100290014000A00A0
:103C00000500030001000100283C00000000002026
:103C10005801000006030000683C00005801002025
:103C200038050000FE320000013D3D01000A003071
:103C3000759A010004DC0506116400F40114740196
:103C400088130325D0070387580248151BFF7F02FE
:103C5000000442FE33570133621173FF7F35307524
:083C600060F0031DA00F00003D
:04000005000000C136
:00000001FF
