:020000040000FA
:1000000068060020D9000000E7000000A11A0000E7
:1000100000000000000000000000000000000000E0
:10002000000000000000000000000000EB000000E5
:100030000000000000000000ED000000EF000000E4
:10004000F1000000F1000000211E0000F10000009E
:10005000F1000000F1000000F1000000F1000000DC
:10006000552A00006D050000C5020000F1000000E7
:10007000F1000000F100000000000000000000009E
:100080000000000000000000000000000000000070
:100090000000000000000000000000000000000060
:1000A0000000000000000000000000000000000050
:1000B0000000000000000000000000000000000040
:1000C0000448854600F0AEF800480047253300009C
:1000D000C046C04668060020064880F308880648E7
:1000E000804706480047FEE7FEE7FEE7FEE7FEE73B
:1000F000FEE70000680600208D280000C100000017
:1001000030B50B46014600202022012409E00D46AF
:10011000D5409D4205D31D469540491B2546954037
:1001200040191546521E002DF1DC30BD70B500247B
:100130002546002801DA01244042002901DA012580
:100140004942FFF7DDFFAC4200D04042002C00D016
:10015000494270BDF8B500242546002904DA0E4650
:10016000012400214042B141002B04DA1E46002345
:1001700052420125B34100F025F88C4617461E4631
:10018000AC4203D0002540428D41AC46002C02D049
:10019000002657429E4161463A46334601B0F0BDC3
:1001A000D2B201E00270401C491EFBD2704700220F
:1001B000F6E710B513460A4604461946FFF7F0FF66
:1001C000204610BDF0B51FB40646002082B005469B
:1001D0004024019100901BE0019922460F463046D1
:1001E00000F042F8049A059B801A994110D31046FA
:1001F0001946224600F028F8361A8F410197224608
:1002000001200021009F00F01FF838184D41009098
:100210002046641E0028DFDC019B009829463246F8
:1002200007B0F0BD064C0125064E05E0E36807CC9B
:100230002B430C3C98471034B442F7D3FFF744FFEC
:100240001C3600003C36000010B5202A04DB0146B5
:10025000203A9140002010BD914020239C1A034673
:10026000E3401943904010BD10B5202A04DB084636
:10027000203AD040002110BD0B46D340D04020246E
:10028000A21A91400843194610BD30B58C18027867
:10029000401C13071B0F01D10378401C120906D123
:1002A0000278401C03E005780D70401C491C5B1E61
:1002B000F9D101E00B70491C521EFBD1A142E6D3DB
:1002C000002030BD70B51C48C16A03221143C162D1
:1002D0004169C21411434161184D288B184CA0810B
:1002E00000F034F802F034FB288BE0810C21615ED1
:1002F00000B2401A01D5134940182082208A618A31
:10030000884201D9208A60820C4D60356869C00638
:1003100002D4686980060DD56869A080A86AE0806B
:100320000948406920816089401C608102F0A9FA77
:100330003020686170BD000040040140200701408A
:1003400008000020640D00000002014070B50F4D50
:10035000A88A0F4C6080288BA08002B20221615EC7
:100360000C4800F0F5FE00F019F8A889E0800A4872
:100370000078002809D1074808224030825E042115
:100380000220615E205E00F0C3FD70BD00040140EC
:100390004C0000209401002060000020FEB5384C85
:1003A00027466079083726680A2863D00220207122
:1003B000344A0820105E0421515E02911E21715EB4
:1003C000081A00F083FB05462020305E0299401A8F
:1003D00000F07CFB2C4A29184942158050800846C1
:1003E00000F08EFB908010883D46403568810020EB
:1003F000105E264948430221515E254A5143401868
:10040000C01300F07DFBA881204602F0B1FE2888D1
:1004100002F034F8029068460089388068464089C6
:1004200078806079092827D080340E20205E0090E3
:100430001020205E019026212A20715E305E02F09D
:10044000B3FF040000D54442002C07DD2146684676
:1004500002F0C4FF214601A802F0C0FF009800F09E
:100460004FFBA882019800F04BFBE882012001F0CD
:10047000C9FFFEBD00209AE70020A882F5E7000032
:10048000940100200004014058000020E7490000CA
:10049000CD930000F8B52A4E00243078294F254628
:1004A000022845D1F078092811D13079AA280ED137
:1004B0007079AA280BD1B079002808D10022062132
:1004C000301D02F06FFA002801D0F47901250021D7
:1004D00031701D48F17001701C4B002D25D01C4857
:1004E00004701C4A14701C4A1468641C14601B4A73
:1004F000397011701A4A1278012A0CD1007801243F
:10050000184D194A012807D0022807D003280AD01D
:100510001868401C1860F8BD2C7002E00020C04331
:1005200028701470F8BD1170F8BD1868401C186070
:1005300038780528F8D10A20387002F0FFF8F8BDA5
:10054000340100201C0000201D0000202C00002091
:100550001E00002020000020280000203000002085
:100560006000002039000020380000200CB50D4844
:1005700041680D4A11804168C90710D000216A46C0
:10058000117007E04169C90702D01178491C117048
:100590001179491C117111790529F3D311780321BF
:1005A00041600CBD000201400800002010B5044667
:1005B0000121082002F02CF96069616C40020143BE
:1005C000A06CA26900025200104301432948016057
:1005D000216862680901D2001143A2681143816059
:1005E000E169226AC90192011143626A5201114311
:1005F000A26A12011143E26CD2001143226D9200F3
:100600001143626D52001143A26D1143C160616BD1
:10061000A26BC90192011143E26B52011143226C9A
:1006200012011143626ED2001143A26E9200114377
:10063000E26E52001143226F114301610F4A0E49CD
:100640009162E16AE3680903DB021943E36D1B026F
:1006500019432369DB011943236B1B011943236EE3
:100660009B001943430559610021916203214160B8
:1006700010BD000000020140837A000080000040AD
:100680000021012206C001608160C16001614161F9
:100690008161C161016241628162C1620163416342
:1006A0008163C163016441648164C1640165416522
:1006B0008165C165016641664260816670470000E0
:1006C00010B50F4C0D48A062012002F0B3F8E00510
:1006D000016905225203114301610A4A104602F0E2
:1006E00031FC104602F02EFC2068074908432060C8
:1006F0000020A0610548E06110BD0000837A000081
:100700008000004088130000FF010000FF0300008C
:100710000348024901600349416070478850000066
:10072000400401403B060000FEB572B60026234897
:1007300000960099491C00918142FAD3204A002575
:100740002C4656615069D31418435061FFF7E0FFFF
:10075000684686801A4F403F18E000960098401C7B
:1007600000909842FAD3D06A03210843D0625069BE
:10077000184350610820385E45190420385E04197A
:100780001048906169468888401C88806846818846
:10079000012040028142E0D301F0F8F9FFF7B8FFF1
:1007A00062B66812084A611210805180074A1368C5
:1007B000D8831068018410684684FEBDFFFF0200E4
:1007C00040040140A55A000034000020940100209C
:1007D00070B504460121C80201F0EAFF012080073C
:1007E000416861701849174A8A62426923785B0040
:1007F0001A43426115488862FF216078C131144D67
:100800000E1D012813D002281AD1A07800280DD07F
:10081000012815D103202870084601F061FF00145B
:100820006880304601F05CFF001408E00220287068
:10083000084601F055FF6880304601F051FFA8805E
:1008400070BD0000837A000080000040FFFF0000C0
:100850002801002010B5144C00212278022A01D86A
:10086000552102E0032A00D135214843010BFF291D
:1008700000DBFF210223E35E042218464843A25E08
:100880004012801800B2002801DA002002E0FF28A0
:1008900000DDFF200124A407002B01D1002A01D094
:1008A000E06210BDE16210BD2801002010B50321F7
:1008B000FFF77DFC10BD0000F0B58446184D1748C9
:1008C000A862174B17484033174E991382420ED136
:1008D0001E61164C164F54407C402768154807404F
:1008E0002760604648602068CF03384320600D4889
:1008F00082420AD11E611048104C424062401048AA
:1009000010600868400040080860002018610A680C
:10091000520052080A60A862F0BD0000837A00000D
:10092000800000401F360D9ACA8F00000A060CB0E6
:100930001530002AFF7FFF7F1A3401B015020D2AFF
:10094000BADC5476F0B51C46564B85B04B43DB13EE
:100950005D4200290BDB002803DB834205DC012517
:1009600010E0854201DD03250CE002250AE00028A5
:1009700003DB854205DC062504E0834201DD042516
:1009800000E005250023009301930293454B4B4360
:10099000DE13454B871B5943CB136743F91304916F
:1009A00019466143C91303913118301A0E46664344
:1009B000F7136043C61348426043C1135842604373
:1009C000C0132B0002F088F9064204101B263142A6
:1009D0000499039863181B18DE0FF3185B10591A5B
:1009E000081A0093019108E0E0198019C10F081856
:1009F00040100190801B0090C01B029020E00398E3
:100A000023185B18DE0FF3185B10181A029001937D
:100A1000401A08E0A1190918CB0F59184910081AF3
:100A200001900291801B00900AE0049863181B1843
:100A3000DE0FF3185B10591A02930091081A019007
:100A40000120C003002A0ADA00220BE02118C9198C
:100A5000CB0F591849100091C91B0291EEE7824251
:100A600000DD024610184443241422460021684643
:100A700001F094FE2246002101A801F08FFE2246DB
:100A8000002102A801F08AFE0A98009901600B98E3
:100A9000019901600C98029901600D98056005B0FC
:100AA000F0BD0000E7490000CD93000010B50649F5
:100AB0004888401C80B24880642803D900204880C0
:100AC00001F03AF810BD000008000020034900B50D
:100AD0004843C01300F014F800BD00005A4D000058
:100AE000002901DC00207047024A5143C9134843E2
:100AF000C013704755550000401A00B270470000FF
:100B00000449884202DCC943884201DA084670473A
:100B100000B27047FF7F00000121C907884201D160
:100B2000401E70470028FCDA4042704770B50A4604
:100B3000024314D00023002903DA49424042012332
:100B4000DB030E4D00220C460028064609DD164147
:100B500031191441001B54002C5BE31808E00020FD
:100B600070BD1641A11B1441201854002C5B1B1BA7
:100B7000521CD2B20F2AE6D398B270BDFE350000E7
:100B800070B504460068002821D11148002120607A
:100B900021710A2161712423C35E0E4E0021324669
:100BA000184600F025F8054621681C20085E3246EC
:100BB000002100F01DF80146284648430649C013AD
:100BC0004843C1132587803461800120208070BD97
:100BD000EC000020FF7F0000DA6E000010B51C68FA
:100BE00051436218D113CC03121B1A60401810BD78
:100BF000904201DD104670478842FCDA0846704793
:100C00000449884202DCC943884201DA0846704739
:100C100000B27047FF7F00000A4B10B5984200D920
:100C20001846994200D919469A4200D91A46064BED
:100C300054421C829A824A421A8199814142198007
:100C4000988010BDB20600000007014070B5002377
:100C500001252A460C689A40144094422AD10C7906
:100C6000002C04D0012C11D0022C04D006E0046822
:100C70001646264306604468944344604C79012C30
:100C80000BD0022C10D0002C0BD00DE00468944344
:100C90000460466814463443EFE70669144634435B
:100CA00001E004699443046184698E68012E05D0D3
:100CB000944384615B1C102BCBD370BD1443F8E7C5
:100CC000F0B5324F1601150214030B0002F004F8C0
:100CD00010090D13181E22282D33373D42484C525F
:100CE000571D016A394089180EE0016A274AE13A26
:100CF0001140711808E0016A254A1140691803E0A3
:100D0000016A0905090D61180162F0BD416A3940A7
:100D100089180EE0416A1D4AE13A1140711808E055
:100D2000416A1B4A1140691803E0416A0905090D2F
:100D300061184162F0BD816A394089180EE0816A0C
:100D4000124AE13A1140711808E0816A104A1140D4
:100D5000691803E0816A0905090D61188162F0BD17
:100D6000C16A394089180EE0C16A084AE13A114067
:100D7000711808E0C16A064A1140691803E0C16AA7
:100D80000905090D6118C162F0BD0000F0FF000007
:100D9000FFF0000000210160017141718160704726
:100DA00001239B07996A02468906890E2032202971
:100DB00003D3914201DC20200EE03F2901D891426B
:100DC00003DC1F2904D8814202DB081AC0B203E009
:100DD000081A0007000F303098627047002800DAC8
:100DE00040427047FEB5174601AB6A4600F064F812
:100DF00000990198FFF79AFE0546002100F0F8FBE4
:100E000006460121284600F0F3FB174C00992164A7
:100E100001996164A584BD1B3F1AA8B201F02EFBA5
:100E2000029069460820085EE16C4018E06469465B
:100E30000A20085E216D40182065B8B201F01EFB43
:100E4000029069460820085E616D40186065694639
:100E50000A20085EA16D4018A065E06D401CE065A9
:100E6000E6846585FEBD00006000002070B50D467B
:100E7000FFF7B4FF04462846FFF7B0FF844201DBCA
:100E8000214601E00146204642008018C01040186B
:100E900070BD000010B5002809DD8A030146104628
:100EA000FFF744F9002802DD0249884200DD0020F6
:100EB00010BD0000FFFF0000FFB5104C1746626830
:100EC00081B01E460021615E00F0F8FBA268054675
:100ED0000221615E029800F0F1FB0146681A626926
:100EE0006D18E16800F0EAFB3860A26921692846C4
:100EF00000F0E4FB306005B0F0BD000050010020C0
:100F000002480078002800D00120704770010020BE
:100F1000024B9885D9851A86704700006000002032
:100F20000022134601E08354521C8A42FBD37047CF
:100F3000084800210180418041608160C1600161F9
:100F400041618161818304228277C1772030017001
:100F5000704700005001002070B51C4950C9301B7B
:100F6000C20F10180CC94010991ACD0F69184D10F6
:100F700001214902884201DB8D4201DA032021E090
:100F80003119CC0F6118114C4910243CE1609918BB
:100F9000CA0F511849102161012676033146FFF727
:100FA00079FF606131462846FFF774FFA0616069F0
:100FB000002806D0A069002803D0042000F0FAFC25
:100FC00070BD042000F0B6F870BD00007401002070
:100FD00070B51C4950C9301BC20F10180CC9401005
:100FE000991ACD0F69184D1001214902884201DB81
:100FF0008D4201DA012021E03119CC0F6118114C2A
:101000004910243C21809918CA0F51184910618059
:10101000012676033146FFF73DFF606031462846E2
:10102000FFF738FFA0606068002806D0A06800289D
:1010300003D0032000F0BEFC70BD022000F07AF85F
:1010400070BD00007401002010B504463421FFF784
:1010500067FF164820600320A0803420E0801448F9
:1010600001882181418861814168E1608168216155
:10107000C16861610169A1614169E16181692162C0
:10108000818BA184827F214620318A71C07FC87103
:1010900007482030007808720648408BA085302130
:1010A000204600F02DF8206310BD00004C4C414854
:1010B00050010020600000200F4902890A80428907
:1010C0004A80C2684A6002698A604269CA6082696D
:1010D0000A61C2694A61026A8A61828C8A83024615
:1010E000203293798B77D379CB77127A20310A70BB
:1010F0000249808D48837047500100206000002025
:1011000070B50022D2430024094D0DE0035D5A4022
:101110000023D60702D052086A4000E052085B1C48
:10112000DBB2082BF5D3641C8C42EFD3D04370BDE7
:101130002083B8ED044900220A700449C8700A717E
:1011400008208870704700007001002060000020B7
:10115000F7B586B0040010D0206800280DD04149B2
:101160000A78012A06D1404A1278002A02D0C078B3
:10117000022804D00020C872087309B0F0BD3948B5
:101180002146007BA8310291274626461831254684
:101190004837603680350391002810D1029801F05D
:1011A0005DFF0020307139880904E96403993A88A9
:1011B0004A8128812B480321C172012101732949E9
:1011C000C87A401CC0B2C872042834D30020C87248
:1011D00001AB6A4608990798FFF76EFE00990198DF
:1011E000FFF7A4FC049020482038C07F002801D0DD
:1011F000012100E00021049800F0FAF91A49203991
:10120000898B2246081800B20446029901F0F0FECC
:10121000029814490069E864012030710798088435
:101220000898488400980864019848640498888461
:10123000CC84E86C0BE0307900289ED00298E96CF1
:101240004069C217920F101880100818E8640399BB
:1012500000144881034938800885C88C0A8D801A9B
:1012600048858AE76000002070010020F8B5154627
:101270000E4607001BD0002E19D0002D17D0174C9A
:10128000E06D002813D0E16C206DFFF7EFFD0090BA
:10129000616DA06DFFF7EAFD0099814209DB002036
:1012A00038702046076DC16DE46C009807E000209F
:1012B000F8BD0121397021468F6D646DC96DFEF74F
:1012C00035FF0749884200DD084628803946204618
:1012D000FFF72CFC30800120F8BD000060000020EA
:1012E000FF7F000000B50948017800290CD1807803
:1012F000030001F0F1FC07090505050509070900D0
:10130000012000BD022000BD002000BD60000020C3
:10131000F0B51D4C8DB00025A585E5852586E572C7
:10132000257320780127194E012824D134216846DD
:10133000FFF7F6FD1F2000230D226946800201F011
:10134000AFF9684600F0CCFA002814D06846FFF7E1
:10135000B3FE25710720A070E5706582E582E56324
:101360000320607030680221002800D0C170084856
:1013700001700DB0F0BD25703068002800D0C57038
:10138000277100F0EBFAF4E76000002094010020E0
:101390003A000020F0B59BB0050055D08C4B187872
:1013A0008C4C012802D1207800284DD172B62C2710
:1013B000DF5F2E269E5F3020185E009062B61F848D
:1013C0005E8422788448002A4179007948D05A788E
:1013D0001C46012A38D1814A002515707E4E0A2903
:1013E00032D1002830D10EA8FFF72EFE342101A8FB
:1013F000FFF796FD72B67A4A1F2000218002FFF7A0
:101400005BFA784800901F2000230EAA3421800246
:1014100001F0B2F807461F2000230D2201A9800227
:1014200001F03EF962B6002F10D001A800F058FA82
:1014300000280BD002206070012121706A490870D9
:101440003168C8702573E5721BB0F0BD0420607070
:101450000820A0700620E07025703068C570F3E7A2
:101460001A79002AF0D09A78052A11D05848807845
:10147000062818D05848082180300190415E08465F
:10148000FFF7ACFC014654480279022A1AD10FE05A
:101490000A29D9D10028D7D198831866586698723E
:1014A00006209870D0E73146384600F071F9CBE756
:1014B0000068002806D0C078002803D1FF202D3016
:1014C00081420EDA424CA078022805D0A078032889
:1014D00002D0A078042801D100F040FA00206082F8
:1014E000B2E701980821415E002901DB012001E0FB
:1014F0000020C043364989780129354906D00622A3
:101500008A5690420FD000F029FA9DE74A8AFF23BD
:10151000F5339A4203D2488A4019488294E7887189
:10152000022000F047FA009880B200F08DFA2848B7
:10153000C16B491CC1632D49838A4A1B9A4201D958
:10154000818A4919818205468078022818D00328AB
:1015500022D00428A6D131463846009AFFF742FC33
:1015600000F0B0F800289DD000202070A883E88308
:101570002866686628876887A8720520A87063E7D0
:101580003146384600F04CFA182000F061F8002887
:1015900088D0FFF71DFD57E70E4C203C6268002104
:1015A000615E384600F08AF8A26805460221615E55
:1015B000304600F083F82A1A2918104600F030FA55
:1015C000302000F045F800288AD0FFF7C5FC3BE743
:1015D00060000020700100209401002038000020ED
:1015E0001F360D9A0CA4FD9A3A000020FFFF000060
:1015F0008004000C002901D0404280B270470000F6
:1016000070B5124D04462E46103628683168401ACF
:10161000FFF7E4FBA04216DC68687168401AFFF728
:10162000DDFBA0420FDCA868B168401AFFF7D6FBCB
:10163000A04208DCE868F168401AFFF7CFFBA0423F
:1016400001DC012070BD002070BD0000740100208D
:1016500070B5174CE18A002928D0E18AA28E914208
:1016600024D0E18AA186E179002500290BD0FFF77B
:10167000C7FF00280BD0208B0E49884208D2208B50
:10168000401C208304E000F0BBF925830EE0258395
:1016900000F0B6F9A08A0849884207D3E08A0C28EE
:1016A00004D3208B062801D3012070BD002070BD1B
:1016B00060000020FFFF000088130000401A504324
:1016C000801370473EB52D4CE08A00284FD0E08A49
:1016D000A18E88424BD0E08AA0866A4602A901A862
:1016E000FFF7C4FD00281ED000F05AF968460088B4
:1016F0006083607A224D002818D068460079217AEC
:10170000884213D168460089E18E401A00B2FFF783
:1017100065FBFF210131884208DC68460088A84249
:1017200004D3012003E000F03BF920E00020002872
:1017300005D0208B1349884202D2208B401C208385
:101740006A460820105EE086117921721288AA424A
:1017500001D3012200E000226272A28A0A4B9A425F
:1017600005D3E28A0C2A02D3228B062A01D200205A
:101770003EBD064AD177908301203EBD6000002027
:10178000606D0000FFFF0000881300005001002082
:10179000F3B5504D0E2083B00E46285EFFF71EFBBA
:1017A0004D490E228A5E101AFFF718FB4A4C01279A
:1017B000803C217902291AD16179022917D1214669
:1017C0006031097A002912D0322810DC0E20285E00
:1017D000FFF704FB0E21615E081AFFF7FFFA962857
:1017E00005DC0C20205EFFF7F9FA962804DD0020C6
:1017F000A8726F7305B0F0BD01AB6A46314603981D
:10180000FFF75AFB00990198FFF790F90646334815
:10181000C07F002801D0012100E000213046FFF701
:10182000E7FE04460098286401986864AE8426B2F6
:10183000EE83A87A002812D0288F2E87201A00B2B3
:10184000FFF7CCFA802808DC688F201A00B2FFF777
:10185000C5FAFF210131884207DD6E87CAE72E876E
:101860006E87AF7202206873C4E703206873288A0A
:10187000001B06B2B0B200F001FE02906A460820DA
:10188000105E296E40180A212866515E6A6E89181A
:101890006966AA8BFF23F5339A4202D2AA8B521CA7
:1018A000AA83A219EA846E85AA8B9A42A2D3AA8B34
:1018B000002A9FD0FFF73AF90849888304208877E7
:1018C0000846203007700720A870002028716F702C
:1018D00090E700006000002014020020500100206A
:1018E00070B5044600681A4988422FD1A0880328A1
:1018F0002CD1E088342829D120462030017A0029D3
:1019000024D08079042821D1A08D124988421DD38A
:10191000E06800281ADD2169002917DDE269002A44
:1019200014DD236A002B11DD0B4DA8420EDCA94209
:101930000CDCAA420ADCAB4208DC30212046FFF76F
:10194000DFFB216B814201D1012070BD002070BD01
:101950004C4C4148606D0000FFFF000010B5FFF7E0
:10196000E7FA0E480021C17041834182018441841D
:10197000016441648184C184018541858183C1837F
:101980000166416601874187817241708171C17230
:101990000173012000F00EF810BD0000600000206F
:1019A00003480021C164016541658165C1657047D7
:1019B000600000200F4A1049931C0CC10CC10E4A54
:1019C00000211032116051609160D1600B4A916426
:1019D000518651719186D171D164116551659165BE
:1019E000D165D18611725172D1639182D1821183F6
:1019F00090707047FFFFFF7F74010020600000209F
:101A0000054810B5014624311EC934301EC00349B3
:101A10000120C87110BD00005001002060000020AE
:101A2000084A1368834200DD10605368834200DA7D
:101A300050609068884200DD9160D068884200DA8A
:101A4000D16070477401002070B5144D6979002988
:101A500011D0698E6886411A0CB22046FFF7BEF994
:101A600001214903884209DC06202856002806DDAA
:101A7000002C08DC0DE068860120687170BD00282C
:101A800007DA002C05DA2046FFF7A8F9A96C401800
:101A9000A864A86C800CE88270BD00006000002083
:101AA00007490648086300F0ECFEBFF34F8F064974
:101AB0000448C860BFF34F8FFEE70000ADDE0000B2
:101AC000800701400400FA0500ED00E010B572B691
:101AD00016481749886288130168C20011430160E3
:101AE00000F054F800F020F900F072F800F00CF962
:101AF00000F070F900F0E2F800F084F900F06AFFFD
:101B000000F034FF642001F01DFA01210A2000F0EA
:101B100011FD0021092000F00DFD012005494002C2
:101B20000860044940008039086010BD837A0000D5
:101B30008000004080E100E0034802490160034961
:101B400081607047B4A60000000C01408D79000050
:101B50000168426809011143094A5160094B136049
:101B6000C1681161C1688068814201D9081A01E029
:101B700001200003D06013600348906070470000AC
:101B8000000C0140B4A600008D79000010B50121C1
:101B9000080200F00DFE0B4801218162416107211E
:101BA00001610A49084A8A620722120203069A6101
:101BB00000228A62FF21C1624169C214114341615E
:101BC00010BD000040040140837A00008000004006
:101BD000FEB56846FFF7DEF80125684605713F202F
:101BE0008002354E009069463046FFF72FF80322F9
:101BF0000A213046FFF764F803220B213046FFF735
:101C00005FF803220C213046FFF75AF803220D211A
:101C10003046FFF755F803220E213046FFF750F803
:101C200003220F213046FFF74BF802246846047167
:101C30008020009069463046FFF708F86846047136
:101C40001D4F20204037009069463846FEF7FEFFC2
:101C5000684604710820009069463846FEF7F6FF92
:101C600068460471694638460094FEF7EFFF6846FF
:101C700004710420009069463846FEF7E7FF684685
:101C800004714020009069463046FEF7DFFF684649
:101C90000471E001009069463046FEF7D7FF6846C0
:101CA0000571102000900021684641716946384650
:101CB000FEF7CCFFFEBD00000008014030B59DB02E
:101CC0006846FEF7DDFCFEF7FBFC012400250095CD
:101CD000214660030295019400F06AFD0021A003F3
:101CE00000F066FD0220119409950C90189006955D
:101CF00005200321159417900A9516950B916846B7
:101D0000FEF754FC1DB030BD08B56846FEF7CEFDA9
:101D10000020694688706846FEF75AFD012080025F
:101D2000FEF798FD08BD000000B59FB0684600F0C2
:101D300097F900206B461871012159719971D97179
:101D4000D882188358831D4A10AB9A866B46187246
:101D500058721B4A1A805A801A4ADA831A4A1A841D
:101D60003022DA841A855A859A85DA851A8608AB74
:101D70009875D87510AB0E90D875169018771974A1
:101D8000197158719971D87118AB1870D87310AB5C
:101D900099721973987318AB187410ABD872597381
:101DA000D8730B48094901636721416308486946B4
:101DB000803800F043F81FB000BD0000FF1F000096
:101DC000B206000053F9000042FB0000ADDE000047
:101DD0008007014010B50121480200F0E9FC012014
:101DE000800701690909090101610549034A8A62FD
:101DF000026902610020886210BD0000837A000041
:101E00008000004010B50548034901600F21890298
:101E1000416000F0EFFC10BDB4A60000000C0140D2
:101E200004484169C21411434161034903204860D9
:101E3000704700004004014080070140F8B50D469E
:101E400006460121102000F0E3FC30468149803035
:101E500001636A79297992001143AA7AEB7A120117
:101E60005B011A431143AA7992011143EA79D20125
:101E700011432A7B120211436A7B52021143F1671C
:101E80002988316369887163E98B3162298C7162B9
:101E9000698CB162A98CF1622989316729462031A8
:101EA000CB7D8A7D5B001A438B7FEC8A9B01E4012A
:101EB00023431A430B7E1B021A434B7E5B021A43D9
:101EC000CB7F9B031A432B8BDB031A430262CB7E2F
:101ED0008A7E5B002C461A43403423786F8B9B012B
:101EE000FF013B431A430B7F497F1B021A43490200
:101EF0000A43617889030A43A98BC9030A434262F2
:101F0000A27B217B92001143A27AE37A12015B014A
:101F10001A431143627B52001143E27BD20011430A
:101F2000227CD2011143227E12021143E27D520231
:101F30001143A27E92021143627ED2021143227F9C
:101F400012031143E27E520311438162627DE17C00
:101F500092001143627CA37C12015B011A4311437E
:101F6000227D52001143A27DD2001143227CD20176
:101F70001143627F12021143A27F52021143C162D8
:101F80002279A178120111436279237A52019B01CF
:101F90001A431143E27812021143A279120311434A
:101FA000E27952031143627A920311437167E98C1B
:101FB0003165298D7165A18EB167E989B164298A7E
:101FC000F1641221695EB1631421695EF1636035C9
:101FD0002A78E17F520011436A78AB789202DB02E3
:101FE0001A43114301602A79E978520011436A7952
:101FF000AB799202DB021A4311438160E97B2A7CB0
:102000000901520111436A7C92011143AA7CD20159
:10201000114301612A7AE979520011436A7AAB7A55
:102020009200DB001A431143EA7A120111432A7B22
:10203000520111436A7B92011143AA7BD2011143E1
:102040008161054931644160C160416103490163B7
:10205000F8BD0000ADDE0000FFFF0000FECA00007A
:1020600010B57621FEF7A3F810BD000010B50400EE
:102070000ED0208800280BD000F0D4F9208800F082
:102080008DF82188034800F08DF92088FFF782F948
:1020900010BD000094010020002800DA4042704783
:1020A00070B5134E308900281FD0124D0020285ED5
:1020B000FFF7F2FF04460220285EFFF7EDFFA04283
:1020C00004DD0220285EFFF7E7FF04460420285EB7
:1020D000FFF7E2FFA04204DD0420285EFFF7DCFFEB
:1020E00004463089844201DD012070BD002070BDAE
:1020F000380000205800002010B5044672B60A20AF
:1021000008494871002000F0B3FA62B6054800F0B3
:102110003DF9054900220A700C710420C8704A710B
:1021200010BD0000940100203800002010B572B6E8
:1021300000240C480B4904720A206039487120467B
:1021400000F096FA62B60748603800F01FF90648BA
:102150000470C470047184810449C48109880182B7
:10216000447110BDF401002038000020120000204E
:10217000904201DD104670478842FCDA08467047FD
:10218000884203DA8018884205DC05E0884203DDD6
:10219000801A884200DA084600B27047F1B582B072
:1021A000029800282ED07048007800280DD0002515
:1021B000FFF798F86D4C0646002D0AD0002E02D08D
:1021C0002079002803D0002006E00125F0E7012057
:1021D00002E020780028FAD10090607900270028DA
:1021E0001ED0634A1188208A814203D16149896ADD
:1021F000490608D41188814201D0022000E0032062
:10220000FFF77AFFFEBDFFF74BFF002808D0E189FA
:102210000298081880B2E081032802D30120EFE77A
:10222000E7810098002809D05048534C4179204656
:1022300040306034009000291BD058E00022114645
:102240004D4800F045F90320E0704B488030C189CB
:102250000029D7D1008A0028D4D172B60A21464875
:102260004171002000F004FA62B6E7706771A7813F
:10227000FEBD3E490120C87088894989884204D240
:10228000029A3A4980188881FEBD002D0FD03A4845
:10229000022E0068C77008D000202072002817D0D6
:1022A000364801880098018112E00120F5E72F48A7
:1022B00027728078022808D1FEF722FE002804D079
:1022C0002D4902200968C87002E02B480068C770D9
:1022D000274801882548018272B6022026494871A4
:1022E000012000F0C5F962B6012020494871002D97
:1022F00001D0022E09D000262772002D13D02049CC
:10230000885FFFF7C9FE044618E0012020721B48D1
:102310000188009801811B490020085EFFF7BCFE80
:10232000064600240AE0114D0620285EFFF7B4FEA1
:10233000044601202856401C00D16442124D30460C
:10234000EF432A463946FFF713FF06462A46394629
:102350002046FFF70DFF02B231B2074800F0B8F88F
:1023600002490220C870FEBD600000203800002035
:10237000120000208007014094010020700000201E
:10238000C80000206E000020FF7F0000002807D05A
:10239000002180304181818172B6C181018262B6A3
:1023A0007047000070B5002829D00268002A26D0A6
:1023B000002924D00A23D35E04464B438034002BEB
:1023C00004DC0A250C20655F205E14E00C4A012124
:1023D0001846FFF7CDFE06460A210E20615E205EFC
:1023E0003246FFF7CDFE05460C211020615E205ECF
:1023F0003246FFF7C5FE72B6E581208262B670BD37
:10240000FF7F000010B50146014800F081FC10BDBF
:102410009401002010B50248FEF7B2FB10BD000089
:102420009401002070B5124C0625655F281E01DC62
:10243000002205E00F4900F037FC4904C20B0A43B3
:102440000020205E281A4003C0130021615E40185E
:10245000FEF756FB2080A068A168101A4003C01345
:10246000401800D50020A060A0680349C86370BD73
:102470004C000020502701009401002018B50022D4
:102480006B461A805A80820B8004000E41000F4B6D
:10249000FF24201A4000595E185E002A09D0012A44
:1024A0000AD0022A0DD040426A461080518000981E
:1024B00018BD6A46118002E06A461080484250808A
:1024C000F5E749426A4611804042F8E7FE330000D2
:1024D000F7B50F46040029D02068002826D02A210D
:1024E000415E0846FFF7D8FD054621682620085EB4
:1024F000FFF7D2FDA84205DD21682620085EFFF720
:10250000CBFD05460A4A00212846FFF731FE054665
:10251000024669420E463846FFF72AFE8034608143
:102520002A4631460298FFF723FEA081FEBD000037
:10253000FF7F00008307FF22DB0E9A408907090E08
:10254000994000280BDA0007000F08388308084874
:102550009B001818C36993430B43C36170478308FA
:1025600004489B001818036893430B4303607047AB
:1025700000ED00E000E400E0FEB501246D46089B9C
:102580002C72344C324DA562334C01263604A342E2
:1025900050D1304C314D40346561314D314C6B4040
:1025A00063401C68304D2C401C6070601C68F50254
:1025B0002C431C60C91C8F08BF0013460097019074
:1025C00015E0019989088900716019785C78240206
:1025D00009199C78DD7824042D0664190919B16065
:1025E0000099091F00910199091D1B1D0191009976
:1025F0000029E6D10097019019E001988008800039
:102600007060107853781B02C0189378D4781B043C
:1026100024061B19C018F368834201D06846017272
:102620000098001F00900198001D121D0190009855
:102630000028E2D1074900204031486131680B4A47
:1026400011403160034988626846007AFEBD00008F
:10265000837A0000800000400CA4FD9A358F0000B2
:102660000F045C6A03A0A0F0FF7FFF7FFFF7FFF776
:102670000849074A0A630128886A05D0064A1040BB
:10268000886206480863704740221043F8E700005C
:10269000ADDE000080070140BFFF0000FECA000061
:1026A00070B50125ED026C01AB4202D123682B43CA
:1026B00003E0002B02D12368AB432360256801238C
:1026C000DB051D4325606060002003E0E5688600AF
:1026D0008D51401C9042F9D320689843206070BD12
:1026E000014672B6FF209130814201D2012000E004
:1026F0000020FF23E033994201D9012300E00023A9
:102700001843002801D00020704701200004006811
:102710000123DB0218435B01186059200006586052
:1027200018464160C2689520000658601846006847
:102730005B1198435B0118601046E5E710B513493B
:102740004888401C48801248007868281CD0114CEA
:102750005520E073207400206074A074E07420752C
:102760006075E075207660762046012206210F30E4
:1027700000F018F9092060700120A070032020707B
:10278000E17B054800F026FA10BD00003000002073
:102790001E000020340100200009014003688B4224
:1027A00001DA016070479342FCDD0260704700006F
:1027B00010B50F4C0D4AA26223151A0501290BD042
:1027C000410503D51169194311611843116981430A
:1027D00011610020A06210BD410503D51169994324
:1027E0001161984311690143F2E70000837A000008
:1027F000800000401FB5002000903F2000030390A0
:1028000001200190000302906846FFF7A1F91FBD67
:10281000074A064B93620029D16901D0014300E0C9
:102820008143D1610020906270470000837A0000EC
:102830008000004070B50546FF20D530FFF750FFFF
:10284000000C032819D3FF2099300124A407061D8A
:10285000002D09D0FFF744FF80B260623046FFF7D9
:102860003FFF80B2A06270BDFFF73AFF000C6062CC
:102870003046FFF735FF000CF4E70220FEF790FA30
:1028800070BD10B50020FFF737FC10BD10B5FDF787
:1028900017FF10BD7CB500200090019072B62A4A47
:1028A0001188108062B629487D25ED0031E002884C
:1028B000491E521C92B289B202800E2A29D30E3AC6
:1028C00002806B461A88521C1A804288521C94B2AD
:1028D00044808288521C92B28280C3885B1C9BB267
:1028E000C3800A2C05D30A3C44806E467488641C5D
:1028F0007480642A05D3643A82806C46A288521C94
:10290000A280AB4205D35A1BC2806B46DA88521CA8
:10291000DA800029CBD100F089F9684600880028C8
:102920000BD168464088002807D168468088002877
:1029300003D16846C088002805D06846FFF796FB9B
:10294000684600F063F97CBD2200002000000020F2
:102950000448C188044A914202D2C188491CC180FE
:10296000704700001C000020FFFF000010B50B495D
:1029700009488862C8050169821411430161FF207A
:10298000C930FFF7ADFE064C2080FF20CD30FFF7A9
:10299000A7FE608010BD0000837A00008000004028
:1029A0002E01002010B50023801C03E00478E318FA
:1029B000DBB2401C0C46491EC9B2002CF6D1002ADD
:1029C00001D0037004E00078984201D0002010BDCF
:1029D000012010BD30B587B06846FEF7DBF9002452
:1029E0006A4614711020184D0422009011462846A2
:1029F000FEF766F969462846FEF728F901216A467E
:102A0000117120210091042205212846FEF758F972
:102A100069462846FEF71AF903A800F0DDF84B20B6
:102A2000C0010390049403206A46107603A9074866
:102A300000F07CF802210820FFF77CFD0449A8156E
:102A4000086007B030BD00000008014000090140E7
:102A500000E100E0F8B52F4D286A0127C0070024E7
:102A60002D4E002812D028462F62317803290BD131
:102A7000B27871788A4207D231460F31515C521CCC
:102A8000B27000F0A7F801E03470B470286A8007D3
:102A90003AD502212846296200F09AF81F49C0B2AF
:102AA00008701F490A68521C0A6031781D4A1E4B83
:102AB000002902D0012909D026E0F470AA2803D009
:102AC0001068401C1060F8BD377008E0F1780129EB
:102AD00005D1AA2803D0F47034701C70F0E71C7084
:102AE000F1780B290BD20C4A121D8854F078401C47
:102AF000C0B2F070092807D10220307004E0F470F1
:102B000034701068401C1060286A4007DBD5042030
:102B10002862F8BD00090140340100201F00002098
:102B2000240000202C0000201D000020FEB50C46D3
:102B3000064601210420FFF76BFE00252B462148A5
:102B400029462268FDF706FB01220023009101902F
:102B5000FDF700FB1C4F06E0AA1C00236D1C00992A
:102B60000198FDF7F7FAB842F6D818498D61401E72
:102B7000C1B2B1600004000E7060E079012802D09B
:102B800002281CD000200021637922795B001A43BF
:102B9000A379C9009B000B431A4300010243207A2A
:102BA000400102433260E17BA07B49000843706230
:102BB00060893061607BB061207BF061FEBD0120E7
:102BC0000146E1E7006CDC02FFFF000080000040EE
:102BD000C0687047C16070474B21C9010160002186
:102BE000017141718171C171017241734181017340
:102BF0008173C17370470000034908780A2801D225
:102C0000401C0870704700003000002010B5040020
:102C10000BD02088002803D0FDF748FF00F00AF809
:102C2000A088002801D0FFF7E7FF10BD10B5FDF721
:102C300031FC10BD0E490F480A78012A0ED1CA781E
:102C4000002A0BD00278032A02D20278521C0270AA
:102C50000078032804D30220087001E000210170ED
:102C600005490878642801D2401C087070470000AC
:102C7000340100201D0000201C0000200849002015
:102C80000870C87088704870064948700870032240
:102C90008A708860C8600861C87008717047000059
:102CA000340100201C000020F8B504148BB2264625
:102CB00082B25E430D14104637145843360480190F
:102CC0000021794116466E43371436048019794144
:102CD00026466E438919F8BD30B47446641E2578C3
:102CE000641CAB4200D21D46635D5B00E31830BC40
:102CF000184702E008C8121F08C1002AFAD170471D
:102D00007047002001E001C1121F002AFBD170476B
:102D1000F0B5044606468DB000680834019070791D
:102D2000254640350A283ED060886F467880208846
:102D300038803020205E82210B90885F0A22069026
:102D4000AA5E0221795E4A430C23EB5E0020385EC6
:102D50004343D218D21304920C22AA5E4A430A219A
:102D6000695E4143501AC01302900498FDF748FF72
:102D7000E0800298FDF744FFA0807079092821D0F7
:102D80001421695E0498091A1622AA5E029821622B
:102D9000171A6762019A0C20105E9288002A16D0DA
:102DA0006C22B25E16E0002020616061A061E061EB
:102DB000A081E081206260626880A8805E4802464F
:102DC0001146B6E00020206260620DB0F0BD019BAC
:102DD00006229A5E01920A46424378430592039086
:102DE000206923461833019AFDF7F8FE064660690C
:102DF00023461C333946019AFDF7F0FE4F4A0190F5
:102E000051423046FDF7F4FE0746B04201D00020A3
:102E1000A0614A4A019851420C90FDF7E9FE06462E
:102E20000C98864201D00020E0610598434A38188A
:102E30005142FDF7DDFE01900398404A301851429F
:102E4000FDF7D6FE03900198FDF766FE0590039806
:102E5000FDF762FE0599814201DA014605981B22C1
:102E60005043801141180698814213DD002911DD7D
:102E7000C003FDF75BF9019947434143C913019131
:102E80000399FF134143C9134643F61300200391EE
:102E9000A061E061276166610198FDF7B1FEA08144
:102EA0000398FDF7ADFEE081A089E880E0892881E4
:102EB0000498FDF731FE06460298FDF72DFEB0425C
:102EC00003DD0298FDF728FE06463046FDF798FE22
:102ED00028826B460220185E019902464A4300216F
:102EE000595E039B4B43D21A019BD2135943039B58
:102EF00058430818C6131046FDF782FE6880304616
:102F0000FDF77EFEA8800AAB09AA08A907A86F46AC
:102F10000FC70421695E0220285E094B0B9AFDF75A
:102F200011FD0798208508996185099AA2850A9B59
:102F3000E385FDF771FE48E759030000FF7F0000BD
:102F4000B2060000002102E000BF491C89B28142A4
:102F5000FAD37047F8B5044608688569002D04DC8B
:102F60002148002141808180F8BD2048854200DD54
:102F700005462068626829464043524369438018E9
:102F8000081AC217D20C1018490B40130029EBDDA8
:102F90004003FDF7CBF80121490300F0FAF9074699
:102FA0000002C117C90C0818461320680146704377
:102FB000C217D20C1018421360687043C317DB0CA1
:102FC0001818401300908818294600F0E2F9206094
:102FD000616800980818294600F0DBF90249606032
:102FE0004F808E80F8BD0000CC000020FF7F0000E5
:102FF000F8B50546087E16460C46002820D06269C2
:1030000020698018010C691A09B24B03C018C90164
:10301000206150180E49606100F0BBF960612769BA
:103020000C49380C2D1A6069FDF780F83A14CA2152
:103030008A53803630810848C5806169C160F8BD17
:10304000280420610020606101202076E7E700006D
:10305000E037A803E44F0000CC000020002101600D
:1030600041608160C1600161416101760248418037
:103070008180C180C1607047CC000020FFB583B063
:1030800010980E9F05680F9CAE69002E37DD002F4B
:1030900035D01E48864200DD06462869504300F0C0
:1030A0006BF9019028690699484300F065F9009092
:1030B000A2680C986969801A4143039A0198101A12
:1030C0007843401A00F058F90190E2680D98696958
:1030D000801A4143049A0098101A7843401A00F06D
:1030E0004BF90546216801980818314600F051F95E
:1030F000206060683146401900F04BF960600C9820
:10310000A0600D98E06007B0F0BD0000FF7F0000F8
:1031100010B50C0004D001684068FDF707FD208061
:1031200010BD0000F0B50F464037104D3B8800241D
:103130002C616C61AC61EC6106462C706C70A8303F
:10314000FFF78CFF0A203246385E803210630C2075
:10315000385E5063642084551804D0649384C0366C
:10316000738114812B816C81F0BD0000CC000020A4
:10317000F0B589B004000ED0206800280BD0264698
:103180002179254608366035022902D1C078002809
:1031900003D00020E87209B0F0BDE87A002805D11C
:1031A00031462046FFF7BEFF0120E872002031467D
:1031B0004031079006915A4802228A5E0369D2186C
:1031C0000261944604228A5E4369D21842610A234E
:1031D000CB5E8769DB1983610C23CB5EC16927460F
:1031E0005918C16101788037491CC9B20170204665
:1031F000A8300590042944D36046C017810F60466B
:103200000818D117890F8918891080100091FDF7CF
:1032100077FC716BFDF764FC08900098FDF770FC7B
:10322000716BFDF75DFC01460898F163B0633C48A3
:10323000069E8069FF23C217920F101880108646E1
:1032400037481D33C069C217920F10180C22B25EA6
:1032500080108446059802930192039004940A20FA
:10326000305E0090634672460898FFF707FF2C49CE
:103270000020086148618861C861087001204870B9
:1032800024E0274E7078012802D0022806D01DE0E5
:1032900021460598FFF75EFE022016E02146A43184
:1032A0000598FFF735FF2420385E22460599FFF781
:1032B0009FFE012007902420385E3081069A00216D
:1032C000515EFDF719FC7081002070700598C034C4
:1032D000027E0799002A02D000291BD102E00020BB
:1032E00028710CE02979002914D04069F96CC217C3
:1032F000920F101880100818F86400146081287A62
:10330000002800D047E728790028FBD0069861897B
:10331000018040E70069F86401202871F86CECE74F
:10332000CC000020FEF7D2FB00F008F8FFF7A6FC67
:10333000FEF7FCFEFFF7AEFAFCE7000070B5FFF702
:1033400069F80A4D00242846FFF7FCFD641CE4B22E
:103350000A2CF8D3FDF7E8F90548FFF77FFEFDF7E3
:10336000D7FF04493020486162B670BD60EA0000B2
:103370003C0200208007014010B5002802DBFF302E
:10338000F53001E0FF38F5387D21C900FCF7CEFEAD
:1033900010BD884202DC4942884200DA0846704784
:1033A000002800DA4042704770B50D460646FFF728
:1033B000F7FF04462846FFF7F3FF844201D9304661
:1033C00070BD284670BD002803D00368934201DD1C
:1033D000026070478B42FCDA0160704700B500283C
:1033E0000CD00122D207914201D14A1E03E00029EC
:1033F00000DA49420A465142FFF7E5FF00BD0000EE
:10340000C90092015B022403ED03B6047F05480660
:103410001107D907A2086B09330AFB0AC40B8C0CED
:10342000540D1C0EE40EAB0F73103A110112C812AA
:103430008F1355141C15E215A8166E173318F918BA
:10344000BE19831A471B0C1CD01C931D571E1A1F34
:10345000DD1F9F2062212422E522A723672428253F
:10346000E825A82668272728E528A429622A1F2BF3
:10347000DC2B992C552D112ECC2E872F4230FC3071
:10348000B5316E322733DF3397344E350436BA36D2
:1034900070372538D9388D39403AF33AA53B573C37
:1034A000083DB83D683E173FC63F74402141CE41BC
:1034B0007A422643D1437B442445CD4575461D477A
:1034C000C4476A480F49B449584AFB4A9E4B404C8E
:1034D000E14C814D214EC04E5E4FFB4F9850345110
:1034E000CF51695203539B533354CA546055F65518
:1034F0008A561E57B1574358D4586459F459825AC2
:10350000105B9D5B295CB45C3E5DC85D505ED75E20
:103510005E5FE45F6860EC606F61F1617262F2624D
:103520007163EF636C64E9646465DE655766D06659
:103530004767BD673268A7681A698C69FD696E6A5A
:10354000DD6A4B6BB86B246C8F6CF96C626DCA6D65
:10355000316E976EFB6E5F6FC26F23708370E37086
:1035600041719E71FA715572AF7208735F73B673D1
:103570000B746074B37405755675A675F475427650
:103580008E76D97623776C77B477FB774078857819
:10359000C8780A794A798A79C979067A427A7D7A2D
:1035A000B77AEF7A277B5D7B927BC67BF97B2A7C9F
:1035B0005A7C897CB77CE47C0F7D3A7D637D8A7D73
:1035C000B17DD67DFB7D1E7E3F7E607E7F7E9D7EB3
:1035D000BA7ED67EF07E0A7F227F387F4E7F627F62
:1035E000757F877F987FA77FB57FC27FCE7FD97F8A
:1035F000E27FEA7FF17FF67FFA7FFE7FFF7F002088
:10360000E412FB0911058B024601A30051002900B9
:1036100014000A0005000300010001003C36000010
:1036200000000020340100008A0200007036000013
:103630003401002034050000022D0000013A43014E
:1036400002071D5802D007F401E201035958020392
:1036500029580248151BFF7F02000442FE33570120
:1036600033621173FF7F35307560F0031DA00F00CA
:04000005000000C136
:00000001FF
