:020000040000FA
:1000000068050020D9000000E70000009D0D0000F9
:1000100000000000000000000000000000000000E0
:10002000000000000000000000000000EB000000E5
:100030000000000000000000ED000000EF000000E4
:10004000F1000000F100000019110000F1000000B3
:10005000F1000000F1000000F1000000F1000000DC
:10006000ED160000ED05000009030000F10000009E
:10007000F1000000F100000000000000000000009E
:100080000000000000000000000000000000000070
:100090000000000000000000000000000000000060
:1000A0000000000000000000000000000000000050
:1000B0000000000000000000000000000000000040
:1000C0000448854600F0FCF800480047D91D0000B0
:1000D000C046C04668050020064880F308880648E8
:1000E000804706480047FEE7FEE7FEE7FEE7FEE73B
:1000F000FEE70000680500201D160000C10000009A
:1001000030B50B46014600202022012409E00D46AF
:10011000D5409D4205D31D469540491B2546954037
:1001200040191546521E002DF1DC30BD70B500247B
:100130002546002801DA01244042002901DA012580
:100140004942FFF7DDFFAC4200D04042002C00D016
:10015000494270BDF8B500242546002904DA0E4650
:10016000012400214042B141002B04DA1E46002345
:1001700052420125B34100F062F88C4617461E46F4
:10018000AC4203D0002540428D41AC46002C02D049
:10019000002657429E4161463A46334601B0F0BDC3
:1001A000F0B51FB486B00020009001900290069830
:1001B000069980B204900798090C020400141143B8
:1001C00007900027089D099806913E463C460390FB
:1001D0000398A9B20204000C039004982D0C154357
:1001E00048430021224600F05AF8C71971411034E3
:1001F0000E46402CECDB3846029A00F050F8009A8C
:10020000019B801800905941029801911030029092
:100210004028CCDB00980BB0F0BDD2B201E00270F8
:10022000401C491EFBD270470022F6E710B513466A
:100230000A4604461946FFF7F0FF204610BDF0B508
:100240001FB40646002082B005464024019100906C
:100250001BE0019922460F46304600F043F8049A0D
:10026000059B801A994110D310461946224600F08A
:1002700016F8361A8F410197224601200021009F6F
:1002800000F00DF838184D4100902046641E0028FB
:10029000DFDC019B00982946324607B0F0BD10B55F
:1002A000202A04DB0146203A9140002010BD9140F5
:1002B00020239C1A0346E3401943904010BD0000E0
:1002C000064C0125064E05E0E36807CC2B430C3CA9
:1002D00098471034B442F7D3FFF7F6FE1021000020
:1002E0003021000010B5202A04DB0846203AD04017
:1002F000002110BD0B46D340D0402024A21A9140CB
:100300000843194610BD000070B51C48C16A03229D
:100310001143C1624169C21411434161184E102159
:10032000304600F015FD174D288B174CA08100F0CA
:10033000BFFB00F02DF801F075F9288BE081A18951
:1003400080B2401A20821021304600F0FFFC0D4D93
:1003500060356869C00602D4686980060DD5686991
:10036000A080A86AE0800948406920816089401C1B
:10037000608101F04EF93020686170BD4004014099
:100380004008014020070140000000200002014019
:10039000F8B500F039F801F041F8174D0426AE5FCA
:1003A000301E01DC002705E0144901F04DFA490434
:1003B000C70B0F43124C0020205E301A4003C013BD
:1003C0000021615E401800F0B3FB2080E068381A1D
:1003D000C117C20C4903114340034904C00B084331
:1003E000E1684018E060E06806498863288A208157
:1003F000A88A6081F8BD0000000401405027010078
:1004000028000020AC000020F0B589B000F0B2FF59
:100410006F4F70493C46083438680C2505904D5F95
:100420000020085E0090284600F082FB6A4E308073
:10043000009800F07DFB69493A46088031884032D7
:10044000118750870020908705981E21415E6E1A03
:100450002021415E0098451A7019404200903046B4
:1004600000F066FB5E490880284600F061FB5C49AD
:100470004880009800F05CFB59498880304600F0C5
:1004800035FB0090284600F031FB064600988019A5
:1004900040420190009800F04BFB514DAD1D28806B
:1004A000304600F045FB6880019800F041FBA880D1
:1004B00029882046403004900646C1800020285EEE
:1004C000484948430221695E474A51434018C013D6
:1004D00000F02EFB30813E20205E216B00F012FBED
:1004E00060630020305E216B00F00CFBA063797923
:1004F0003D4680350A2918D039469A318A1C47234F
:100500000093019202910397049908230622CB5E7F
:100510008A5E666B0146304601F09AFBB720C05DEB
:1005200000280AD1688BA08707E004980621415E65
:10053000696204980821415EA962A08F00F022FF41
:1005400000906846008820806846408860800420CB
:10055000285E06900620285E079005982621415EB9
:1005600002462A20105E01F084FC050000D54542B9
:10057000002D13DD294606A801F0AAFC28460146F5
:1005800001F062F905460698014601F05DF9281A66
:1005900001F07EFC014607A801F09AFC069800F0E5
:1005A000C7FA04990882079800F0C2FA04994882B1
:1005B0000598808CA08578790A2806D002203871A9
:1005C000012000F0CFFE09B0F0BD0020F7E70000E9
:1005D000AC00002000040140240000202600002080
:1005E0003C000020E7490000CD9300000CB50D4809
:1005F00041680D4A11804168C90710D000216A4640
:10060000117007E04169C90702D01178491C1170C7
:100610001179491C117111790529F3D3117803213E
:1006200041600CBD000201400000002010B50446EE
:100630000121082000F0B4FF6069616C40020143B1
:10064000A06CA269000252001043014329480160D6
:10065000216862680901D2001143A26811438160D8
:10066000E169226AC90192011143626A5201114390
:10067000A26A12011143E26CD2001143226D920072
:100680001143626D52001143A26D1143C160616B51
:10069000A26BC90192011143E26B52011143226C1A
:1006A00012011143626ED2001143A26E92001143F7
:1006B000E26E52001143226F114301610F4A0E494D
:1006C0009162E16AE3680903DB021943E36D1B02EF
:1006D00019432369DB011943236B1B011943236E63
:1006E0009B00194343055961002191620321416038
:1006F00010BD000000020140837A0000800000402D
:100700000021012206C001608160C1600161416178
:100710008161C161016241628162C16201634163C1
:100720008163C163016441648164C16401654165A1
:100730008165C1650166416642608166704700005F
:1007400010B50F4C0D48A062012000F03BFFE00502
:10075000016905225203114301610A4A104601F062
:1007600069FA104601F066FA2068074908432060DC
:100770000020A0610548E06110BD0000837A000000
:100780008000004088130000FF010000FF0300000C
:10079000034802490160632141607047580B000023
:1007A00040040140FEB572B6002628480096009924
:1007B000491C00918142FAD3254A00252C465661F6
:1007C0005069D31418435061FFF7E2FF68468680F2
:1007D0001F4F403F18E000960098401C0090984240
:1007E000FAD3D06A03210843D0625069184350619C
:1007F0000C20385E45190020385E041915489061B8
:1008000069468888401C88806846818801204002AB
:100810008142E0D300F038FBFFF7BAFF62B66812FE
:100820000D4D28806012688000F0A4FD0B4A002066
:100830001168285EC88302211368695E19841268F2
:100840000003568468600803A860FEBDFFFF020035
:1008500040040140A55A000018000020AC00002010
:1008600070B504460121C80200F06AFE012080072D
:10087000416861701849174A8A62426923785B00AF
:100880001A43426115488862FF216078C131144DD6
:100890000E1D012813D002281AD1A07800280DD0EF
:1008A000012815D103202870084600F011FE00141D
:1008B0006880304600F00CFE001408E0022028702A
:1008C000084600F005FE6880304600F001FEA88072
:1008D00070BD0000837A000080000040FFFF000030
:1008E0008400002010B5144C00212278022A01D87F
:1008F000552102E0032A00D135214843010BFF298D
:1009000000DBFF210223E35E042218464843A25E77
:100910004012801800B2002801DA002002E0FF280F
:1009200000DDFF200124A407002B01D1002A01D003
:10093000E06210BDE16210BD8400002010B503210B
:10094000FFF772FC10BD0000F0B51C46564B85B099
:100950004B43DB135D4200290BDB002803DB8342A2
:1009600005DC012510E0854201DD03250CE00225B0
:100970000AE0002803DB854205DC062504E083420B
:1009800001DD042500E00525002300930193029377
:10099000454B4B43DE13454B871B5943CB136743F2
:1009A000F913049119466143C91303913118301AA0
:1009B0000E466643F7136043C61348426043C113B3
:1009C00058426043C0132B0000F056FF064204104B
:1009D0001B2631420499039863181B18DE0FF31885
:1009E0005B10591A081A0093019108E0E019801968
:1009F000C10F081840100190801B0090C01B02908E
:100A000020E0039823185B18DE0FF3185B10181A08
:100A100002900193401A08E0A1190918CB0F591848
:100A20004910081A01900291801B00900AE0049876
:100A300063181B18DE0FF3185B10591A029300910C
:100A4000081A01900120C003002A0ADA00220BE0F4
:100A50002118C919CB0F591849100091C91B0291CF
:100A6000EEE7824200DD0246101844432414224679
:100A70000021684600F05AFD2246002101A800F03E
:100A800055FD2246002102A800F050FD0A98009969
:100A900001600B98019901600C98029901600D9812
:100AA000056005B0F0BD0000E7490000CD930000EF
:100AB00010B507497D2248889201401C80B24880C9
:100AC000904203D90020488000F0B4F910BD000026
:100AD00000000020002800DA40420349884200D983
:100AE000084680B270470000FF7F000010B504493F
:100AF00000F0AAFE4904C00B084300F019F810BD2D
:100B00005A4D000010B50446002901DC002010BD3C
:100B10000846064900F098FE4A04C10B11432046DE
:100B200000F092FE4904C00B084310BD555500006B
:100B30000449884202DCC943884201DA084670470A
:100B400000B27047FF7F0000016800290AD1064902
:100B50000160002101710A2141710449818601214E
:100B60004030C1867047000048000020307500000A
:100B7000904201DD104670478842FCDA0846704713
:100B800010B500F061FE4A04C00B1043C91300F019
:100B90000DF810BD0449884202DCC943884201DADD
:100BA0000846704700B27047FF7F0000074B0022E5
:100BB0001B1A8A4101DA054870470123DB07DA175F
:100BC000C31A9141F8DAD00770470000FFFFFF7F9A
:100BD0000A4B10B5984200D91846994200D91946D7
:100BE0009A4200D91A46064B54421C829A824A42C3
:100BF0001A81998141421980988010BDB206000087
:100C00000007014070B5002301252A460C689A4070
:100C1000144094422AD10C79002C04D0012C11D01C
:100C2000022C04D006E00468164626430660446899
:100C3000944344604C79012C0BD0022C10D0002C32
:100C40000BD00DE0046894430460466814463443B6
:100C5000EFE706691446344301E0046994430461F4
:100C600084698E68012E05D0944384615B1C102B2F
:100C7000CBD370BD1443F8E7F0B5324F160115021F
:100C800014030B0000F0F8FD10090D13181E2228A4
:100C90002D33373D42484C52571D016A394089185F
:100CA0000EE0016A274AE13A1140711808E0016A32
:100CB000254A1140691803E0016A0905090D611808
:100CC0000162F0BD416A394089180EE0416A1D4A4F
:100CD000E13A1140711808E0416A1B4A1140691855
:100CE00003E0416A0905090D61184162F0BD816A9E
:100CF000394089180EE0816A124AE13A11407118B0
:100D000008E0816A104A1140691803E0816A090508
:100D1000090D61188162F0BDC16A394089180EE081
:100D2000C16A084AE13A1140711808E0C16A064AEE
:100D30001140691803E0C16A0905090D6118C16213
:100D4000F0BD0000F0FF0000FFF0000041637047BD
:100D5000016370470021016001714171816070473A
:100D600001239B07996A02468906890E20322029B1
:100D700003D3914201DC20200EE03F2901D89142AB
:100D800003DC1F2904D8814202DB081AC0B203E049
:100D9000081A0007000F303098627047074906486C
:100DA000086300F036FCBFF34F8F06490448C86063
:100DB000BFF34F8FFEE70000ADDE0000800701406B
:100DC0000400FA0500ED00E010B572B616481749A8
:100DD000886288130168C2001143016000F054F872
:100DE00000F01EF900F070F800F00AF900F06EF95A
:100DF00000F0E0F800F082F900F038FC00F01AFC96
:100E0000642000F017FF01210A2000F0E5FA00211C
:100E1000092000F0E1FA0120054940020860044978
:100E200040008039086010BD837A000080000040D7
:100E300080E100E003480249016003498160704796
:100E4000B4A60000000C01408D79000001684268E2
:100E500009011143094A5160094B1360C1681161CE
:100E6000C1688068814201D9081A01E001200003AD
:100E7000D06013600348906070470000000C014090
:100E8000B4A600008D79000010B50121080200F021
:100E900057FB0A480121816241610621016109492C
:100EA000074A8A62021503069A6100228A62FF21BC
:100EB000C1624169C2141143416110BD4004014047
:100EC000837A000080000040FEB56846FFF742FFCD
:100ED0000125684605713F208002354E0090694625
:100EE0003046FFF78FFE03220A213046FFF7C4FE8B
:100EF00003220B213046FFF7BFFE03220C213046B0
:100F0000FFF7BAFE03220D213046FFF7B5FE03229C
:100F10000E213046FFF7B0FE03220F213046FFF7C7
:100F2000ABFE02246846047180200090694630467A
:100F3000FFF768FE684604711D4F2020403700907F
:100F400069463846FFF75EFE684604710820009047
:100F500069463846FFF756FE6846047169463846CA
:100F60000094FFF74FFE6846047104200090694624
:100F70003846FFF747FE68460471402000906946F6
:100F80003046FFF73FFE68460471E0010090694675
:100F90003046FFF737FE68460571102000900021AB
:100FA0006846417169463846FFF72CFEFEBD0000D9
:100FB0000008014030B59DB06846FFF7A1FBFFF780
:100FC000BFFB012400250095214660030295019492
:100FD00000F0B6FA0021A00300F0B2FA022011944A
:100FE00009950C90189006950520032115941790EB
:100FF0000A9516950B916846FFF718FB1DB030BD9A
:1010000008B56846FFF79AFC002069468870684674
:10101000FFF726FC01208002FFF764FC08BD0000FA
:1010200000B59FB0684600F097F900206B46187134
:10103000012159719971D971D882188358831D4A39
:1010400010AB9A866B46187258721B4A1A805A80E7
:101050001A4ADA831A4A1A843022DA841A855A859F
:101060009A85DA851A8608AB9875D87510AB0E90FC
:10107000D875169018771974197158719971D871BB
:1010800018AB1870D87310AB99721973987318ABAA
:10109000187410ABD8725973D8730B48094901639F
:1010A0006721416308486946803800F043F81FB063
:1010B00000BD0000FF1F0000B206000053F9000051
:1010C00042FB0000ADDE00008007014010B50121A9
:1010D000480200F035FA0120800701690909090179
:1010E00001610549034A8A6202690261002088623F
:1010F00010BD0000837A00008000004010B5054854
:10110000034901600F218902416000F03BFA10BDE4
:10111000B4A60000000C014004484169C214114308
:1011200041610349032048607047000040040140CA
:1011300080070140F8B50D4606460121102000F059
:101140002FFA30468149803001636A79297992000B
:101150001143AA7AEB7A12015B011A431143AA796F
:1011600092011143EA79D20111432A7B1202114301
:101170006A7B52021143F167298831636988716380
:10118000E98B3162298C7162698CB162A98CF16240
:101190002989316729462031CB7D8A7D5B001A433E
:1011A0008B7FEC8A9B01E40123431A430B7E1B02D5
:1011B0001A434B7E5B021A43CB7F9B031A432B8B54
:1011C000DB031A430262CB7E8A7E5B002C461A4305
:1011D000403423786F8B9B01FF013B431A430B7F05
:1011E000497F1B021A4349020A43617889030A4373
:1011F000A98BC9030A434262A27B217B920011435F
:10120000A27AE37A12015B011A431143627B520016
:101210001143E27BD2001143227CD2011143227E92
:1012200012021143E27D52021143A27E9202114347
:10123000627ED2021143227F12031143E27E5203E7
:1012400011438162627DE17C92001143627CA37C48
:1012500012015B011A431143227D52001143A27D0A
:10126000D2001143227CD2011143627F120211434A
:10127000A27F52021143C1622279A1781201114367
:101280006279237A52019B011A431143E2781202D8
:101290001143A27912031143E27952031143627A96
:1012A000920311437167E98C3165298D7165A18EB7
:1012B000B167E989B164298AF1641221695EB16379
:1012C0001421695EF16360352A78E17F5200114391
:1012D0006A78AB789202DB021A43114301602A79E3
:1012E000E978520011436A79AB799202DB021A4322
:1012F00011438160E97B2A7C0901520111436A7C18
:1013000092011143AA7CD201114301612A7AE97941
:10131000520011436A7AAB7A9200DB001A43114300
:10132000EA7A120111432A7B520111436A7B92012E
:101330001143AA7BD20111438161054931644160A7
:10134000C160416103490163F8BD0000ADDE0000EA
:10135000FFFF0000FECA000010B57621FEF764FF13
:1013600010BD000010B50146014800F0A1FA10BD03
:10137000AC00002010B50248FFF7E6FB10BD0000EE
:10138000AC00002018B500226B461A805A80820BF0
:101390008004000E41000F4BFF24201A4000595ECC
:1013A000185E002A09D0012A0AD0022A0DD0404234
:1013B0006A4610805180009818BD6A46118002E08C
:1013C0006A46108048425080F5E749426A461180DB
:1013D0004042F8E7F21E00008307FF22DB0E9A402E
:1013E0008907090E994000280BDA0007000F08381A
:1013F000830808489B001818C36993430B43C361D3
:101400007047830804489B001818036893430B43F4
:101410000360704700ED00E000E400E0F8B51C4810
:101420000C21415E1B4A0023D35ECC1A0021415E91
:1014300019480022825E20468E1AFFF779FB174D6D
:1014400068803046FFF774FBA8802046FFF742FB18
:1014500004463046FFF73EFB844200D920460F4F3A
:1014600004461A370020385EFFF734FB0646022098
:10147000385EFFF72FFB864200D93046E9888C4260
:1014800000D9EC802969884200D92861F8BD0000A4
:1014900000040140180000201A000020280000204D
:1014A0000849074A0A630128886A05D0064A10409D
:1014B000886206480863704740221043F8E700003E
:1014C000ADDE000080070140BFFF0000FECA000043
:1014D000014672B6FF209130814201D2012000E026
:1014E0000020FF23E033994201D9012300E00023CB
:1014F0001843002801D00020704701200004006834
:101500000123DB0218435B01186059200006586074
:1015100018464160C2689520000658601846006869
:101520005B1198435B0118601046E5E703688B4246
:1015300001DA016070479342FCDD026070470000F1
:1015400010B50F4C0D4AA26223151A0501290BD0C4
:10155000410503D51169194311611843116981438C
:1015600011610020A06210BD410503D511699943A6
:101570001161984311690143F2E70000837A00008A
:10158000800000401FB5002000903F200003039022
:1015900001200190000302906846FFF757FC1FBD31
:1015A000074A064B93620029D16901D0014300E04C
:1015B0008143D1610020906270470000837A00006F
:1015C0008000004070B50546FF20D530FFF780FF52
:1015D000000C032819D3FF2099300124A407061D0D
:1015E000002D09D0FFF774FF80B260623046FFF72C
:1015F0006FFF80B2A06270BDFFF76AFF000C6062EF
:101600003046FFF765FF000CF4E70220FFF7A8FB68
:1016100070BD10B50020FFF743FF10BD10B5FFF7F8
:101620008FF810BD02480188491C018070470000F6
:101630001200002010B50B4909488862C8050169ED
:10164000821411430161FF20C930FFF741FF064CAE
:101650002080FF20CD30FFF73BFF608010BD0000F1
:10166000837A0000800000408A00002030B587B0F7
:101670006846FFF76FFB00246A4614711020184D6E
:101680000422009011462846FFF7F6FA69462846DC
:10169000FFF7B8FA01216A46117120210091042256
:1016A00005212846FFF7E8FA69462846FFF7AAFA17
:1016B00003A800F0B9F84B20C00103900494032064
:1016C0006A46107603A9074800F058F8022108205E
:1016D000FFF782FE0449A815086007B030BD00007E
:1016E000000801400009014000E100E070B5204E13
:1016F000306A0024C0071F4D002813D00121304656
:101700003162297803290BD1AA7869788A4207D2F5
:1017100029460F31515C521CAA7000F083F801E099
:101720002C70AC70306A80071BD5022130463162C4
:1017300000F076F8C1B22878002811D10E48047064
:10174000E878002808D00B280AD20A4A121D8154D2
:10175000E878401CE87004E0AA29F6D0EC7070BD6F
:10176000EC70306A4007FAD50420306270BD00008A
:10177000000901409000002014000020FEB50C4636
:10178000064601210420FFF70BFF00252B462148C8
:1017900029462268FEF7DEFC012200230091019019
:1017A000FEF7D8FC1C4F06E0AA1C00236D1C009914
:1017B0000198FEF7CFFCB842F6D818498D61401E5B
:1017C000C1B2B1600004000E7060E079012802D05F
:1017D00002281CD000200021637922795B001A4383
:1017E000A379C9009B000B431A4300010243207AEE
:1017F000400102433260E17BA07B490008437062F4
:1018000060893061607BB061207BF061FEBD0120AA
:101810000146E1E7006CDC02FFFF000080000040B1
:10182000C0687047C16070474B21C9010160002149
:10183000017141718171C171017241734181017303
:101840008173C17370477047F8B504148BB2264694
:1018500082B25E430D141046371458433604801983
:101860000021794116466E433714360480197941B8
:1018700026466E438919F8BD30B47446641E257837
:10188000641CAB4200D21D46635D5B00E31830BCB4
:10189000184702E008C8121F08C1002AFAD1704791
:1018A0007047002001E001C1121F002AFBD17047E0
:1018B000F3B5064693B000200C900B900A9030468A
:1018C000FFF742F93446149808343568002801D1EE
:1018D000012014907079374648370A280CD0608868
:1018E00069464880208808802C23E35E0120C007D9
:1018F000834210D1431E11E0002020616061A0816D
:10190000E081A061E06120846084E0873880C54880
:101910000246114681E1002B00DA5B422422AA5ED6
:1019200000211846FFF724F907901C20285EBE4AC4
:101930000021FFF71DF901460798FFF721F9BB4980
:10194000FFF71EF9062203970290BA5E684602234B
:10195000C35E9C465A430823FB5E0021415E4B4315
:10196000D018C21309920822BA5E63465A4306236E
:10197000FB5E4B43D01AC11308910998FFF70AF98F
:10198000E0800898FFF706F9A0800621615E082034
:10199000205E091A0820285EFFF7F2F801460820A9
:1019A000205E0818FFF7F6F820810421615E0A2006
:1019B000205E091A0820285EFFF7E2F801460A2097
:1019C000205E0818FFF7E6F860811021795E099A19
:1019D000891A12220691BA5E0899511A0491069941
:1019E000A1610499E1610A27EF5FA98840360029C7
:1019F00002D02021715E01E00621695E0591394621
:101A00000698FFF721FFFFF7D1F8119039460498A7
:101A1000FFF71AFFFFF7CAF8019005990698FFF73C
:101A200013FF00273B46149AFEF7BAFB2269D3172F
:101A300010185941FFF7BAF8069005990498FFF776
:101A400003FF3B46149AFEF7ABFB6369DA171818DD
:101A50005141FFF7ABF8049006991198CA17C317C4
:101A6000081811465941FFF7A1F80590049901980B
:101A7000CA17C317081811465941FFF797F8019084
:101A8000287B002833D0287B012802D0287B03281C
:101A900021D12621715E0898FFF7D6FE2222B25E80
:101AA000D317FEF77DFB8A00800F10438917FFF7DD
:101AB0007DF80C902621715E0998FFF7C5FE24225F
:101AC000B25ED317FEF76CFB8A00800F10438917B4
:101AD000FFF76CF80B90287B022802D0287B0328A4
:101AE00005D1A9692620305EFFF74AF80A900598CB
:101AF0000C99C217CB17401A9A411146FFF756F8B6
:101B0000064601980B99C217CB1741180A985A41FB
:101B1000C31708185A411146FFF748F8029A019076
:101B200051420D463046FFF723F807462946029AF0
:101B30000698FFF71DF8069002980146FFF784FE0D
:101B4000054638460146FFF77FFE281A00F0A0F947
:101B50000546024669420E460198FFF709F80190D2
:101B60002A4631460498FFF703F80699216160611F
:101B70003846FFF70FF8A0810198FFF70BF8E081D6
:101B8000A18903984180E189039881800820205E23
:101B90000821615EFFF758FE05460A20205E0A21F3
:101BA000615EFFF751FE281800F072F9FEF7F2FFB0
:101BB000039988816E4602200023305EF35E019A0D
:101BC00001465A437943891A019A7B4350431818B6
:101BD000C913C5130846FEF7DDFF20842846FEF72B
:101BE000D9FF6084208CE087618C0398018010AB62
:101BF0000FAA0EA90DA86D460FC52221615E2020F7
:101C0000205E0B4B079AFEF79FFE0D98A0840E995D
:101C1000E1840F9A2285109B6385FEF7D9FF15B0EA
:101C2000F0BD000059030000FF7F0000DA6E0000E5
:101C3000B2060000002102E000BF491C89B28142C7
:101C4000FAD370470021016041608160C160704734
:101C5000FFB583B00F980D9C0768B8690090002805
:101C60007EDD0C9800287BD059480099814200DD28
:101C7000009038690599FFF7E7FD00F0DDF800F006
:101C8000CDF8029038690699FFF7DEFD00F0D4F830
:101C900000F0C4F80190A26805997869891AFFF7E5
:101CA000D3FD05460E46039902980023081AC11772
:101CB0000C9AFEF775FA401BB14100F0BDF800F038
:101CC000ADF80290E26806997869891AFFF7BCFDC1
:101CD00005460E46049901980023081AC1170C9A6C
:101CE000FEF75EFA401BB14100F0A6F800F096F84E
:101CF000054622680298D117C3171018594100F001
:101D00009BF8009900F0AAF820606268EB17D117E1
:101D10005019594100F090F8009900F09FF8606068
:101D20000599A1600699E16021684043494308187C
:101D300000F0AEF80099CA0F51184910814215D928
:101D400025680A212846FEF7F1F94019009900F0AC
:101D500085F8206065680A212846FEF7E7F900E06B
:101D600021E04019009900F079F860600E98002891
:101D70001DD0226861681046084326D00023002A3F
:101D800003DA524249420123DB03124D002014467C
:101D900000290E460DDD064132190441091B44009D
:101DA0002C5BE3180CE00598A0600698E06007B093
:101DB000F0BD0641A21B0441611844002C5B1B1BB3
:101DC000401CC0B20F28E2D398B20E990880EEE70B
:101DD000FF7F0000F2200000FEF7F6FF00F004F89D
:101DE000FFF731FDFEE7000070B5094D00242846DD
:101DF000FFF720FF641CE4B20A2CF8D3FEF7D2FCF4
:101E00000448FFF71FFF04493020486162B670BDE7
:101E100060EA0000480100208007014010B500285A
:101E200002DBFF30F53001E0FF38F5387D21C900D5
:101E3000FEF77CF910BD0000074B00221B1A8A41F7
:101E400001DA054870470123DB07DA17C31A91410D
:101E5000F8DAD00770470000FFFFFF7F884202DCFE
:101E60004942884200DA08467047002800DA4042BA
:101E7000704770B50D460646FFF7F7FF0446284643
:101E8000FFF7F3FF844201D9304670BD284670BD8C
:101E9000024600200121890700E089089142FCD810
:101EA00008E04318934203D8D21A4008401800E0D3
:101EB000400889080029F4D17047002803D003683E
:101EC000934201DD026070478B42FCDA016070478B
:101ED00000B500280CD00122D207914201D14A1E40
:101EE00003E0002900DA49420A465142FFF7E5FFC4
:101EF00000BD0000C90092015B022403ED03B6049B
:101F00007F0548061107D907A2086B09330AFB0AA7
:101F1000C40B8C0C540D1C0EE40EAB0F73103A1155
:101F20000112C8128F1355141C15E215A8166E174E
:101F30003318F918BE19831A471B0C1CD01C931DAB
:101F4000571E1A1FDD1F9F2062212422E522A7238E
:101F500067242825E825A82668272728E528A42916
:101F6000622A1F2BDC2B992C552D112ECC2E872F5E
:101F70004230FC30B5316E322733DF3397344E3583
:101F80000436BA3670372538D9388D39403AF33AA5
:101F9000A53B573C083DB83D683E173FC63F7440DF
:101FA0002141CE417A422643D1437B442445CD454D
:101FB00075461D47C4476A480F49B449584AFB4A09
:101FC0009E4B404CE14C814D214EC04E5E4FFB4F2D
:101FD00098503451CF51695203539B533354CA54D0
:101FE0006055F6558A561E57B1574358D458645910
:101FF000F459825A105B9D5B295CB45C3E5DC85D00
:10200000505ED75E5E5FE45F6860EC606F61F161B7
:102010007262F2627163EF636C64E9646465DE6549
:102020005766D0664767BD673268A7681A698C69CA
:10203000FD696E6ADD6A4B6BB86B246C8F6CF96C52
:10204000626DCA6D316E976EFB6E5F6FC26F2370EB
:102050008370E37041719E71FA715572AF720873AB
:102060005F73B6730B746074B37405755675A6759B
:10207000F47542768E76D97623776C77B477FB77D2
:1020800040788578C8780A794A798A79C979067A50
:10209000427A7D7AB77AEF7A277B5D7B927BC67B2B
:1020A000F97B2A7C5A7C897CB77CE47C0F7D3A7D65
:1020B000637D8A7DB17DD67DFB7D1E7E3F7E607E09
:1020C0007F7E9D7EBA7ED67EF07E0A7F227F387F1D
:1020D0004E7F627F757F877F987FA77FB57FC27FA6
:1020E000CE7FD97FE27FEA7FF17FF67FFA7FFE7FA6
:1020F000FF7F0020E412FB0911058B024601A300BB
:102100005100290014000A0005000300010001002D
:102110003021000000000020900000009218000014
:10212000C021000090000020D8040000A218000088
:10213000000000000000000000000000000000009F
:10214000000000000000000000000000000000008F
:10215000000000000000000000000000000000007F
:10216000000000000000000000000000000000006F
:10217000000000000000000000000000000000005F
:10218000FF7F0400000000007D010000020200004B
:1021900062110000FF7F000000000000307560F059
:1021A0000000A00F00000000000000000000000080
:1021B000000000000000000000000000000000001F
:04000005000000C136
:00000001FF
