:020000040000FA
:10000000E8050020D9000000E7000000750D0000A1
:1000100000000000000000000000000000000000E0
:10002000000000000000000000000000EB000000E5
:100030000000000000000000ED000000EF000000E4
:10004000F1000000F1000000F5100000F1000000D8
:10005000F1000000F1000000F1000000F1000000DC
:10006000491B00002D0400008D020000F10000007B
:10007000F1000000F100000000000000000000009E
:100080000000000000000000000000000000000070
:100090000000000000000000000000000000000060
:1000A0000000000000000000000000000000000050
:1000B0000000000000000000000000000000000040
:1000C0000448854600F0AEF800480047752300005C
:1000D000C046C046E8050020064880F30888064868
:1000E000804706480047FEE7FEE7FEE7FEE7FEE73B
:1000F000FEE70000E8050020B5190000C10000007F
:1001000030B50B46014600202022012409E00D46AF
:10011000D5409D4205D31D469540491B2546954037
:1001200040191546521E002DF1DC30BD70B500247B
:100130002546002801DA01244042002901DA012580
:100140004942FFF7DDFFAC4200D04042002C00D016
:10015000494270BDF8B500242546002904DA0E4650
:10016000012400214042B141002B04DA1E46002345
:1001700052420125B34100F025F88C4617461E4631
:10018000AC4203D0002540428D41AC46002C02D049
:10019000002657429E4161463A46334601B0F0BDC3
:1001A000D2B201E00270401C491EFBD2704700220F
:1001B000F6E710B513460A4604461946FFF7F0FF66
:1001C000204610BDF0B51FB40646002082B005469B
:1001D0004024019100901BE0019922460F463046D1
:1001E00000F042F8049A059B801A994110D31046FA
:1001F0001946224600F028F8361A8F410197224608
:1002000001200021009F00F01FF838184D41009098
:100210002046641E0028DFDC019B009829463246F8
:1002200007B0F0BD064C0125064E05E0E36807CC9B
:100230002B430C3C98471034B442F7D3FFF744FFEC
:10024000682600008826000010B5202A04DB01463D
:10025000203A9140002010BD914020239C1A034673
:10026000E3401943904010BD10B5202A04DB084636
:10027000203AD040002110BD0B46D340D04020246E
:10028000A21A91400843194610BD000070B51C48E1
:10029000C16A03221143C1624169C2141143416121
:1002A000184D288B184CA08100F034F801F0E2FBC7
:1002B000288BE0810C21615E00B2401A01D5134900
:1002C00040182082208A618A884201D9208A60826F
:1002D0000C4D60356869C00602D4686980060DD58A
:1002E0006869A080A86AE080094840692081608927
:1002F000401C608101F059FB3020686170BD000036
:10030000400401402007014008000020640D000067
:100310000002014010B500F00DF80448828904493C
:10032000CA80828A4A80008B888010BD0004014008
:1003300024000020FEB5384C27466079083726682F
:100340000A2863D002202071344A0820105E04215C
:10035000515E02911E21715E081A00F0ADFB054648
:100360002020305E0299401A00F0A6FB2C4A291882
:10037000494215805080084600F0B8FB90801088F4
:100380003D46403568810020105E264948430221E1
:10039000515E254A51434018C01300F0A7FBA881C5
:1003A000204601F00DFF288801F050F902906846C0
:1003B000008938806846408978806079092827D08C
:1003C00080340A20205E00900C20205E01902621BF
:1003D0002A20715E305E02F00DF8040000D5444220
:1003E000002C07DD2146684602F01EF8214601A8D0
:1003F00002F01AF8009800F079FBA882019800F04A
:1004000075FBE882012000F0B9FFFEBD00209AE7ED
:100410000020A882F5E70000180100200004014038
:1004200030000020E7490000CD9300000CB50D48D6
:1004300041680D4A11804168C90710D000216A4601
:10044000117007E04169C90702D01178491C117089
:100450001179491C117111790529F3D31178032100
:1004600041600CBD000201400800002010B50446A8
:100470000121082001F060FA6069616C40020143CB
:10048000A06CA26900025200104301432948016098
:10049000216862680901D2001143A268114381609A
:1004A000E169226AC90192011143626A5201114352
:1004B000A26A12011143E26CD2001143226D920034
:1004C0001143626D52001143A26D1143C160616B13
:1004D000A26BC90192011143E26B52011143226CDC
:1004E00012011143626ED2001143A26E92001143B9
:1004F000E26E52001143226F114301610F4A0E490F
:100500009162E16AE3680903DB021943E36D1B02B0
:1005100019432369DB011943236B1B011943236E24
:100520009B001943430559610021916203214160F9
:1005300010BD000000020140837A000080000040EE
:100540000021012206C001608160C160016141613A
:100550008161C161016241628162C1620163416383
:100560008163C163016441648164C1640165416563
:100570008165C16501664166426081667047000021
:1005800010B50F4C0D48A062012001F0E7F9E0051D
:10059000016905225203114301610A4A104601F024
:1005A000D5FC104601F0D2FC2068074908432060C2
:1005B0000020A0610548E06110BD0000837A0000C2
:1005C0008000004088130000FF010000FF030000CE
:1005D00003480249016003494160704788500000A8
:1005E000400401403B060000FEB572B600262348D9
:1005F00000960099491C00918142FAD3204A0025B7
:100600002C4656615069D31418435061FFF7E0FF40
:10061000684686801A4F403F18E000960098401CBC
:1006200000909842FAD3D06A03210843D0625069FF
:10063000184350610820385E45190420385E0419BB
:100640001048906169468888401C88806846818887
:10065000012040028142E0D300F002FCFFF7B8FF26
:1006600062B66812084A611210805180074A136806
:10067000D8831068018410684684FEBDFFFF020025
:1006800040040140A55A000020000020180100206D
:1006900070B504460121C80201F01EF9012080074F
:1006A000416861701849174A8A62426923785B0081
:1006B0001A43426115488862FF216078C131144DA8
:1006C0000E1D012813D002281AD1A07800280DD0C1
:1006D000012815D103202870084601F0C5F8001440
:1006E0006880304601F0C0F8001408E0022028704D
:1006F000084601F0B9F86880304601F0B5F8A880E6
:1007000070BD0000837A000080000040FFFF000001
:10071000F000002010B5144C00212278022A01D8E4
:10072000552102E0032A00D135214843010BFF295E
:1007300000DBFF210223E35E042218464843A25E49
:100740004012801800B2002801DA002002E0FF28E1
:1007500000DDFF200124A407002B01D1002A01D0D5
:10076000E06210BDE16210BDF000002010B5032171
:10077000FFF71DFD10BD002800DA40427047000061
:10078000002800DA4042034A01215156491C00D199
:100790004042704738000020054800218161C16156
:1007A000016241628182C1828162C1627047000040
:1007B0001801002004480021817181850172C185E2
:1007C00041648164C16470473800002070B5134EE5
:1007D000B08A00281FD0124D0020285EFFF7CBFF03
:1007E00004460220285EFFF7C6FFA04204D902207B
:1007F000285EFFF7C0FF04460420285EFFF7BBFF1A
:10080000A04204D90420285EFFF7B5FF0446B08A51
:10081000844201D9012070BD002070BD3800002045
:1008200030000020084A0948918A01831621515E50
:100830004183D26A0265044A80320C23D35E826C03
:100840009A1AC264416570471801002038000020E0
:100850001149122211488A5E426314228A5E826321
:1008600040390E228A5EC2630C228A5E0264C16B2A
:10087000426C891ACA17520F5118426CC910891854
:100880004164016C826C891ACA17520F5118826C2C
:10089000C910891881647047580100203800002071
:1008A0000A498A6A0A48C2834A690284896A4906EF
:1008B000C90F4171054980398A8842848A898284B6
:1008C000898AC184034909880185704780070140EE
:1008D00038000020120000207D2112480901818289
:1008E000002141850122C271817181850172C1851A
:1008F0000170C27001714171816581830A4A936AF6
:10090000C38352690284084A803A93884384938956
:100910008384928AC284054A1388038512880286DA
:10092000417270473800002080070140120000200B
:10093000F0B51C46564B85B04B43DB135D42002996
:100940000BDB002803DB834205DC012510E0854238
:1009500001DD03250CE002250AE0002803DB8542C7
:1009600005DC062504E0834201DD042500E00525C1
:100970000023009301930293454B4B43DE13454BF9
:10098000871B5943CB136743F913049119466143FD
:10099000C91303913118301A0E466643F7136043AA
:1009A000C61348426043C11358426043C0132B0032
:1009B00001F091F9064204101B2631420499039874
:1009C00063181B18DE0FF3185B10591A081A0093EE
:1009D000019108E0E0198019C10F0818401001903A
:1009E000801B0090C01B029020E0039823185B1826
:1009F000DE0FF3185B10181A02900193401A08E0FA
:100A0000A1190918CB0F59184910081A0190029121
:100A1000801B00900AE0049863181B18DE0FF3187F
:100A20005B10591A02930091081A01900120C0032B
:100A3000002A0ADA00220BE02118C919CB0F591835
:100A400049100091C91B0291EEE7824200DD024687
:100A500010184443241422460021684600F032FF57
:100A60002246002101A800F02DFF2246002102A805
:100A700000F028FF0A98009901600B980199016025
:100A80000C98029901600D98056005B0F0BD00005A
:100A9000E7490000CD93000010B506494888401C86
:100AA00080B24880642803D90020488000F0AEF965
:100AB00010BD000008000020034900B54843C013E2
:100AC00000F014F800BD00005A4D0000002901DCC0
:100AD00000207047024A5143C9134843C01370476E
:100AE00055550000401A00B2704700000449884282
:100AF00002DCC943884201DA0846704700B27047F9
:100B0000FF7F00000121C907884201D1401E7047C4
:100B10000028FCDA4042704770B50446006800289F
:100B200021D111480021206021710A216171242303
:100B3000C35E0E4E00213246184600F025F80546E9
:100B400021681C20085E3246002100F01DF8014695
:100B5000284648430649C0134843C11325878034BB
:100B600061800120208070BDB4000020FF7F000064
:100B7000DA6E000010B51C6851436218D113CC0323
:100B8000121B1A60401810BD904201DD10467047DC
:100B90008842FCDA084670470449884202DCC943AF
:100BA000884201DA0846704700B27047FF7F0000B4
:100BB0000A4B10B5984200D91846994200D91946F7
:100BC0009A4200D91A46064B54421C829A824A42E3
:100BD0001A81998141421980988010BDB2060000A7
:100BE0000007014070B5002301252A460C689A4091
:100BF000144094422AD10C79002C04D0012C11D03D
:100C0000022C04D006E004681646264306604468B9
:100C1000944344604C79012C0BD0022C10D0002C52
:100C20000BD00DE0046894430460466814463443D6
:100C3000EFE706691446344301E004699443046114
:100C400084698E68012E05D0944384615B1C102B4F
:100C5000CBD370BD1443F8E7F0B5324F160115023F
:100C600014030B0001F037F810090D13181E222889
:100C70002D33373D42484C52571D016A394089187F
:100C80000EE0016A274AE13A1140711808E0016A52
:100C9000254A1140691803E0016A0905090D611828
:100CA0000162F0BD416A394089180EE0416A1D4A6F
:100CB000E13A1140711808E0416A1B4A1140691875
:100CC00003E0416A0905090D61184162F0BD816ABE
:100CD000394089180EE0816A124AE13A11407118D0
:100CE00008E0816A104A1140691803E0816A090529
:100CF000090D61188162F0BDC16A394089180EE0A2
:100D0000C16A084AE13A1140711808E0C16A064A0E
:100D10001140691803E0C16A0905090D6118C16233
:100D2000F0BD0000F0FF0000FFF0000000210160B6
:100D3000017141718160704701239B07996A0246E6
:100D40008906890E2032202903D3914201DC20201C
:100D50000EE03F2901D8914203DC1F2904D88142CB
:100D600002DB081AC0B203E0081A0007000F303097
:100D70009862704707490648086300F016FEBFF303
:100D80004F8F06490448C860BFF34F8FFEE700004D
:100D9000ADDE0000800701400400FA0500ED00E030
:100DA00010B572B616481749886288130168C200E8
:100DB0001143016000F054F800F020F900F072F8DF
:100DC00000F00CF900F070F900F0E2F800F084F99E
:100DD00000F07AFE00F05CFE642001F0B7F801211B
:100DE0000A2000F007FD0021092000F003FD01208A
:100DF000054940020860044940008039086010BD80
:100E0000837A00008000004080E100E0034802494E
:100E10000160034981607047B4A60000000C0140E6
:100E20008D7900000168426809011143094A516047
:100E3000094B1360C1681161C1688068814201D9A2
:100E4000081A01E001200003D0601360034890609D
:100E500070470000000C0140B4A600008D7900002E
:100E600010B50121080200F037FD0B480121816215
:100E70004161072101610A49084A8A620722120278
:100E800003069A6100228A62FF21C1624169C2148D
:100E90001143416110BD000040040140837A00000D
:100EA00080000040FEB56846FFF740FF0125684618
:100EB00005713F208002354E009069463046FFF7AD
:100EC00091FE03220A213046FFF7C6FE03220B21C2
:100ED0003046FFF7C1FE03220C213046FFF7BCFE6F
:100EE00003220D213046FFF7B7FE03220E213046C4
:100EF000FFF7B2FE03220F213046FFF7ADFE0224BA
:100F0000684604718020009069463046FFF76AFE0B
:100F1000684604711D4F20204037009069463846CE
:100F2000FFF760FE68460471082000906946384665
:100F3000FFF758FE68460471694638460094FFF78B
:100F400051FE684604710420009069463846FFF758
:100F500049FE684604714020009069463046FFF71C
:100F600041FE68460471E001009069463046FFF793
:100F700039FE6846057110200090002168464171D5
:100F800069463846FFF72EFEFEBD0000000801400E
:100F900030B59DB06846FFF7D3FAFFF7F1FA0124A8
:100FA00000250095214660030295019400F094FC11
:100FB0000021A00300F090FC0220119409950C90F0
:100FC0001890069505200321159417900A951695FB
:100FD0000B916846FFF74AFA1DB030BD08B5684668
:100FE000FFF7C4FB0020694688706846FFF750FB96
:100FF00001208002FFF78EFB08BD000000B59FB006
:10100000684600F097F900206B461871012159716C
:101010009971D971D882188358831D4A10AB9A866A
:101020006B46187258721B4A1A805A801A4ADA8321
:101030001A4A1A843022DA841A855A859A85DA8502
:101040001A8608AB9875D87510AB0E90D8751690A7
:1010500018771974197158719971D87118AB187083
:10106000D87310AB99721973987318AB187410ABCE
:10107000D8725973D8730B480949016367214163DA
:1010800008486946803800F043F81FB000BD0000F2
:10109000FF1F0000B206000053F9000042FB0000F1
:1010A000ADDE00008007014010B50121480200F0CC
:1010B00013FC012080070169090909010161054943
:1010C000034A8A62026902610020886210BD000042
:1010D000837A00008000004010B505480349016094
:1010E0000F218902416000F019FC10BDB4A6000078
:1010F000000C014004484169C21411434161034995
:101100000320486070470000400401408007014010
:10111000F8B50D4606460121102000F00DFC3046C2
:101120008149803001636A79297992001143AA7A52
:10113000EB7A12015B011A431143AA799201114320
:10114000EA79D20111432A7B120211436A7B5202CF
:101150001143F1672988316369887163E98B3162D2
:10116000298C7162698CB162A98CF162298931671D
:1011700029462031CB7D8A7D5B001A438B7FEC8A28
:101180009B01E40123431A430B7E1B021A434B7E4F
:101190005B021A43CB7F9B031A432B8BDB031A435F
:1011A0000262CB7E8A7E5B002C461A434034237851
:1011B0006F8B9B01FF013B431A430B7F497F1B024F
:1011C0001A4349020A43617889030A43A98BC90378
:1011D0000A434262A27B217B92001143A27AE37A06
:1011E00012015B011A431143627B52001143E27BFF
:1011F000D2001143227CD2011143227E12021143FC
:10120000E27D52021143A27E92021143627ED2021B
:101210001143227F12031143E27E52031143816284
:10122000627DE17C92001143627CA37C12015B0130
:101230001A431143227D52001143A27DD200114373
:10124000227CD2011143627F12021143A27F52021B
:101250001143C1622279A178120111436279237A84
:1012600052019B011A431143E27812021143A27901
:1012700012031143E27952031143627A920311433C
:101280007167E98C3165298D7165A18EB167E98936
:10129000B164298AF1641221695EB1631421695E27
:1012A000F16360352A78E17F520011436A78AB78A8
:1012B0009202DB021A43114301602A79E978520055
:1012C00011436A79AB799202DB021A4311438160C0
:1012D000E97B2A7C0901520111436A7C9201114386
:1012E000AA7CD201114301612A7AE97952001143A3
:1012F0006A7AAB7A9200DB001A431143EA7A120150
:1013000011432A7B520111436A7B92011143AA7B4C
:10131000D20111438161054931644160C16041617D
:1013200003490163F8BD0000ADDE0000FFFF0000CF
:10133000FECA000010B57621FEF739FF10BD10B5CA
:10134000002808D00088002805D0FFF7A5FB00F092
:1013500051F900F041F810BD002800DA4042704712
:10136000002801DA002070470349884201DD084661
:10137000704780B270470000B206000010B5014609
:10138000014800F0C5FC10BD1801002070B572B610
:1013900000240F480E4904720A2060394871204623
:1013A00000F04AFA62B60A480A4D2030448184812E
:1013B0002C836C832C65EC646C65FFF7FBF9FFF7FD
:1013C000EBF900221146688900F0ECF970BD0000CD
:1013D0007801002038000020F8B57F4DA86D401C32
:1013E000A865FFF75DFA28780026052800D92E7039
:1013F0002878A978884201D0012000E000200090E0
:101400002878052405280AD1687A002807D0734A6D
:101410001188288E81421DD1697900291AD0287837
:10142000002820D00098002810D072B6002000F0CC
:1014300003FA6B480A21417162B6FFF7ADF92878CB
:10144000052828D02E72EE852878A87028780528DF
:1014500026D03FE01188814201D0022000E0032025
:101460002871EC702EE0AE70FFF790FFE87900284D
:101470000CD00120E870688DE98A884203D2688D1B
:10148000401C6885F8BDEE712C70F8BD28790028E5
:10149000FBD1EE70F8BD2E716E72FFF78BF9D3E7BA
:1014A000FFF794F9002814D0A88D032802D2A88D44
:1014B000401CA885A88D03280CD30120A871287191
:1014C0000420E870EE712E70AE706E72FFF75EFF52
:1014D0005BE0AE852878052801D0012000E00020DF
:1014E0003F4960310872002802D06889203908819C
:1014F000FFF7AEF90320E8702E72EE642878384CBE
:101500000300803400F0E7FB0660041021264460ED
:101510006681A681A889092728836E832E656E655A
:1015200000220C21695E0CE06681A6810E2009274D
:10153000285EFFF725F92E8302B26A832E656E6559
:101540000021688900F02EF90DE0288A02276081C9
:10155000A68106E0668112200227285EFFF710F9B7
:10156000A081FFF75FF90098002832D01B4800885F
:10157000288672B61A484771012000F05DF9A88BE1
:10158000401CA8830120687262B6FFF789F9F8BD94
:101590002E27EF5F1220285EFFF7F2F8874203DA6A
:1015A000BF1C874205DC05E0874203DDBF1E874282
:1015B00000DA0746EF856681E88D0227A0810120C9
:1015C00028720320E870CCE72E70AE70FFF7DEFEC5
:1015D000F8BD03484771F8BD380000201200002014
:1015E0001801002010B50248FFF796FA10BD000060
:1015F0001801002070B5124C0625655F281E01DC1D
:10160000002205E00F4900F04EFB4904C20B0A43DB
:101610000020205E281A4003C0130021615E40189C
:10162000FFF764FA2080A068A168101A4003C01375
:10163000401800D50020A060A0680349C86370BDB1
:1016400024000020502701001801002018B50022B6
:101650006B461A805A80820B8004000E41000F4BAB
:10166000FF24201A4000595E185E002A09D0012A82
:101670000AD0022A0DD040426A461080518000985C
:1016800018BD6A46118002E06A46108048425080C8
:10169000F5E749426A4611804042F8E74A240000D3
:1016A00010B50321C90300F0FEFA0A4A0023FEF731
:1016B00051FD094B00221B1A8A4101DA064806E057
:1016C000054BDB43DA13C31A914100DAD00300B2B1
:1016D00010BD0000640D0000FF7F0000FEB50E4647
:1016E00004462D492546C20F71435019C9134010B5
:1016F0000A1A40184742284601920292FFF72CFE30
:1017000000900298FFF728FE01460098814203DD11
:101710000298FFF721FE00903846FFF71DFE0146B4
:101720000098814203DD3846FFF716FE00901B4902
:10173000884216DD084660430099FEF7F7FC044630
:10174000164800997043FEF7F1FC06461248E10F77
:1017500070430919C0134910421A08182546474218
:1017600001922046FFF79CFF0D4C60813046FFF749
:1017700097FFA081094C3819FFF7F2FD0746019841
:101780000019FFF7EDFD06462819FFF7E9FD3A4677
:10179000314600F021F8FEBDDA6E0000590300006A
:1017A0005801002038B514460D46FFF74FFF009052
:1017B0006A460220105E0023D35E01461A46694342
:1017C00062436B436043891A1818CA13C01301B2ED
:1017D00010B2FFF783FF38BD10B5054B54421C8291
:1017E0009A824A421A81998141421980988010BD9B
:1017F000000701408307FF22DB0E9A408907090E8C
:10180000994000280BDA0007000F083883080848C1
:101810009B001818C36993430B43C3617047830847
:1018200004489B001818036893430B4303607047F8
:1018300000ED00E000E400E00849074A0A630128DF
:10184000886A05D0064A10408862064808637047D7
:1018500040221043F8E70000ADDE000080070140A1
:10186000BFFF0000FECA0000014672B6FF209130A3
:10187000814201D2012000E00020FF23E0339942A1
:1018800001D9012300E000231843002801D00020E3
:1018900070470120000400680123DB0218435B014C
:1018A000186059200006586018464160C2689520AB
:1018B00000065860184600685B1198435B01186089
:1018C0001046E5E703688B4201DA016070479342F6
:1018D000FCDD02607047000010B50F4C0D4AA2629B
:1018E00023151A0501290BD0410503D511691943A8
:1018F000116118431169814311610020A06210BD7C
:10190000410503D511699943116198431169014358
:10191000F2E70000837A0000800000401FB500203D
:1019200000903F20000303900120019000030290EB
:101930006846FFF777FA1FBD074A064B93620029F6
:10194000D16901D0014300E08143D1610020906260
:1019500070470000837A00008000004070B50546A3
:10196000FF20D530FFF780FF000C032819D3FF209C
:1019700099300124A407061D002D09D0FFF774FF3C
:1019800080B260623046FFF76FFF80B2A06270BD28
:10199000FFF76AFF000C60623046FFF765FF000C3E
:1019A000F4E70220FFF7C8F970BD10B50020FFF77B
:1019B00043FF10BD10B5FEF7E3FD10BD7CB5002060
:1019C0000090019072B6294A1188108062B62848AA
:1019D0007D25ED0031E00288491E521C92B289B289
:1019E00002800E2A29D30E3A02806B461A88521CB6
:1019F0001A804288521C94B244808288521C92B24F
:101A00008280C3885B1C9BB2C3800A2C05D30A3C2E
:101A100044806E467488641C7480642A05D3643ADA
:101A200082806C46A288521CA280AB4205D35A1B0E
:101A3000C2806B46DA88521CDA800029CBD1684616
:101A4000008800280BD168464088002807D16846E6
:101A50008088002803D16846C088002805D06846E1
:101A6000FFF76DFC684600F01CF97CBD1C000020EF
:101A70000000002004480188044A914202D20188F3
:101A8000491C0180704700001C000020FFFF00007F
:101A900010B50B4909488862C805016982141143D1
:101AA0000161FF20C930FFF7DFFE064C2080FF20D8
:101AB000CD30FFF7D9FE608010BD0000837A0000B2
:101AC00080000040F600002030B587B06846FFF780
:101AD0002DF900246A4614711020184D042200903C
:101AE00011462846FFF7B8F869462846FFF77AF806
:101AF00001216A4611712021009104220521284606
:101B0000FFF7AAF869462846FFF76CF803A800F02B
:101B1000B9F84B20C0010390049403206A46107664
:101B200003A9074800F058F802210820FFF762FED9
:101B30000449A815086007B030BD00000008014046
:101B40000009014000E100E070B5204E306A002439
:101B5000C0071F4D002813D001213046316229787B
:101B600003290BD1AA7869788A4207D229460F3116
:101B7000515C521CAA7000F083F801E02C70AC702C
:101B8000306A80071BD502213046316200F076F8BA
:101B9000C1B22878002811D10E480470E8780028D6
:101BA00008D00B280AD20A4A121D8154E878401C3A
:101BB000E87004E0AA29F6D0EC7070BDEC70306AD1
:101BC0004007FAD50420306270BD000000090140D2
:101BD000FC0000201E000020FEB50C460646012138
:101BE0000420FFF7A9FE00252B462148294622683C
:101BF000FEF7B0FA0122002300910190FEF7AAFA45
:101C00001C4F06E0AA1C00236D1C00990198FEF7EA
:101C1000A1FAB842F6D818498D61401EC1B2B16030
:101C20000004000E7060E079012802D002281CD068
:101C300000200021637922795B001A43A379C9004F
:101C40009B000B431A4300010243207A40010243E8
:101C50003260E17BA07B490008437062608930619B
:101C6000607BB061207BF061FEBD01200146E1E7B1
:101C7000006CDC02FFFF000080000040C06870477D
:101C8000C16070474B21C9010160002101714171A0
:101C90008171C17101724173418101738173C1739B
:101CA000704770477047F8B504148BB2264682B26D
:101CB0005E430D1410463714584336048019002132
:101CC000794116466E433714360480197941264609
:101CD0006E438919F8BD30B47446641E2578641CBF
:101CE000AB4200D21D46635D5B00E31830BC184771
:101CF00002E008C8121F08C1002AFAD170477047D5
:101D0000002001E001C1121F002AFBD17047000032
:101D1000F0B5044606468DB000680834019070792D
:101D2000254640350A2842D060886F467880208852
:101D300038803020205E82210B90885F0A22069036
:101D4000AA5E0221795E4A430C23EB5E0020385ED6
:101D50004343D218D21304920C22AA5E4A430A21AA
:101D6000695E4143501AC01302900498FEF714FFB5
:101D7000E0800298FEF710FFA080E0882081A08814
:101D800060817079092821D01421695E0498091AAC
:101D90001622AA5E02982162171A6762019A0A2027
:101DA000105E9288002A16D06C22B25E16E00020E7
:101DB00020616061A061E061A081E08120626062D9
:101DC0006880A8805E4802461146B6E00020206286
:101DD00060620DB0F0BD019B06229A5E01920A4638
:101DE0004243784305920390206923461833019AB1
:101DF000FEF7C0FE0646606923461C333946019A49
:101E0000FEF7B8FE4F4A019051423046FEF7BCFE45
:101E10000746B04201D00020A0614A4A01985142D1
:101E20000C90FEF7B1FE06460C98864201D00020C9
:101E3000E0610598434A38185142FEF7A5FE01902B
:101E40000398404A30185142FEF79EFE03900198D5
:101E5000FEF758FE05900398FEF754FE059981425F
:101E600001DA014605981B2250438011411806985B
:101E7000814213DD002911DDC003FEF757F90199F6
:101E800047434143C91301910399FF134143C913C8
:101E90004643F61300200391A061E061276166616B
:101EA0000198FEF779FEA0810398FEF775FEE081A8
:101EB000A089E880E08928810498FEF723FE064681
:101EC0000298FEF71FFEB04203DD0298FEF71AFEED
:101ED00006463046FEF760FE28826B460220185EFA
:101EE000019902464A430021595E039B4B43D21A93
:101EF000019BD2135943039B58430818C61310463D
:101F0000FEF74AFE68803046FEF746FEA8800AAB20
:101F100009AA08A907A86F460FC70421695E022015
:101F2000285E094B0B9AFEF703FD07982085089958
:101F30006185099AA2850A9BE385FEF739FE48E789
:101F400059030000FF7F0000B2060000002102E0FC
:101F500000BF491C89B28142FAD37047F8B50446E4
:101F600008688569002D04DC2148002141808180BA
:101F7000F8BD2048854200DD054620686268294694
:101F80004043524369438018081AC217D20C1018F4
:101F9000490B40130029EBDD4003FEF7C7F8012190
:101FA000490300F01CFA07460002C117C90C0818C3
:101FB0004613206801467043C217D20C1018421312
:101FC00060687043C317DB0C181840130090881822
:101FD000294600F004FA2060616800980818294634
:101FE00000F0FDF9024960604F808E80F8BD00006E
:101FF00094000020FF7F0000F8B50546087E1646D5
:102000000C46002820D0626920698018010C691AEA
:1020100009B24B03C018C901206150180E49606114
:1020200000F0DDF9606127690C49380C2D1A6069F0
:10203000FEF77CF83A14C6218A538036308108486E
:10204000C5806169C160F8BD28042061002060611D
:1020500001202076E7E70000E037A803E44F000006
:10206000940000200021016041608160C160016135
:1020700041610176024841808180C180C160704722
:1020800094000020FFB583B010980E9F05680F9C48
:10209000AE69002E37DD002F35D01E48864200DDA8
:1020A00006462869504300F08DF901902869069989
:1020B000484300F087F90090A2680C986969801A7B
:1020C0004143039A0198101A7843401A00F07AF9B4
:1020D0000190E2680D986969801A4143049A00985A
:1020E000101A7843401A00F06DF9054621680198EE
:1020F0000818314600F073F92060606831464019D5
:1021000000F06DF960600C98A0600D98E06007B079
:10211000F0BD0000FF7F0000F0B5002926D0036865
:1021200042681846104320D00024002B03DA5B429B
:1021300052420124E4030E4F00201D46002A164699
:1021400007DD064173190541521B45007D5B2C19C3
:1021500006E00641AB1B0541AA1845007D5B641BE8
:10216000401CC0B20F28E8D3A0B20880F0BD000028
:102170004A260000F0B50F464037104D3B8800243A
:102180002C616C61AC61EC6106462C706C70A43003
:10219000FFF768FF0A203246385E8032D0620C209A
:1021A000385E106364208455180490641384C0362C
:1021B000F38014812B816C81F0BD0000940000201D
:1021C000F0B589B004000ED0206800280BD0264658
:1021D0002179254608366035022902D1C0780028C9
:1021E00003D00020E87209B0F0BDE87A002805D1DC
:1021F00031462046FFF7BEFF0120E872002031463D
:102200004031079006915A4802228A5E0369D2182B
:102210000261944604228A5E4369D21842610A230D
:10222000CB5E8769DB1983610C23CB5EC1692746CE
:102230005918C16101788037491CC9B20170204624
:10224000A4300590042944D36046C017810F60462E
:102250000818D117890F8918891080100091FEF78E
:1022600045FC716BFEF732FC08900098FEF73EFCCF
:10227000716BFEF72BFC01460898F163B0633C4894
:10228000069E8069FF23C217920F101880108646A1
:1022900037481D33C069C217920F10180C22B25E66
:1022A00080108446059802930192039004940A20BA
:1022B000305E0090634672460898FFF7E3FE2C49B3
:1022C0000020086148618861C86108700120487079
:1022D00024E0274E7078012802D0022806D01DE0A5
:1022E00021460598FFF73AFE022016E02146A0316C
:1022F0000598FFF711FF2020385E22460599FFF769
:102300007BFE012007902020385E3081069A002154
:10231000515EFEF7E7FB7081002070700598C034B5
:10232000027E0799002A02D000291BD102E000207A
:1023300028710CE02979002914D04069B96CC217C2
:10234000920F101880100818B8640014E080287AE2
:10235000002800D047E728790028FBD00698E188BC
:10236000018040E70069B86401202871B86CECE78F
:1023700094000020FEF714FD00F008F8FFF792FC2F
:10238000FEF7AAFAFFF71AFBFCE7000070B5FFF7AB
:1023900029F9094D00242846FFF7D8FD641CE4B252
:1023A0000A2CF8D3FEF720F90448FFF75BFE044936
:1023B0003020486162B670BD60EA0000BC010020B8
:1023C0008007014010B5002802DBFF30F53001E046
:1023D000FF38F5387D21C900FDF7A8FE10BD884201
:1023E00002DC4942884200DA08467047002800DAD9
:1023F0004042704770B50D460646FFF7F7FF0446AA
:102400002846FFF7F3FF844201D9304670BD2846C5
:1024100070BD002803D00368934201DD026070475D
:102420008B42FCDA0160704700B500280CD0012215
:10243000D207914201D14A1E03E0002900DA494245
:102440000A465142FFF7E5FF00BD0000C9009201B6
:102450005B022403ED03B6047F0548061107D90784
:10246000A2086B09330AFB0AC40B8C0C540D1C0E1A
:10247000E40EAB0F73103A110112C8128F135514EA
:102480001C15E215A8166E173318F918BE19831A11
:10249000471B0C1CD01C931D571E1A1FDD1F9F20AD
:1024A00062212422E522A72367242825E825A826DF
:1024B00068272728E528A429622A1F2BDC2B992CC2
:1024C000552D112ECC2E872F4230FC30B5316E3277
:1024D0002733DF3397344E350436BA367037253814
:1024E000D9388D39403AF33AA53B573C083DB83DC1
:1024F000683E173FC63F74402141CE417A42264391
:10250000D1437B442445CD4575461D47C4476A48A1
:102510000F49B449584AFB4A9E4B404CE14C814D0F
:10252000214EC04E5E4FFB4F98503451CF516952EF
:1025300003539B533354CA546055F6558A561E575D
:10254000B1574358D4586459F459825A105B9D5B73
:10255000295CB45C3E5DC85D505ED75E5E5FE45F43
:102560006860EC606F61F1617262F2627163EF63E7
:102570006C64E9646465DE655766D0664767BD676D
:102580003268A7681A698C69FD696E6ADD6A4B6BEF
:10259000B86B246C8F6CF96C626DCA6D316E976E7E
:1025A000FB6E5F6FC26F23708370E37041719E7129
:1025B000FA715572AF7208735F73B6730B746074FF
:1025C000B37405755675A675F47542768E76D97610
:1025D00023776C77B477FB7740788578C8780A7969
:1025E0004A798A79C979067A427A7D7AB77AEF7A16
:1025F000277B5D7B927BC67BF97B2A7C5A7C897C1E
:10260000B77CE47C0F7D3A7D637D8A7DB17DD67D8C
:10261000FB7D1E7E3F7E607E7F7E9D7EBA7ED67E67
:10262000F07E0A7F227F387F4E7F627F757F877FB3
:10263000987FA77FB57FC27FCE7FD97FE27FEA7F79
:10264000F17FF67FFA7FFE7FFF7F0020E412FB0917
:1026500011058B024601A3005100290014000A0055
:102660000500030001000100882600000000002092
:10267000FC000000F01C000084270000FC0000208B
:10268000EC040000001D000000000000000000003D
:10269000000000000000000000000000000000003A
:1026A000000000000000000000000000000000002A
:1026B000000000000000000000000000000000001A
:1026C0000001FF00000000000000000014001400E2
:1026D00064005802D007F401000000000000000070
:1026E00000000000000000000000000000000000EA
:1026F00000000000000000000000000000000000DA
:1027000000000000000000000000000000000000C9
:1027100000000000000000000000000000000000B9
:1027200000000000000000000000000000000000A9
:102730000000000000000000000000000000000099
:102740000000151BFF7F040000000000FE000000D9
:102750005701000062110000FF7F00000000000030
:10276000307560F00000A00F0000000000000000C5
:102770000000000000000000000000000000000059
:042780000000000055
:04000005000000C136
:00000001FF
