:020000040000FA
:10000000C8050020D9000000E7000000291000000A
:1000100000000000000000000000000000000000E0
:10002000000000000000000000000000EB000000E5
:100030000000000000000000ED000000EF000000E4
:10004000F1000000F1000000A5130000F100000025
:10005000F1000000F1000000F1000000F1000000DC
:10006000FD1D0000ED05000009030000F100000087
:10007000F1000000F100000000000000000000009E
:100080000000000000000000000000000000000070
:100090000000000000000000000000000000000060
:1000A0000000000000000000000000000000000050
:1000B0000000000000000000000000000000000040
:1000C0000448854600F0FCF800480047F924000089
:1000D000C046C046C8050020064880F30888064888
:1000E000804706480047FEE7FEE7FEE7FEE7FEE73B
:1000F000FEE70000C8050020691C0000C1000000E8
:1001000030B50B46014600202022012409E00D46AF
:10011000D5409D4205D31D469540491B2546954037
:1001200040191546521E002DF1DC30BD70B500247B
:100130002546002801DA01244042002901DA012580
:100140004942FFF7DDFFAC4200D04042002C00D016
:10015000494270BDF8B500242546002904DA0E4650
:10016000012400214042B141002B04DA1E46002345
:1001700052420125B34100F062F88C4617461E46F4
:10018000AC4203D0002540428D41AC46002C02D049
:10019000002657429E4161463A46334601B0F0BDC3
:1001A000F0B51FB486B00020009001900290069830
:1001B000069980B204900798090C020400141143B8
:1001C00007900027089D099806913E463C460390FB
:1001D0000398A9B20204000C039004982D0C154357
:1001E00048430021224600F05AF8C71971411034E3
:1001F0000E46402CECDB3846029A00F050F8009A8C
:10020000019B801800905941029801911030029092
:100210004028CCDB00980BB0F0BDD2B201E00270F8
:10022000401C491EFBD270470022F6E710B513466A
:100230000A4604461946FFF7F0FF204610BDF0B508
:100240001FB40646002082B005464024019100906C
:100250001BE0019922460F46304600F043F8049A0D
:10026000059B801A994110D310461946224600F08A
:1002700016F8361A8F410197224601200021009F6F
:1002800000F00DF838184D4100902046641E0028FB
:10029000DFDC019B00982946324607B0F0BD10B55F
:1002A000202A04DB0146203A9140002010BD9140F5
:1002B00020239C1A0346E3401943904010BD0000E0
:1002C000064C0125064E05E0E36807CC2B430C3CA9
:1002D00098471034B442F7D3FFF7F6FE38280000F1
:1002E0005828000010B5202A04DB0846203AD040E8
:1002F000002110BD0B46D340D0402024A21A9140CB
:100300000843194610BD000070B51C48C16A03229D
:100310001143C1624169C21411434161184E102159
:10032000304600F05BFE174D288B174CA08100F083
:1003300005FD00F02DF801F0F7FC288BE081A18984
:1003400080B2401A20821021304600F045FE0D4D4B
:1003500060356869C00602D4686980060DD5686991
:10036000A080A86AE0800948406920816089401C1B
:10037000608101F074FC3020686170BD4004014070
:100380004008014020070140080000200002014011
:10039000F8B500F039F801F067FB174D0426AE5FA1
:1003A000301E01DC002705E0144901F0D6FD4904A8
:1003B000C70B0F43124C0020205E301A4003C013BD
:1003C0000021615E401800F0F9FC2080E068381AD6
:1003D000C117C20C4903114340034904C00B084331
:1003E000E1684018E060E06806498863288A208157
:1003F000A88A6081F8BD0000000401405027010078
:100400003000002010010020F0B589B001F028FA7A
:100410006F4F70493C46083438680C2505904D5F95
:100420000020085E0090284600F0C8FC6A4E30802C
:10043000009800F0C3FC69493A4608803188403290
:10044000118750870020908705981E21415E4E1B22
:100450002021415E00980D1A7019404200903046EC
:1004600000F0ACFC5E490880284600F0A7FC5C491F
:100470004880009800F0A2FC59498880304600F07E
:100480007BFC0090284600F077FC06460098801917
:1004900040420190009800F091FC514DAD1D288024
:1004A000304600F08BFC6880019800F087FCA88043
:1004B00029882046403004900646C1800020285EEE
:1004C000484948430221695E474A51434018C013D6
:1004D00000F074FC30813E20205E216B00F058FC5F
:1004E00060630020305E216B00F052FCA0637979DC
:1004F0003D4680350A2918D039469A318A1C47234F
:100500000093019202910397049908230622CB5E7F
:100510008A5E666B0146304601F02AFFB720C05D57
:1005200000280AD1688BA08707E004980621415E65
:10053000696204980821415EA962A08F01F098F9D0
:1005400000906846008820806846408860800420CB
:10055000285E06900620285E079005982621415EB9
:1005600002462A20105E02F018F8050000D5454228
:10057000002D13DD294606A802F03EF82846014664
:1005800001F0EBFC05460698014601F0E6FC281A4E
:1005900002F012F8014607A802F02EF8069800F0C3
:1005A0000DFC04990882079800F008FC0499488221
:1005B0000598808CA08578790A2806D002203871A9
:1005C000012001F02FF809B0F0BD0020F7E700008E
:1005D00010010020000401402C0000202E0000200B
:1005E00044000020E7490000CD9300000CB50D4801
:1005F00041680D4A11804168C90710D000216A4640
:10060000117007E04169C90702D01178491C1170C7
:100610001179491C117111790529F3D3117803213E
:1006200041600CBD000201400800002010B50446E6
:100630000121082001F0DAFA6069616C400201438F
:10064000A06CA269000252001043014329480160D6
:10065000216862680901D2001143A26811438160D8
:10066000E169226AC90192011143626A5201114390
:10067000A26A12011143E26CD2001143226D920072
:100680001143626D52001143A26D1143C160616B51
:10069000A26BC90192011143E26B52011143226C1A
:1006A00012011143626ED2001143A26E92001143F7
:1006B000E26E52001143226F114301610F4A0E494D
:1006C0009162E16AE3680903DB021943E36D1B02EF
:1006D00019432369DB011943236B1B011943236E63
:1006E0009B00194343055961002191620321416038
:1006F00010BD000000020140837A0000800000402D
:100700000021012206C001608160C1600161416178
:100710008161C161016241628162C16201634163C1
:100720008163C163016441648164C16401654165A1
:100730008165C1650166416642608166704700005F
:1007400010B50F4C0D48A062012001F061FAE005E0
:10075000016905225203114301610A4A104601F062
:10076000F9FD104601F0F6FD2068074908432060B6
:100770000020A0610548E06110BD0000837A000000
:100780008000004088130000FF010000FF0300000C
:10079000034802490160632141607047580B000023
:1007A00040040140FEB572B6002628480096009924
:1007B000491C00918142FAD3254A00252C465661F6
:1007C0005069D31418435061FFF7E2FF68468680F2
:1007D0001F4F403F18E000960098401C0090984240
:1007E000FAD3D06A03210843D0625069184350619C
:1007F0000C20385E45190020385E041915489061B8
:1008000069468888401C88806846818801204002AB
:100810008142E0D300F07EFCFFF7BAFF62B66812B7
:100820000D4D28806012688001F01AF80B4A0020F4
:100830001168285EC88302211368695E19841268F2
:100840000003568468600803A860FEBDFFFF020035
:1008500040040140A55A00002000002010010020A3
:1008600070B504460121C80201F090F9012080070B
:10087000416861701849174A8A62426923785B00AF
:100880001A43426115488862FF216078C131144DD6
:100890000E1D012813D002281AD1A07800280DD0EF
:1008A000012815D103202870084601F037F90014FB
:1008B0006880304601F032F9001408E00220287008
:1008C000084601F02BF96880304601F027F9A8802E
:1008D00070BD0000837A000080000040FFFF000030
:1008E000E800002010B5144C00212278022A01D81B
:1008F000552102E0032A00D135214843010BFF298D
:1009000000DBFF210223E35E042218464843A25E77
:100910004012801800B2002801DA002002E0FF280F
:1009200000DDFF200124A407002B01D1002A01D003
:10093000E06210BDE16210BDE800002010B50321A7
:10094000FFF772FC10BD002800DA40427047904269
:1009500001DD104602E0884200DA084600B2704726
:1009600070B5134E308B00281FD0124D0020285E2A
:10097000FFF7E9FF04460220285EFFF7E4FFA042EC
:1009800004D90220285EFFF7DEFF04460420285E1B
:10099000FFF7D9FFA04204D90420285EFFF7D3FF58
:1009A0000446308B844201D9012070BD002070BD07
:1009B000500000204A00002010B50C48002101849E
:1009C000C288428481848170018541858185C18589
:1009D000018641868186C1860171416581650187F5
:1009E0004171034801F0BEFC10BD00005000002022
:1009F000AC010020044800218161C1618182C18273
:100A0000016241627047000010010020F8B5484FB4
:100A1000484C788B6085608D618C401AA085F869A0
:100A2000014601F09AFA0546386A014601F095FA46
:100A3000281801F0C1FD608660790028608D46D0DD
:100A4000218F401A618D00B221873B494843C1176D
:100A5000090C081800143421615E401AC117490FAF
:100A60000818C1103420205E344A0818D143FFF71B
:100A70006EFFA086A08DE18D401A00B2C117490F0C
:100A80000818E18DC0104018E085A08DE18D401A56
:100A900000B2FFF758FF20862020205EFFF753FFAB
:100AA0003421615E2022A25E8B1A2021615E002922
:100AB00003DD3421615E002907DC2021615E00290D
:100AC0000BDA3421615E002907DA012206E0208773
:100AD000A08DE08501206071F8BD00221449FF2639
:100AE000803909682D368969CD0F69184D103C2869
:100AF00019D3002A17D01846FFF725FF1E2812D851
:100B0000608EA8420FDB208E0121090388420AD89B
:100B1000E08EB04202D2E08E401CE086E08EB04211
:100B200003D3012002E00020F7E700202071F8BD88
:100B3000900100205000002060EA0000FF7F0000CC
:100B400070B5174A174D12205142285EFFF7FFFE7D
:100B50000446A88A002814D0A98AA86D40187D21CF
:100B6000C900FFF7CDFAA96500280DD02021695EE4
:100B7000611A002909DD884200DD0846298C081821
:100B80000BE02C840020A86570BD0029FCDA4942E6
:100B9000884200DD0846298C081A288470BD0000B0
:100BA000B80B00005000002009481E210182B4212A
:100BB000418278218182FF21F531C1824900018380
:100BC0000021C1840121C17005210170704700001E
:100BD00050000020F0B51C46564B85B04B43DB134C
:100BE0005D4200290BDB002803DB834205DC012585
:100BF00010E0854201DD03250CE002250AE0002813
:100C000003DB854205DC062504E0834201DD042583
:100C100000E005250023009301930293454B4B43CD
:100C2000DE13454B871B5943CB136743F9130491DC
:100C300019466143C91303913118301A0E466643B1
:100C4000F7136043C61348426043C11358426043E0
:100C5000C0132B0001F099F9064204101B26314203
:100C60000499039863181B18DE0FF3185B10591AC8
:100C7000081A0093019108E0E0198019C10F0818C3
:100C800040100190801B0090C01B029020E0039850
:100C900023185B18DE0FF3185B10181A02900193EB
:100CA000401A08E0A1190918CB0F59184910081A61
:100CB00001900291801B00900AE0049863181B18B1
:100CC000DE0FF3185B10591A02930091081A019075
:100CD0000120C003002A0ADA00220BE02118C919FA
:100CE000CB0F591849100091C91B0291EEE78242BF
:100CF00000DD0246101844432414224600216846B1
:100D000000F03AFF2246002101A800F035FF2246FC
:100D1000002102A800F030FF0A98009901600B98AA
:100D2000019901600C98029901600D98056005B069
:100D3000F0BD0000E7490000CD93000010B5074961
:100D40007D2248889201401C80B24880904203D99D
:100D50000020488000F0B4F910BD00000800002019
:100D6000002800DA40420349884200D9084680B290
:100D700070470000FF7F000010B5044901F0EDF856
:100D80004904C00B084300F019F810BD5A4D00008B
:100D900010B50446002901DC002010BD08460649B4
:100DA00001F0DBF84A04C10B1143204601F0D5F8ED
:100DB0004904C00B084310BD555500000449884242
:100DC00002DCC943884201DA0846704700B2704726
:100DD000FF7F0000016800290AD106490160002157
:100DE00001710A2141710449818601214030C18687
:100DF00070470000AC00002030750000904201DD1B
:100E0000104670478842FCDA0846704710B501F07A
:100E1000A4F84A04C00B1043C91300F00DF810BD2C
:100E20000449884202DCC943884201DA0846704717
:100E300000B27047FF7F0000074B00221B1A8A4157
:100E400001DA054870470123DB07DA17C31A91411D
:100E5000F8DAD00770470000FFFFFF7F0A4B10B59C
:100E6000984200D91846994200D919469A4200D9A9
:100E70001A46064B54421C829A824A421A81998130
:100E800041421980988010BDB20600000007014061
:100E900070B5002301252A460C689A4014409442FC
:100EA0002AD10C79002C04D0012C11D0022C04D0B2
:100EB00006E004681646264306604468944344608E
:100EC0004C79012C0BD0022C10D0002C0BD00DE053
:100ED000046894430460466814463443EFE70669A7
:100EE0001446344301E004699443046184698E68C4
:100EF000012E05D0944384615B1C102BCBD370BDB5
:100F00001443F8E7F0B5324F1601150214030B0035
:100F100001F03BF810090D13181E22282D33373D20
:100F200042484C52571D016A394089180EE0016A47
:100F3000274AE13A1140711808E0016A254A114038
:100F4000691803E0016A0905090D61180162F0BD25
:100F5000416A394089180EE0416A1D4AE13A114060
:100F6000711808E0416A1B4A1140691803E0416AA0
:100F70000905090D61184162F0BD816A394089187F
:100F80000EE0816A124AE13A1140711808E0816A64
:100F9000104A1140691803E0816A0905090D6118BA
:100FA0008162F0BDC16A394089180EE0C16A084A01
:100FB000E13A1140711808E0C16A064A1140691807
:100FC00003E0C16A0905090D6118C162F0BD0000A6
:100FD000F0FF0000FFF000004163704701637047BD
:100FE00000210160017141718160704701239B07FD
:100FF000996A02468906890E2032202903D391423C
:1010000001DC20200EE03F2901D8914203DC1F299A
:1010100004D8814202DB081AC0B203E0081A0007B4
:10102000000F30309862704707490648086300F0A7
:1010300016FEBFF34F8F06490448C860BFF34F8FB9
:10104000FEE70000ADDE0000800701400400FA0565
:1010500000ED00E010B572B6164817498862881393
:101060000168C2001143016000F054F800F01EF95D
:1010700000F070F800F00AF900F06EF900F0E0F806
:1010800000F082F900F07AFE00F05CFE642001F0CE
:1010900061F901210A2000F0C5FC0021092000F0BF
:1010A000C1FC012005494002086004494000803924
:1010B000086010BD837A00008000004080E100E0FD
:1010C000034802490160034981607047B4A60000EB
:1010D000000C01408D79000001684268090111434C
:1010E000094A5160094B1360C1681161C168806889
:1010F000814201D9081A01E001200003D060136089
:101100000348906070470000000C0140B4A6000046
:101110008D79000010B50121080200F037FD0A4862
:10112000012181624161062101610949074A8A6200
:10113000021503069A6100228A62FF21C162416999
:10114000C2141143416110BD40040140837A000084
:1011500080000040FEB56846FFF742FF0125684663
:1011600005713F208002354E009069463046FFF7FA
:101170008FFE03220A213046FFF7C4FE03220B2113
:101180003046FFF7BFFE03220C213046FFF7BAFEC0
:1011900003220D213046FFF7B5FE03220E21304613
:1011A000FFF7B0FE03220F213046FFF7ABFE02240B
:1011B000684604718020009069463046FFF768FE5B
:1011C000684604711D4F202040370090694638461C
:1011D000FFF75EFE684604710820009069463846B5
:1011E000FFF756FE68460471694638460094FFF7DB
:1011F0004FFE684604710420009069463846FFF7A8
:1012000047FE684604714020009069463046FFF76B
:101210003FFE68460471E001009069463046FFF7E2
:1012200037FE684605711020009000216846417124
:1012300069463846FFF72CFEFEBD0000000801405D
:1012400030B59DB06846FFF75BFAFFF779FA0124E5
:1012500000250095214660030295019400F096FC5C
:101260000021A00300F092FC0220119409950C903B
:101270001890069505200321159417900A95169548
:101280000B916846FFF7D2F91DB030BD08B568462E
:10129000FFF754FB0020694688706846FFF7E0FAC4
:1012A00001208002FFF71EFB08BD000000B59FB0C3
:1012B000684600F097F900206B46187101215971BA
:1012C0009971D971D882188358831D4A10AB9A86B8
:1012D0006B46187258721B4A1A805A801A4ADA836F
:1012E0001A4A1A843022DA841A855A859A85DA8550
:1012F0001A8608AB9875D87510AB0E90D8751690F5
:1013000018771974197158719971D87118AB1870D0
:10131000D87310AB99721973987318AB187410AB1B
:10132000D8725973D8730B48094901636721416327
:1013300008486946803800F043F81FB000BD00003F
:10134000FF1F0000B206000053F9000042FB00003E
:10135000ADDE00008007014010B50121480200F019
:1013600015FC01208007016909090901016105498E
:10137000034A8A62026902610020886210BD00008F
:10138000837A00008000004010B5054803490160E1
:101390000F218902416000F01BFC10BDB4A60000C3
:1013A000000C014004484169C214114341610349E2
:1013B000032048607047000040040140800701405E
:1013C000F8B50D4606460121102000F00FFC30460E
:1013D0008149803001636A79297992001143AA7AA0
:1013E000EB7A12015B011A431143AA79920111436E
:1013F000EA79D20111432A7B120211436A7B52021D
:101400001143F1672988316369887163E98B31621F
:10141000298C7162698CB162A98CF162298931676A
:1014200029462031CB7D8A7D5B001A438B7FEC8A75
:101430009B01E40123431A430B7E1B021A434B7E9C
:101440005B021A43CB7F9B031A432B8BDB031A43AC
:101450000262CB7E8A7E5B002C461A43403423789E
:101460006F8B9B01FF013B431A430B7F497F1B029C
:101470001A4349020A43617889030A43A98BC903C5
:101480000A434262A27B217B92001143A27AE37A53
:1014900012015B011A431143627B52001143E27B4C
:1014A000D2001143227CD2011143227E1202114349
:1014B000E27D52021143A27E92021143627ED20269
:1014C0001143227F12031143E27E520311438162D2
:1014D000627DE17C92001143627CA37C12015B017E
:1014E0001A431143227D52001143A27DD2001143C1
:1014F000227CD2011143627F12021143A27F520269
:101500001143C1622279A178120111436279237AD1
:1015100052019B011A431143E27812021143A2794E
:1015200012031143E27952031143627A9203114389
:101530007167E98C3165298D7165A18EB167E98983
:10154000B164298AF1641221695EB1631421695E74
:10155000F16360352A78E17F520011436A78AB78F5
:101560009202DB021A43114301602A79E9785200A2
:1015700011436A79AB799202DB021A43114381600D
:10158000E97B2A7C0901520111436A7C92011143D3
:10159000AA7CD201114301612A7AE97952001143F0
:1015A0006A7AAB7A9200DB001A431143EA7A12019D
:1015B00011432A7B520111436A7B92011143AA7B9A
:1015C000D20111438161054931644160C1604161CB
:1015D00003490163F8BD0000ADDE0000FFFF00001D
:1015E000FECA000010B57621FEF71EFE10BD10B534
:1015F000002804D00088002801D000F03FF810BD7A
:10160000002800DA40427047002801DA00207047C5
:101610000349884201DD0846704780B270470000E8
:10162000B206000010B50146014800F0CBFC10BD29
:101630001001002070B5002000F058FA0D48002479
:101640000C4EC4750A20A03E7071304680308480F4
:10165000094DC480AC83EC832C84AC846C65AC6590
:10166000FFF7C8F900221146E88800F0B3F9347199
:1016700070BD0000B001002050000020FEB5754C88
:1016800020780025052800D92570207861788842C7
:1016900001D0012000E0002001902078002814D023
:1016A000019800280BD0002000F020FAFFF7A2F9E3
:1016B000207805281BD02584A58420786070E688D2
:1016C00020780127052815D043E06570FFF7B2FFA9
:1016D000E078002806D0E08C618B884203D2E08C51
:1016E000401CE084FEBDE57005202070FEBDFFF7C4
:1016F00063F9E2E7FFF734F900280CD0208D0328C6
:1017000002D2208D401C2085208D032804D3A77091
:10171000257065709AE02585A08CE18A884204D204
:10172000A08C401CA084258410E0FFF709FA208CCF
:10173000616D0004461848493046FEF7F7FC4649FB
:101740004143711A6165618C08186084FFF75EF986
:10175000668C4248C7750746603FBE80304600F041
:1017600087F80E2200901021BA5E795E2046E2636F
:1017700021646F4602243C5F0023FB5EA4461F46A3
:1017800054434B43E318DB13436464464C435743D1
:10179000E11BC9138164314F0221A03F39710278E6
:1017A0003C468034130000F0F0FB064F0411212664
:1017B0003A4F09217971A580E58001898183C5832C
:1017C000C564056500220821415E0BE0092179719D
:1017D000A580E58085834189C183C56405650A22AA
:1017E000825E0021C08800F0F5F810E079718189EF
:1017F000A180E58003E07971A580C189E180B98A83
:1018000081831621795EC1837A6AC2640165019879
:10181000002800D16AE7012000F068F9FEBDFF2230
:101820000C4BAD3210205142185EFFF790F8014684
:1018300009207871A5800748E5808183C583C56448
:10184000056500223046CEE705704570FFF7F2FED1
:10185000FEBD00005000002060EA0000B001002042
:1018600010B50248FFF7B6FA10BD000010010020C5
:1018700018B500226B461A805A80820B8004000E35
:1018800041000F4BFF24201A4000595E185E002AC9
:1018900009D0012A0AD0022A0DD040426A4610809F
:1018A0005180009818BD6A46118002E06A46108097
:1018B00048425080F5E749426A4611804042F8E7C5
:1018C0001A26000010B50321C90300F046FB0A4A9E
:1018D0000023FEF73FFC094B00221B1A8A4101DA64
:1018E000064806E0054BDB43DA13C31A914100DAE0
:1018F000D00300B210BD0000640D0000FF7F0000A7
:10190000FEB50E46044630492546C20F71435019B4
:10191000C91340100A1A4018474228460192029201
:10192000FFF76EFE00900298FFF76AFE01460098EE
:10193000814203DD0298FFF763FE00903846FFF70F
:101940005FFE01460098814203DD3846FFF758FEEE
:1019500000901E49884216DD084660430099FEF754
:10196000E5FB0446194800997043FEF7DFFB064685
:101970001548E10F70430919C0134910421A08189D
:101980002546474201922046FFF79CFF104C2085D8
:101990003046FFF797FF60852146228D4031CA808F
:1019A0000A4C08813819FFF72FFE074601980019E5
:1019B000FFF72AFE06462819FFF726FE3A4631466B
:1019C00000F022F8FEBD0000DA6E000059030000AE
:1019D0001001002038B514460D46FFF749FF00906E
:1019E0006A460220105E0023D35E01461A46694310
:1019F00062436B436043891A1818CA13C01301B2BB
:101A000010B2FFF77DFF38BD10B5054B54421C8264
:101A10009A824A421A81998141421980988010BD68
:101A2000000701408307FF22DB0E9A408907090E59
:101A3000994000280BDA0007000F0838830808488F
:101A40009B001818C36993430B43C3617047830815
:101A500004489B001818036893430B4303607047C6
:101A600000ED00E000E400E0F8B51C480C21415E08
:101A70001B4A0023D35E5C1A0021415E19480022F4
:101A8000825E2046561AFFF799F9174D6880304656
:101A9000FFF794F9A8802046FFF762F90446304624
:101AA000FFF75EF9844200D920460F4F04461A37EB
:101AB0000020385EFFF754F906460220385EFFF733
:101AC0004FF9864200D93046E9888C4200D9EC8033
:101AD0002969884200D92861F8BD0000000401404E
:101AE0002000002022000020300000200849074A82
:101AF0000A630128886A05D0064A104088620648B1
:101B00000863704740221043F8E70000ADDE000094
:101B100080070140BFFF0000FECA0000014672B608
:101B2000FF209130814201D2012000E00020FF23FC
:101B3000E033994201D9012300E000231843002833
:101B400001D0002070470120000400680123DB025F
:101B500018435B0118605920000658601846416020
:101B6000C268952000065860184600685B119843CB
:101B70005B0118601046E5E703688B4201DA0160FB
:101B800070479342FCDD02607047000010B50F4CB7
:101B90000D4AA26223151A0501290BD0410503D570
:101BA00011691943116118431169814311610020C2
:101BB000A06210BD410503D5116999431161984395
:101BC00011690143F2E70000837A000080000040C1
:101BD0001FB5002000903F200003039001200190DA
:101BE000000302906846FFF777FA1FBD074A064BCD
:101BF00093620029D16901D0014300E08143D161A2
:101C00000020906270470000837A0000800000404E
:101C100070B50546FF20D530FFF780FF000C032884
:101C200019D3FF2099300124A407061D002D09D0E7
:101C3000FFF774FF80B260623046FFF76FFF80B23B
:101C4000A06270BDFFF76AFF000C60623046FFF7CC
:101C500065FF000CF4E70220FFF7C8F970BD10B56E
:101C60000020FFF743FF10BD10B5FEF769FD10BD62
:101C70007CB500200090019072B6294A118810802E
:101C800062B628487D25ED0031E00288491E521CCD
:101C900092B289B202800E2A29D30E3A02806B4694
:101CA0001A88521C1A804288521C94B2448082883E
:101CB000521C92B28280C3885B1C9BB2C3800A2CE8
:101CC00005D30A3C44806E467488641C7480642A80
:101CD00005D3643A82806C46A288521CA280AB4233
:101CE00005D35A1BC2806B46DA88521CDA80002961
:101CF000CBD16846008800280BD168464088002870
:101D000007D168468088002803D16846C08800282B
:101D100005D06846FFF76BFC684600F01CF97CBDF7
:101D20001A0000200000002004480188044A914263
:101D300002D20188491C0180704700001A0000206F
:101D4000FFFF000010B50B4909488862C80501690A
:101D5000821411430161FF20C930FFF7DFFE064CFA
:101D60002080FF20CD30FFF7D9FE608010BD00003D
:101D7000837A000080000040EE00002030B587B07C
:101D80006846FFF72DF900246A4614711020184D9B
:101D90000422009011462846FFF7B4F86946284609
:101DA000FFF776F801216A46117120210091042283
:101DB00005212846FFF7A6F869462846FFF768F888
:101DC00003A800F0B9F84B20C0010390049403204D
:101DD0006A46107603A9074800F058F80221082047
:101DE000FFF720FE0449A815086007B030BD0000C9
:101DF000000801400009014000E100E070B5204EFC
:101E0000306A0024C0071F4D002813D0012130463E
:101E10003162297803290BD1AA7869788A4207D2DE
:101E200029460F31515C521CAA7000F083F801E082
:101E30002C70AC70306A80071BD5022130463162AD
:101E400000F076F8C1B22878002811D10E4804704D
:101E5000E878002808D00B280AD20A4A121D8154BB
:101E6000E878401CE87004E0AA29F6D0EC7070BD58
:101E7000EC70306A4007FAD50420306270BD000073
:101E800000090140F40000201C000020FEB50C46B3
:101E9000064601210420FFF7A9FE00252B46214814
:101EA00029462268FEF756F901220023009101908D
:101EB000FEF750F91C4F06E0AA1C00236D1C009988
:101EC0000198FEF747F9B842F6D818498D61401ECF
:101ED000C1B2B1600004000E7060E079012802D048
:101EE00002281CD000200021637922795B001A436C
:101EF000A379C9009B000B431A4300010243207AD7
:101F0000400102433260E17BA07B490008437062DC
:101F100060893061607BB061207BF061FEBD012093
:101F20000146E1E7006CDC02FFFF0000800000409A
:101F3000C0687047C16070474B21C9010160002132
:101F4000017141718171C1710172417341810173EC
:101F50008173C173704770477047F8B504148BB232
:101F6000264682B25E430D14104637145843360499
:101F700080190021794116466E43371436048019C2
:101F8000794126466E438919F8BD30B47446641E03
:101F90002578641CAB4200D21D46635D5B00E318EC
:101FA00030BC184702E008C8121F08C1002AFAD145
:101FB00070477047002001E001C1121F002AFBD1C9
:101FC00070470000F3B5064695B000200F900E90C4
:101FD0000D903046FEF7FEFE3446169808343568FC
:101FE000002801D1012016907079374648370A2819
:101FF0000CD0608869464880208808802C20205EAC
:102000000121C907884210D1401E11E00020206143
:102010006061A081E081A061E06120846084E0874C
:102020003880C8480246114689E1002800DA40425B
:102030002422AA5E0021FEF7E1FE0A901C20285E01
:10204000C14A0021FEF7DAFE01460A98FEF7DEFEDD
:10205000BE49FEF7DBFE06210B90795E6B4602223D
:102060009A5E944651430822BA5E0020185E4243AD
:102070008918C91304910821795E624651430622EA
:10208000BA5E4243881AC01306900498FEF7C8FE51
:10209000E0800698FEF7C4FEA0800620205E08219E
:1020A000615E411A0820285EFEF7B0FE0821615EDD
:1020B0004018FEF7B5FE20810420205E0A21615EF3
:1020C000411A0820285EFEF7A1FE0A21615E401831
:1020D000FEF7A6FE60817079092818D01022BA5E3A
:1020E0000498101A12220990BA5E0698101A0790E6
:1020F0000998A0610798E0610A20285E0C90A888E2
:1021000040360596002807D02021715E06E00020A9
:10211000A061E06117B0F0BD0621695E08910C99DD
:102120000998FFF71AFFFEF787FE03900C990798AE
:10213000FFF713FFFEF780FE019008990998FFF75B
:102140000CFF00263346169AFEF72AF82269D317A9
:1021500010185941FEF770FE029008990798FFF792
:10216000FCFE3346169AFEF71BF86369DA17181857
:102170005141FEF761FE079002980399C217CB17F1
:10218000401811465941FEF757FE0390079A0198EF
:10219000D117C31710185941FEF74EFE0190287B46
:1021A000002838D0287B012802D0287B032825D19D
:1021B000059A2621515E0698FFF7CFFE059B222245
:1021C0009A5ED317FDF7ECFF8A00800F1043891742
:1021D000FEF732FE0F90059A2621515E0498FFF714
:1021E000BCFE059B24229A5ED317FDF7D9FF8A0017
:1021F000800F10438917FEF71FFE0E90287B0228E0
:1022000002D0287B032806D1A969059A2620105EF2
:10221000FEF7FCFD0D9003980F99C217CB17401ADB
:102220009A411146FEF708FE0546019A0E98D1170D
:10223000C61713180D987141C21718185141FEF7AF
:10224000FBFD01900B9A284651420E46FEF7D6FD43
:10225000039031460B9A0298FEF7D0FD0B9902903D
:102260000846FFF77AFE054603980146FFF775FE1C
:10227000281A00F0A1F90546024669420E46019867
:10228000FEF7BCFD01902A4631460798FEF7B6FDE1
:10229000029A226160610398FEF7C2FDA081019855
:1022A000FEF7BEFDE081A0897880E189B980082031
:1022B000205E0821615EFFF750FE05460A20205E81
:1022C0000A21615EFFF749FE281800F075F9FEF754
:1022D000A7FDB88168460223C35E039A194651439D
:1022E0006A460020105E019A4243891A039AC91374
:1022F0005043019A5343C018C5130846FEF790FD9A
:1023000020842846FEF78CFD6084208CE087608C5A
:10231000388013AB12AA11A910A86D460FC522214F
:10232000615E2020205E0A4B0A9AFEF753FC10984B
:10233000A0841199E184129A2285139B6385FEF78C
:102340008DFDE7E659030000FF7F0000DA6E000014
:10235000B2060000002102E000BF491C89B28142A0
:10236000FAD370470021016041608160C16070470D
:10237000FFB583B00F980D9C0768B86900900028DE
:102380007EDD0C9800287BD059480099814200DD01
:10239000009038690599FFF7E0FD00F0E1F800F0E2
:1023A000D1F8029038690699FFF7D7FD00F0D8F808
:1023B00000F0C8F80190A26805997869891AFFF7BA
:1023C000CCFD05460E46039902980023081AC11752
:1023D0000C9AFDF7E5FE401BB14100F0C1F800F09A
:1023E000B1F80290E26806997869891AFFF7B5FD9D
:1023F00005460E46049901980023081AC1170C9A45
:10240000FDF7CEFE401BB14100F0AAF800F09AF8AB
:10241000054622680298D117C3171018594100F0D9
:102420009FF8009900F0AEF820606268EB17D117B2
:102430005019594100F094F8009900F0A3F8606039
:102440000599A1600699E160216840434943081855
:1024500000F0B2F80099CA0F51184910814215D9FD
:1024600025680A212846FDF761FE4019009900F011
:1024700089F8206065680A212846FDF757FE00E0CC
:1024800021E04019009900F07DF860600E98002866
:102490001DD0226861681046084326D00023002A18
:1024A00003DA524249420123DB03124D0020144655
:1024B00000290E460DDD064132190441091B440076
:1024C0002C5BE3180CE00598A0600698E06007B06C
:1024D000F0BD0641A21B0441611844002C5B1B1B8C
:1024E000401CC0B20F28E2D398B20E990880EEE7E4
:1024F000FF7F00001A280000FEF7ACFD00F008F88E
:10250000FFF72AFDFEF750FBFFF7B2FBFCE70000E8
:1025100070B5094D00242846FFF71CFF641CE4B287
:102520000A2CF8D3FEF73EF90448FFF71BFF0449D5
:102530003020486162B670BD60EA0000AC01002046
:102540008007014010B5002802DBFF30F53001E0C4
:10255000FF38F5387D21C900FDF7E8FD10BD00000A
:10256000074B00221B1A8A4101DA054870470123F4
:10257000DB07DA17C31A9141F8DAD0077047000079
:10258000FFFFFF7F884202DC4942884200DA0846AA
:102590007047002800DA4042704770B50D46064685
:1025A000FFF7F7FF04462846FFF7F3FF844201D9FF
:1025B000304670BD284670BD0246002001218907C3
:1025C00000E089089142FCD808E04318934203D800
:1025D000D21A4008401800E0400889080029F4D1C8
:1025E0007047002803D00368934201DD0260704702
:1025F0008B42FCDA0160704700B500280CD0012244
:10260000D207914201D14A1E03E0002900DA494273
:102610000A465142FFF7E5FF00BD0000C9009201E4
:102620005B022403ED03B6047F0548061107D907B2
:10263000A2086B09330AFB0AC40B8C0C540D1C0E48
:10264000E40EAB0F73103A110112C8128F13551418
:102650001C15E215A8166E173318F918BE19831A3F
:10266000471B0C1CD01C931D571E1A1FDD1F9F20DB
:1026700062212422E522A72367242825E825A8260D
:1026800068272728E528A429622A1F2BDC2B992CF0
:10269000552D112ECC2E872F4230FC30B5316E32A5
:1026A0002733DF3397344E350436BA367037253842
:1026B000D9388D39403AF33AA53B573C083DB83DEF
:1026C000683E173FC63F74402141CE417A422643BF
:1026D000D1437B442445CD4575461D47C4476A48D0
:1026E0000F49B449584AFB4A9E4B404CE14C814D3E
:1026F000214EC04E5E4FFB4F98503451CF5169521E
:1027000003539B533354CA546055F6558A561E578B
:10271000B1574358D4586459F459825A105B9D5BA1
:10272000295CB45C3E5DC85D505ED75E5E5FE45F71
:102730006860EC606F61F1617262F2627163EF6315
:102740006C64E9646465DE655766D0664767BD679B
:102750003268A7681A698C69FD696E6ADD6A4B6B1D
:10276000B86B246C8F6CF96C626DCA6D316E976EAC
:10277000FB6E5F6FC26F23708370E37041719E7157
:10278000FA715572AF7208735F73B6730B7460742D
:10279000B37405755675A675F47542768E76D9763E
:1027A00023776C77B477FB7740788578C8780A7997
:1027B0004A798A79C979067A427A7D7AB77AEF7A44
:1027C000277B5D7B927BC67BF97B2A7C5A7C897C4C
:1027D000B77CE47C0F7D3A7D637D8A7DB17DD67DBB
:1027E000FB7D1E7E3F7E607E7F7E9D7EBA7ED67E96
:1027F000F07E0A7F227F387F4E7F627F757F877FE2
:10280000987FA77FB57FC27FCE7FD97FE27FEA7FA7
:10281000F17FF67FFA7FFE7FFF7F0020E412FB0945
:1028200011058B024601A3005100290014000A0083
:1028300005000300010001005828000000000020EE
:10284000F4000000A41F00004C290000F400002048
:10285000D4040000B41F00000000000000000000CD
:102860000000000000000000000000000000000068
:102870000000000000000000000000000000000058
:102880000000000000000000000000000000000048
:102890000000000000000000000000000000000038
:1028A000000000000000000000FF00000000000029
:1028B00014001400640064001E003C001E00E803C5
:1028C000DC05F40100000000000000000000000032
:1028D00000000000000000000000000000000000F8
:1028E00000000000000000000000000000000000E8
:1028F00000000000000000000000000000000000D8
:10290000000000000000000000000000FF7F040045
:10291000000000007D0100000202000062110000C2
:10292000FF7F000000000000307560F00000A00F85
:102930000000000000000000000000000000000097
:0C2940000000000000000000000000008B
:04000005000000C136
:00000001FF
