:020000040000FA
:10000000C8060020D9000000E700000079210000A8
:1000100000000000000000000000000000000000E0
:10002000000000000000000000000000EB000000E5
:100030000000000000000000ED000000EF000000E4
:10004000F1000000F1000000F9240000F1000000C0
:10005000F1000000F1000000F1000000F1000000DC
:10006000F1360000F50B000041030000F100000034
:10007000F1000000F100000000000000000000009E
:100080000000000000000000000000000000000070
:100090000000000000000000000000000000000060
:1000A0000000000000000000000000000000000050
:1000B0000000000000000000000000000000000040
:1000C0000448854600F0FCF800480047194000004D
:1000D000C046C046C8060020064880F30888064887
:1000E000804706480047FEE7FEE7FEE7FEE7FEE73B
:1000F000FEE70000C806002029350000C10000000E
:1001000030B50B46014600202022012409E00D46AF
:10011000D5409D4205D31D469540491B2546954037
:1001200040191546521E002DF1DC30BD70B500247B
:100130002546002801DA01244042002901DA012580
:100140004942FFF7DDFFAC4200D04042002C00D016
:10015000494270BDF8B500242546002904DA0E4650
:10016000012400214042B141002B04DA1E46002345
:1001700052420125B34100F062F88C4617461E46F4
:10018000AC4203D0002540428D41AC46002C02D049
:10019000002657429E4161463A46334601B0F0BDC3
:1001A000F0B51FB486B00020009001900290069830
:1001B000069980B204900798090C020400141143B8
:1001C00007900027089D099806913E463C460390FB
:1001D0000398A9B20204000C039004982D0C154357
:1001E00048430021224600F05AF8C71971411034E3
:1001F0000E46402CECDB3846029A00F050F8009A8C
:10020000019B801800905941029801911030029092
:100210004028CCDB00980BB0F0BDD2B201E00270F8
:10022000401C491EFBD270470022F6E710B513466A
:100230000A4604461946FFF7F0FF204610BDF0B508
:100240001FB40646002082B005464024019100906C
:100250001BE0019922460F46304600F043F8049A0D
:10026000059B801A994110D310461946224600F08A
:1002700016F8361A8F410197224601200021009F6F
:1002800000F00DF838184D4100902046641E0028FB
:10029000DFDC019B00982946324607B0F0BD10B55F
:1002A000202A04DB0146203A9140002010BD9140F5
:1002B00020239C1A0346E3401943904010BD0000E0
:1002C000064C0125064E05E0E36807CC2B430C3CA9
:1002D00098471034B442F7D3FFF7F6FEE04200002F
:1002E0000043000010B5202A04DB0846203AD04025
:1002F000002110BD0B46D340D0402024A21A9140CB
:100300000843194610BD30B58C180278401C1307FD
:100310001B0F01D10378401C120906D10278401C42
:1003200003E005780D70401C491C5B1EF9D101E00B
:100330000B70491C521EFBD1A142E6D3002030BDF8
:1003400070B51C48C16A03221143C1624169C214DD
:1003500011434161184D288B184CA08100F034F8EE
:1003600003F044F9288BE0810C21615E00B2401A51
:1003700001D5134940182082208A618A884201D918
:10038000208A60820C4D60356869C00602D46869B5
:1003900080060DD56869A080A86AE0800948406998
:1003A00020816089401C608103F0B9F830206861C9
:1003B00070BD0000400401402007014008000020FB
:1003C000640D00000002014070B50F4DA88A0F4C6B
:1003D0006080288BA08002B20221615E0C4801F08F
:1003E000B7F900F019F8A889E0800A4800780028D9
:1003F00009D1074808224030825E04210220615E54
:10040000205E01F085F870BD00040140640000200A
:10041000F001002044000020FEB5364C364A274645
:1004200008370820105E26680421515E02911E21C3
:10043000715E081A00F07AFE05462020305E0299AF
:10044000401A00F073FE2D4A291849421580508049
:10045000084602F0F3F929498880084600883D469D
:10046000403568810020085E25494843234902221F
:100470008A5E24494A438018C01302F0DFF9A8813C
:10048000204603F0F3FC288802F0C6FB0290684681
:1004900000893880684640897880A079092825D06D
:1004A00080341620205E00901820205E01902621C6
:1004B0002A20715E305E03F0E6FD040000D5444260
:1004C000002C07DD2146684603F0ECFD214601A81B
:1004D00003F0E8FD009802F0B1F9A882019802F05B
:1004E000ADF9E882012002F0B5FAFEBD0020A88235
:1004F000F7E70000F0010020000401407000002038
:10050000E7490000CD930000F8B5224E0024307872
:10051000214F2546022834D1F078092818D13079A6
:10052000AA2815D17079AA2812D1B07900280FD144
:1005300000220621301D03F083F8002808D0F07A4D
:10054000B17A000208431549F47940BA08800125C0
:10055000002030701249F0700870002D0DD0114944
:100560000C7011490C7011490A68521C0A6010493C
:100570003870087003F098F903E00E480168491CD0
:1005800001603878052803D10A20387002F024FF72
:10059000F8BD0000500100201C00002024000020B5
:1005A0001D0000201E000020210000202C00002043
:1005B00034000020300000200022134601E0835464
:1005C000521C8A42FBD3704770B50022D2430024EC
:1005D000094D0DE0035D5A400023D60702D05208B2
:1005E0006A4000E052085B1CDBB2082BF5D3641CA8
:1005F0008C42EFD3D04370BD2083B8ED10B5174CBB
:100600000B462070A180012807D0022805D01328AE
:100610001ED000206075A0811CE011498B420AD1D8
:1006200001216175012800D0881EA07000F09CF89F
:1006300000F05AF910BD0B4A0021184602F0C9F823
:1006400060810220607500F08FF800F0FFF910BDA6
:100650000320607500F0F2F810BD00006C0100206E
:10066000FFFF00004C040000F0B5214C85B00020D5
:1006700020816081A081A08320836083411EE1836B
:10068000206120756075274620373870032121705E
:1006900060700126A670411EA1803D1D28806880E3
:1006A00028716871A87110216846FFF785FF3D2009
:1006B000002304226946400202F040FE684600F032
:1006C00031F800280DD069460820085E0882208194
:1006D0006081E083288026753E7000F045F805B003
:1006E000F0BD002020816081288020612675F4E71C
:1006F0006C01002010B50948007801280AD100F0EB
:10070000FFFE002806D006480068002802D0C07806
:10071000022801D0002010BD012010BD440000209F
:10072000F001002010B5044600680D49884215D13B
:10073000A088012812D1E08810280FD10820205E5F
:1007400000280BDB0749884208DC0C212046FFF714
:100750003BFFE168814201D1012010BD002010BDA6
:1007600031534F504C04000010B50E4800890D4C19
:10077000000424340C49A0601020085E0023C11737
:10078000020C09041143FF2200045132FFF7E2FC7E
:100790000522D204514202F01CF8E06000F018FA81
:1007A00010BD00006C0100207002002070B58AB0FE
:1007B0000446102101A8FFF7FFFE102105A8FFF74E
:1007C000FBFE1B48019001206946088110204881EA
:1007D0008C810C2101A8FFF7F7FE049072B6154A30
:1007E0003D2676020021304600F0AAFB1248009018
:1007F000002301AA1021304602F00CFD054600231B
:10080000042205A9304602F099FD62B6002D0CD0F5
:1008100005A8FFF787FF002807D069461C20085E5F
:10082000A04202D101200AB070BD0020FBE7000009
:1008300031534F501F360D9A0CA4FD9A02480021E7
:1008400041708183704700006C01002010B502F0F8
:100850002FF90E4C002803D10D480078012804D050
:10086000FFF7ECFF0020607510BD607D012806D009
:10087000022807D00328F7D1FFF7E0FF10BD00F0F2
:1008800033F810BD00F0E2F810BD00006C0100204C
:100890004400002010B5002821D000F041F8104C91
:1008A000607D032819D0207D002816D060780028AC
:1008B00013D0A078012804D10821615E0948814243
:1008C00007DA02202056401C07D10820205E0028AD
:1008D00003DCFFF7B3FF0020607500F065F810BD82
:1008E0006C0100204C04000010B50B4C207D00284A
:1008F0000BD0FFF7FFFE002807D0A078012809D011
:100900000020608100F0A2F810BDFFF797FF0020E3
:10091000607510BD0148F4E76C0100204C04000034
:1009200070B5FFF7E7FE1B4C00281FD01A4800885F
:10093000217980B2002917D061886080411A174858
:1009400009B2C07F002800D04942124D243D2869D9
:10095000401828612869192103F02AF8002907DBCB
:100960002323DB03002205E060800120207170BD9D
:100970000B4B5A15C0185141232212040023FFF7D4
:10098000E9FB0021615E074A0818D14301F021FF0D
:10099000288170BD900100209C000020AC01002047
:1009A0000080EEFFFF7F0000F8B5234D00272E46A4
:1009B000243EA8793446203400281CD0FFF73EFF9F
:1009C0000020707502F05CF9002813D10820305E19
:1009D00037461A4A002101F0FCFE06B23046FFF706
:1009E000E5FE002802D0FE83032000E004202070F2
:1009F0000020A871F8BD12490A68124B01209A42E2
:100A000001D36871F8BD0A680F498A42FAD2697940
:100A10000029F7D06F71317D0029F3D00821715E74
:100A20001E22B25E9142EDD0A87102202070FFF725
:100A300005FF7775F8BD0000900100204C04000010
:100A40006C00002008520000204E0000F8B5294C30
:100A5000207D00283ED0FFF74DFE00283AD00A2026
:100A6000205E0821615E244A401AD14301F0B1FEA4
:100A7000A08101F066FE25462435012807DC618946
:100A8000A8680904884202D1E868002827D000F04D
:100A900035F82189A8680904471AFF215131E8680F
:100AA00002F086FF0D46064615213846490102F040
:100AB0007FFF30186941012212040023FFF74AFB2F
:100AC0006922D201514201F084FE0121002809DD92
:100AD000A1700CE0FFF7B2FE00206075F8BDFFF7D3
:100AE000ADFEF8BD002802DA0022D243A270A08336
:100AF0006170F8BD6C010020FF7F0000F8B531483F
:100B00004089304E04042436B068251A284601F086
:100B100018FE0746F06801F014FE0646014602F092
:100B200047FF052252050023FFF714FB00906421C4
:100B30003046FFF7FBFA0146009808180121090426
:100B400040188F4210DD002D05DD1E492431C96893
:100B5000002909DB06E0002D04DA1A492431C968AE
:100B6000002901DC874201DC002105E0002D02DDC7
:100B70000521C90400E01449124E144A2436F068D5
:100B800001F08EFEF06064210090FFF7CFFAB168AB
:100B90004018012109048F4202DC0099002904D089
:100BA000002D04DDA04206DA08E0204606E0002D14
:100BB00004DAA04202DC00212046F160B06000F0BF
:100BC00007F8F8BD6C0100200000D8FFCCCC000075
:100BD000074A9068C117090C0818001411462439F7
:100BE0000883D068C217120C10180014488370478D
:100BF000900100200CB50D4841680D4A11804168F4
:100C0000C90710D000216A46117007E04169C90781
:100C100002D01178491C11701179491C1171117998
:100C20000529F3D31178032141600CBD0002014076
:100C30000800002010B504460121082002F036FC0F
:100C40006069616C40020143A06CA269000252001D
:100C50001043014329480160216862680901D200FC
:100C60001143A26811438160E169226AC9019201BE
:100C70001143626A52011143A26A12011143E26CEC
:100C8000D2001143226D92001143626D5200114354
:100C9000A26D1143C160616BA26BC9019201114346
:100CA000E26B52011143226C12011143626ED200B9
:100CB0001143A26E92001143E26E52001143226F63
:100CC000114301610F4A0E499162E16AE368090329
:100CD000DB021943E36D1B0219432369DB0119434E
:100CE000236B1B011943236E9B0019434305596174
:100CF000002191620321416010BD0000000201400B
:100D0000837A0000800000400021012206C00160BB
:100D10008160C160016141618161C16101624162C3
:100D20008162C162016341638163C16301644164A3
:100D30008164C164016541658165C1650166416683
:100D4000426081667047000010B50F4C0D48A062EC
:100D5000012002F0BDFBE0050169052252031143A9
:100D600001610A4A104602F06DFF104602F06AFF68
:100D700020680749084320600020A0610548E06121
:100D800010BD0000837A000080000040881300003E
:100D9000FF010000FF03000003480249016003490E
:100DA0004160704788500000400401403B0600004D
:100DB000FEB572B60026234800960099491C0091A2
:100DC0008142FAD3204A00252C4656615069D3143B
:100DD00018435061FFF7E0FF684686801A4F403F96
:100DE00018E000960098401C00909842FAD3D06A10
:100DF00003210843D0625069184350610820385ECF
:100E000045190420385E04191048906169468888A5
:100E1000401C888068468188012040028142E0D3DE
:100E200001F020FAFFF7B8FF62B66812084A6112B3
:100E300010805180074A1368D883106801841068B5
:100E40004684FEBDFFFF020040040140A55A000099
:100E50003A000020F001002070B504460121C802CC
:100E600002F0F4FA01208007416861701849174ABE
:100E70008A62426923785B001A434261154888629E
:100E8000FF216078C131144D0E1D012813D00228B6
:100E90001AD1A07800280DD0012815D10320287080
:100EA000084602F06BFA00146880304602F066FAD9
:100EB000001408E002202870084602F05FFA6880FB
:100EC000304602F05BFAA88070BD0000837A000013
:100ED00080000040FFFF00004401002010B5144CCA
:100EE00000212278022A01D8552102E0032A00D1EC
:100EF00035214843010BFF2900DBFF210223E35E7C
:100F0000042218464843A25E4012801800B200280E
:100F100001DA002002E0FF2800DDFF200124A40701
:100F2000002B01D1002A01D0E06210BDE16210BDAA
:100F30004401002010B50321FFF776F910BD000031
:100F4000F0B58446184D1748A862174B1748403330
:100F5000174E991382420ED11E61164C164F544003
:100F60007C40276815480740276060464860206835
:100F7000CF03384320600D4882420AD11E611048D9
:100F8000104C424062401048106008684000400821
:100F90000860002018610A68520052080A60A862BE
:100FA000F0BD0000837A0000800000401F360D9ADB
:100FB000CA8F00000A060CB01530002AFF7FFF7FA1
:100FC0001A3401B015020D2ABADC5476FFB54D4A29
:100FD0001C464A43D213534283B000290BDB00283E
:100FE00005DB824201DD022210E001220EE0834295
:100FF000F9DD03220AE0002805DB834201DD05223A
:1010000004E0062202E08242F9DD04221646009244
:101010003C4A3D4B4A43D513421B5943CB136243D1
:10102000D1132A18281A15466543EF136043C513D8
:10103000504260430191C2131946584261436043D4
:10104000C913C013330002F0CBFC062E040D151D8E
:10105000252E019822185218D30F9A1855102E1ABF
:10106000771A27E0E0194019C10F08184610751BC0
:10107000EF1B1FE060188018C30F18184610771A6E
:10108000BD1A17E061190918CA0F51184F103E1AFE
:10109000751B0FE00198A1180918CB0F59184F10B4
:1010A000BD1A2E1A06E02118C919CA0F51184D1081
:1010B000EF1B3E1A0122D2030021059801F099FB93
:1010C0000121C90340184443241422460021284624
:1010D00001F08FFB054622460021304601F089FBD6
:1010E000064622460021384601F083FB0C990D602C
:1010F0000D990E600E9908600F990098086007B06E
:10110000F0BD0000E7490000CD93000010B506498E
:101110004888401C80B24880642803D90020488059
:1011200001F076F810BD000008000020034910B55A
:101130004843C01301F082FB10BD00005A4D00006F
:10114000002901DC00207047024A5143C91348437B
:10115000C01370475555000070B50A46024314D0BD
:101160000023002903DA494240420123DB030E4DEC
:1011700000220C460028064609DD164131191441AB
:10118000001B54002C5BE31808E0002070BD1641E2
:10119000A11B1441201854002C5B1B1B521CD2B203
:1011A0000F2AE6D398B270BDC042000070B5044665
:1011B0000068002822D1124800212060217161714D
:1011C0000A21A1712423C35E0E4E00213246184627
:1011D00001F017FB054621681C20085E32460021FD
:1011E00001F00FFB0146284648430749C013484316
:1011F000C11325878034A1830120208770BD0000A2
:1012000008010020FF7F0000DA6E000010B51C68A6
:1012100051436218D113CC03121B1A60401810BD41
:101220000A4B10B5984200D91846994200D9194680
:101230009A4200D91A46064B54421C829A824A426C
:101240001A81998141421980988010BDB206000030
:101250000007014070B5002301252A460C689A401A
:10126000144094422AD10C79002C04D0012C11D0C6
:10127000022C04D006E00468164626430660446843
:10128000944344604C79012C0BD0022C10D0002CDC
:101290000BD00DE004689443046046681446344360
:1012A000EFE706691446344301E00469944304619E
:1012B00084698E68012E05D0944384615B1C102BD9
:1012C000CBD370BD1443F8E7F0B5324F16011502C9
:1012D00014030B0002F084FB10090D13181E2228C2
:1012E0002D33373D42484C52571D016A3940891809
:1012F0000EE0016A274AE13A1140711808E0016ADC
:10130000254A1140691803E0016A0905090D6118B1
:101310000162F0BD416A394089180EE0416A1D4AF8
:10132000E13A1140711808E0416A1B4A11406918FE
:1013300003E0416A0905090D61184162F0BD816A47
:10134000394089180EE0816A124AE13A1140711859
:1013500008E0816A104A1140691803E0816A0905B2
:10136000090D61188162F0BDC16A394089180EE02B
:10137000C16A084AE13A1140711808E0C16A064A98
:101380001140691803E0C16A0905090D6118C162BD
:10139000F0BD0000F0FF0000FFF000000021016040
:1013A000017141718160704701239B07996A024670
:1013B0008906890E2032202903D3914201DC2020A6
:1013C0000EE03F2901D8914203DC1F2904D8814255
:1013D00002DB081AC0B203E0081A0007000F303021
:1013E00098627047FEB5174601AB6A4600F064F894
:1013F00000990198FFF7B0FE0546002100F060FC5F
:1014000006460121284600F05BFC0146164C009878
:1014100060640198A064A584BD1B7F1AA8B201F086
:10142000FBFB029069460820085E216D401820658C
:1014300069460A20085E616D40186065B8B201F027
:10144000EBFB029069460820085EA16D4018A0657C
:1014500069460A20085EE16D4018E065206E401C78
:101460002066E6846585FEBD7800002070B50D46D7
:1014700001F07BF90446284601F077F9844201DB4C
:10148000214601E00146204642008018C010401865
:1014900070BD000010B5002809DD8A030146104622
:1014A000FEF744FE002802DD0249884200DD0020EC
:1014B00010BD0000FFFF0000FFB5104C174662682A
:1014C00081B01E460021615E00F060FCA268054606
:1014D0000221615E029800F059FC0146681A6269B7
:1014E0006D18E16800F052FC3860A2692169284655
:1014F00000F04CFC306005B0F0BD0000AC010020F5
:1015000002480078002800D001207047CC0100205C
:10151000024B9885D9851A86704700007800002014
:101520000022134601E08354521C8A42FBD37047C9
:10153000084800210180418041608160C1600161F3
:1015400041618161818304228277C17720300170FB
:1015500070470000AC01002070B51C4950C9301B19
:10156000C20F10180CC94010991ACD0F69184D10F0
:1015700001214902884201DB8D4201DA032021E08A
:101580003119CC0F6118114C4910243CE1609918B5
:10159000CA0F511849102161012676033146FFF721
:1015A00079FF606131462846FFF774FFA0616069EA
:1015B000002806D0A069002803D0042000F066FDB2
:1015C00070BD042000F0B6F870BD0000D00100200E
:1015D00070B51C4950C9301BC20F10180CC94010FF
:1015E000991ACD0F69184D1001214902884201DB7B
:1015F0008D4201DA012021E03119CC0F6118114C24
:101600004910243C21809918CA0F51184910618053
:10161000012676033146FFF73DFF606031462846DC
:10162000FFF738FFA0606068002806D0A068002897
:1016300003D0032000F02AFD70BD022000F07AF8EC
:1016400070BD0000D001002010B504463421FFF722
:1016500067FF164820600320A0803420E0801448F3
:1016600001882181418861814168E160816821614F
:10167000C16861610169A1614169E16181692162BA
:10168000818BA184827F214620318A71C07FC871FD
:1016900007482030007808720648408BA08530212A
:1016A000204600F02DF8206310BD00004C4C41484E
:1016B000AC010020780000200F4902890A8042898D
:1016C0004A80C2684A6002698A604269CA60826967
:1016D0000A61C2694A61026A8A61828C8A8302460F
:1016E000203293798B77D379CB77127A20310A70B5
:1016F0000249808D48837047AC01002078000020AB
:1017000070B50022D2430024094D0DE0035D5A401C
:101710000023D60702D052086A4000E052085B1C42
:10172000DBB2082BF5D3641C8C42EFD3D04370BDE1
:101730002083B8ED044900220A7004498870CA70F9
:101740000820487070470000CC010020780000207D
:10175000F7B586B0002813D00168002910D0594A87
:1017600013780026584A012B06D1584B1B78002BC2
:1017700002D0C978022905D09672D6721673D66641
:1017800009B0F0BD50490746CA7A014648310546BE
:1017900004466C37603580340391002A11D13846F5
:1017A00002F0DAFA2E71039801880904E1600088DA
:1017B000208145482682067386870121C66681728C
:1017C000C172002040490290887A401CC0B28872E1
:1017D00002286BD30020887201AB6A4608990798EB
:1017E000FFF76AFE00990198FFF7B6FC374E0490A8
:1017F000203EF07F002801D0012100E00021049864
:1018000000F05EFAB18B081886B22F48007B0028E2
:101810002D4844D0818F711A09B2059186870846F8
:1018200000F0A3FF01214903884219DC264A0598EC
:10183000D16E0004401AC3171B0F1818001140186E
:101840002349D066FEF772FC20820120029030040A
:101850001D493861C96E796101213976E0602971CD
:1018600019480799018408994184009941640199B4
:10187000816404998184C6840298002816D028794E
:10188000002800D17CE7E0680014208103990880DB
:101890000D490885CA8C088D101A488570E786871F
:1018A000012101730021C1662182CEE72879002839
:1018B000F4D07869E168C20F101840100818E06091
:1018C000E2E700004400002078000020CC01002066
:1018D000F2270000F8B515460E4607001BD0002E73
:1018E00019D0002D17D0174C206E002813D0216D71
:1018F000606DFFF7BBFD0090A16DE06DFFF7B6FDD9
:101900000099814209DB002038702046476D016E46
:10191000246D009807E00020F8BD012139702146B0
:10192000CF6DA46D096EFEF701FC0749884200DD0A
:101930000846288039462046FFF70EFC30800120FB
:10194000F8BD000078000020FF7F0000F8B504001B
:101950001ED01348007800281AD100F029F800267C
:101960000125A670012814D0022811D10D4F0E2098
:10197000385E00F0FAFE0C49884200DD084625700A
:1019800002216170E570398AA180A5732082668288
:10199000F8BD25706570A5720448A081F8BD0000EF
:1019A0004400002078000020FF7F00008813000022
:1019B00000B50A48007800280DD109484078030096
:1019C00002F00EF8070905050505090709000120C1
:1019D00000BD022000BD002000BD0000440000202A
:1019E00078000020F0B51E4C8DB00025A585E5855A
:1019F0002586A5721B4FE57201263E70387838782F
:101A0000012823D134216846FFF78AFD1F200023D7
:101A10000D226946800201F091FC684600F0CCFA84
:101A2000002813D06846FFF747FEE5700720607076
:101A3000A5706582E5822564032020700A4800684D
:101A4000002801D00221C1700DB0F0BD3D700648E4
:101A50000068002800D0C570E67000F0EBFAF3E7EC
:101A60007800002044000020F0010020F0B59BB079
:101A7000040052D08A48007801284ED072B68948B6
:101A80002C26865F2E25455F3021415E009162B68F
:101A900006844584844902910A78844F002AB979E2
:101AA00048D004460078012837D181480025457088
:101AB0000A2932D1387900282FD10EA8FFF7C4FDAA
:101AC000342101A8FFF72CFD72B67A4A1F200021AD
:101AD0008002FFF735FA784800901F2000230EAAF5
:101AE0003421800201F096FB06461F2000230D22C0
:101AF00001A9800201F022FC62B6002E0FD001A8DD
:101B000000F05AFA00280AD002202070644901220D
:101B10000A703968C870E572A5721BB0F0BD042068
:101B20002070082060700620A0705D48057038683D
:101B3000C570F2E7C278002AEFD04278052A10D0AB
:101B400058484078062818D0584810218030019015
:101B5000415E084600F009FE0146387902281BD193
:101B600010E00A29D9D139790029D6D1818341667B
:101B70008166417206214170CFE72946304600F068
:101B80006FF9CAE73868002806D0C078002803D16A
:101B9000FF202D3081420EDA424C6078022805D0B9
:101BA0006078032802D06078042801D100F042FA5E
:101BB00000206082B1E701981021415E002901DB1D
:101BC000012001E00020C043364F7978012906D07A
:101BD0000521795688420FD000F02CFA9DE7798ACA
:101BE000FF22F532914203D2788A0019788294E775
:101BF0007871022000F04AFA009880B200F090FA62
:101C0000386C401C38642D48BA8A011B914201D9B6
:101C1000B88A0019B8827878022819D0032823D00E
:101C2000042886D129463046009AFFF7DBFB00F0F6
:101C3000B1F80028A0D0029900200870B883F8837A
:101C40007866B8663887788778720520787064E798
:101C50002946304600F050FA182000F061F80028BC
:101C60008AD0FFF7B5FC58E70F4C203C6268002192
:101C7000615E304600F08AF8A26806460221615E85
:101C8000284600F083F8321A3118104600F034FA72
:101C9000302000F045F800288CD0FFF75DFC3CE7D1
:101CA0004400002078000020CC010020F00100203A
:101CB0006C0100201F360D9A0CA4FD9AFFFF000056
:101CC0008004000C002901D0404280B2704700001F
:101CD00070B5124D04462E46103628683168401AF9
:101CE00000F043FDA04216DC68687168401A00F0FD
:101CF0003CFDA0420FDCA868B168401A00F035FD39
:101D0000A04208DCE868F168401A00F02EFDA0420D
:101D100001DC012070BD002070BD0000D00100205A
:101D200070B5174CE18A002928D0E18AA28E914231
:101D300024D0E18AA186A179002500290BD0FFF7E4
:101D4000C7FF00280BD0208B0E49884208D2208B79
:101D5000401C208304E000F0BFF925830EE02583BA
:101D600000F0BAF9A08A0849884207D3E08A0C2813
:101D700004D3208B062801D3012070BD002070BD44
:101D800078000020FFFF000088130000401A504335
:101D9000801370473EB52D4CE08A00284FD0E08A72
:101DA000A18E88424BD0E08AA0866A4602A901A88B
:101DB000FFF790FD00281ED000F05EF9684600880D
:101DC0006083207A224D002818D068460079E17996
:101DD000884213D168460189E08E081A00B200F0EB
:101DE000C4FCFF210131884208DC68460088A84213
:101DF00004D3012003E000F03FF920E00020002898
:101E000005D0208B1349884202D2208B401C2083AE
:101E10006A460820105EE0861179E1711288AA42B4
:101E200001D3012200E000222272A28A0A4B9A42C8
:101E300005D3E28A0C2A02D3228B062A01D2002083
:101E40003EBD064AD177908301203EBD7800002038
:101E5000606D0000FFFF000088130000AC0100204F
:101E6000F3B5524E0E2083B0305E00F07EFC504938
:101E700016228A5E101A00F078FC4D4C0546803C14
:101E80002079012702281ED100F0FAFE00281AD07E
:101E9000A079022817D1204660304079002812D05E
:101EA000322D10DC0E20305E00F05FFC0E21615EF2
:101EB000081A00F05AFC962805DC0C20205E00F081
:101EC00054FC962804DD00207072777305B0F0BDD5
:101ED00001AB6A4604990398FFF7EEFA009901985E
:101EE000FFF73AF904463348C07F002801D00121AA
:101EF00000E000212046FFF7E3FE054600987064ED
:101F00000198B064B4842CB2F483707A002812D0A3
:101F1000308F3487281A00B200F027FC802808DCB4
:101F2000708F281A00B200F020FCFF210131884296
:101F300007DD7487CAE7348774877772022070736D
:101F4000C4E703207073308A001B04B2A0B200F013
:101F500063FE02906A460820105E716E40180A21E6
:101F60007066515EB26E8918B166B28BFF23F5338D
:101F70009A4202D2B28B521CB2832A19F28474851F
:101F8000B28B9A42A2D3B28B002A9FD0FFF7E4F81B
:101F90000849888304208877084620300770072086
:101FA00070700020F070377090E70000780000201B
:101FB00070020020AC01002070B5044600681A4988
:101FC00088422FD1A08803282CD1E088342829D139
:101FD00020462030017A002924D08079042821D19C
:101FE000A08D124988421DD3E06800281ADD2169BE
:101FF000002917DDE269002A14DD236A002B11DDB8
:102000000B4DA8420EDCA9420CDCAA420ADCAB4212
:1020100008DC30212046FFF773FB216B814201D1A0
:10202000012070BD002070BD4C4C4148606D000027
:10203000FFFF000010B5FFF77BFA0E48002181700A
:102040004183418201844184416481648184C184EB
:10205000018541858183C18341668166018741870E
:102060004172017041718172C172012000F00EF85D
:1020700010BD000078000020034800210165416583
:102080008165C16501667047780000200F4A1049DC
:10209000931C0CC10CC10E4A00211032116051601A
:1020A0009160D1600B4AD164518611719186917112
:1020B000116551659165D1651166D186D171117235
:1020C00011649182D182118350707047FFFFFF7FAE
:1020D000D001002078000020054810B501462431C9
:1020E0001EC934301EC003490120887110BD000094
:1020F000AC01002078000020084A1368834200DD0C
:1021000010605368834200DA50609068884200DDB6
:102110009160D068884200DAD1607047D001002019
:1021200070B5144D2979002911D0698E6886411A3D
:102130000CB2204600F019FB01214903884209DC5A
:1021400005202856002806DD002C08DC0DE06886F6
:102150000120287170BD002807DA002C05DA20461E
:1021600000F003FBE96C4018E864E86C800CE8823E
:1021700070BD00007800002007490648086301F0A0
:10218000CEF9BFF34F8F06490448C860BFF34F8FA5
:10219000FEE70000ADDE0000800701400400FA0504
:1021A00000ED00E010B572B6164817498862881332
:1021B0000168C2001143016000F054F800F020F9FA
:1021C00000F072F800F00CF900F070F900F0E2F89D
:1021D00000F084F901F04CFA01F016FA642001F0E5
:1021E00031FD01210A2000F0F3FF0021092000F059
:1021F000EFFF012005494002086004494000803992
:10220000086010BD837A00008000004080E100E09B
:10221000034802490160034981607047B4A6000089
:10222000000C01408D7900000168426809011143EA
:10223000094A5160094B1360C1681161C168806827
:10224000814201D9081A01E001200003D060136027
:102250000348906070470000000C0140B4A60000E5
:102260008D79000010B50121080201F0EFF80B484C
:10227000012181624161072101610A49084A8A629C
:102280000722120203069A6100228A62FF21C162BC
:102290004169C2141143416110BD00004004014076
:1022A000837A000080000040FEB56846FFF776F8AC
:1022B0000125684605713F208002354E0090694631
:1022C0003046FEF7C7FF03220A213046FEF7FCFF27
:1022D00003220B213046FEF7F7FF03220C21304684
:1022E000FEF7F2FF03220D213046FEF7EDFF032239
:1022F0000E213046FEF7E8FF03220F213046FEF79D
:10230000E3FF02246846047180200090694630464D
:10231000FEF7A0FF684604711D4F20204037009053
:1023200069463846FEF796FF68460471082000901B
:1023300069463846FEF78EFF68460471694638469E
:102340000094FEF787FF68460471042000906946F8
:102350003846FEF77FFF68460471402000906946CA
:102360003046FEF777FF68460471E0010090694649
:102370003046FEF76FFF684605711020009000217F
:102380006846417169463846FEF764FFFEBD0000AD
:102390000008014030B59DB06846FEF7B5FCFEF779
:1023A000D3FC012400250095214660030295019489
:1023B00001F04CF80021A00301F048F8022011942C
:1023C00009950C90189006950520032115941790F7
:1023D0000A9516950B916846FEF72CFC1DB030BD92
:1023E00008B56846FEF7A6FD002069468870684675
:1023F000FEF732FD01208002FEF770FD08BD0000EF
:1024000000B59FB0684600F097F900206B46187140
:10241000012159719971D971D882188358831D4A45
:1024200010AB9A866B46187258721B4A1A805A80F3
:102430001A4ADA831A4A1A843022DA841A855A85AB
:102440009A85DA851A8608AB9875D87510AB0E9008
:10245000D875169018771974197158719971D871C7
:1024600018AB1870D87310AB99721973987318ABB6
:10247000187410ABD8725973D8730B4809490163AB
:102480006721416308486946803800F043F81FB06F
:1024900000BD0000FF1F0000B206000053F900005D
:1024A00042FB0000ADDE00008007014010B50121B5
:1024B000480200F0CBFF01208007016909090901EA
:1024C00001610549034A8A6202690261002088624B
:1024D00010BD0000837A00008000004010B5054860
:1024E000034901600F218902416000F0D1FF10BD56
:1024F000B4A60000000C014004484169C214114315
:1025000041610349032048607047000040040140D6
:1025100080070140F8B50D4606460121102000F065
:10252000C5FF30468149803001636A79297992007C
:102530001143AA7AEB7A12015B011A431143AA797B
:1025400092011143EA79D20111432A7B120211430D
:102550006A7B52021143F16729883163698871638C
:10256000E98B3162298C7162698CB162A98CF1624C
:102570002989316729462031CB7D8A7D5B001A434A
:102580008B7FEC8A9B01E40123431A430B7E1B02E1
:102590001A434B7E5B021A43CB7F9B031A432B8B60
:1025A000DB031A430262CB7E8A7E5B002C461A4311
:1025B000403423786F8B9B01FF013B431A430B7F11
:1025C000497F1B021A4349020A43617889030A437F
:1025D000A98BC9030A434262A27B217B920011436B
:1025E000A27AE37A12015B011A431143627B520023
:1025F0001143E27BD2001143227CD2011143227E9F
:1026000012021143E27D52021143A27E9202114353
:10261000627ED2021143227F12031143E27E5203F3
:1026200011438162627DE17C92001143627CA37C54
:1026300012015B011A431143227D52001143A27D16
:10264000D2001143227CD2011143627F1202114356
:10265000A27F52021143C1622279A1781201114373
:102660006279237A52019B011A431143E2781202E4
:102670001143A27912031143E27952031143627AA2
:10268000920311437167E98C3165298D7165A18EC3
:10269000B167E989B164298AF1641221695EB16385
:1026A0001421695EF16360352A78E17F520011439D
:1026B0006A78AB789202DB021A43114301602A79EF
:1026C000E978520011436A79AB799202DB021A432E
:1026D00011438160E97B2A7C0901520111436A7C24
:1026E00092011143AA7CD201114301612A7AE9794E
:1026F000520011436A7AAB7A9200DB001A4311430D
:10270000EA7A120111432A7B520111436A7B92013A
:102710001143AA7BD20111438161054931644160B3
:10272000C160416103490163F8BD0000ADDE0000F6
:10273000FFFF0000FECA000010B57621FDF774FD12
:1027400010BD0121C907884201D1401E70470028F1
:10275000FCDA404270470121C907884201D1401E7E
:1027600070470028FCDA404270470121C9078842BF
:1027700001D1401E70470028FCDA40427047012119
:10278000C907884201D1401E70470028FCDA404248
:1027900070470121C907884201D1401E70470028B7
:1027A000FCDA40427047002800DA404270470122BC
:1027B000D207914201D1491E02E0002900DA4942C4
:1027C0004A42884201DD084670479042FCDA1046D2
:1027D0007047904201DD104670478842FCDA084697
:1027E0007047904201DD104670478842FCDA084687
:1027F0007047904201DD104670478842FCDA084677
:102800007047904201DD104670478842FCDA084666
:10281000704770B515460E46FFF7B1FF04463046C7
:10282000FFF7ADFFA04200DD04462846FFF7A7FFF3
:10283000A04200DD0446204670BD000004498842E5
:1028400002DCC943884201DA0846704700B270478B
:10285000FF7F00000449884202DCC943884201DA54
:102860000846704700B27047FF7F00000449884265
:1028700002DCC943884201DA0846704700B270475B
:10288000FF7F000000B500F00BF80449884203DC2C
:10289000C943884200DB01B2084600BDFF7F00004B
:1028A000002A05DD884204DA8018884200DD0846E7
:1028B00070478842FCDD801A8842F8DB70470000D0
:1028C00010B504001BD02088002813D000F0F8F8C1
:1028D00000F0EEF800280DD1208800F035F82188AE
:1028E000074800F0FBFA2188054800F063F82088CB
:1028F000FFF7BCF86088002801D000F061F910BD36
:10290000F001002070B572B600240D480C4D4471E2
:102910000A20603DA871204600F0F8FC62B6084825
:10292000603800F03BF8012000F0C6FA00F0B4F87F
:102930002C716C710248203044830248048070BDC1
:1029400050020020A001002010B586B0040020D065
:1029500000206A4610700A2353709070D0709080E7
:1029600090711081907290819073108250820A4809
:102970000078002802D0012807D103E01046FEF7B6
:10298000E5FF02E0104600F083F92146684600F0BA
:10299000E3F906B010BD000044000020002807D075
:1029A000002180304182818272B6C182018362B689
:1029B00070470000F3B583B0050045D028680028B3
:1029C00042D0049900293FD00A262C46865F8034E5
:1029D0001427A879E75F01280ED11C4841890029F6
:1029E00000D04689284600F09BFB024641420090F9
:1029F0003846FFF7F6FE07B20499304648430028F0
:102A000003DC1226A65F384612E0114A0121FFF7C7
:102A1000E8FE019012211620615E205E019AFFF708
:102A200031FF06461820205E3946019AFFF72AFF3B
:102A3000A979012904D1009A5142FFF7D2FE00B2D0
:102A400072B6E682208362B605B0F0BD4800002071
:102A5000FF7F000010B50146014800F0DDFF10BD0A
:102A6000F001002010B50A4C208800280CD0094B3A
:102A700004229A5E0221595E0020185EFFF7C9FE0B
:102A80002188884201DD012010BD002010BD00001A
:102A900042000020700000200349002048710349D3
:102AA0000880488070470000F00100203E000020B0
:102AB00002484079002800D001207047F001002032
:102AC00070B504001ED0FFF7F3FF0026244D002848
:102AD00025D000F0D5F800281FD122484069800693
:102AE000800F1AD1FFF7BEFF0121484015D0FF200B
:102AF000F530844207D2001B81B26888814202D936
:102B00000019688070BD72B60A21174881710146AC
:102B100060314E714671067162B66E8070BD6E8016
:102B2000114800F0A3F8002817D000F0A9F80028F9
:102B300013D0FFF797FF00280FD00C4928880A1BF5
:102B4000824205D9001980B22880032801D270BDC5
:102B50002980012000F00CF870BD2E8070BD0000AF
:102B60003E00002080070140F0010020FFFF000030
:102B700010B572B60A210B4A0024917111468031BA
:102B80004C834C828C82CC820C8350710420107157
:102B9000204600F0BBFB62B6034844700348048043
:102BA000448010BDF00100206C0100203E00002098
:102BB00010B50248FEF7FAFA10BD0000F00100203F
:102BC00070B5124C0625655F281E01DC002605E065
:102BD0000F4900F0EDFE4904C60B0E430020205EB5
:102BE000281A4003C0130021615E4018FFF726FE3B
:102BF0002080A068A168301A4003C013401800D597
:102C00000020A060A0680349C86370BD6400002074
:102C100050270100F001002018B500226B461A80F1
:102C20005A80820B8004000E41000F4BFF24201AB3
:102C30004000595E185E002A09D0012A0AD0022AF3
:102C40000DD040426A4610805180009818BD6A46F7
:102C5000118002E06A46108048425080F5E7494200
:102C60006A4611804042F8E7C0400000002804D0C6
:102C700080790A2801D001207047002070470000A9
:102C80000248806A4006C00F70470000800701407C
:102C900010B504001DD00F480078012819D10E4A44
:102CA0005078002800D0012020700121617000219F
:102CB000A170517D002900D00121A171518921818C
:102CC000A072908BA081FEF71BFC002801D002208F
:102CD000A07010BD440000206C01002070B51C4C99
:102CE000217900291BD0204600251A4E8030012969
:102CF00016D0022920D0032911D1C18A00290ED172
:102D0000008B00280BD172B60A20A07110486030E9
:102D10004571002000F0FAFA62B62571358070BD69
:102D20004583002211460A4800F094F8012000F083
:102D3000C3F83580257170BD4583002211460448D3
:102D400000F088F8012000F0B7F80320207170BD72
:102D5000F0010020A0010020F3B581B004001FD0D5
:102D6000029800281CD0FFF7A3FE002818D1207875
:102D7000002813D03448FFF779FF334900280AD0E0
:102D800088796278904204D10868A278C07890422D
:102D900001D0012000E00020002802D0FFF79EFFB4
:102DA000FEBD29480079284D2F462E466037403613
:102DB0008035002803D024480079012823D1224AF5
:102DC00001201071214B224918884988884203D27A
:102DD000029940181880FEBD1168A078C870E0788C
:102DE0007871E078002801D0A0883081A0896883BC
:102DF00072B6617814488171012000F087FA62B6DA
:102E000002201149087110480179032901D10221DA
:102E1000017100790228DED1E0787871E07800282D
:102E200001D0A0883081A089688360780228D2D13F
:102E3000A07B0028CFD012221021A25E615E024842
:102E400000F008F8FEBD0000F0010020A001002005
:102E500044000020F7B50F46040029D02068002860
:102E600026D02A21415E0846FFF775FC05462168F9
:102E70002620085EFFF76FFCA84205DD21682620AA
:102E8000085EFFF768FC05460A4A00212846FFF75E
:102E9000A8FC0546024669420E463846FFF7A1FCEB
:102EA000803460822A4631460298FFF79AFCA0825D
:102EB000FEBD0000FF7F0000064B00215960064A5E
:102EC000198111769182D182002802D01182598114
:102ED00051827047A001002048000020F0B587B063
:102EE0000F46040046D02068002843D0002F41D070
:102EF000207902283BD1A079012838D1FFF7C0FE04
:102F0000002834D0204680301A250690455F284698
:102F1000FFF721FC7E4E00213246FFF762FC059050
:102F20003946284600F028F9039006991020085EDB
:102F30003246F143FFF755FC76490490488220461B
:102F400000F0EEF802900598002815D002980028AD
:102F500012D0860202464B2000210001FFF741FCFF
:102F6000002D0EDD80024042009601900DE0012010
:102F7000FFF7A2FF07B0F0BD0120FFF79DFF002281
:102F8000C0E07142800201910090624886890599F3
:102F9000B14200DA0E46322E00DA32265D48007E5B
:102FA000002867D15B48018900291DD000890021D4
:102FB000029AFFF716FC002D00DA404202B2554893
:102FC000C28200212046FFF745FF6420005D0028F3
:102FD00036D00498FFF7BFFBB04231DB002D0ADD8D
:102FE000049800280CDC2BE04B4A00211181516031
:102FF000012101763EE0002D22DA049800281FDA34
:103000004549464A0889D31B984202D2C019088113
:1030100000E00A81404801893E48C2899142A9D313
:10302000049A03998E1A01460220085E384A00214C
:10303000FFF7D7FB7043002D05DD002E07DC0CE009
:1030400000203549E3E7002D07DA002E05DA06995E
:1030500018228A5E9102091A00E000212E48416080
:1030600005466868009A0199FFF7BBFB686029492B
:103070000120087604990398254E451A3246F143FB
:103080002846FFF7AEFB234988820220085E3246BD
:103090000021FFF7A6FB06466E43142F00D9142724
:1030A0001C490420085E1A4A0021FFF79AFB0146DA
:1030B000284600F07DFCFB173A46FDF771F87D22AB
:1030C000D2000023FDF746F8134F009A79680818DC
:1030D0000199FFF786FB009A3118914201DD002D1E
:1030E00005DC019A914201DA002D00DB78607868F6
:1030F000009A80190199FFF774FB81120548C1827B
:103100001622825E00212046FFF7A4FE32E700006F
:10311000FF7F000048000020A0010020FFFF00000A
:1031200070B504001248C5881CD02068002819D04A
:103130002A21415E0846FFF70EFBA84205DA216806
:103140002A20085EFFF707FB054621682620085E57
:10315000FFF701FBA84205DA21682620085EFFF789
:10316000FAFA0546034A00212846FFF73AFB70BDEC
:1031700048000020FF7F000070B5124C05462088F3
:10318000114E00280ED020884843718940187D21B7
:10319000C900FCF7B5FF71810C490246884206DD83
:1031A0000A4606E0258200207081284670BD002A6C
:1031B00005DD1020205E2946FFF764FB20821020E9
:1031C000205E70BD48000020A0010020FF7F0000AD
:1031D0008307FF22DB0E9A408907090E99400028D9
:1031E0000BDA0007000F0838830808489B001818FE
:1031F000C36993430B43C3617047830804489B0032
:103200001818036893430B430360704700ED00E018
:1032100000E400E0FEB501246D46089B2C72344C9E
:10322000324DA562334C01263604A34250D1304CB6
:10323000314D40346561314D314C6B4063401C6809
:10324000304D2C401C6070601C68F5022C431C60E3
:10325000C91C8F08BF0013460097019015E0019923
:1032600089088900716019785C78240209199C78B2
:10327000DD7824042D0664190919B1600099091F2D
:1032800000910199091D1B1D019100990029E6D1AA
:103290000097019019E00198800880007060107814
:1032A00053781B02C0189378D4781B0424061B198A
:1032B000C018F368834201D0684601720098001F6D
:1032C00000900198001D121D019000980028E2D185
:1032D000074900204031486131680B4A1140316094
:1032E000034988626846007AFEBD0000837A0000C8
:1032F000800000400CA4FD9A358F00000F045C6A2A
:1033000003A0A0F0FF7FFF7FFFF7FFF70849074A00
:103310000A630128886A05D0064A10408862064878
:103320000863704740221043F8E70000ADDE00005C
:1033300080070140BFFF0000FECA000070B50125F4
:10334000ED026C01AB4202D123682B4303E0002B5A
:1033500002D12368AB43236025680123DB051D43AD
:1033600025606060002003E0E56886008D51401C08
:103370009042F9D320689843206070BD014672B630
:10338000FF209130814201D2012000E00020FF2384
:10339000E033994201D9012300E0002318430028BB
:1033A00001D0002070470120000400680123DB02E7
:1033B00018435B01186059200006586018464160A8
:1033C000C268952000065860184600685B11984353
:1033D0005B0118601046E5E710B516498888401C67
:1033E000888015480078682822D0144C5520E07356
:1033F00020740020124960740979A17411490A8966
:103400001212E274098921756075E0752076607684
:103410002046012206210F3000F012F909206070C9
:103420000120A07003202070E17B074800F020FA03
:1034300010BD0000340000201E00002050010020BC
:10344000F00100206C0100200009014010B50F4C74
:103450000D4AA26223151A0501290BD0410503D597
:1034600011691943116118431169814311610020E9
:10347000A06210BD410503D51169994311619843BC
:1034800011690143F2E70000837A000080000040E8
:103490001FB5002000903F20000303900120019001
:1034A000000302906846FEF7BFFE1FBD074A064BA9
:1034B00093620029D16901D0014300E08143D161C9
:1034C0000020906270470000837A00008000004076
:1034D00070B50546FF20D530FFF750FF000C0328DC
:1034E00019D3FF2099300124A407061D002D09D00F
:1034F000FFF744FF80B260623046FFF73FFF80B2C3
:10350000A06270BDFFF73AFF000C60623046FFF723
:1035100035FF000CF4E70220FDF746FF70BD10B543
:103520000220FFF725FB10BD10B5FDF70DFC10BD07
:103530007CB500200090019072B62A4A1188108054
:1035400062B629487D25ED0031E00288491E521CF3
:1035500092B289B202800E2A29D30E3A02806B46BB
:103560001A88521C1A804288521C94B24480828865
:10357000521C92B28280C3885B1C9BB2C3800A2C0F
:1035800005D30A3C44806E467488641C7480642AA7
:1035900005D3643A82806C46A288521CA280AB425A
:1035A00005D35A1BC2806B46DA88521CDA80002988
:1035B000CBD100F0B9F96846008800280BD16846E5
:1035C0004088002807D168468088002803D16846D3
:1035D000C088002805D06846FFF772F9684600F0F9
:1035E0008BF97CBD22000020000000200448C18827
:1035F000044A914202D2C188491CC1807047000030
:103600001C000020FFFF000010B50B49094888622C
:10361000C8050169821411430161FF20C930FFF719
:10362000ADFE064C2080FF20CD30FFF7A7FE608066
:1036300010BD0000837A0000800000404A01002095
:1036400010B50023801C03E00478E318DBB2401CB3
:103650000C46491EC9B2002CF6D1002A01D00370D5
:1036600004E00078984201D0002010BD012010BD78
:1036700030B587B06846FDF791FE00246A461471A4
:103680001020184D0422009011462846FDF71CFE1C
:1036900069462846FDF7DEFD01216A4611712021A9
:1036A0000091042205212846FDF70EFE69462846B2
:1036B000FDF7D0FD03A800F0DDF84B20C00103901A
:1036C000049403206A46107603A9074800F07CF8AA
:1036D00002210820FFF77CFD0449A815086007B007
:1036E00030BD0000000801400009014000E100E099
:1036F000F8B52F4D286A0127C00700242D4E002859
:1037000012D028462F62317803290BD1B278717814
:103710008A4207D231460F31515C521CB27000F020
:10372000A7F801E03470B470286A80073AD5022106
:103730002846296200F09AF81F49C0B208701F4954
:103740000A68521C0A6031781D4A1E4B002902D0BB
:10375000012909D026E0F470AA2803D01068401C83
:103760001060F8BD377008E0F178012905D1AA286A
:1037700003D0F47034701C70F0E71C70F1780B29E2
:103780000BD20C4A121D8854F078401CC0B2F07065
:10379000092807D10220307004E0F47034701068FA
:1037A000401C1060286A4007DBD504202862F8BD61
:1037B00000090140500100202000002028000020C6
:1037C000300000201D000020FEB50C4606460121F9
:1037D0000420FFF76BFE00252B462148294622686E
:1037E000FCF7B8FC0122002300910190FCF7B2FC29
:1037F0001C4F06E0AA1C00236D1C00990198FCF7E1
:10380000A9FCB842F6D818498D61401EC1B2B1601A
:103810000004000E7060E079012802D002281CD05C
:1038200000200021637922795B001A43A379C90043
:103830009B000B431A4300010243207A40010243DC
:103840003260E17BA07B490008437062608930618F
:10385000607BB061207BF061FEBD01200146E1E7A5
:10386000006CDC02FFFF000080000040C068704771
:10387000C16070474B21C901016000210171417194
:103880008171C17101724173418101738173C1738F
:1038900070470000034908780A2801D2401C0870CC
:1038A000704700003400002070B50E4800780128F1
:1038B00016D10D4C23780D4A0E4D16780C492888E8
:1038C000B34202D14B8898420AD0237813704880C3
:1038D000FFF7EEF8002803D129882078FCF78EFE48
:1038E00070BD0000440000201E0000201F000020CA
:1038F000340000202400002010B5040013D02088DC
:10390000002806D0FDF702FC00F012F82088FCF732
:10391000C1FF6088002801D0FCF798FFA08800282C
:1039200001D0FFF7B7FF10BD10B5FCF7EDFD10BDDE
:103930000E490F480A78012A0ED1CA78002A0BD006
:103940000278032A02D20278521C027000780328FF
:1039500004D30220087001E00021017005490878B5
:10396000642801D2401C08707047000050010020FC
:103970001D0000201C00002010B50B49002008701D
:10398000C8708870487009494870087003228A70AE
:10399000CA70C8600861486108714871401E08819A
:1039A000FCF762FE10BD0000500100201C0000204A
:1039B000F8B504148BB2264682B25E430D1410464D
:1039C00037145843360480190021794116466E4356
:1039D000371436048019794126466E438919F8BD9B
:1039E00030B47446641E2578641CAB4200D21D4678
:1039F000635D5B00E31830BC184702E008C8121F83
:103A000008C1002AFAD170477047002001E001C1C7
:103A1000121F002AFBD17047F0B5044606468DB050
:103A2000006808340190B079254640350A287DD0D9
:103A300060886F467880208838803020205E9C2106
:103A40000B90885F0A220690AA5E0221795E4A43A3
:103A50000C23EB5E0020385E4343D218D21304924D
:103A60000C22AA5E4A430A21695E4143501AC013E0
:103A700002900498FEF7FAFEE0800298FEF7F6FE48
:103A8000A080B07909287DD01421695E0498091AB4
:103A90001622AA5E02982162161A6662019A0C200A
:103AA000105E0623D35E0A4642437043019305929B
:103AB0000390206923461833019AFDF7A7FB0746B8
:103AC000606923461C333146019AFDF79FFB5A4A31
:103AD000019051423846FEF794FE0646B84201D0A6
:103AE0000020A061544A019851420C90FEF789FED3
:103AF00007460C98874201D00020E06105984E4AA5
:103B000030185142FEF77DFE019003984A4A38185A
:103B10005142FEF776FE03900198FEF73AFE0590BB
:103B20000398FEF736FE0599814200E070E001DA65
:103B3000014605981B225043801141180698814286
:103B400013DD002911DDC003FCF7F0FA01994643AB
:103B50004143C91301910399F6134143C9134743E4
:103B6000FF1300200391A061E06126616761019865
:103B7000FEF77CFEA0810398FEF778FEE081A08925
:103B8000E88000E053E0E08928810498FEF701FE18
:103B900006460298FEF7FDFDB04203DD0298FEF7EF
:103BA000F8FD06463046FEF761FE28826B4602218C
:103BB000595E00229A5E0198039B48435343C01A02
:103BC000019BC0135A43039B59435118CE13FEF770
:103BD0004DFE68803046FEF749FEA8800AAB09AA70
:103BE00008A907A86F460FC70421695E0220285E56
:103BF000124B0B9AFDF7EAF9079820850899618521
:103C0000099AA2850A9BE385FDF70AFB0DB0F0BD7A
:103C1000002020616061A061E061A081E0812062FC
:103C200060626880A880064802461146ECE70020E2
:103C300020626062EAE70000FF7F0000B206000039
:103C400059030000002102E000BF491C89B28142F3
:103C5000FAD37047F8B5044608688569002D04DC7E
:103C60002148002141808180F8BD2048854200DD47
:103C700005462068626829464043524369438018DC
:103C8000081AC217D20C1018490B40130029EBDD9B
:103C90004003FCF74BFA01214903FEF788FD074674
:103CA0000002C117C90C081846132068014670436A
:103CB000C217D20C1018421360687043C317DB0C94
:103CC00018184013009088182946FEF770FD2060F0
:103CD0006168009808182946FEF769FD024960608E
:103CE0004F808E80F8BD0000E8000020FF7F0000BC
:103CF000F8B50546087E16460C4600281FD06269B6
:103D0000206981180814281A00B24303C918C00199
:103D10002161101860610D49FEF749FD6061276956
:103D20000B4938142D1A6069FCF700FA39148036F3
:103D3000318130820748C5806169C160F8BD2804BF
:103D400020610020606101202076E8E7807461181E
:103D5000E44F0000E8000020002101604160816024
:103D6000C160016141610176024841808180C1806A
:103D7000C1607047E8000020FFB583B010980E9F27
:103D800005680F9CAE69002E37DD002F35D01E4828
:103D9000864200DD06462869504300F067F901902D
:103DA00028690699484300F061F90090A2680C98D0
:103DB0006969801A4143039A0198101A7843401A9E
:103DC00000F054F90190E2680D986969801A414346
:103DD000049A0098101A7843401A00F047F90546F3
:103DE0002168019808183146FEF7E1FC2060606800
:103DF00031464019FEF7DBFC60600C98A0600D981E
:103E0000E06007B0F0BD0000FF7F000010B50C00BF
:103E100004D001684068FDF79FF9208010BD0000C4
:103E200070B50E464036104D338800242C616C610D
:103E3000AC61EC6102462C706C706C30FFF78CFF4B
:103E40000A20305E50670C20305E906764208454F6
:103E50001046190480304032C1601385038104820A
:103E60002B816C8170BD0000E8000020F0B589B0A6
:103E700004000FD0206800280CD02046FEF7F6FE84
:103E800025466035002803D02068C078002803D07C
:103E90000020A87109B0F0BD2646A8790836002890
:103EA00005D131462046FFF7BBFF0120A871002055
:103EB00006903746574840370221795E02698918D3
:103EC00001618C460421795E4269891841610A22A8
:103ED000BA5E8369D21882610C22BA5EC369D218B5
:103EE000C2610278521CD2B2027020466C3005903A
:103EF000042A40D36046C017820F60461018CA17C4
:103F0000920F5118891080100091FEF7A3FC716B7D
:103F1000FDF716F907900098FEF79CFC716BFDF712
:103F20000FF901460798F163B0633A48FF268069AC
:103F30001D36C217920F1018801084463548C0698C
:103F4000C217920F10180C22BA5E831005980192C6
:103F50000390029604940A20385E00906246079807
:103F6000FFF70AFF2B490020086148618861C8619A
:103F70000870012023E0274E7078012802D0022823
:103F800007D01DE021460598FFF764FE02207070FF
:103F900016E0214668310598FFF738FF264640367F
:103FA0002820305E22460599FFF7A2FE01200690E8
:103FB0001849308D08813A88801A4881002048705D
:103FC00005988034027E0699002A02D000291AD171
:103FD00002E0002028710CE02979002913D0406903
:103FE000E168C217920F101880100818E0600014E2
:103FF00020816879002800D04CE728790028FBD080
:104000002089388046E70069E06001202871E06877
:10401000EDE70000E8000020FEF7C4F800F008F823
:10402000FFF7AAFCFEF76EFCFFF782FAFCE7000040
:1040300070B5FEF7BDFD0A4D00242846FFF702FECD
:10404000641CE4B20A2CF8D3FCF7B2FE0548FFF773
:1040500083FEFDF7C7FC04493020486162B670BD9D
:1040600060EA00005C0200208007014010B50028D3
:1040700002DBFF30F53001E0FF38F5387D21C90063
:10408000FCF754F810BD70B50D460646FEF78BFBE5
:1040900004462846FEF787FB844201D9304670BDAE
:1040A000284670BD70B5040009D008462568FEF7A3
:1040B00066FB024651422846FEF79BFB206070BD1E
:1040C0000000C90092015B022403ED03B6047F05E2
:1040D00048061107D907A2086B09330AFB0AC40B6B
:1040E0008C0C540D1C0EE40EAB0F73103A11011220
:1040F000C8128F1355141C15E215A8166E17331825
:10410000F918BE19831A471B0C1CD01C931D571E8F
:104110001A1FDD1F9F2062212422E522A723672486
:104120002825E825A82668272728E528A429622A23
:104130001F2BDC2B992C552D112ECC2E872F423086
:10414000FC30B5316E322733DF3397344E350436C9
:10415000BA3670372538D9388D39403AF33AA53B0D
:10416000573C083DB83D683E173FC63F744021416B
:10417000CE417A422643D1437B442445CD45754602
:104180001D47C4476A480F49B449584AFB4A9E4BE9
:10419000404CE14C814D214EC04E5E4FFB4F98503C
:1041A0003451CF51695203539B533354CA54605511
:1041B000F6558A561E57B1574358D4586459F45986
:1041C000825A105B9D5B295CB45C3E5DC85D505EAD
:1041D000D75E5E5FE45F6860EC606F61F1617262A0
:1041E000F2627163EF636C64E9646465DE6557666F
:1041F000D0664767BD673268A7681A698C69FD6930
:104200006E6ADD6A4B6BB86B246C8F6CF96C626DF7
:10421000CA6D316E976EFB6E5F6FC26F23708370D5
:10422000E37041719E71FA715572AF7208735F73DA
:10423000B6730B746074B37405755675A675F47512
:1042400042768E76D97623776C77B477FB77407891
:104250008578C8780A794A798A79C979067A427A5A
:104260007D7AB77AEF7A277B5D7B927BC67BF97B81
:104270002A7C5A7C897CB77CE47C0F7D3A7D637D07
:104280008A7DB17DD67DFB7D1E7E3F7E607E7F7EFA
:104290009D7EBA7ED67EF07E0A7F227F387F4E7F5B
:1042A000627F757F877F987FA77FB57FC27FCE7F34
:1042B000D97FE27FEA7FF17FF67FFA7FFE7FFF7F83
:1042C0000020E412FB0911058B024601A3005100F6
:1042D000290014000A00050003000100010000008D
:1042E0000043000000000020500100000603000011
:1042F0004043000050010020780500000A3A000009
:1043000001250311FFFFB3FFFF3FD00701000A00A3
:1043100030759A010004DC0506306400F4011403D2
:1043200087580248151BFF7F02000442FE335701E5
:1043300033621173FF7F35307560F0031DA00F00ED
:04000005000000C136
:00000001FF
