:020000040000FA
:1000000038060020D9000000E7000000C5160000F7
:1000100000000000000000000000000000000000E0
:10002000000000000000000000000000EB000000E5
:100030000000000000000000ED000000EF000000E4
:10004000F1000000F1000000451A0000F10000007E
:10005000F1000000F1000000F1000000F1000000DC
:1000600089250000290500008D020000F100000034
:10007000F1000000F100000000000000000000009E
:100080000000000000000000000000000000000070
:100090000000000000000000000000000000000060
:1000A0000000000000000000000000000000000050
:1000B0000000000000000000000000000000000040
:1000C0000448854600F0AEF800480047592E00006D
:1000D000C046C04638060020064880F30888064817
:1000E000804706480047FEE7FEE7FEE7FEE7FEE73B
:1000F000FEE7000038060020C1230000C100000018
:1001000030B50B46014600202022012409E00D46AF
:10011000D5409D4205D31D469540491B2546954037
:1001200040191546521E002DF1DC30BD70B500247B
:100130002546002801DA01244042002901DA012580
:100140004942FFF7DDFFAC4200D04042002C00D016
:10015000494270BDF8B500242546002904DA0E4650
:10016000012400214042B141002B04DA1E46002345
:1001700052420125B34100F025F88C4617461E4631
:10018000AC4203D0002540428D41AC46002C02D049
:10019000002657429E4161463A46334601B0F0BDC3
:1001A000D2B201E00270401C491EFBD2704700220F
:1001B000F6E710B513460A4604461946FFF7F0FF66
:1001C000204610BDF0B51FB40646002082B005469B
:1001D0004024019100901BE0019922460F463046D1
:1001E00000F042F8049A059B801A994110D31046FA
:1001F0001946224600F028F8361A8F410197224608
:1002000001200021009F00F01FF838184D41009098
:100210002046641E0028DFDC019B009829463246F8
:1002200007B0F0BD064C0125064E05E0E36807CC9B
:100230002B430C3C98471034B442F7D3FFF744FFEC
:10024000503100007031000010B5202A04DB014657
:10025000203A9140002010BD914020239C1A034673
:10026000E3401943904010BD10B5202A04DB084636
:10027000203AD040002110BD0B46D340D04020246E
:10028000A21A91400843194610BD000070B51C48E1
:10029000C16A03221143C1624169C2141143416121
:1002A000184D288B184CA08100F034F802F0EAF8C1
:1002B000288BE0810C21615E00B2401A01D5134900
:1002C00040182082208A618A884201D9208A60826F
:1002D0000C4D60356869C00602D4686980060DD58A
:1002E0006869A080A86AE080094840692081608927
:1002F000401C608102F05FF83020686170BD000032
:10030000400401402007014008000020640D000067
:100310000002014070B50F4DA88A0F4C6080288BF9
:10032000A08002B20221615E0C4800F031FF00F0B3
:1003300019F8A889E0800A480078002809D1074800
:1003400008224030825E04210220615E205E00F0BF
:10035000B5FD70BD000401404C0000206401002088
:1003600060000020FEB5384C2746607908372668C3
:100370000A2863D002202071344A0820105E04212C
:10038000515E02911E21715E081A00F07DFB054648
:100390002020305E0299401A00F076FB2C4A291882
:1003A000494215805080084600F088FB90801088F4
:1003B0003D46403568810020105E264948430221B1
:1003C000515E254A51434018C01300F077FBA881C5
:1003D000204602F067FC288801F0EAFD029068469A
:1003E000008938806846408978806079092827D05C
:1003F00080340E20205E00901020205E0190262187
:100400002A20715E305E02F069FD040000D544428E
:10041000002C07DD2146684602F07AFD214601A83E
:1004200002F076FD009800F049FBA882019800F0E8
:1004300045FBE882012001F07FFDFEBD00209AE728
:100440000020A882F5E700006401002000040140BC
:1004500058000020E7490000CD930000F8B5284E71
:1004600000243078274F2546022841D1F07809280A
:1004700011D13079AA280ED17079AA280BD1B07980
:10048000002808D100220621301D02F025F800289E
:1004900001D0F4790125002131701B48F170017001
:1004A0001A4B002D21D01A4804701A4A14701A4AA7
:1004B0001468641C1460194A3970117000780124A2
:1004C000174D184A012807D0022807D003280AD060
:1004D0001868401C1860F8BD2C7002E00020C04372
:1004E00028701470F8BD1170F8BD1868401C1860B1
:1004F00038780528F8D10A20387001F0B9FEF8BD27
:10050000140100201C0000201D0000202C000020F1
:100510001E000020200000202800002030000020C5
:1005200039000020380000200CB50D4841680D4A04
:1005300011804168C90710D000216A46117007E098
:100540004169C90702D01178491C11701179491C01
:10055000117111790529F3D31178032141600CBD84
:10056000000201400800002010B5044601210820C7
:1005700001F0E8FE6069616C40020143A06CA26971
:10058000000252001043014329480160216862685B
:100590000901D2001143A26811438160E169226A16
:1005A000C90192011143626A52011143A26A120108
:1005B0001143E26CD2001143226D92001143626D2F
:1005C00052001143A26D1143C160616BA26BC9015E
:1005D00092011143E26B52011143226C120111434B
:1005E000626ED2001143A26E92001143E26E52007D
:1005F0001143226F114301610F4A0E499162E16A72
:10060000E3680903DB021943E36D1B021943236905
:10061000DB011943236B1B011943236E9B00194314
:1006200043055961002191620321416010BD000022
:1006300000020140837A0000800000400021012276
:1006400006C001608160C160016141618161C16179
:10065000016241628162C162016341638163C1637E
:10066000016441648164C164016541658165C1655E
:1006700001664166426081667047000010B50F4C0C
:100680000D48A062012001F06FFEE005016905221E
:100690005203114301610A4A104602F0EDF9104677
:1006A00002F0EAF920680749084320600020A061B1
:1006B0000548E06110BD0000837A00008000004022
:1006C00088130000FF010000FF03000003480249F7
:1006D00001600349416070478850000040040140B8
:1006E0003B060000FEB572B600262348009600992E
:1006F000491C00918142FAD3204A00252C465661BC
:100700005069D31418435061FFF7E0FF68468680B4
:100710001A4F403F18E000960098401C0090984205
:10072000FAD3D06A03210843D0625069184350615C
:100730000820385E45190420385E0419104890617D
:1007400069468888401C888068468188012040026C
:100750008142E0D301F02CF8FFF7B8FF62B66812CF
:10076000084A611210805180074A1368D8831068C4
:10077000018410684684FEBDFFFF02004004014072
:10078000A55A0000340000206401002070B5044622
:100790000121C80201F0A6FD0120800741686170B7
:1007A0001849174A8A62426923785B001A434261FA
:1007B00015488862FF216078C131144D0E1D012853
:1007C00013D002281AD1A07800280DD0012815D105
:1007D00003202870084601F01DFD00146880304693
:1007E00001F018FD001408E002202870084601F00E
:1007F00011FD6880304601F00DFDA88070BD00003D
:10080000837A000080000040FFFF00000801002004
:1008100010B5144C00212278022A01D8552102E09B
:10082000032A00D135214843010BFF2900DBFF21BA
:100830000223E35E042218464843A25E4012801859
:1008400000B2002801DA002002E0FF2800DDFF20CE
:100850000124A407002B01D1002A01D0E06210BDC1
:10086000E16210BD0801002010B50321FFF79FFCD5
:1008700010BD0000F0B58446184D1748A862174B0C
:1008800017484033174E991382420ED11E61164C01
:10089000164F54407C402768154807402760604643
:1008A00048602068CF03384320600D4882420AD157
:1008B0001E611048104C42406240104810600868A9
:1008C000400040080860002018610A685200520881
:1008D0000A60A862F0BD0000837A0000800000403A
:1008E0001F360D9ACA8F00000A060CB01530002A78
:1008F000FF7FFF7F1A3401B015020D2ABADC54764F
:10090000F0B51C46564B85B04B43DB135D420029C6
:100910000BDB002803DB834205DC012510E0854268
:1009200001DD03250CE002250AE0002803DB8542F7
:1009300005DC062504E0834201DD042500E00525F1
:100940000023009301930293454B4B43DE13454B29
:10095000871B5943CB136743F9130491194661432D
:10096000C91303913118301A0E466643F7136043DA
:10097000C61348426043C11358426043C0132B0062
:1009800001F044FF064204101B26314204990398EB
:1009900063181B18DE0FF3185B10591A081A00931E
:1009A000019108E0E0198019C10F0818401001906A
:1009B000801B0090C01B029020E0039823185B1856
:1009C000DE0FF3185B10181A02900193401A08E02A
:1009D000A1190918CB0F59184910081A0190029152
:1009E000801B00900AE0049863181B18DE0FF318B0
:1009F0005B10591A02930091081A01900120C0035C
:100A0000002A0ADA00220BE02118C919CB0F591865
:100A100049100091C91B0291EEE7824200DD0246B7
:100A200010184443241422460021684601F050FC6B
:100A30002246002101A801F04BFC2246002102A819
:100A400001F046FC0A98009901600B980199016039
:100A50000C98029901600D98056005B0F0BD00008A
:100A6000E7490000CD93000010B506494888401CB6
:100A700080B24880642803D90020488000F06EFED0
:100A800010BD000008000020034900B54843C01312
:100A900000F014F800BD00005A4D0000002901DCF0
:100AA00000207047024A5143C9134843C01370479E
:100AB00055550000401A00B27047000004498842B2
:100AC00002DCC943884201DA0846704700B2704729
:100AD000FF7F00000121C907884201D1401E7047F5
:100AE0000028FCDA4042704770B50A46024314D031
:100AF0000023002903DA494240420123DB030E4D63
:100B000000220C460028064609DD16413119144121
:100B1000001B54002C5BE31808E0002070BD164158
:100B2000A11B1441201854002C5B1B1B521CD2B279
:100B30000F2AE6D398B270BD3231000070B504467A
:100B40000068002821D111480021206021710A216C
:100B500061712423C35E0E4E00213246184600F018
:100B600025F8054621681C20085E3246002100F069
:100B70001DF80146284648430649C0134843C1139F
:100B80002587803461800120208070BDCC0000204A
:100B9000FF7F0000DA6E000010B51C685143621838
:100BA000D113CC03121B1A60401810BD904201DD16
:100BB000104670478842FCDA08467047044988426C
:100BC00002DCC943884201DA0846704700B2704728
:100BD000FF7F00000A4B10B5984200D91846994291
:100BE00000D919469A4200D91A46064B54421C8233
:100BF0009A824A421A81998141421980988010BD97
:100C0000B20600000007014070B5002301252A4606
:100C10000C689A40144094422AD10C79002C04D0DC
:100C2000012C11D0022C04D006E00468164626439D
:100C300006604468944344604C79012C0BD0022C2C
:100C400010D0002C0BD00DE004689443046046687B
:100C500014463443EFE706691446344301E004695F
:100C60009443046184698E68012E05D094438461A5
:100C70005B1C102BCBD370BD1443F8E7F0B5324F9B
:100C80001601150214030B0001F0C0FD10090D132D
:100C9000181E22282D33373D42484C52571D016AF9
:100CA000394089180EE0016A274AE13A114071186B
:100CB00008E0016A254A1140691803E0016A090544
:100CC000090D61180162F0BD416A394089180EE0D2
:100CD000416A1D4AE13A1140711808E0416A1B4A15
:100CE0001140691803E0416A0905090D6118416264
:100CF000F0BD816A394089180EE0816A124AE13AF2
:100D00001140711808E0816A104A1140691803E027
:100D1000816A0905090D61188162F0BDC16A394017
:100D200089180EE0C16A084AE13A1140711808E0DA
:100D3000C16A064A1140691803E0C16A0905090D34
:100D40006118C162F0BD0000F0FF0000FFF000007C
:100D500000210160017141718160704701239B078F
:100D6000996A02468906890E2032202903D39142CE
:100D700001DC20200EE03F2901D8914203DC1F292D
:100D800004D8814202DB081AC0B203E0081A000747
:100D9000000F303098627047002800DA40427047F8
:100DA000FEB5174601AB6A4600F064F80099019859
:100DB000FFF79AFE0546002100F0B4FB064601212C
:100DC000284600F0AFFB174C0099E16201992163BE
:100DD000E582BD1B3F1AA8B201F0EAF8029069460D
:100DE0000820085EA16B4018A06369460A20085ECF
:100DF000E16B4018E063B8B201F0DAF8029069469E
:100E00000820085E216C4018206469460A20085EAC
:100E1000616C40186064A06C401CA0642683A583AC
:100E2000FEBD00006000002070B50D46FFF7B4FF66
:100E300004462846FFF7B0FF844201DB214601E06B
:100E40000146204642008018C010401870BD0000C6
:100E500010B5002809DD8A0301461046FFF766F940
:100E6000002802DD0249884200DD002010BD00009C
:100E7000FFFF0000FFB5104C1746626881B01E46A8
:100E80000021615E00F055FBA26805460221615E0B
:100E9000029800F04EFB0146681A62696D18E1681D
:100EA00000F047FB3860A2692169284600F041FB49
:100EB000306005B0F0BD000030010020024BD88347
:100EC00019845A84704700006000002000221346F5
:100ED00001E08354521C8A42FBD37047084800212A
:100EE0000180418041608160C16001614161816137
:100EF000818304228277C17720300170704700001F
:100F000030010020F8B51F4CA06C002822D0A16B46
:100F1000E06BFFF789FF0090216C606CFFF784FFA6
:100F20000099194D814206DB0020E877A76BE66B3C
:100F3000A16C009804E00121E977276C666CA16C34
:100F4000FFF7F4F81149884200DD08462082104975
:100F5000884203D2052000F00DF9F8BD314638462D
:100F6000FFF7C2FDA8830420A8770748012120309D
:100F700001700520A0700020207161700549087083
:100F8000F8BD00006000002030010020FF7F00005D
:100F9000204E00003800002070B51C4950C9301B9D
:100FA000C20F10180CC94010991ACD0F69184D10B6
:100FB00001214902884201DB8D4201DA032021E050
:100FC0003119CC0F6118114C4910243CE16099187B
:100FD000CA0F511849102161012676033146FFF7E7
:100FE00037FF606131462846FFF732FFA061606934
:100FF000002806D0A069002803D0042000F0F6FAEB
:1010000070BD042000F0B6F870BD0000540100204F
:1010100070B51C4950C9301BC20F10180CC94010C4
:10102000991ACD0F69184D1001214902884201DB40
:101030008D4201DA012021E03119CC0F6118114CE9
:101040004910243C21809918CA0F51184910618019
:10105000012676033146FFF7FBFE606031462846E5
:10106000FFF7F6FEA0606068002806D0A0680028A0
:1010700003D0032000F0BAFA70BD022000F07AF825
:1010800070BD00005401002010B504463421FFF764
:101090001DFF164820600220A0803420E080144804
:1010A00001882181418861814168E1608168216115
:1010B000C16861610169A1614169E1618169216280
:1010C000818BA184827F214620318A71C07FC871C3
:1010D00007482030007808720648008AA085302131
:1010E000204600F02DF8206310BD00004C4C414814
:1010F00030010020600000200F4902890A804289E7
:101100004A80C2684A6002698A604269CA6082692C
:101110000A61C2694A61026A8A61828C8A830246D4
:10112000203293798B77D379CB77127A20310A707A
:101130000249808D08827047300100206000002045
:1011400070B50022D2430024094D0DE0035D5A40E2
:101150000023D60702D052086A4000E052085B1C08
:10116000DBB2082BF5D3641C8C42EFD3D04370BDA7
:101170002083B8ED044900220A700449C8700A713E
:101180000620887070470000500100206000002099
:10119000F7B586B0040010D0206800280DD0414972
:1011A0000A78012A06D1404A1278002A02D0C07873
:1011B000022804D00020C871087209B0F0BD394877
:1011C0002146007AA8310291274626461831254645
:1011D0004837603680350391002810D1029801F01D
:1011E000D7FC0020307139880904E96403993A88F2
:1011F0004A8128812B480321C171012101722949AB
:10120000C879401CC0B2C871042834D30020C8710A
:1012100001AB6A4608990798FFF72CFE00990198E0
:10122000FFF762FC049020482038C07F002801D0DE
:10123000012100E00021049800F074F91A492039D6
:10124000898B2246081800B20446029901F06AFC14
:10125000029814490069E8640120307107984882B7
:10126000089888820098C862019808630498C88228
:101270000C83E86C0BE0307900289ED00298E96C72
:101280004069C217920F101880100818E86403997B
:1012900000144881034938804883088B4A8B801AA0
:1012A00088838AE76000002050010020F0B51C4CC4
:1012B0008DB00025E58325846584E571257220784D
:1012C0000127184E012822D134216846FFF7FEFD80
:1012D0001F2000230D226946800200F07BFF684634
:1012E00000F02CF9002812D06846FFF705FF2571A1
:1012F0000520A070E5706581E581A562032060701E
:101300003068002801D00221C1700DB0F0BD2570F9
:101310003068002800D0C570277100F04DF9F4E75F
:101320006000002064010020F0B59BB0040051D0A3
:10133000754F39787548012902D10178002949D1C2
:1013400072B61E26BE5F20257D5F2221795E009148
:1013500062B67E82BD820078002846D07878012867
:1013600038D16B48002404706A4D68790A2831D15D
:10137000287900282ED10EA8FFF786FE342101A877
:10138000FFF7A4FD72B6644A1F2000218002FFF718
:1013900071FA624800901F2000230EAA34218002B7
:1013A00000F084FE06461F2000230D2201A98002C2
:1013B00000F010FF62B6002E0ED001A800F0BEF8BB
:1013C000002809D002207870012139702968C8707E
:1013D0003C72FC711BB0F0BD042078700620B87020
:1013E000F8703C702868C470F4E738790028F1D0B0
:1013F0004848082180300190415E0846FFF7CCFC48
:10140000014644480279022A09D10068002806D022
:10141000C078002803D1FF202D3081420CDAB87843
:10142000022805D0B878032802D0B878042801D162
:1014300000F0C2F8002019E001980821415E00295F
:1014400001DB012001E00020C043B978012906D06A
:101450000621795688420FD000F0AEF8BAE77989B4
:10146000FF22F532914203D2788900197881B1E7E1
:10147000B871022000F0BAF8009880B200F0F6F8D7
:10148000B86A401CB8622648BA89011B914201D94A
:10149000B8890019B881B87802280FD0032818D06D
:1014A000042897D129463046009AFFF779FC00F0CE
:1014B000B7F800288ED0FFF725FD8BE72946304688
:1014C00000F0C0F800F0ACF8002883D0FFF7A0FDD2
:1014D00080E70E4C203C62680021615E304600F0DF
:1014E00028F8A26806460221615E284600F021F82D
:1014F000321A3118104600F0A5F800F091F80028D3
:10150000ACD0FFF749FD65E76000002050010020E6
:1015100038000020640100201F360D9A0CA4FD9AAB
:10152000FFFF00008004000C002901D0404280B27F
:101530007047401A504380137047000070B504464E
:1015400000681A4988422FD1A08802282CD1E0884F
:10155000342829D120462030017A002924D08079EE
:10156000042821D1A08D124988421DD3E0680028AB
:101570001ADD2169002917DDE269002A14DD236ADA
:10158000002B11DD0B4DA8420EDCA9420CDCAA4257
:101590000ADCAB4208DC30212046FFF7D1FD216B8D
:1015A000814201D1012070BD002070BD4C4C4148EA
:1015B000204E0000FFFF000010B5FFF78FFC0A4827
:1015C0000021C1700182418141828182C162016337
:1015D000C18201834183818341708171C171017234
:1015E000012000F003F810BD60000020094A0A49FC
:1015F000931C0CC10CC1094900224A638A844A71B8
:101600008A63CA630A644A648A648A628A81CA8174
:1016100088707047FFFFFF7F5401002060000020AA
:1016200007480121426B09058A4206D380897D2142
:101630000901884201D30120704700207047000053
:1016400060000020084A1368834200DD1060536880
:10165000834200DA50609068884200DD9160D06873
:10166000884200DAD16070475401002070B5144DF3
:101670006979002911D0A98CA884411A0CB220469E
:10168000FFF78AFB01214903884209DC062028561E
:10169000002806DD002C08DC0DE0A884012068711C
:1016A00070BD002807DA002C05DA2046FFF774FB2E
:1016B000696B40186863686B800CE88170BD00003E
:1016C0006000002007490648086300F074FEBFF37D
:1016D0004F8F06490448C860BFF34F8FFEE70000F4
:1016E000ADDE0000800701400400FA0500ED00E0D7
:1016F00010B572B616481749886288130168C2008F
:101700001143016000F054F800F020F900F072F885
:1017100000F00CF900F070F900F0E2F800F084F944
:1017200000F0F2FE00F0BCFE642001F0A5F90121FA
:101730000A2000F099FC0021092000F095FC01200E
:10174000054940020860044940008039086010BD26
:10175000837A00008000004080E100E003480249F5
:101760000160034981607047B4A60000000C01408D
:101770008D7900000168426809011143094A5160EE
:10178000094B1360C1681161C1688068814201D949
:10179000081A01E001200003D06013600348906044
:1017A00070470000000C0140B4A600008D790000D5
:1017B00010B50121080200F095FD0B48012181625E
:1017C0004161072101610A49084A8A62072212021F
:1017D00003069A6100228A62FF21C1624169C21434
:1017E0001143416110BD000040040140837A0000B4
:1017F00080000040FEB56846FFF7AAFA012568465A
:1018000005713F208002354E009069463046FFF753
:10181000FBF903220A213046FFF730FA03220B219D
:101820003046FFF72BFA03220C213046FFF726FA49
:1018300003220D213046FFF721FA03220E21304604
:10184000FFF71CFA03220F213046FFF717FA022494
:10185000684604718020009069463046FFF7D4F94D
:10186000684604711D4F2020403700906946384675
:10187000FFF7CAF9684604710820009069463846A7
:10188000FFF7C2F968460471694638460094FFF7CD
:10189000BBF9684604710420009069463846FFF79A
:1018A000B3F9684604714020009069463046FFF75E
:1018B000ABF968460471E001009069463046FFF7D5
:1018C000A3F9684605711020009000216846417117
:1018D00069463846FFF798F9FEBD00000008014050
:1018E00030B59DB06846FEF7A9FEFEF7C7FE01249D
:1018F00000250095214660030295019400F0F2FC5A
:101900000021A00300F0EEFC0220119409950C9038
:101910001890069505200321159417900A951695A1
:101920000B916846FEF720FE1DB030BD08B5684635
:10193000FEF79AFF0020694688706846FEF726FF8A
:1019400001208002FEF764FF08BD000000B59FB0D3
:10195000684600F097F900206B4618710121597113
:101960009971D971D882188358831D4A10AB9A8611
:101970006B46187258721B4A1A805A801A4ADA83C8
:101980001A4A1A843022DA841A855A859A85DA85A9
:101990001A8608AB9875D87510AB0E90D87516904E
:1019A00018771974197158719971D87118AB18702A
:1019B000D87310AB99721973987318AB187410AB75
:1019C000D8725973D8730B48094901636721416381
:1019D00008486946803800F043F81FB000BD000099
:1019E000FF1F0000B206000053F9000042FB000098
:1019F000ADDE00008007014010B50121480200F073
:101A000071FC01208007016909090901016105498B
:101A1000034A8A62026902610020886210BD0000E8
:101A2000837A00008000004010B50548034901603A
:101A30000F218902416000F077FC10BDB4A60000C0
:101A4000000C014004484169C2141143416103493B
:101A500003204860704700004004014080070140B7
:101A6000F8B50D4606460121102000F06BFC30460B
:101A70008149803001636A79297992001143AA7AF9
:101A8000EB7A12015B011A431143AA7992011143C7
:101A9000EA79D20111432A7B120211436A7B520276
:101AA0001143F1672988316369887163E98B316279
:101AB000298C7162698CB162A98CF16229893167C4
:101AC00029462031CB7D8A7D5B001A438B7FEC8ACF
:101AD0009B01E40123431A430B7E1B021A434B7EF6
:101AE0005B021A43CB7F9B031A432B8BDB031A4306
:101AF0000262CB7E8A7E5B002C461A4340342378F8
:101B00006F8B9B01FF013B431A430B7F497F1B02F5
:101B10001A4349020A43617889030A43A98BC9031E
:101B20000A434262A27B217B92001143A27AE37AAC
:101B300012015B011A431143627B52001143E27BA5
:101B4000D2001143227CD2011143227E12021143A2
:101B5000E27D52021143A27E92021143627ED202C2
:101B60001143227F12031143E27E5203114381622B
:101B7000627DE17C92001143627CA37C12015B01D7
:101B80001A431143227D52001143A27DD20011431A
:101B9000227CD2011143627F12021143A27F5202C2
:101BA0001143C1622279A178120111436279237A2B
:101BB00052019B011A431143E27812021143A279A8
:101BC00012031143E27952031143627A92031143E3
:101BD0007167E98C3165298D7165A18EB167E989DD
:101BE000B164298AF1641221695EB1631421695ECE
:101BF000F16360352A78E17F520011436A78AB784F
:101C00009202DB021A43114301602A79E9785200FB
:101C100011436A79AB799202DB021A431143816066
:101C2000E97B2A7C0901520111436A7C920111432C
:101C3000AA7CD201114301612A7AE9795200114349
:101C40006A7AAB7A9200DB001A431143EA7A1201F6
:101C500011432A7B520111436A7B92011143AA7BF3
:101C6000D20111438161054931644160C160416124
:101C700003490163F8BD0000ADDE0000FFFF000076
:101C8000FECA000010B57621FEF791FA10BD0000E3
:101C900010B504000ED0208800280BD000F05CF9AD
:101CA000208800F08DF82188034800F015F920887D
:101CB000FFF73AFB10BD000064010020002800DAA5
:101CC0004042704770B5134E308900281FD0124D26
:101CD0000020285EFFF7F2FF04460220285EFFF78F
:101CE000EDFFA04204DD0220285EFFF7E7FF044677
:101CF0000420285EFFF7E2FFA04204DD0420285EF6
:101D0000FFF7DCFF04463089844201DD012070BD0D
:101D1000002070BD380000205800002010B5044697
:101D200072B60A2008494871002000F03BFA62B6FA
:101D3000054800F0C5F8054900220A70CC7004205F
:101D400088700A7110BD0000640100203800002076
:101D500010B572B600240C480B4904720A20603991
:101D60004871204600F01EFA62B60748603800F05D
:101D7000A7F8064804708470C47084810449C48143
:101D800009880182047110BDC401002038000020C0
:101D900012000020904201DD104670478842FCDAB4
:101DA00008467047884203DA8018884205DC05E05F
:101DB000884203DD801A884200DA084600B2704784
:101DC000F8B5040015D0394D0026287900281DD01B
:101DD000374A1188288A814203D13649896A4906DF
:101DE00008D41188814201D0022000E00320FFF7CF
:101DF00095FFF8BDFFF766FF002807D0E8890019B6
:101E000080B2E881032802D30120F0E7EE81287830
:101E1000002803D0287900281BD032E00022114688
:101E2000254800F0EFF80320A87023488030C189CE
:101E30000029DED1008A0028DBD172B60A211E48B3
:101E40004171002000F0AEF962B6AE702E71AE8125
:101E5000F8BD0127AF70A8896989884202D20019AC
:101E6000A881F8BD144860300672114800882882A5
:101E700072B6022010494871012000F093F962B651
:101E80002F710620285EFFF719FF01216956491CB2
:101E900000D14042094AD143FFF77CFF02B2002142
:101EA000054800F0AFF80220A870F8BD3800002007
:101EB000120000208007014064010020FF7F000025
:101EC000002807D0002180304181818172B6C18114
:101ED000018262B67047000070B5002829D0026800
:101EE000002A26D0002924D00A23D35E04464B437F
:101EF0008034002B04DC0A250C20655F205E14E092
:101F00000C4A01211846FFF745FF06460A210E201C
:101F1000615E205E3246FFF745FF05460C2110202A
:101F2000615E205E3246FFF73DFF72B6E58120829A
:101F300062B670BDFF7F000010B50146014800F099
:101F400081FC10BD6401002010B50248FEF7F6FDCB
:101F500010BD00006401002070B5124C0625655FBD
:101F6000281E01DC002205E00F4900F037FC49047F
:101F7000C20B0A430020205E281A4003C013002130
:101F8000615E4018FEF79AFD2080A068A168101AD3
:101F90004003C013401800D50020A060A06803498A
:101FA000C86370BD4C000020502701006401002070
:101FB00018B500226B461A805A80820B8004000EEE
:101FC00041000F4BFF24201A4000595E185E002A82
:101FD00009D0012A0AD0022A0DD040426A46108058
:101FE0005180009818BD6A46118002E06A46108050
:101FF00048425080F5E749426A4611804042F8E77E
:10200000322F0000F7B50F46040029D020680028C1
:1020100026D02A21415E0846FFF750FE054621687A
:102020002620085EFFF74AFEA84205DD216826202B
:10203000085EFFF743FE05460A4A00212846FFF7DF
:10204000A9FE0546024669420E463846FFF7A2FE43
:10205000803460812A4631460298FFF79BFEA081BA
:10206000FEBD0000FF7F00008307FF22DB0E9A40C9
:102070008907090E994000280BDA0007000F08387D
:10208000830808489B001818C36993430B43C36136
:102090007047830804489B001818036893430B4358
:1020A0000360704700ED00E000E400E0FEB50124AD
:1020B0006D46089B2C72344C324DA562334C012680
:1020C0003604A34250D1304C314D40346561314D1E
:1020D000314C6B4063401C68304D2C401C6070607C
:1020E0001C68F5022C431C60C91C8F08BF001346F6
:1020F0000097019015E001998908890071601978AD
:102100005C78240209199C78DD7824042D06641972
:102110000919B1600099091F00910199091D1B1D42
:10212000019100990029E6D10097019019E00198EA
:10213000800880007060107853781B02C018937874
:10214000D4781B0424061B19C018F368834201D0FD
:10215000684601720098001F00900198001D121D32
:10216000019000980028E2D10749002040314861E1
:1021700031680B4A11403160034988626846007A31
:10218000FEBD0000837A0000800000400CA4FD9A90
:10219000358F00000F045C6A03A0A0F0FF7FFF7F73
:1021A000FFF7FFF70849074A0A630128886A05D044
:1021B000064A104088620648086370474022104370
:1021C000F8E70000ADDE000080070140BFFF00001F
:1021D000FECA000070B50125ED026C01AB4202D1D0
:1021E00023682B4303E0002B02D12368AB43236019
:1021F00025680123DB051D4325606060002003E0A6
:10220000E56886008D51401C9042F9D320689843C0
:10221000206070BD014672B6FF209130814201D22C
:10222000012000E00020FF23E033994201D901237F
:1022300000E000231843002801D00020704701204F
:10224000000400680123DB0218435B011860592079
:102250000006586018464160C26895200006586024
:10226000184600685B1198435B0118601046E5E76B
:1022700010B513494888401C4880124800786828E7
:102280001CD0114C5520E073207400206074A074A1
:10229000E07420756075E075207660762046012236
:1022A00006210F3000F018F9092060700120A0709D
:1022B00003202070E17B054800F026FA10BD0000E5
:1022C000300000201E000020140100200009014001
:1022D00003688B4201DA016070479342FCDD0260C3
:1022E0007047000010B50F4C0D4AA26223151A0565
:1022F00001290BD0410503D5116919431161184318
:102300001169814311610020A06210BD410503D510
:10231000116999431161984311690143F2E7000083
:10232000837A0000800000401FB5002000903F200D
:102330000003039001200190000302906846FFF71C
:1023400019FA1FBD074A064B93620029D16901D0D3
:10235000014300E08143D16100209062704700009A
:10236000837A00008000004070B50546FF20D5301C
:10237000FFF750FF000C032819D3FF2099300124E8
:10238000A407061D002D09D0FFF744FF80B260624C
:102390003046FFF73FFF80B2A06270BDFFF73AFF03
:1023A000000C60623046FFF735FF000CF4E70220B6
:1023B000FEF7D4FC70BD10B50020FFF7AFFC10BDD8
:1023C00010B5FEF75BF910BD7CB5002000900190C0
:1023D00072B62A4A1188108062B629487D25ED0020
:1023E00031E00288491E521C92B289B202800E2A44
:1023F00029D30E3A02806B461A88521C1A804288F2
:10240000521C94B244808288521C92B28280C3884B
:102410005B1C9BB2C3800A2C05D30A3C44806E46E9
:102420007488641C7480642A05D3643A82806C4684
:10243000A288521CA280AB4205D35A1BC2806B46B5
:10244000DA88521CDA800029CBD100F089F968467D
:10245000008800280BD168464088002807D16846CC
:102460008088002803D16846C088002805D06846C7
:10247000FFF70EFC684600F063F97CBD22000020E7
:10248000000000200448C188044A914202D2C18859
:10249000491CC180704700001C000020FFFF0000A5
:1024A00010B50B4909488862C805016982141143B7
:1024B0000161FF20C930FFF7ADFE064C2080FF20F0
:1024C000CD30FFF7A7FE608010BD0000837A0000CA
:1024D000800000400E01002010B50023801C03E0A6
:1024E0000478E318DBB2401C0C46491EC9B2002C2C
:1024F000F6D1002A01D0037004E00078984201D0A0
:10250000002010BD012010BD30B587B06846FEF731
:102510001FFC00246A4614711020184D04220090FC
:1025200011462846FEF7AAFB69462846FEF76CFBD3
:1025300001216A46117120210091042205212846BB
:10254000FEF79CFB69462846FEF75EFB03A800F0F9
:10255000DDF84B20C0010390049403206A461076F6
:1025600003A9074800F07CF802210820FFF77CFD52
:102570000449A815086007B030BD000000080140FC
:102580000009014000E100E0F8B52F4D286A01275D
:10259000C00700242D4E002812D028462F62317823
:1025A00003290BD1B27871788A4207D231460F31B4
:1025B000515C521CB27000F0A7F801E03470B470A6
:1025C000286A80073AD502212846296200F09AF845
:1025D0001F49C0B208701F490A68521C0A6031784E
:1025E0001D4A1E4B002902D0012909D026E0F470B3
:1025F000AA2803D01068401C1060F8BD377008E0AE
:10260000F178012905D1AA2803D0F47034701C7028
:10261000F0E71C70F1780B290BD20C4A121D88547C
:10262000F078401CC0B2F070092807D10220307049
:1026300004E0F47034701068401C1060286A400791
:10264000DBD504202862F8BD0009014014010020F8
:102650001F000020240000202C0000201D0000206E
:10266000FEB50C46064601210420FFF76BFE00254F
:102670002B46214829462268FDF76CFD01220023E4
:1026800000910190FDF766FD1C4F06E0AA1C002397
:102690006D1C00990198FDF75DFDB842F6D8184908
:1026A0008D61401EC1B2B1600004000E7060E0791F
:1026B000012802D002281CD0002000216379227951
:1026C0005B001A43A379C9009B000B431A43000126
:1026D0000243207A400102433260E17BA07B490043
:1026E0000843706260893061607BB061207BF0617B
:1026F000FEBD01200146E1E7006CDC02FFFF0000A7
:1027000080000040C0687047C16070474B21C9011C
:1027100001600021017141718171C17101724173C8
:10272000418101738173C1737047000003490878C8
:102730000A2801D2401C08707047000030000020B9
:1027400010B504000BD02088002803D0FEF78CF9C8
:1027500000F00AF8A088002801D0FFF7E7FF10BDBD
:1027600010B5FDF77BFE10BD0E490F480A78012A0F
:102770000ED1CA78002A0BD00278032A02D202783E
:10278000521C02700078032804D30220087001E074
:102790000021017005490878642801D2401C0870A6
:1027A00070470000140100201D0000201C000020C4
:1027B000084900200870C870887048700649487041
:1027C000087003228A708860C8600861C870087148
:1027D00070470000140100201C000020F8B504140C
:1027E0008BB2264682B25E430D141046371458430E
:1027F000360480190021794116466E433714360499
:102800008019794126466E438919F8BD30B4744663
:10281000641E2578641CAB4200D21D46635D5B00DC
:10282000E31830BC184702E008C8121F08C1002A8C
:10283000FAD170477047002001E001C1121F002A41
:10284000FBD17047F0B5044606468DB000680834E9
:1028500001907079254640350A283ED060886F4641
:102860007880208838803020205E82210B90885F1D
:102870000A220690AA5E0221795E4A430C23EB5E8F
:102880000020385E4343D218D21304920C22AA5E71
:102890004A430A21695E4143501AC01302900498CA
:1028A000FEF78CF9E0800298FEF788F9A080707935
:1028B000092821D01421695E0498091A1622AA5EFB
:1028C00002982162171A6762019A0C20105E9288A2
:1028D000002A16D06C22B25E16E0002020616061F2
:1028E000A061E061A081E081206260626880A880D0
:1028F0005E4802461146B6E00020206260620DB0DC
:10290000F0BD019B06229A5E01920A46424378433B
:1029100005920390206923461833019AFEF73CF98B
:102920000646606923461C333946019AFEF734F99E
:102930004F4A019051423046FEF738F90746B042FF
:1029400001D00020A0614A4A019851420C90FEF744
:102950002DF906460C98864201D00020E0610598CA
:10296000434A38185142FEF721F901900398404A32
:1029700030185142FEF71AF903900198FEF7AAF8B1
:1029800005900398FEF7A6F80599814201DA014601
:1029900005981B225043801141180698814213DD8F
:1029A000002911DDC003FDF7C1FB019947434143F5
:1029B000C91301910399FF134143C9134643F61309
:1029C00000200391A061E061276166610198FEF734
:1029D000F5F8A0810398FEF7F1F8E081A089E8807E
:1029E000E08928810498FEF775F806460298FEF7FC
:1029F00071F8B04203DD0298FEF76CF806463046E7
:102A0000FEF7DCF828826B460220185E0199024628
:102A10004A430021595E039B4B43D21A019BD213B8
:102A20005943039B58430818C6131046FEF7C6F8CF
:102A300068803046FEF7C2F8A8800AAB09AA08A948
:102A400007A86F460FC70421695E0220285E094B64
:102A50000B9AFDF755FF0798208508996185099A1B
:102A6000A2850A9BE385FEF7B5F848E75903000005
:102A7000FF7F0000B2060000002102E000BF491CF9
:102A800089B28142FAD37047F8B50446086885696F
:102A9000002D04DC2148002141808180F8BD2048C0
:102AA000854200DD0546206862682946404352435E
:102AB00069438018081AC217D20C1018490B40132A
:102AC0000029EBDD4003FDF731FB0121490300F054
:102AD000FAF907460002C117C90C08184613206806
:102AE00001467043C217D20C10184213606870433D
:102AF000C317DB0C1818401300908818294600F003
:102B0000E2F92060616800980818294600F0DBF9B6
:102B1000024960604F808E80F8BD0000AC0000204C
:102B2000FF7F0000F8B50546087E16460C460028D3
:102B300020D0626920698018010C691A09B24B0320
:102B4000C018C901206150180E49606100F0BBF93E
:102B5000606127690C49380C2D1A6069FDF7E6FAA7
:102B60003A14CA218A53803630810848C580616989
:102B7000C160F8BD2804206100206061012020763A
:102B8000E7E70000E037A803E44F0000AC000020B6
:102B90000021016041608160C16001614161017695
:102BA000024841808180C180C1607047AC00002034
:102BB000FFB583B010980E9F05680F9CAE69002E7C
:102BC00037DD002F35D01E48864200DD06462869D5
:102BD000504300F06BF9019028690699484300F0D2
:102BE00065F90090A2680C986969801A4143039ABC
:102BF0000198101A7843401A00F058F90190E268E1
:102C00000D986969801A4143049A0098101A784314
:102C1000401A00F04BF90546216801980818314622
:102C200000F051F9206060683146401900F04BF91E
:102C300060600C98A0600D98E06007B0F0BD0000E7
:102C4000FF7F000010B50C0004D001684068FDF75C
:102C50004BFF208010BD0000F0B50F464037104DEF
:102C60003B8800242C616C61AC61EC6106462C70E1
:102C70006C70A830FFF78CFF0A203246385E803235
:102C800010630C20385E5063642084551804D064AF
:102C90009384C036738114812B816C81F0BD000058
:102CA000AC000020F0B589B004000ED020680028E8
:102CB0000BD026462179254608366035022902D1F7
:102CC000C078002803D00020E87209B0F0BDE87A8F
:102CD000002805D131462046FFF7BEFF0120E872EB
:102CE000002031464031079006915A4802228A5E00
:102CF0000369D2180261944604228A5E4369D2189D
:102D000042610A23CB5E8769DB1983610C23CB5EAA
:102D1000C16927465918C16101788037491CC9B279
:102D200001702046A8300590042944D36046C0179E
:102D3000810F60460818D117890F891889108010F3
:102D40000091FDF7BBFE716BFDF7A8FE089000989F
:102D5000FDF7B4FE716BFDF7A1FE01460898F16323
:102D6000B0633C48069E8069FF23C217920F10187B
:102D70008010864637481D33C069C217920F10185D
:102D80000C22B25E80108446059802930192039053
:102D900004940A20305E0090634672460898FFF75C
:102DA00007FF2C490020086148618861C8610870EC
:102DB0000120487024E0274E7078012802D00228B4
:102DC00006D01DE021460598FFF75EFE022016E0C2
:102DD0002146A4310598FFF735FF2420385E2246AE
:102DE0000599FFF79FFE012007902420385E30816F
:102DF000069A0021515EFDF75DFE70810020707023
:102E00000598C034027E0799002A02D000291BD100
:102E100002E0002028710CE02979002914D04069D3
:102E2000F96CC217920F101880100818F86400147B
:102E30006081287A002800D047E728790028FBD055
:102E400006986189018040E70069F86401202871D3
:102E5000F86CECE7AC000020FEF74AFC00F008F844
:102E6000FFF7A6FCFEF774FFFFF7AEFAFCE70000E1
:102E700070B5FFF769F80A4D00242846FFF7FCFDFE
:102E8000641CE4B20A2CF8D3FDF72CFC0548FFF7CC
:102E90007FFEFEF70BFA04493020486162B670BD30
:102EA00060EA00000C0200208007014010B50028F5
:102EB00002DBFF30F53001E0FF38F5387D21C90035
:102EC000FDF734F910BD884202DC4942884200DA3D
:102ED00008467047002800DA4042704770B50D463A
:102EE0000646FFF7F7FF04462846FFF7F3FF844244
:102EF00001D9304670BD284670BD002803D0036854
:102F0000934201DD026070478B42FCDA016070473A
:102F100000B500280CD00122D207914201D14A1EEF
:102F200003E0002900DA49420A465142FFF7E5FF73
:102F300000BD0000C90092015B022403ED03B6044A
:102F40007F0548061107D907A2086B09330AFB0A57
:102F5000C40B8C0C540D1C0EE40EAB0F73103A1105
:102F60000112C8128F1355141C15E215A8166E17FE
:102F70003318F918BE19831A471B0C1CD01C931D5B
:102F8000571E1A1FDD1F9F2062212422E522A7233E
:102F900067242825E825A82668272728E528A429C6
:102FA000622A1F2BDC2B992C552D112ECC2E872F0E
:102FB0004230FC30B5316E322733DF3397344E3533
:102FC0000436BA3670372538D9388D39403AF33A55
:102FD000A53B573C083DB83D683E173FC63F74408F
:102FE0002141CE417A422643D1437B442445CD45FD
:102FF00075461D47C4476A480F49B449584AFB4AB9
:103000009E4B404CE14C814D214EC04E5E4FFB4FDC
:1030100098503451CF51695203539B533354CA547F
:103020006055F6558A561E57B1574358D4586459BF
:10303000F459825A105B9D5B295CB45C3E5DC85DAF
:10304000505ED75E5E5FE45F6860EC606F61F16167
:103050007262F2627163EF636C64E9646465DE65F9
:103060005766D0664767BD673268A7681A698C697A
:10307000FD696E6ADD6A4B6BB86B246C8F6CF96C02
:10308000626DCA6D316E976EFB6E5F6FC26F23709B
:103090008370E37041719E71FA715572AF7208735B
:1030A0005F73B6730B746074B37405755675A6754B
:1030B000F47542768E76D97623776C77B477FB7782
:1030C00040788578C8780A794A798A79C979067A00
:1030D000427A7D7AB77AEF7A277B5D7B927BC67BDB
:1030E000F97B2A7C5A7C897CB77CE47C0F7D3A7D15
:1030F000637D8A7DB17DD67DFB7D1E7E3F7E607EB9
:103100007F7E9D7EBA7ED67EF07E0A7F227F387FCC
:103110004E7F627F757F877F987FA77FB57FC27F55
:10312000CE7FD97FE27FEA7FF17FF67FFA7FFE7F55
:10313000FF7F0020E412FB0911058B024601A3006A
:103140005100290014000A000500030001000100DD
:10315000703100000000002014010000262800004B
:1031600084320000140100202405000036280000ED
:10317000000000000000000000000000000000004F
:10318000000000000000000000000000000000003F
:10319000000000000000000000000000000000002F
:1031A00000000000000000000001000000005802C4
:1031B000D007F40100000000000000000000000043
:1031C00000000000000000000000000000000000FF
:1031D00001000000000000000000000000000000EE
:1031E00000000000000000000000000000000000DF
:1031F00000000000000000000000000000000000CF
:1032000000000000000000000000000000000000BE
:1032100000000000000000000000000000000000AE
:10322000000000000000000000000000000000009E
:10323000000000000000000000000000000000008E
:103240000000151BFF7F020004000000FE000000CC
:103250005701000062110000FF7F00000000000025
:10326000307560F00000A00F0000000000000000BA
:10327000000000000000000000000000000000004E
:04328000000000004A
:04000005000000C136
:00000001FF
