:020000040000FA
:1000000028060020D9000000E7000000951100003C
:1000100000000000000000000000000000000000E0
:10002000000000000000000000000000EB000000E5
:100030000000000000000000ED000000EF000000E4
:10004000F1000000F100000015150000F1000000B3
:10005000F1000000F1000000F1000000F1000000DC
:10006000E11F00006D060000C5020000F100000065
:10007000F1000000F100000000000000000000009E
:100080000000000000000000000000000000000070
:100090000000000000000000000000000000000060
:1000A0000000000000000000000000000000000050
:1000B0000000000000000000000000000000000040
:1000C0000448854600F0AEF8004800470D260000C1
:1000D000C046C04628060020064880F30888064827
:1000E000804706480047FEE7FEE7FEE7FEE7FEE73B
:1000F000FEE70000280600204D1E0000C1000000A1
:1001000030B50B46014600202022012409E00D46AF
:10011000D5409D4205D31D469540491B2546954037
:1001200040191546521E002DF1DC30BD70B500247B
:100130002546002801DA01244042002901DA012580
:100140004942FFF7DDFFAC4200D04042002C00D016
:10015000494270BDF8B500242546002904DA0E4650
:10016000012400214042B141002B04DA1E46002345
:1001700052420125B34100F025F88C4617461E4631
:10018000AC4203D0002540428D41AC46002C02D049
:10019000002657429E4161463A46334601B0F0BDC3
:1001A000D2B201E00270401C491EFBD2704700220F
:1001B000F6E710B513460A4604461946FFF7F0FF66
:1001C000204610BDF0B51FB40646002082B005469B
:1001D0004024019100901BE0019922460F463046D1
:1001E00000F042F8049A059B801A994110D31046FA
:1001F0001946224600F028F8361A8F410197224608
:1002000001200021009F00F01FF838184D41009098
:100210002046641E0028DFDC019B009829463246F8
:1002200007B0F0BD064C0125064E05E0E36807CC9B
:100230002B430C3C98471034B442F7D3FFF744FFEC
:10024000282900004829000010B5202A04DB0146B7
:10025000203A9140002010BD914020239C1A034673
:10026000E3401943904010BD10B5202A04DB084636
:10027000203AD040002110BD0B46D340D04020246E
:10028000A21A91400843194610BD30B58C18027867
:10029000401C13071B0F01D10378401C120906D123
:1002A0000278401C03E005780D70401C491C5B1E61
:1002B000F9D101E00B70491C521EFBD1A142E6D3DB
:1002C000002030BD70B52148C16A03221143C162CC
:1002D0004169C214114341611D4D1021284600F0AF
:1002E00033FF1C4E308B1C4CA08100F0D7FD00F07A
:1002F00039F801F00BFE308BE0810C21615E00B219
:10030000411A01D5154809182182208A618A88423C
:1003100001D9208A60821021284600F013FF0D4D7C
:1003200060356869C00602D4686980060DD56869C1
:10033000A080A86AE0800A48406920816089401C4A
:10034000608101F07EFD3020686170BD4004014095
:10035000400801402007014008000020640D000013
:1003600000020140F8B500F037F8174D0C26AE5FDB
:10037000301E01DC002705E0144901F0E0FE4904CD
:10038000C70B0F43124C0620205E301A4003C013E7
:100390000621615E401800F0CFFDE0802069381A28
:1003A000C117C20C4903114340034904C00B084361
:1003B000216940182061206906490864A88AA08143
:1003C000288BE081F8BD00000004014050270100A7
:1003D0002400002060010020F0B58BB001F074FB18
:1003E0009D4D29682E46059108369C490820085ED7
:1003F00004240C5F05991E228A5E101A00F060FD2D
:10040000074605992020085E001B00F059FD0446B0
:100410009348C07800287DD0914A3846521C114636
:10042000173100F06DFD8E4A0746921C11461A31B5
:10043000204600F065FD04463819404200903846D9
:1004400000F07AFD864F30373880204600F074FD8A
:100450007880009800F070FDB880388834464034C9
:10046000E0810020385E7F4948430221795E7E4A60
:1004700051434018C01300F05FFD20820620205E2B
:10048000B16B00F027FDF0630820205EB16B00F037
:1004900021FD3064704F697980370A297ED0704918
:1004A0000A78002A7AD00B46F26B196A5118196241
:1004B0000091596A4018864658620E20205E0890C6
:1004C000996A4018844698621020205E0190D96A8B
:1004D0004118D9621879401CC0B2187103463846D9
:1004E0002030042B33D3009BDB179A0F009BD318CB
:1004F0009B1072460993D3179B0F9A189210964639
:100500006246D217920F624492109446CA17920F15
:10051000511800E015E0FF2203901D3208988B105F
:1005200004950292009062467146099801F0F6FF28
:100530004B490020086248628862C8620871012045
:1005400018E0474801218761C461C17074E74449DC
:100550000A78022A02D34A79012A07D00A78032AA4
:100560001FD33F494979022906D01AE0294601F0F4
:1005700041FF02203A4913E029469C31009002F0E5
:1005800017F81C20385E2A46009901F081FF344993
:10059000B88B0881A288801A488100E00CE0002016
:1005A00048712F480078042814D3C720405D0028E4
:1005B00010D1B88BA0800DE0294900200862486264
:1005C0008862C862087148710E20205EB8621020EF
:1005D000205EF862A08801F07FFA009068460088EB
:1005E0003080684640887080687909282FD00620BE
:1005F000385E06900820385E079005982621415EF7
:1006000002462A20105E02F03FF8070000D547425C
:10061000002F07DD394606A802F065F8394607A81D
:1006200002F061F8069800F087FC2083079800F03C
:1006300083FC60830598808CB08668790A2809D08D
:1006400002202871012001F0A5F80BB0F0BD0020B8
:100650002083EEE70020F4E7600100200004014061
:1006600024000020E7490000CD9300000CB50D48A0
:1006700041680D4A11804168C90710D000216A46BF
:10068000117007E04169C90702D01178491C117047
:100690001179491C117111790529F3D311780321BE
:1006A00041600CBD000201400800002010B5044666
:1006B0000121082001F08CFB6069616C400201435C
:1006C000A06CA26900025200104301432948016056
:1006D000216862680901D2001143A2681143816058
:1006E000E169226AC90192011143626A5201114310
:1006F000A26A12011143E26CD2001143226D9200F2
:100700001143626D52001143A26D1143C160616BD0
:10071000A26BC90192011143E26B52011143226C99
:1007200012011143626ED2001143A26E9200114376
:10073000E26E52001143226F114301610F4A0E49CC
:100740009162E16AE3680903DB021943E36D1B026E
:1007500019432369DB011943236B1B011943236EE2
:100760009B001943430559610021916203214160B7
:1007700010BD000000020140837A000080000040AC
:100780000021012206C001608160C16001614161F8
:100790008161C161016241628162C1620163416341
:1007A0008163C163016441648164C1640165416521
:1007B0008165C165016641664260816670470000DF
:1007C00010B50F4C0D48A062012001F013FBE005AD
:1007D000016905225203114301610A4A104601F0E2
:1007E00001FE104601F0FEFD206807490843206025
:1007F0000020A0610548E06110BD0000837A000080
:100800008000004088130000FF010000FF0300008B
:100810000348024901600349416070478850000065
:10082000400401403B060000FEB572B60026254894
:1008300000960099491C00918142FAD3224A002572
:100840002C4656615069D31418435061FFF7E0FFFE
:10085000684686801C4F403F18E000960098401C78
:1008600000909842FAD3D06A03210843D0625069BD
:10087000184350610820385E45190420385E041979
:100880001248906169468888401C88806846818843
:10089000012040028142E0D300F0F2FCFFF7B8FFF4
:1008A00062B668120A4D28806012688001F00CF967
:1008B000084829880268D183026869881184006821
:1008C0004684FEBDFFFF020040040140A55A00001F
:1008D000200000206001002070B504460121C802FC
:1008E00001F046FA01208007416861701849174AF3
:1008F0008A62426923785B001A4342611548886224
:10090000FF216078C131144D0E1D012813D002283B
:100910001AD1A07800280DD0012815D10320287005
:10092000084601F0EDF900146880304601F0E8F95E
:10093000001408E002202870084601F0E1F9688000
:10094000304601F0DDF9A88070BD0000837A000018
:1009500080000040FFFF00003801002010B5144C5B
:1009600000212278022A01D8552102E0032A00D171
:1009700035214843010BFF2900DBFF210223E35E01
:10098000042218464843A25E4012801800B2002894
:1009900001DA002002E0FF2800DDFF200124A40787
:1009A000002B01D1002A01D0E06210BDE16210BD30
:1009B0003801002010B50321FFF7F9FB10BD002816
:1009C00000DA404270470000134816221821825E68
:1009D000415E1248C26601670F4940390E228A5EA5
:1009E00042670C228A5E8267416FC26F891ACA17FA
:1009F000520F5118C26FC9108918C167806F07491B
:100A000080310A68801AC217520F10180A68C01085
:100A10008018086070470000A00100205C000020E2
:100A2000904201DD104602E0884200DA084600B23A
:100A30007047000070B5134EB08C00281FD0124DC7
:100A40000020285EFFF7BBFF04460220285EFFF768
:100A5000B6FFA04204D90220285EFFF7B0FF04468B
:100A60000420285EFFF7ABFFA04204D90420285ED3
:100A7000FFF7A5FF0446B08C844201D9012070BD68
:100A8000002070BD5C0000205400002070B5194D9E
:100A900000206887E989A987E8872C4640342080B0
:100AA000A871A080E08020816081A081E081208207
:100AB00060822872A082E082208360836872A98F9E
:100AC000A183E08320846084A872A084E084E86726
:100AD0002146403108604860E872074801F00EFD89
:100AE0000120687204492039898BA183C821A1841F
:100AF000608470BD5C0000200002002005480021D9
:100B00008161C161016241628182C1828162C1628F
:100B10007047000060010020F8B5374F374CB88BA4
:100B2000E080E18820464038808F081A2081386AAA
:100B3000014601F004FB0546786A014601F0FFFA20
:100B4000281801F0B0FDE081384680380068E1895E
:100B50008069081AFFF733FFE082B88820821020EE
:100B6000205E274901F0EBFA264A0023FFF7F2FA4C
:100B7000254AD143FFF754FF608338464030408810
:100B8000618B4018208320464038C07A0025002819
:100B900020891FD06189401A00B2C117490F081877
:100BA0006189C0104018608120896189401A00B2B3
:100BB000FFF705FFA081A08A7D21C900884210D3DC
:100BC000E08A64280DD8608A64280BD2608A401CB1
:100BD000608207E06081A581084801214038C17228
:100BE000E9E76582608A642801D3012000E00020E3
:100BF000024940390872F8BDE00100209C00002045
:100C00000000EE0200879303FF7F00000A498A6A12
:100C10000A48C2854A690286896A4906C90F417134
:100C2000054980398A8842868A898286898AC1866E
:100C30000349098801877047800701405C00002054
:100C40001200002070B51D4842780446002140344F
:100C5000002A03D0427A002A05D011E04172808F29
:100C6000A083A18470BD027A002A09D0828F238BD1
:100C7000D21AE283A18401224272628C521C6284E5
:100C80002184427A002A17D0A08CC8280ED2A08CCA
:100C9000C821081A1E25655F81B22846FFF746FA6B
:100CA000281AE083A08C401CA08400E0E183208B04
:100CB000E18B4018A08370BD808FFBE75C000020B3
:100CC00010B519481E210183418314218183192104
:100CD0004901C1834B21C9000184002141847D2247
:100CE000120182840246403251800123C371017097
:100CF000C3700171417103468033196181850B4BCB
:100D00009C6AC4855B690386084B803B9C8844864B
:100D10009C8984869B8AC386054B1C8804871B8814
:100D20001385017310BD00005C00002080070140A6
:100D300012000020F0B51C46564B85B04B43DB1328
:100D40005D4200290BDB002803DB834205DC012523
:100D500010E0854201DD03250CE002250AE00028B1
:100D600003DB854205DC062504E0834201DD042522
:100D700000E005250023009301930293454B4B436C
:100D8000DE13454B871B5943CB136743F91304917B
:100D900019466143C91303913118301A0E46664350
:100DA000F7136043C61348426043C113584260437F
:100DB000C0132B0001F0DBF9064204101B26314260
:100DC0000499039863181B18DE0FF3185B10591A67
:100DD000081A0093019108E0E0198019C10F081862
:100DE00040100190801B0090C01B029020E00398EF
:100DF00023185B18DE0FF3185B10181A029001938A
:100E0000401A08E0A1190918CB0F59184910081AFF
:100E100001900291801B00900AE0049863181B184F
:100E2000DE0FF3185B10591A02930091081A019013
:100E30000120C003002A0ADA00220BE02118C91998
:100E4000CB0F591849100091C91B0291EEE782425D
:100E500000DD02461018444324142246002168464F
:100E600000F07CFF2246002101A800F077FF224617
:100E7000002102A800F072FF0A98009901600B9807
:100E8000019901600C98029901600D98056005B008
:100E9000F0BD0000E7490000CD93000010B5074900
:100EA0007D2248889201401C80B24880904203D93C
:100EB0000020488000F0BAF910BD000008000020B2
:100EC000034910B54843C01300F036F810BD0000C8
:100ED0005A4D000010B50446002901DC002010BD69
:100EE0000846064901F02BF94A04C10B114320467C
:100EF00001F025F94904C00B084310BD5555000009
:100F000010B50B68C31A00D55B42094CA34202D945
:100F10001378002B03D000231370086010BD01204C
:100F2000107004484269521C4261086810BD0000FC
:100F3000C4090000240000200449884202DCC9439F
:100F4000884201DA0846704700B27047FF7F000010
:100F50000121C907884201D1401E70470028FCDAF0
:100F600040427047016800290AD10649016000210A
:100F700001710A2141710449818701214030C187F3
:100F800070470000FC0000203075000010B51C68A0
:100F900051436218D113CC03121B1A60401810BDC4
:100FA000904201DD104670478842FCDA08467047DF
:100FB0000449884202DCC943884201DA0846704786
:100FC00000B27047FF7F00000A4B10B5984200D96D
:100FD0001846994200D919469A4200D91A46064B3A
:100FE00054421C829A824A421A8199814142198054
:100FF000988010BDB20600000007014070B50023C4
:1010000001252A460C689A40144094422AD10C7952
:10101000002C04D0012C11D0022C04D006E004686E
:101020001646264306604468944344604C79012C7C
:101030000BD0022C10D0002C0BD00DE00468944390
:101040000460466814463443EFE7066914463443A7
:1010500001E004699443046184698E68012E05D01F
:10106000944384615B1C102BCBD370BD1443F8E711
:10107000F0B5324F1601150214030B0001F077F89A
:1010800010090D13181E22282D33373D42484C52AB
:10109000571D016A394089180EE0016A274AE13A72
:1010A0001140711808E0016A254A1140691803E0EF
:1010B000016A0905090D61180162F0BD416A3940F4
:1010C00089180EE0416A1D4AE13A1140711808E0A2
:1010D000416A1B4A1140691803E0416A0905090D7C
:1010E00061184162F0BD816A394089180EE0816A59
:1010F000124AE13A1140711808E0816A104A114021
:10110000691803E0816A0905090D61188162F0BD63
:10111000C16A394089180EE0C16A084AE13A1140B3
:10112000711808E0C16A064A1140691803E0C16AF3
:101130000905090D6118C162F0BD0000F0FF000053
:10114000FFF00000416370470163704700210160B8
:10115000017141718160704701239B07996A0246C2
:101160008906890E2032202903D3914201DC2020F8
:101170000EE03F2901D8914203DC1F2904D88142A7
:1011800002DB081AC0B203E0081A0007000F303073
:101190009862704707490648086300F052FEBFF3A3
:1011A0004F8F06490448C860BFF34F8FFEE7000029
:1011B000ADDE0000800701400400FA0500ED00E00C
:1011C00010B572B616481749886288130168C200C4
:1011D0001143016000F054F800F020F900F072F8BB
:1011E00000F00CF900F070F900F0E2F800F084F97A
:1011F00000F0B6FE00F098FE642001F0F3F8012143
:101200000A2000F043FD0021092000F03FFD0120ED
:10121000054940020860044940008039086010BD5B
:10122000837A00008000004080E100E0034802492A
:101230000160034981607047B4A60000000C0140C2
:101240008D7900000168426809011143094A516023
:10125000094B1360C1681161C1688068814201D97E
:10126000081A01E001200003D06013600348906079
:1012700070470000000C0140B4A600008D7900000A
:1012800010B50121080200F073FD0B4801218162B5
:101290004161072101610A49084A8A620722120254
:1012A00003069A6100228A62FF21C1624169C21469
:1012B0001143416110BD000040040140837A0000E9
:1012C00080000040FEB56846FFF740FF01256846F4
:1012D00005713F208002354E009069463046FFF789
:1012E0008DFE03220A213046FFF7C2FE03220B21A6
:1012F0003046FFF7BDFE03220C213046FFF7B8FE53
:1013000003220D213046FFF7B3FE03220E213046A3
:10131000FFF7AEFE03220F213046FFF7A9FE02249D
:10132000684604718020009069463046FFF766FEEB
:10133000684604711D4F20204037009069463846AA
:10134000FFF75CFE68460471082000906946384645
:10135000FFF754FE68460471694638460094FFF76B
:101360004DFE684604710420009069463846FFF738
:1013700045FE684604714020009069463046FFF7FC
:101380003DFE68460471E001009069463046FFF773
:1013900035FE6846057110200090002168464171B5
:1013A00069463846FFF72AFEFEBD000000080140EE
:1013B00030B59DB06846FFF7E3F9FFF701FA012465
:1013C00000250095214660030295019400F0D0FCB1
:1013D0000021A00300F0CCFC0220119409950C9090
:1013E0001890069505200321159417900A951695D7
:1013F0000B916846FFF75AF91DB030BD08B5684635
:10140000FFF7D8FA0020694688706846FFF764FA4B
:1014100001208002FFF7A2FA08BD000000B59FB0CE
:10142000684600F097F900206B4618710121597148
:101430009971D971D882188358831D4A10AB9A8646
:101440006B46187258721B4A1A805A801A4ADA83FD
:101450001A4A1A843022DA841A855A859A85DA85DE
:101460001A8608AB9875D87510AB0E90D875169083
:1014700018771974197158719971D87118AB18705F
:10148000D87310AB99721973987318AB187410ABAA
:10149000D8725973D8730B480949016367214163B6
:1014A00008486946803800F043F81FB000BD0000CE
:1014B000FF1F0000B206000053F9000042FB0000CD
:1014C000ADDE00008007014010B50121480200F0A8
:1014D0004FFC0120800701690909090101610549E3
:1014E000034A8A62026902610020886210BD00001E
:1014F000837A00008000004010B505480349016070
:101500000F218902416000F055FC10BDB4A6000017
:10151000000C014004484169C21411434161034970
:1015200003204860704700004004014080070140EC
:10153000F8B50D4606460121102000F049FC304662
:101540008149803001636A79297992001143AA7A2E
:10155000EB7A12015B011A431143AA7992011143FC
:10156000EA79D20111432A7B120211436A7B5202AB
:101570001143F1672988316369887163E98B3162AE
:10158000298C7162698CB162A98CF16229893167F9
:1015900029462031CB7D8A7D5B001A438B7FEC8A04
:1015A0009B01E40123431A430B7E1B021A434B7E2B
:1015B0005B021A43CB7F9B031A432B8BDB031A433B
:1015C0000262CB7E8A7E5B002C461A43403423782D
:1015D0006F8B9B01FF013B431A430B7F497F1B022B
:1015E0001A4349020A43617889030A43A98BC90354
:1015F0000A434262A27B217B92001143A27AE37AE2
:1016000012015B011A431143627B52001143E27BDA
:10161000D2001143227CD2011143227E12021143D7
:10162000E27D52021143A27E92021143627ED202F7
:101630001143227F12031143E27E52031143816260
:10164000627DE17C92001143627CA37C12015B010C
:101650001A431143227D52001143A27DD20011434F
:10166000227CD2011143627F12021143A27F5202F7
:101670001143C1622279A178120111436279237A60
:1016800052019B011A431143E27812021143A279DD
:1016900012031143E27952031143627A9203114318
:1016A0007167E98C3165298D7165A18EB167E98912
:1016B000B164298AF1641221695EB1631421695E03
:1016C000F16360352A78E17F520011436A78AB7884
:1016D0009202DB021A43114301602A79E978520031
:1016E00011436A79AB799202DB021A43114381609C
:1016F000E97B2A7C0901520111436A7C9201114362
:10170000AA7CD201114301612A7AE979520011437E
:101710006A7AAB7A9200DB001A431143EA7A12012B
:1017200011432A7B520111436A7B92011143AA7B28
:10173000D20111438161054931644160C160416159
:1017400003490163F8BD0000ADDE0000FFFF0000AB
:10175000FECA000010B57621FEF729FD10BD10B5B8
:10176000002804D00088002801D000F043F810BD04
:10177000002800DA40427047002801DA0020704754
:101780000349884201DD0846704780B27047000077
:10179000B206000010B50146014800F005FD10BD7D
:1017A0006001002070B5002000F092FA0F4800247C
:1017B0000E4EC4710A20C03E707130468030C48025
:1017C0000B4D04812C856C85284680304460AC72BA
:1017D00040388484C4846C870480FFF78FF900222A
:1017E0001146E88900F02AFA347170BD2002002009
:1017F0005C000020FEB5B0480169491C0161FFF79B
:1018000005FAAD4E803E30780025052800D93570A8
:101810003078B178884201D0012000E000200190AA
:101820003078A54C0527403C05280AD1307B00289C
:1018300007D0A24A1188208D814221D171790029D7
:101840001ED03078002824D00198002810D072B61D
:10185000002000F03DFA9A480A21417162B6FFF774
:101860004DF9307805282CD0758725803078B070F8
:10187000F0890090002731783846052926D069E0A4
:101880001188814201D0022000E003203071F770FE
:101890002EE0B570FFF786FFF07900280CD001200C
:1018A000F0706088F18C884203D26088401C6080B0
:1018B000FEBDF5713770FEBD30790028FBD1F570A3
:1018C000FEBD35713573FFF7E1F8CFE7FFF7B2F8EA
:1018D000002814D0A088032802D2A088401CA08031
:1018E000A08803280CD30120B07130710420F0705F
:1018F000F5713570B5703573FFF754FFCFE0A580F3
:101900002088718C884201D2012700E00027002F37
:1019100007D00220F0702088401C20807587A582A7
:1019200009E00320F0707587A08A6649884202D2D8
:10193000A08A401CA082FFF7EFF8FFF783F9A08B85
:101940000090707A002804D0A08CC82801D3012010
:1019500000E00020012148405949C031C871803958
:10196000009888810098FFF72FF8554902200871E8
:101970000020B072504948603078514D03008035E6
:1019800000F0F5FB0690041221343B90092700205B
:10199000E8802881318A3185708547498860C86030
:1019A00010210246715E0CE009270020E8802881A2
:1019B0003085718A718540498860C8601222B25EA4
:1019C0000146F08930E0B08A0227E88000203C49D7
:1019D0002881888A30851620085E7085CA6A364953
:1019E0008A600A6852424A60C86046E000200227C6
:1019F000E8801620305E288132E0002F17D0FF22C9
:101A0000AD321C205142305EFFF70AF80927002250
:101A1000EA802A810146E284B272308572852648C6
:101A200082604260C260009800F008F925E026203C
:101A3000205E1621715E884203DA801C884205DC34
:101A400005E0884203DD801E884200DA0846E08413
:101A500000200227E8802620205E28810121B17223
:101A6000174A918A31851621515E7185D36A124ACF
:101A700093601368C01A5060D1600198002817D095
:101A80000E480088208572B60D484771012000F08D
:101A90001FF9B08D401CB0850120307362B6FFF78E
:101AA000B5F8FEBD00203070B070FFF77BFEFEBDC4
:101AB00003484771FEBD0000DC000020120000203A
:101AC00060010020FFFF000010B50248FFF74AFA4E
:101AD00010BD00006001002018B500226B461A807E
:101AE0005A80820B8004000E41000F4BFF24201A05
:101AF0004000595E185E002A09D0012A0AD0022A45
:101B00000DD040426A4610805180009818BD6A4648
:101B1000118002E06A46108048425080F5E7494251
:101B20006A4611804042F8E70827000010B50321FB
:101B3000C90300F004FB0A4A0023FEF70BFB094B24
:101B400000221B1A8A4101DA064806E0054BDB43F6
:101B5000DA13C31A914100DAD00300B210BD0000BD
:101B6000640D0000FF7F0000FEB50E4604463049BC
:101B70002546C20F71435019C91340100A1A401864
:101B80004742284601920292FFF7F2FD0090029828
:101B9000FFF7EEFD01460098814203DD0298FFF752
:101BA000E7FD00903846FFF7E3FD014600988142CB
:101BB00003DD3846FFF7DCFD00901E49884216DD44
:101BC000084660430099FEF7B1FA044619480099A7
:101BD0007043FEF7ABFA06461548E10F704309194A
:101BE000C0134910421A0818254647420192204660
:101BF000FFF79CFF104C20863046FFF797FF60866A
:101C00002146228E4031CA810A4C08823819FFF7DA
:101C1000B3FD074601980019FFF7AEFD06462819E7
:101C2000FFF7AAFD3A46314600F022F8FEBD00005B
:101C3000DA6E0000590300006001002038B5144638
:101C40000D46FFF749FF00906A460220105E002310
:101C5000D35E01461A46694362436B436043891A67
:101C60001818CA13C01301B210B2FFF77DFF38BDB8
:101C700010B5054B54421C829A824A421A819981BE
:101C800041421980988010BD000701408307FF2260
:101C9000DB0E9A408907090E994000280BDA0007ED
:101CA000000F0838830808489B001818C36993433D
:101CB0000B43C3617047830804489B0018180368EE
:101CC00093430B430360704700ED00E000E400E045
:101CD0000849074A0A630128886A05D0064A104065
:101CE000886206480863704740221043F8E7000006
:101CF000ADDE000080070140BFFF0000FECA00000B
:101D0000014672B6FF209130814201D2012000E0ED
:101D10000020FF23E033994201D9012300E0002392
:101D20001843002801D000207047012000040068FB
:101D30000123DB0218435B0118605920000658603C
:101D400018464160C2689520000658601846006831
:101D50005B1198435B0118601046E5E703688B420E
:101D600001DA016070479342FCDD026070470000B9
:101D700010B50F4C0D4AA26223151A0501290BD08C
:101D8000410503D511691943116118431169814354
:101D900011610020A06210BD410503D5116999436E
:101DA0001161984311690143F2E70000837A000052
:101DB000800000401FB5002000903F2000030390EA
:101DC00001200190000302906846FFF73BFA1FBD17
:101DD000074A064B93620029D16901D0014300E014
:101DE0008143D1610020906270470000837A000037
:101DF0008000004070B50546FF20D530FFF780FF1A
:101E0000000C032819D3FF2099300124A407061DD4
:101E1000002D09D0FFF774FF80B260623046FFF7F3
:101E20006FFF80B2A06270BDFFF76AFF000C6062B6
:101E30003046FFF765FF000CF4E70220FFF78CF94E
:101E400070BD10B50020FFF743FF10BD10B5FEF7C1
:101E5000B7FC10BD7CB500200090019072B6294AF5
:101E60001188108062B628487D25ED0031E0028897
:101E7000491E521C92B289B202800E2A29D30E3A10
:101E800002806B461A88521C1A804288521C94B2F7
:101E900044808288521C92B28280C3885B1C9BB2B1
:101EA000C3800A2C05D30A3C44806E467488641CA7
:101EB0007480642A05D3643A82806C46A288521CDE
:101EC000A280AB4205D35A1BC2806B46DA88521CF3
:101ED000DA800029CBD16846008800280BD16846FB
:101EE0004088002807D168468088002803D16846CA
:101EF000C088002805D06846FFF731FC684600F02E
:101F00001CF97CBD1C000020000000200448018852
:101F1000044A914202D20188491C018070470000A6
:101F20001C000020FFFF000010B50B490948886223
:101F3000C8050169821411430161FF20C930FFF710
:101F4000DFFE064C2080FF20CD30FFF7D9FE6080F9
:101F500010BD0000837A0000800000403E01002098
:101F600030B587B06846FFF7F1F800246A4614716F
:101F70001020184D0422009011462846FFF778F8EB
:101F800069462846FFF73AF801216A461171202177
:101F90000091042205212846FFF76AF86946284681
:101FA000FFF72CF803A800F0B9F84B20C00103900C
:101FB000049403206A46107603A9074800F058F8F5
:101FC00002210820FFF762FE0449A815086007B047
:101FD00030BD0000000801400009014000E100E0C0
:101FE00070B5204E306A0024C0071F4D002813D062
:101FF000012130463162297803290BD1AA7869780A
:102000008A4207D229460F31515C521CAA7000F057
:1020100083F801E02C70AC70306A80071BD5022178
:102020003046316200F076F8C1B22878002811D12C
:102030000E480470E878002808D00B280AD20A4A13
:10204000121D8154E878401CE87004E0AA29F6D0FB
:10205000EC7070BDEC70306A4007FAD50420306235
:1020600070BD000000090140440100201E00002056
:10207000FEB50C46064601210420FFF7A9FE002507
:102080002B46214829462268FEF764F801220023E6
:1020900000910190FEF75EF81C4F06E0AA1C002399
:1020A0006D1C00990198FEF755F8B842F6D818490A
:1020B0008D61401EC1B2B1600004000E7060E07915
:1020C000012802D002281CD0002000216379227947
:1020D0005B001A43A379C9009B000B431A4300011C
:1020E0000243207A400102433260E17BA07B490039
:1020F0000843706260893061607BB061207BF06171
:10210000FEBD01200146E1E7006CDC02FFFF00009C
:1021100080000040C0687047C16070474B21C90112
:1021200001600021017141718171C17101724173BE
:10213000418101738173C173704770477047F8B56F
:1021400004148BB2264682B25E430D141046371437
:102150005843360480190021794116466E433714DE
:1021600036048019794126466E438919F8BD30B48A
:102170007446641E2578641CAB4200D21D46635D24
:102180005B00E31830BC184702E008C8121F08C102
:10219000002AFAD170477047002001E001C1121FE8
:1021A000002AFBD170470000F0B58FB00746FEF75C
:1021B000D9FE3C4678793D46083448353E680A28C1
:1021C00058D060886B465880208818803420205E64
:1021D000FEF7BEFE2422B25E0021FEF7E1FE09906A
:1021E0001C20305E7B4A0021FEF7DAFE014609988A
:1021F00048437949C0134843C0130E210890695ED3
:102200006B4602229A5E944651431022AA5E002039
:10221000185E42438918C91307911021695E62460E
:1022200051430E22AA5E4243881AC01302900798B7
:10223000FEF7BEFEE0800298FEF7BAFEA080E088BE
:102240002081A08860817879092824D01821695ECE
:102250000798091A1A22AA5E0298101A049021629D
:10226000049860620A20305EB288002A18D0682282
:10227000BA5E17E0002020616061A061E061A0818A
:10228000E0812062606220856085E8802881534873
:10229000024611469BE00020206260620FB0F0BD54
:1022A0000622B25E03920E46049A464342430692C9
:1022B000206923461833039AFEF768FE07466069D3
:1022C00023461C33039A0499FEF760FE0146069AE2
:1022D00005908918089A0191B81951420E46FEF7E7
:1022E0005FFE039031463846089AFEF759FE0646CF
:1022F000B84201D00020A0610398FEF729FE08999A
:102300000F1A79423A4604910198FEF749FE01906E
:10231000059906913A4604990598FEF741FE0699FB
:10232000884201D00021E161266160610398FEF7D7
:102330003FFEA0810198FEF73BFEE081A089688105
:10234000E089A8810798FEF703FE06460298FEF78B
:10235000FFFDB04203DD0298FEF7FAFD0646304667
:10236000FEF726FEA8826B460220185E03990246FD
:102370004A430021595E019B4B43D21A039BD2135F
:102380005943019B58430818C6131046FEF710FE28
:1023900020853046FEF70CFE6085208DE880608D3C
:1023A00028810DAB0CAA0BA90AA86F460FC72A21DA
:1023B000615E2820205E0A4B099AFEF7BBFC0A9852
:1023C000A0850B99E1850C9A22860D9B6386FEF70A
:1023D000FBFD63E7FF7F0000DA6E00005903000099
:1023E000B2060000002102E000BF491C89B2814210
:1023F000FAD37047F8B5044608688569002D04DCF7
:102400002148002101804180F8BD2048854200DD3F
:102410000546206862682946404352436943801854
:10242000081AC217D20C1018490B40130029EBDD13
:102430004003FDF77BFE0121490300F01AF907462E
:102440000002C117C90C08184613206801467043E2
:10245000C217D20C1018421360687043C317DB0C0C
:102460001818401300908818294600F002F92060DF
:10247000616800980818294600F0FBF8024960607E
:102480000F804E80F8BD0000F0000020FF7F0000AC
:10249000F8B50546087E16460C46002820D062692D
:1024A00020698018010C691A09B24B03C018C901D0
:1024B000206150180E49606100F0DBF86061276907
:1024C0000C49380C2D1A6069FDF730FE3A14C22110
:1024D0008A538036B0800848858061698160F8BD84
:1024E000280420610020606101202076E7E70000D9
:1024F000E037A803E44F0000F00000200021016055
:1025000041608160C16001614161017602480180E2
:102510004180818081607047F0000020FFB583B06A
:1025200010980E9F05680F9CAE69002E37DD002FB6
:1025300035D01E48864200DD06462869504300F02B
:102540008BF8019028690699484300F085F80090BF
:10255000A2680C986969801A4143039A0198101A7D
:102560007843401A00F078F80190E2680D986969A4
:10257000801A4143049A0098101A7843401A00F0D8
:102580006BF80546216801980818314600F071F88B
:10259000206060683146401900F06BF860600C986C
:1025A000A0600D98E06007B0F0BD0000FF7F000064
:1025B000F0B5002926D0036842681846104320D0A1
:1025C0000024002B03DA5B4252420124E4030E4F45
:1025D00000201D46002A164607DD064173190541F5
:1025E000521B45007D5B2C1906E00641AB1B0541E3
:1025F000AA1845007D5B641B401CC0B20F28E8D3BD
:10260000A0B20880F0BD000008290000FEF7D8FD48
:1026100000F008F8FFF792FDFEF752FBFFF71AFCF7
:10262000FCE7000070B5094D00242846FFF7DAFEEC
:10263000641CE4B20A2CF8D3FEF7F6F80448FFF75E
:102640005DFF04493020486162B670BD60EA000059
:10265000000200208007014010B5002802DBFF3097
:10266000F53001E0FF38F5387D21C900FDF75EFD4A
:1026700010BD884202DC4942884200DA08467047B1
:10268000002800DA4042704770B50D460646FFF755
:10269000F7FF04462846FFF7F3FF844201D930468E
:1026A00070BD284670BD024600200121890700E068
:1026B00089089142FCD808E04318934203D8D21A03
:1026C0004008401800E0400889080029F4D170470C
:1026D000002803D00368934201DD026070478B42FB
:1026E000FCDA0160704700B500280CD00122D20747
:1026F000914201D14A1E03E0002900DA49420A460C
:102700005142FFF7E5FF00BD0000C90092015B02E6
:102710002403ED03B6047F0548061107D907A20874
:102720006B09330AFB0AC40B8C0C540D1C0EE40E0F
:10273000AB0F73103A110112C8128F1355141C15E8
:10274000E215A8166E173318F918BE19831A471B1D
:102750000C1CD01C931D571E1A1FDD1F9F206221C9
:102760002422E522A72367242825E825A826682710
:102770002728E528A429622A1F2BDC2B992C552D0C
:10278000112ECC2E872F4230FC30B5316E322733DC
:10279000DF3397344E350436BA3670372538D9389A
:1027A0008D39403AF33AA53B573C083DB83D683E69
:1027B000173FC63F74402141CE417A422643D14360
:1027C0007B442445CD4575461D47C4476A480F499B
:1027D000B449584AFB4A9E4B404CE14C814D214E36
:1027E000C04E5E4FFB4F98503451CF516952035346
:1027F0009B533354CA546055F6558A561E57B157E9
:102800004358D4586459F459825A105B9D5B295C33
:10281000B45C3E5DC85D505ED75E5E5FE45F68603D
:10282000EC606F61F1617262F2627163EF636C641C
:10283000E9646465DE655766D0664767BD673268E0
:10284000A7681A698C69FD696E6ADD6A4B6BB86BA3
:10285000246C8F6CF96C626DCA6D316E976EFB6E75
:102860005F6FC26F23708370E37041719E71FA7164
:102870005572AF7208735F73B6730B746074B37480
:1028800005755675A675F47542768E76D9762377DA
:102890006C77B477FB7740788578C8780A794A797D
:1028A0008A79C979067A427A7D7AB77AEF7A277B74
:1028B0005D7B927BC67BF97B2A7C5A7C897CB77CCA
:1028C000E47C0F7D3A7D637D8A7DB17DD67DFB7D85
:1028D0001E7E3F7E607E7F7E9D7EBA7ED67EF07EAF
:1028E0000A7F227F387F4E7F627F757F877F987F48
:1028F000A77FB57FC27FCE7FD97FE27FEA7FF17F5E
:10290000F67FFA7FFE7FFF7F0020E412FB091105AE
:102910008B024601A3005100290014000A000500A3
:102920000300010001000000482900000000002011
:10293000440100008A0200008429000044010020B4
:10294000E4040000982100000125023904E301FF9E
:102950002E14001400640090011E001E00140B7F52
:1029600020035802E803DC05F40166151BFF7F0411
:1029700042FE33570133621173FF7F35307560F0CB
:04298000031DA00F84
:04000005000000C136
:00000001FF
