:020000040000FA
:1000000090060020D9000000E7000000B11B0000AE
:1000100000000000000000000000000000000000E0
:10002000000000000000000000000000EB000000E5
:100030000000000000000000ED000000EF000000E4
:10004000F1000000F1000000311F0000F10000008D
:10005000F1000000F1000000F1000000F1000000DC
:100060000D3000009D05000041030000F10000007C
:10007000F1000000F100000000000000000000009E
:100080000000000000000000000000000000000070
:100090000000000000000000000000000000000060
:1000A0000000000000000000000000000000000050
:1000B0000000000000000000000000000000000040
:1000C0000448854600F0FCF8004800473D39000030
:1000D000C046C04690060020064880F308880648BF
:1000E000804706480047FEE7FEE7FEE7FEE7FEE73B
:1000F000FEE7000090060020452E0000C100000031
:1001000030B50B46014600202022012409E00D46AF
:10011000D5409D4205D31D469540491B2546954037
:1001200040191546521E002DF1DC30BD70B500247B
:100130002546002801DA01244042002901DA012580
:100140004942FFF7DDFFAC4200D04042002C00D016
:10015000494270BDF8B500242546002904DA0E4650
:10016000012400214042B141002B04DA1E46002345
:1001700052420125B34100F062F88C4617461E46F4
:10018000AC4203D0002540428D41AC46002C02D049
:10019000002657429E4161463A46334601B0F0BDC3
:1001A000F0B51FB486B00020009001900290069830
:1001B000069980B204900798090C020400141143B8
:1001C00007900027089D099806913E463C460390FB
:1001D0000398A9B20204000C039004982D0C154357
:1001E00048430021224600F05AF8C71971411034E3
:1001F0000E46402CECDB3846029A00F050F8009A8C
:10020000019B801800905941029801911030029092
:100210004028CCDB00980BB0F0BDD2B201E00270F8
:10022000401C491EFBD270470022F6E710B513466A
:100230000A4604461946FFF7F0FF204610BDF0B508
:100240001FB40646002082B005464024019100906C
:100250001BE0019922460F46304600F043F8049A0D
:10026000059B801A994110D310461946224600F08A
:1002700016F8361A8F410197224601200021009F6F
:1002800000F00DF838184D4100902046641E0028FB
:10029000DFDC019B00982946324607B0F0BD10B55F
:1002A000202A04DB0146203A9140002010BD9140F5
:1002B00020239C1A0346E3401943904010BD0000E0
:1002C000064C0125064E05E0E36807CC2B430C3CA9
:1002D00098471034B442F7D3FFF7F6FE343C0000E1
:1002E000543C000010B5202A04DB0846203AD040D8
:1002F000002110BD0B46D340D0402024A21A9140CB
:100300000843194610BD30B58C180278401C1307FD
:100310001B0F01D10378401C120906D10278401C42
:1003200003E005780D70401C491C5B1EF9D101E00B
:100330000B70491C521EFBD1A142E6D3002030BDF8
:1003400070B51C48C16A03221143C1624169C214DD
:1003500011434161184D288B184CA08100F034F8EE
:1003600002F0D2FD288BE0810C21615E00B2401AC0
:1003700001D5134940182082208A618A884201D918
:10038000208A60820C4D60356869C00602D46869B5
:1003900080060DD56869A080A86AE0800948406998
:1003A00020816089401C608102F047FD3020686137
:1003B00070BD0000400401402007014008000020FB
:1003C000640D00000002014070B50F4DA88A0F4C6B
:1003D0006080288BA08002B20221615E0C4800F090
:1003E000D1FE00F019F8A889E0800A4800780028BA
:1003F00009D1074808224030825E04210220615E54
:10040000205E00F09FFD70BD0004014070000020E0
:10041000BC0100203C000020FEB5344C344A274685
:1004200008370820105E26680421515E02911E21C3
:10043000715E081A00F062FB05462020305E0299CA
:10044000401A00F05BFB2B4A291849421580508066
:10045000084600F06DFB908010883D46403568816D
:100460000020105E244948430221515E234A514333
:100470004018C01300F05CFBA881204603F080F90F
:10048000288802F059F8029068460089388068464A
:1004900040897880A079092825D080340E20205EFC
:1004A00000901020205E019026212A20715E305E8F
:1004B00003F086FA040000D54442002C07DD2146F3
:1004C000684603F097FA214601A803F093FA0098D2
:1004D00000F02EFBA882019800F02AFBE8820120A0
:1004E00001F032FFFEBD0020A882F7E7BC0100202A
:1004F000000401407C000020E7490000CD9300008B
:10050000F8B51E4E002430781D4F254602282DD107
:10051000F078092811D13079AA280ED17079AA284B
:100520000BD1B079002808D100220621301D02F03D
:1005300015FD002801D0F479012500203070114903
:10054000F0700870002D0DD00F490C700F490C7021
:100550000F4A1168491C11600E493870087002F08A
:1005600031FE03E00C480168491C01603878052819
:1005700003D10A20387002F0BDFBF8BD5C010020F9
:100580001C0000201D0000201E0000202100002073
:1005900028000020300000202C0000200CB50D4861
:1005A00041680D4A11804168C90710D000216A4690
:1005B000117007E04169C90702D01178491C117018
:1005C0001179491C117111790529F3D3117803218F
:1005D00041600CBD000201400800002010B5044637
:1005E0000121082002F0F0FB6069616C40020143C8
:1005F000A06CA26900025200104301432948016027
:10060000216862680901D2001143A2681143816028
:10061000E169226AC90192011143626A52011143E0
:10062000A26A12011143E26CD2001143226D9200C2
:100630001143626D52001143A26D1143C160616BA1
:10064000A26BC90192011143E26B52011143226C6A
:1006500012011143626ED2001143A26E9200114347
:10066000E26E52001143226F114301610F4A0E499D
:100670009162E16AE3680903DB021943E36D1B023F
:1006800019432369DB011943236B1B011943236EB3
:100690009B00194343055961002191620321416088
:1006A00010BD000000020140837A0000800000407D
:1006B0000021012206C001608160C16001614161C9
:1006C0008161C161016241628162C1620163416312
:1006D0008163C163016441648164C16401654165F2
:1006E0008165C165016641664260816670470000B0
:1006F00010B50F4C0D48A062012002F077FBE00519
:10070000016905225203114301610A4A104602F0B1
:1007100021FF104602F01EFF2068074908432060B1
:100720000020A0610548E06110BD0000837A000050
:100730008000004088130000FF010000FF0300005C
:100740000348024901600349416070478850000036
:10075000400401403B060000FEB572B60026234867
:1007600000960099491C00918142FAD3204A002545
:100770002C4656615069D31418435061FFF7E0FFCF
:10078000684686801A4F403F18E000960098401C4B
:1007900000909842FAD3D06A03210843D06250698E
:1007A000184350610820385E45190420385E04194A
:1007B0001048906169468888401C88806846818816
:1007C000012040028142E0D301F068FAFFF7B8FF50
:1007D00062B66812084A611210805180074A136895
:1007E000D8831068018410684684FEBDFFFF0200B4
:1007F00040040140A55A000034000020BC01002044
:1008000070B504460121C80202F0AEFA012080074B
:10081000416861701849174A8A62426923785B000F
:100820001A43426115488862FF216078C131144D36
:100830000E1D012813D002281AD1A07800280DD04F
:10084000012815D103202870084602F025FA00146B
:100850006880304602F020FA001408E00220287078
:10086000084602F019FA6880304602F015FAA880AE
:1008700070BD0000837A000080000040FFFF000090
:100880005001002010B5144C00212278022A01D812
:10089000552102E0032A00D135214843010BFF29ED
:1008A00000DBFF210223E35E042218464843A25ED8
:1008B0004012801800B2002801DA002002E0FF2870
:1008C00000DDFF200124A407002B01D1002A01D064
:1008D000E06210BDE16210BD5001002010B503219F
:1008E000FFF7A2FC10BD0000F0B58446184D174874
:1008F000A862174B17484033174E991382420ED106
:100900001E61164C164F54407C402768154807401E
:100910002760604648602068CF03384320600D4858
:1009200082420AD11E611048104C42406240104879
:1009300010600868400040080860002018610A68DC
:10094000520052080A60A862F0BD0000837A0000DD
:10095000800000401F360D9ACA8F00000A060CB0B6
:100960001530002AFF7FFF7F1A3401B015020D2ACF
:10097000BADC5476F0B51C46564B85B04B43DB13BE
:100980005D4200290BDB002803DB834205DC0125E7
:1009900010E0854201DD03250CE002250AE0002875
:1009A00003DB854205DC062504E0834201DD0425E6
:1009B00000E005250023009301930293454B4B4330
:1009C000DE13454B871B5943CB136743F91304913F
:1009D00019466143C91303913118301A0E46664314
:1009E000F7136043C61348426043C1135842604343
:1009F000C0132B0002F078FC064204101B26314283
:100A00000499039863181B18DE0FF3185B10591A2A
:100A1000081A0093019108E0E0198019C10F081825
:100A200040100190801B0090C01B029020E00398B2
:100A300023185B18DE0FF3185B10181A029001934D
:100A4000401A08E0A1190918CB0F59184910081AC3
:100A500001900291801B00900AE0049863181B1813
:100A6000DE0FF3185B10591A02930091081A0190D7
:100A70000120C003002A0ADA00220BE02118C9195C
:100A8000CB0F591849100091C91B0291EEE7824221
:100A900000DD024610184443241422460021684613
:100AA00002F058F92246002101A802F053F922462B
:100AB000002102A802F04EF90A98009901600B98F3
:100AC000019901600C98029901600D98056005B0CC
:100AD000F0BD0000E7490000CD93000010B50649C5
:100AE0004888401C80B24880642803D90020488090
:100AF00001F0AAF810BD000008000020034900B56D
:100B00004843C01300F014F800BD00005A4D000027
:100B1000002901DC00207047024A5143C9134843B1
:100B2000C013704755550000401A00B270470000CE
:100B30000449884202DCC943884201DA084670470A
:100B400000B27047FF7F00000121C907884201D130
:100B5000401E70470028FCDA4042704770B50A46D4
:100B6000024314D00023002903DA49424042012302
:100B7000DB030E4D00220C460028064609DD164117
:100B800031191441001B54002C5BE31808E00020CD
:100B900070BD1641A11B1441201854002C5B1B1B77
:100BA000521CD2B20F2AE6D398B270BD163C000098
:100BB00070B504460068002822D112480021206048
:100BC000217161710A21A1712423C35E0E4E00219F
:100BD0003246184600F026F8054621681C20085EBB
:100BE0003246002100F01EF80146284648430749D6
:100BF000C0134843C11325878034618001202080C1
:100C000070BD000014010020FF7F0000DA6E0000BC
:100C100010B51C6851436218D113CC03121B1A6023
:100C2000401810BD904201DD104670478842FCDA42
:100C3000084670470449884202DCC943884201DA09
:100C40000846704700B27047FF7F00000A4B10B59E
:100C5000984200D91846994200D919469A4200D9BB
:100C60001A46064B54421C829A824A421A81998142
:100C700041421980988010BDB20600000007014073
:100C800070B5002301252A460C689A40144094420E
:100C90002AD10C79002C04D0012C11D0022C04D0C4
:100CA00006E00468164626430660446894434460A0
:100CB0004C79012C0BD0022C10D0002C0BD00DE065
:100CC000046894430460466814463443EFE70669B9
:100CD0001446344301E004699443046184698E68D6
:100CE000012E05D0944384615B1C102BCBD370BDC7
:100CF0001443F8E7F0B5324F1601150214030B0048
:100D000002F0F2FA10090D13181E22282D33373D78
:100D100042484C52571D016A394089180EE0016A59
:100D2000274AE13A1140711808E0016A254A11404A
:100D3000691803E0016A0905090D61180162F0BD37
:100D4000416A394089180EE0416A1D4AE13A114072
:100D5000711808E0416A1B4A1140691803E0416AB2
:100D60000905090D61184162F0BD816A3940891891
:100D70000EE0816A124AE13A1140711808E0816A76
:100D8000104A1140691803E0816A0905090D6118CC
:100D90008162F0BDC16A394089180EE0C16A084A13
:100DA000E13A1140711808E0C16A064A1140691819
:100DB00003E0C16A0905090D6118C162F0BD0000B8
:100DC000F0FF0000FFF0000000210160017141719F
:100DD0008160704701239B07996A02468906890E44
:100DE0002032202903D3914201DC20200EE03F294C
:100DF00001D8914203DC1F2904D8814202DB081A82
:100E0000C0B203E0081A0007000F30309862704744
:100E1000002800DA40427047FEB5174601AB6A462B
:100E200000F064F800990198FFF798FE054600214C
:100E300000F062FC06460121284600F05DFC174CDC
:100E4000009961640199A164A584BD1B3F1AA8B2F1
:100E500001F072FB029069460820085E216D40187F
:100E6000206569460A20085E616D40186065B8B269
:100E700001F062FB029069460820085EA16D4018EF
:100E8000A06569460A20085EE16D4018E065206EA5
:100E9000401C2066E6846585FEBD000084000020BD
:100EA00070B50D46FFF7B4FF04462846FFF7B0FFC4
:100EB000844201DB214601E00146204642008018C1
:100EC000C010401870BD000010B5002809DD8A036D
:100ED00001461046FFF72AF9002802DD0249884240
:100EE00000DD002010BD0000FFFF0000FFB5104C2A
:100EF0001746626881B01E460021615E00F062FC08
:100F0000A26805460221615E029800F05BFC014682
:100F1000681A62696D18E16800F054FC3860A269D3
:100F20002169284600F04EFC306005B0F0BD00009D
:100F30007801002002480078002800D00120704786
:100F400098010020024B9885D9851A8670470000C9
:100F5000840000200022134601E08354521C8A4280
:100F6000FBD37047084800210180418041608160C7
:100F7000C160016141618161818304228277C1770F
:100F800020300170704700007801002070B51C49C6
:100F900050C9301BC20F10180CC94010991ACD0F40
:100FA00069184D1001214902884201DB8D4201DAA6
:100FB000032021E03119CC0F6118114C4910243C59
:100FC000E1609918CA0F5118491021610126760372
:100FD0003146FFF779FF606131462846FFF774FF1D
:100FE000A0616069002806D0A069002803D0042011
:100FF00000F068FD70BD042000F0B6F870BD000080
:101000009C01002070B51C4950C9301BC20F10183C
:101010000CC94010991ACD0F69184D1001214902D1
:10102000884201DB8D4201DA012021E03119CC0F29
:101030006118114C4910243C21809918CA0F51188D
:1010400049106180012676033146FFF73DFF60605D
:1010500031462846FFF738FFA0606068002806D0B8
:10106000A068002803D0032000F02CFD70BD0220F2
:1010700000F07AF870BD00009C01002010B5044615
:101080003421FFF767FF164820600320A08034203A
:10109000E080144801882181418861814168E160D4
:1010A00081682161C16861610169A1614169E16192
:1010B00081692162818BA184827F214620318A71DE
:1010C000C07FC87107482030007808720648408BFE
:1010D000A0853021204600F02DF8206310BD0000CF
:1010E0004C4C414878010020840000200F490289BF
:1010F0000A8042894A80C2684A6002698A604269FD
:10110000CA6082690A61C2694A61026A8A61828C24
:101110008A830246203293798B77D379CB77127A00
:1011200020310A700249808D488370477801002081
:101130008400002070B50022D2430024094D0DE048
:10114000035D5A400023D60702D052086A4000E0EF
:1011500052085B1CDBB2082BF5D3641C8C42EFD326
:10116000D04370BD2083B8ED044900220A700449C1
:101170008870CA70082048707047000098010020ED
:1011800084000020F7B588B0002813D0016800293A
:1011900010D05C4A137800265B4A012B06D15B4BCA
:1011A0001B78002B02D0C978022905D09672D6721E
:1011B0001673D6660BB0F0BD53490746CA7A01468E
:1011C00048310491054678310446A83760358034AB
:1011D0000391002A13D1384602F048FA2E71049880
:1011E00001880904E1640188039841814648268109
:1011F000067386870321C66681720121C1720020B1
:1012000041490290887A401CC0B2887204286CD38D
:101210000020887201AB6A460A990998FFF766FEBA
:1012200000990198FFF79AFC384E0590203EF07F18
:10123000002801D0012100E00021059800F05CFAAF
:10124000B18B081886B23048007B00282E4845D064
:10125000818F711A09B2069186870846FFF7D8FD7B
:1012600001214903884219DC274A0698D16E0004FF
:10127000401AC3171B0F1818001140182449D066D4
:10128000FEF754FF20810120029030041E4938618E
:10129000C96E796101213976E06429711A4809998A
:1012A00001840A99418400994164019981640599F6
:1012B0008184C6840298002817D02879002800D19C
:1012C00078E7E06C039900144881049908800E497E
:1012D0000885C88C0A8D801A48856BE786870121AE
:1012E00001730021C1662181CDE728790028F4D05F
:1012F0007869E16CC217920F101880100818E0642A
:10130000E0E700003C00002084000020980100205D
:10131000E44F0000F8B515460E4607001BD0002E1E
:1013200019D0002D17D0174C206E002813D0216D36
:10133000606DFFF7B5FD0090A16DE06DFFF7B0FDAA
:101340000099814209DB002038702046476D016E0C
:10135000246D009807E00020F8BD01213970214676
:10136000CF6DA46D096EFEF7E1FE0749884200DDEE
:101370000846288039462046FFF7F0FB30800120E0
:10138000F8BD000084000020FF7F0000F8B50400D5
:101390001DD012480078002819D100F025F8002649
:1013A0000125A670012813D0022810D10C4F0E2061
:1013B000385EFFF72DFD0B49884200DD0846257099
:1013C00002216170A571398A21816081A681F8BDF1
:1013D00025707D2065708001A080F8BD3C00002054
:1013E00084000020FF7F000000B50A480078002834
:1013F0000DD109484078030001F076FF0709050583
:10140000050509070900012000BD022000BD0020DC
:1014100000BD00003C00002084000020F0B51E4C00
:101420008DB00025A585E5852586A5721B4FE57243
:1014300001263E7038783878012823D13421684657
:10144000FFF788FD1F2000230D226946800201F06E
:1014500003FC684600F0CCFA002813D06846FFF77A
:1014600045FEE57007206070A5706582E582256401
:10147000032020700A480068002801D00221C170B2
:101480000DB0F0BD3D7006480068002800D0C57062
:10149000E67000F0EBFAF3E7840000203C00002047
:1014A000BC010020F0B59BB0040052D08A480078FF
:1014B00001284ED072B689482C26865F2E25455FBE
:1014C0003021415E009162B60684458484490291D0
:1014D0000A78844F002AB97948D004460078012858
:1014E00037D18148002505700A2932D13879002882
:1014F0002FD10EA8FFF7C2FD342101A8FFF72AFD66
:1015000072B67A4A1F2000218002FFF7EDF9784871
:1015100000901F2000230EAA3421800201F008FB56
:1015200006461F2000230D2201A9800201F094FB32
:1015300062B6002E0FD001A800F05AFA00280AD097
:1015400002202070644901220A703968C870E5726F
:10155000A5721BB0F0BD042020700820607006202A
:10156000A0705D4805703868C570F2E7C278002A3F
:10157000EFD04278052A10D058484078062818D075
:101580005848082180300190415E0846FFF740FC32
:101590000146387902281BD110E00A29D9D13979BE
:1015A0000029D6D18183416681664172062141704E
:1015B000CFE72946304600F06FF9CAE738680028BF
:1015C00006D0C078002803D1FF202D3081420EDAEA
:1015D000424C6078022805D06078032802D06078F9
:1015E000042801D100F042FA00206082B1E701989E
:1015F0000821415E002901DB012001E00020C043F9
:10160000364F7978012906D00521795688420FD0C6
:1016100000F02CFA9DE7798AFF22F532914203D23D
:10162000788A0019788294E77871022000F04AFAEB
:10163000009880B200F090FA386C401C38642D4855
:10164000BA8A011B914201D9B88A0019B882787808
:10165000022819D0032823D0042886D129463046F1
:10166000009AFFF7D9FB00F0B1F80028A0D002994A
:1016700000200870B883F8837866B8663887788762
:1016800078720520787064E72946304600F050FAF9
:10169000182000F061F800288AD0FFF7B3FC58E763
:1016A0000F4C203C62680021615E304600F08AF8F1
:1016B000A26806460221615E284600F083F8321ACD
:1016C0003118104600F034FA302000F045F80028B8
:1016D0008CD0FFF75BFC3CE73C000020840000203E
:1016E00098010020BC0100205E0000201F360D9AEA
:1016F0000CA4FD9AFFFF00008004000C002901D01B
:10170000404280B27047000070B5124D04462E462C
:10171000103628683168401AFFF77AFBA04216DCC1
:1017200068687168401AFFF773FBA0420FDCA86875
:10173000B168401AFFF76CFBA04208DCE868F1686A
:10174000401AFFF765FBA04201DC012070BD0020BC
:1017500070BD00009C01002070B5174CE18A002983
:1017600028D0E18AA28E914224D0E18AA186A17973
:10177000002500290BD0FFF7C7FF00280BD0208BD6
:101780000E49884208D2208B401C208304E000F0E0
:10179000BFF925830EE0258300F0BAF9A08A084935
:1017A000884207D3E08A0C2804D3208B062801D373
:1017B000012070BD002070BD84000020FFFF0000EC
:1017C00088130000401A5043801370473EB52D4CDB
:1017D000E08A00284FD0E08AA18E88424BD0E08A70
:1017E000A0866A4602A901A8FFF794FD00281ED032
:1017F00000F05EF9684600886083207A224D002858
:1018000018D068460079E179884213D1684600898A
:10181000E18E401A00B2FFF7FBFAFF210131884246
:1018200008DC68460088A84204D3012003E000F0E9
:101830003FF920E00020002805D0208B1349884282
:1018400002D2208B401C20836A460820105EE0866E
:101850001179E1711288AA4201D3012200E000222D
:101860002272A28A0A4B9A4205D3E28A0C2A02D338
:10187000228B062A01D200203EBD064AD1779083F2
:1018800001203EBD84000020606D0000FFFF0000CD
:101890008813000078010020F3B5524D0E2083B06C
:1018A000285EFFF7B5FA50490E228A5E101AFFF73C
:1018B000AFFA4D4C0646803C2079012702281ED104
:1018C00000F06EFE00281AD0A079022817D1204619
:1018D0006030007A002812D0322E10DC0E20285EF4
:1018E000FFF796FA0E21615E081AFFF791FA962823
:1018F00005DC0C20205EFFF78BFA962804DD002023
:1019000068726F7305B0F0BD01AB6A460499039825
:10191000FFF7ECFA00990198FFF720F906463348E3
:10192000C07F002801D0012100E000213046FFF7F0
:10193000E3FE0446009868640198A864AE8426B269
:10194000EE83687A002812D0288F2E87201A00B2E2
:10195000FFF75EFA802808DC688F201A00B2FFF7D4
:1019600057FAFF210131884207DD6E87CAE72E87CB
:101970006E876F7202206873C4E703206873288A39
:10198000001B06B2B0B200F0D7FD02906A460820F4
:10199000105E696E40180A216866515EAA6E891849
:1019A000A966AA8BFF23F5339A4202D2AA8B521C56
:1019B000AA83A219EA846E85AA8B9A42A2D3AA8B23
:1019C000002A9FD0FFF7CAF8084988830420887747
:1019D000084620300770072068700020E8702F70DC
:1019E00090E70000840000203C02002078010020E5
:1019F00070B5044600681A4988422FD1A088032890
:101A00002CD1E088342829D120462030017A0029C1
:101A100024D08079042821D1A08D124988421DD379
:101A2000E06800281ADD2169002917DDE269002A33
:101A300014DD236A002B11DD0B4DA8420EDCA942F8
:101A40000CDCAA420ADCAB4208DC30212046FFF75E
:101A500071FB216B814201D1012070BD002070BD5E
:101A60004C4C4148606D0000FFFF000010B5FFF7CF
:101A700079FA0E48002181704183418201844184BA
:101A8000416481648184C184018541858183C183EE
:101A9000416681660187418741720170417181729F
:101AA000C172012000F00EF810BD0000840000207B
:101AB00003480021016541658165C1650166704784
:101AC000840000200F4A1049931C0CC10CC10E4A1F
:101AD00000211032116051609160D1600B4AD164D5
:101AE0005186117191869171116551659165D1652C
:101AF0001166D186D171117211649182D1821183E4
:101B000050707047FFFFFF7F9C0100208400002081
:101B1000054810B5014624311EC934301EC00349A2
:101B20000120887110BD0000780100208400002091
:101B3000084A1368834200DD10605368834200DA6C
:101B400050609068884200DD9160D068884200DA79
:101B5000D16070479C01002070B5144D297900298F
:101B600011D0698E6886411A0CB22046FFF750F9F1
:101B700001214903884209DC05202856002806DD9A
:101B8000002C08DC0DE068860120287170BD00285B
:101B900007DA002C05DA2046FFF73AF9E96C40181D
:101BA000E864E86C800CE88270BD000084000020CE
:101BB00007490648086301F040F9BFF34F8F064913
:101BC0000448C860BFF34F8FFEE70000ADDE0000A1
:101BD000800701400400FA0500ED00E010B572B680
:101BE00016481749886288130168C20011430160D2
:101BF00000F054F800F020F900F072F800F00CF951
:101C000000F070F900F0E2F800F084F901F0BEF99C
:101C100001F088F9642001F09DFC01210A2000F008
:101C200065FF0021092000F061FF01200549400205
:101C30000860044940008039086010BD837A0000C4
:101C40008000004080E100E0034802490160034950
:101C500081607047B4A60000000C01408D7900003F
:101C60000168426809011143094A5160094B136038
:101C7000C1681161C1688068814201D9081A01E018
:101C800001200003D060136003489060704700009B
:101C9000000C0140B4A600008D79000010B50121B0
:101CA000080201F061F80B480121816241610721BE
:101CB00001610A49084A8A620722120203069A61F0
:101CC00000228A62FF21C1624169C214114341614D
:101CD00010BD000040040140837A000080000040F5
:101CE000FEB56846FFF770F80125684605713F208C
:101CF0008002354E009069463046FEF7C1FF032250
:101D00000A213046FEF7F6FF03220B213046FEF78C
:101D1000F1FF03220C213046FEF7ECFF03220D21D8
:101D20003046FEF7E7FF03220E213046FEF7E2FFC2
:101D300003220F213046FEF7DDFF022468460471BE
:101D40008020009069463046FEF79AFF684604718D
:101D50001D4F20204037009069463846FEF790FF1F
:101D6000684604710820009069463846FEF788FFEF
:101D700068460471694638460094FEF781FF68465C
:101D800004710420009069463846FEF779FF6846E2
:101D900004714020009069463046FEF771FF6846A6
:101DA0000471E001009069463046FEF769FF68461D
:101DB000057110200090002168464171694638463F
:101DC000FEF75EFFFEBD00000008014030B59DB08B
:101DD0006846FEF76DFCFEF78BFC0124002500959C
:101DE000214660030295019400F0BEFF0021A0038C
:101DF00000F0BAFF0220119409950C9018900695F6
:101E000005200321159417900A9516950B916846A5
:101E1000FEF7E4FB1DB030BD08B56846FEF75EFD79
:101E20000020694688706846FEF7EAFC01208002BF
:101E3000FEF728FD08BD000000B59FB0684600F021
:101E400097F900206B461871012159719971D97168
:101E5000D882188358831D4A10AB9A866B46187235
:101E600058721B4A1A805A801A4ADA831A4A1A840C
:101E70003022DA841A855A859A85DA851A8608AB63
:101E80009875D87510AB0E90D87516901877197490
:101E9000197158719971D87118AB1870D87310AB4B
:101EA00099721973987318AB187410ABD872597370
:101EB000D8730B48094901636721416308486946A3
:101EC000803800F043F81FB000BD0000FF1F000085
:101ED000B206000053F9000042FB0000ADDE000036
:101EE0008007014010B50121480200F03DFF0120AC
:101EF000800701690909090101610549034A8A62EC
:101F0000026902610020886210BD0000837A00002F
:101F10008000004010B50548034901600F21890287
:101F2000416000F043FF10BDB4A60000000C01406A
:101F300004484169C21411434161034903204860C8
:101F4000704700004004014080070140F8B50D468D
:101F500006460121102000F037FF304681498030CD
:101F600001636A79297992001143AA7AEB7A120106
:101F70005B011A431143AA7992011143EA79D20114
:101F800011432A7B120211436A7B52021143F1670B
:101F90002988316369887163E98B3162298C7162A8
:101FA000698CB162A98CF162298931672946203197
:101FB000CB7D8A7D5B001A438B7FEC8A9B01E40119
:101FC00023431A430B7E1B021A434B7E5B021A43C8
:101FD000CB7F9B031A432B8BDB031A430262CB7E1E
:101FE0008A7E5B002C461A43403423786F8B9B011A
:101FF000FF013B431A430B7F497F1B021A434902EF
:102000000A43617889030A43A98BC9030A434262E0
:10201000A27B217B92001143A27AE37A12015B0139
:102020001A431143627B52001143E27BD2001143F9
:10203000227CD2011143227E12021143E27D520220
:102040001143A27E92021143627ED2021143227F8B
:1020500012031143E27E520311438162627DE17CEF
:1020600092001143627CA37C12015B011A4311436D
:10207000227D52001143A27DD2001143227CD20165
:102080001143627F12021143A27F52021143C162C7
:102090002279A178120111436279237A52019B01BE
:1020A0001A431143E27812021143A2791203114339
:1020B000E27952031143627A920311437167E98C0A
:1020C0003165298D7165A18EB167E989B164298A6D
:1020D000F1641221695EB1631421695EF1636035B8
:1020E0002A78E17F520011436A78AB789202DB02D2
:1020F0001A43114301602A79E978520011436A7941
:10210000AB799202DB021A4311438160E97B2A7C9E
:102110000901520111436A7C92011143AA7CD20148
:10212000114301612A7AE979520011436A7AAB7A44
:102130009200DB001A431143EA7A120111432A7B11
:10214000520111436A7B92011143AA7BD2011143D0
:102150008161054931644160C160416103490163A6
:10216000F8BD0000ADDE0000FFFF0000FECA000069
:1021700010B57621FEF758F810BD000010B5040028
:102180001BD02088002813D000F02AF900F020F995
:1021900000280DD1208800F057F82188074800F06A
:1021A0002BFB2188054800F07FF82088FFF77AF99B
:1021B0006088002801D000F093F910BDBC01002018
:1021C000002800DA4042704770B572B6002411480A
:1021D000104D04720A20603DA871204600F024FDD5
:1021E00062B60C48603800F053F8012000F0F4FAB1
:1021F00000F0E2F808480470012141707D21890156
:1022000041802C716C7103482030C483024822380D
:10221000848370BD1C0200205E000020904201DD1E
:10222000104670478842FCDA08467047884203DA55
:102230008018884205DC05E0884203DD801A884268
:1022400000DA084600B270471FB504001CD0002019
:102250006A4610700A2353709070908090711081BC
:102260005081908109480078002802D0012807D1C8
:1022700003E01046FFF78AF802E0104600F098F9F4
:102280002146684600F0FEF91FBD00003C0000201A
:10229000002807D0002180304181818172B6C18140
:1022A000018262B670470000F3B583B0050045D0E7
:1022B0002868002842D0049900293FD00A262C46DD
:1022C000865F80340C27A879E75F01280ED11C486F
:1022D000C189002900D0C689284600F0B1FB02461A
:1022E000414200903846FFF799FF07B20499304603
:1022F0004843002803DC0A26A65F384612E0114A4C
:102300000121FFF78BFF01900A210E20615E205E04
:10231000019AFFF78BFF06461020205E3946019A8E
:10232000FFF784FFA979012904D1009A5142FFF7F0
:1023300075FF00B272B6E681208262B605B0F0BDCC
:102340003C000020FF7F000010B50146014800F06E
:10235000E7FF10BDBC010020002800DA40427047B2
:1023600070B5134E308800281FD0124D0020285E13
:10237000FFF7F2FF04460220285EFFF7EDFFA042C0
:1023800004DD0220285EFFF7E7FF04460420285EF4
:10239000FFF7E2FFA04204DD0420285EFFF7DCFF28
:1023A00004463088844201DD012070BD002070BDEC
:1023B0006C0000207C000020034900204871034984
:1023C0000880488070470000BC01002038000020D1
:1023D00002484079002800D001207047BC0100204D
:1023E00070B504001ED0FFF7F3FF0026244D00282F
:1023F00025D000F0D5F800281FD12248406980067A
:10240000800F1AD1FFF7ACFF0121484015D0FF2003
:10241000F530844207D2001B81B26888814202D91C
:102420000019688070BD72B60A2117488171014693
:1024300060310E724671067162B66E8070BD6E803C
:10244000114800F0A3F8002817D000F0A9F80028E0
:1024500013D0FFF785FF00280FD00C4928880A1BEE
:10246000824205D9001980B22880032801D270BDAC
:102470002980012000F00CF870BD2E8070BD000096
:102480003800002080070140BC010020FFFF000051
:1024900010B572B60A210B4A0024917111468031A1
:1024A000CC834C818C81CC810C82507104201071C2
:1024B000204600F0B9FB62B603480470034804806C
:1024C000448010BDBC0100205E00002038000020C8
:1024D00010B50248FEF76CFB10BD0000BC010020E7
:1024E00070B5124C0625655F281E01DC002205E050
:1024F0000F4900F0E1FE4904C20B0A430020205EB0
:10250000281A4003C0130021615E4018FEF710FB3B
:102510002080A068A168101A4003C013401800D59D
:102520000020A060A0680349C86370BD700000204F
:1025300050270100BC01002018B500226B461A800C
:102540005A80820B8004000E41000F4BFF24201A9A
:102550004000595E185E002A09D0012A0AD0022ADA
:102560000DD040426A4610805180009818BD6A46DE
:10257000118002E06A46108048425080F5E74942E7
:102580006A4611804042F8E7163A0000002804D05D
:1025900080790A2801D00120704700207047000090
:1025A0000248806A4006C00F704700008007014063
:1025B00070B5040022D01248007801281ED1104DB9
:1025C00022352878002800D001202070012060707A
:1025D0000020A070FEF7AEFC002801D00220A07001
:1025E0000220285EFFF7ECFD064A0021FFF716FEE9
:1025F00001216956491C00D14042A08070BD0000F5
:102600003C000020FF7F000070B51C4C21790029A0
:102610001BD0204600251A4E8030012916D00229F1
:1026200020D0032911D1C18900290ED1008A0028A8
:102630000BD172B60A20A0711048603005720020DC
:1026400000F0F2FA62B62571B58370BDC583002231
:1026500011460A4800F08EF8012000F0BDF8B5835D
:10266000257170BDC58300221146044800F082F830
:10267000012000F0B1F80320207170BDBC010020E2
:102680003C000020F3B581B004001FD00298002860
:102690001CD0FFF79DFE002818D12078002813D009
:1026A0003248FFF773FF314900280AD088796278F1
:1026B000904204D10868A278C078904201D00120ED
:1026C00000E00020002802D0FFF79EFFFEBD274853
:1026D0000079264D2F462E4660374036803500283B
:1026E00003D022480079012822D1204A012010710C
:1026F0001F4B988B5988884203D2029940189883BF
:10270000FEBD1168A078C870A0793872A079002841
:1027100001D020893081A088E88372B6617813489F
:102720008171012000F080FA62B602200F49087121
:102730000E480179032901D1022101710079022893
:10274000DED1A0793872A079002801D020893081AB
:10275000A088E88360780228D2D10C220A21A25EE8
:10276000615E024800F006F8FEBD0000BC010020DA
:102770003C000020F7B50F46040029D0206800284F
:1027800026D02A21415E0846FFF71AFD054621683A
:102790002620085EFFF714FDA84205DD21682620EB
:1027A000085EFFF70DFD05460A4A00212846FFF79F
:1027B00035FD0546024669420E463846FFF72EFDB6
:1027C000803460812A4631460298FFF727FDA081B8
:1027D000FEBD0000FF7F0000064A0021D162D183C8
:1027E000517011835183002803D09182118491622A
:1027F000D18270473C000020F0B587B00F4604003E
:1028000027D02068002824D0002F22D02079022849
:102810001CD1A079012819D1FFF7C2FE002815D0DC
:10282000204680301E250690455F2846FFF7C8FCED
:10283000804A0021FFF7F2FC05903946284600F057
:102840002BF90390082F06D9082105E00120FFF796
:10285000C3FF07B0F0BD394606980822764E825E67
:10286000B06A1202121A4A43D1100818714AB062B3
:102870000012D143FFF7D2FC0490F082204600F012
:10288000DFF802900598002810D0029800280DD09B
:10289000860202467D200021C000FFF7BFFC002D0C
:1028A00009DD800240420096019008E00120FFF718
:1028B00093FF0022B9E071428002019100905E48CE
:1028C000068A0599B14200DA0E46322E00DA322627
:1028D00059484078002862D15748818900291DD085
:1028E00000218089029AFFF799FC002D00DA40420E
:1028F00002B25148428300212046FFF73BFF64208B
:10290000005D002835D00498FFF75AFCB04230DB58
:10291000002D09DD049800280BDC2AE00021C1838A
:10292000C162012141703AE0002D22DA04980028AA
:102930001FDA4149414BC88BDA1B824202D9C019C8
:10294000C88300E0CB833C4EF08B718A884280D3F1
:1029500004990398374A411A029106200021305EFB
:10296000FFF75CFC02994843002D05DD002907DCD8
:102970000CE000203049E3E7002D07DA002905DAF2
:10298000069910228A5E9102081A00E00020F06287
:10299000009A0199FFF742FCF062012070700499DF
:1029A0000398244A451AD1432846FFF737FC224EA4
:1029B000308306201F4A0021305EFFF72FFC68435A
:1029C0000290142F00D9142708201A4A0021305EE3
:1029D000FFF724FC0146284600F06EFCFB173A4640
:1029E000FDF7DEFB7D22D2000023FDF7B3FBF16A89
:1029F000009A08180199FFF711FC0299009A09182A
:102A0000914201DD002D05DC019A914201DA002D91
:102A100000DBF0620298F16A009A40180199FFF712
:102A2000FDFB801270831A22B25E00212046FFF760
:102A3000A1FE0EE7FF7F00003C000020FFFF00002A
:102A400070B50400124845891CD02068002819D0B0
:102A50002A21415E0846FFF7B3FBA84205DA216848
:102A60002A20085EFFF7ACFB054621682620085E99
:102A7000FFF7A6FBA84205DA21682620085EFFF7CB
:102A80009FFB0546034A00212846FFF7C7FB70BDA0
:102A90003C000020FF7F000070B5124C0546A08866
:102AA00000280ED0A0884843218C40187D21C90001
:102AB000FDF726FB21840C490246884206DD0A46C2
:102AC00006E0A58200202084284670BD002A05DD8E
:102AD00014202946205EFFF7A9FBA0821420205E67
:102AE00070BD00003C000020FF7F00008307FF2234
:102AF000DB0E9A408907090E994000280BDA00077F
:102B0000000F0838830808489B001818C3699343CE
:102B10000B43C3617047830804489B00181803687F
:102B200093430B430360704700ED00E000E400E0D6
:102B3000FEB501246D46089B2C72344C324DA562C3
:102B4000334C01263604A34250D1304C314D403431
:102B50006561314D314C6B4063401C68304D2C40F9
:102B60001C6070601C68F5022C431C60C91C8F0837
:102B7000BF0013460097019015E00199890889006C
:102B8000716019785C78240209199C78DD78240436
:102B90002D0664190919B1600099091F0091019966
:102BA000091D1B1D019100990029E6D10097019094
:102BB00019E00198800880007060107853781B023B
:102BC000C0189378D4781B0424061B19C018F36826
:102BD000834201D0684601720098001F009001985E
:102BE000001D121D019000980028E2D10749002025
:102BF0004031486131680B4A1140316003498862B5
:102C00006846007AFEBD0000837A00008000004024
:102C10000CA4FD9A358F00000F045C6A03A0A0F09D
:102C2000FF7FFF7FFFF7FFF70849074A0A63012884
:102C3000886A05D0064A10408862064808637047D3
:102C400040221043F8E70000ADDE0000800701409D
:102C5000BFFF0000FECA000070B50125ED026C0147
:102C6000AB4202D123682B4303E0002B02D123683F
:102C7000AB43236025680123DB051D4325606060AD
:102C8000002003E0E56886008D51401C9042F9D396
:102C900020689843206070BD014672B6FF209130D5
:102CA000814201D2012000E00020FF23E03399425D
:102CB00001D9012300E000231843002801D000209F
:102CC00070470120000400680123DB0218435B0108
:102CD000186059200006586018464160C268952067
:102CE00000065860184600685B1198435B01186045
:102CF0001046E5E710B513494888401C4880124843
:102D0000007868281CD0114C5520E07320740020F6
:102D10006074A074E07420756075E075207660764C
:102D20002046012206210F3000F018F909206070BA
:102D30000120A07003202070E17B054800F026FAF6
:102D400010BD0000300000201E0000205C010020AB
:102D50000009014003688B4201DA01607047934229
:102D6000FCDD02607047000010B50F4C0D4AA262F6
:102D700023151A0501290BD0410503D51169194303
:102D8000116118431169814311610020A06210BDD7
:102D9000410503D5116999431161984311690143B4
:102DA000F2E70000837A0000800000401FB5002099
:102DB00000903F2000030390012001900003029047
:102DC0006846FEF74DFF1FBD074A064B9362002978
:102DD000D16901D0014300E08143D16100209062BC
:102DE00070470000837A00008000004070B50546FF
:102DF000FF20D530FFF750FF000C032819D3FF2028
:102E000099300124A407061D002D09D0FFF744FFC7
:102E100080B260623046FFF73FFF80B2A06270BDB3
:102E2000FFF73AFF000C60623046FFF735FF000CF9
:102E3000F4E70220FDF7CEFF70BD10B50220FFF7CA
:102E400027FB10BD10B5FDF753FC10BD7CB500206D
:102E50000090019072B62A4A1188108062B6294803
:102E60007D25ED0031E00288491E521C92B289B2E4
:102E700002800E2A29D30E3A02806B461A88521C11
:102E80001A804288521C94B244808288521C92B2AA
:102E90008280C3885B1C9BB2C3800A2C05D30A3C8A
:102EA00044806E467488641C7480642A05D3643A36
:102EB00082806C46A288521CA280AB4205D35A1B6A
:102EC000C2806B46DA88521CDA800029CBD100F030
:102ED000B5F96846008800280BD16846408800286C
:102EE00007D168468088002803D16846C08800283A
:102EF00005D06846FFF742F9684600F08FF97CBDBF
:102F000022000020000000200448C188044A9142A9
:102F100002D2C188491CC180704700001C000020FB
:102F2000FFFF000010B50B4909488862C805016918
:102F3000821411430161FF20C930FFF7ADFE064C3A
:102F40002080FF20CD30FFF7A7FE608010BD00007D
:102F5000837A0000800000405601002010B5002355
:102F6000801C03E00478E318DBB2401C0C46491EC9
:102F7000C9B2002CF6D1002A01D0037004E0007819
:102F8000984201D0002010BD012010BD30B587B09F
:102F90006846FDF719FF00246A4614711020184D89
:102FA0000422009011462846FDF7A4FE69462846F3
:102FB000FDF766FE01216A4611712021009104226D
:102FC00005212846FDF796FE69462846FDF758FE7E
:102FD00003A800F0DDF84B20C00103900494032007
:102FE0006A46107603A9074800F07CF80221082001
:102FF000FFF77CFD0449A815086007B030BD00004C
:10300000000801400009014000E100E0F8B52F4D43
:10301000286A0127C00700242D4E002812D0284618
:103020002F62317803290BD1B27871788A4207D2A6
:1030300031460F31515C521CB27000F0A7F801E02C
:103040003470B470286A80073AD502212846296274
:1030500000F09AF81F49C0B208701F490A68521C54
:103060000A6031781D4A1E4B002902D0012909D07F
:1030700026E0F470AA2803D01068401C1060F8BD48
:10308000377008E0F178012905D1AA2803D0F4703F
:1030900034701C70F0E71C70F1780B290BD20C4ACD
:1030A000121D8854F078401CC0B2F070092807D176
:1030B0000220307004E0F47034701068401C10601E
:1030C000286A4007DBD504202862F8BD00090140CA
:1030D0005C01002020000020240000202C000020A3
:1030E0001D000020FEB50C46064601210420FFF716
:1030F0006BFE00252B46214829462268FDF72AF859
:103100000122002300910190FDF724F81C4F06E0F6
:10311000AA1C00236D1C00990198FDF71BF8B8420A
:10312000F6D818498D61401EC1B2B1600004000E8E
:103130007060E079012802D002281CD00020002114
:10314000637922795B001A43A379C9009B000B4382
:103150001A4300010243207A400102433260E17BBE
:10316000A07B49000843706260893061607BB06178
:10317000207BF061FEBD01200146E1E7006CDC022E
:10318000FFFF000080000040C0687047C1607047CA
:103190004B21C90101600021017141718171C1712F
:1031A00001724173418101738173C17370470000E3
:1031B000034908780A2801D2401C087070470000B3
:1031C0003000002010B511480078012816D1104CAD
:1031D000217810480278914210D021780170FFF7D1
:1031E000F7F800280AD1207801220B49012806D0DF
:1031F000022806D0032801D10020087010BD4A70B3
:1032000002E00020C04348700A7010BD3C0000205E
:103210001E0000201F0000205E00002010B50400EA
:103220000BD02088002803D0FDF758FC00F00AF8E6
:10323000A088002801D0FFF7BBFF10BD10B5FDF737
:103240005FF910BD0E490F480A78012A0ED1CA78DD
:10325000002A0BD00278032A02D20278521C027094
:103260000078032804D30220087001E000210170D7
:1032700005490878642801D2401C08707047000096
:103280005C0100201D0000201C00002008490020D7
:103290000870C8708870487006494870087003222A
:1032A0008A70CA708860C860086108714871704788
:1032B0005C0100201C000020F8B504148BB22646E7
:1032C00082B25E430D1410463714584336048019F9
:1032D0000021794116466E4337143604801979412E
:1032E00026466E438919F8BD30B47446641E2578AD
:1032F000641CAB4200D21D46635D5B00E31830BC2A
:10330000184702E008C8121F08C1002AFAD1704706
:103310007047002001E001C1121F002AFBD1704755
:10332000F0B5044606468DB0006808340190B079C7
:10333000254640350A283ED060886F467880208830
:1033400038803020205E82210B90885F0A22069010
:10335000AA5E0221795E4A430C23EB5E0020385EB0
:103360004343D218D21304920C22AA5E4A430A2184
:10337000695E4143501AC01302900498FDF75AFC4D
:10338000E0800298FDF756FCA080B079092821D092
:103390001421695E0498091A1622AA5E0298216215
:1033A000171A6762019A0C20105E9288002A16D0C4
:1033B0006C22B25E16E0002020616061A061E061D5
:1033C000A081E081206260626880A8805E48024639
:1033D0001146B6E00020206260620DB0F0BD019B96
:1033E00006229A5E01920A46424378430592039070
:1033F000206923461833019AFDF70AFC06466069E6
:1034000023461C333946019AFDF702FC4F4A0190CE
:1034100051423046FDF706FC0746B04201D000207D
:10342000A0614A4A019851420C90FDF7FBFB064609
:103430000C98864201D00020E0610598434A381874
:103440005142FDF7EFFB01900398404A301851427A
:10345000FDF7E8FB03900198FDF776FB05900398D4
:10346000FDF772FB0599814201DA014605981B229E
:103470005043801141180698814213DD002911DD67
:10348000C003FCF753FE019947434143C91301911F
:103490000399FF134143C9134643F61300200391D8
:1034A000A061E061276166610198FDF7C3FBA0811F
:1034B0000398FDF7BFFBE081A089E880E0892881BF
:1034C0000498FDF741FB06460298FDF73DFBB0422C
:1034D00003DD0298FDF738FB06463046FDF7AAFBF0
:1034E00028826B460220185E019902464A43002159
:1034F000595E039B4B43D21A019BD2135943039B42
:1035000058430818C6131046FDF794FB68803046F0
:10351000FDF790FBA8800AAB09AA08A907A86F4687
:103520000FC70421695E0220285E094B0B9AFDF744
:1035300021FA0798208508996185099AA2850A9B36
:10354000E385FDF783FB48E759030000FF7F000098
:10355000B2060000002102E000BF491C89B281428E
:10356000FAD37047F8B5044608688569002D04DC75
:103570002148002141808180F8BD2048854200DD3E
:1035800005462068626829464043524369438018D3
:10359000081AC217D20C1018490B40130029EBDD92
:1035A0004003FCF7C3FD0121490300F0FEF9074683
:1035B0000002C117C90C0818461320680146704361
:1035C000C217D20C1018421360687043C317DB0C8B
:1035D0001818401300908818294600F0E6F920607A
:1035E000616800980818294600F0DFF90249606018
:1035F0004F808E80F8BD0000F4000020FF7F0000A7
:10360000F8B50546087E16460C46002820D06269AB
:1036100020698018010C691A09B24B03C018C9014E
:10362000206150180E49606100F0BFF960612769A0
:103630000C49380C2D1A6069FCF778FD3A14CA2140
:103640008A53803630810848C5806169C160F8BD01
:10365000280420610020606101202076E7E7000057
:1036600080746118E44F0000F40000200021016024
:1036700041608160C1600161416101760248418021
:103680008180C180C1607047F4000020FFB583B025
:1036900010980E9F05680F9CAE69002E37DD002F35
:1036A00035D01E48864200DD06462869504300F0AA
:1036B0006FF9019028690699484300F069F9009074
:1036C000A2680C986969801A4143039A0198101AFC
:1036D0007843401A00F05CF90190E2680D9869693E
:1036E000801A4143049A0098101A7843401A00F057
:1036F0004FF90546216801980818314600F055F940
:10370000206060683146401900F04FF960600C9805
:10371000A0600D98E06007B0F0BD0000FF7F0000E2
:1037200010B50C0004D001684068FDF717FA20803E
:1037300010BD0000F0B50F464037104D3B88002407
:103740002C616C61AC61EC6106462C706C70A83029
:10375000FFF78CFF0A203246385E803210630C205F
:10376000385E5063642084551804D0649384C03656
:10377000738114812B816C81F0BD0000F400002066
:10378000F0B589B0040011D0206800280ED026467C
:1037900008362046FEF7FAFE25466035002803D09D
:1037A0002068C078002803D00020E87209B0F0BD7E
:1037B000E87A002805D131462046FFF7BBFF0120FB
:1037C000E872002031464031079006915A480222A3
:1037D0008A5E0369D2180261944604228A5E4369B4
:1037E000D21842610A23CB5E8769DB1983610C23FF
:1037F000CB5EC16927465918C16101788037491CE1
:10380000C9B201702046A8300590042944D360460F
:10381000C017810F60460818D117890F89188910C1
:1038200080100091FDF784F9716BFDF771F9089034
:103830000098FDF77DF9716BFDF76AF9014608986C
:10384000F163B0633C48069E8069FF23C217920F64
:1038500010188010864638481D33C069C217920F71
:1038600010180C22B25E80108446059802930192D3
:10387000039004940A20305E0090634672460898D4
:10388000FFF704FF2C490020086148618861C86186
:1038900008700120487024E0274E7078012802D07B
:1038A000022806D01DE021460598FFF75BFE0220A6
:1038B00016E02146A4310598FFF732FF2420385E38
:1038C00022460599FFF79CFE012007902420385ED0
:1038D0003081069A0021515EFDF726F970810020A3
:1038E00070700598C034027E0799002A02D0002922
:1038F0001BD102E0002028710CE02979002914D0A6
:103900004069F96CC217920F101880100818F864FB
:1039100000146081287A002800D047E72879002821
:10392000FBD006986189018040E70069F8640120B6
:103930002871F86CECE70000F4000020FEF74EF967
:1039400000F008F8FFF7A2FCFEF73EFCFFF77EFA56
:10395000FCE7000070B5FEF7BBFD0A4D00242846C9
:10396000FFF7F8FD641CE4B20A2CF8D3FCF7F4FE70
:103970000548FFF77BFEFDF751FD04493020486103
:1039800062B670BD60EA000064020020800701405A
:1039900010B5002802DBFF30F53001E0FF38F538C4
:1039A0007D21C900FCF7C2FB10BD884202DC494200
:1039B000884200DA08467047002800DA4042704723
:1039C00070B50D460646FFF7F7FF04462846FFF799
:1039D000F3FF844201D9304670BD284670BD0028EF
:1039E00003D00368934201DD026070478B42FCDA2A
:1039F0000160704700B500280CD00122D207914227
:103A000001D14A1E03E0002900DA49420A46514228
:103A1000FFF7E5FF00BD0000C90092015B0224032F
:103A2000ED03B6047F0548061107D907A2086B0904
:103A3000330AFB0AC40B8C0C540D1C0EE40EAB0FA6
:103A400073103A110112C8128F1355141C15E21588
:103A5000A8166E173318F918BE19831A471B0C1CC9
:103A6000D01C931D571E1A1FDD1F9F206221242288
:103A7000E522A72367242825E825A82668272728E4
:103A8000E528A429622A1F2BDC2B992C552D112EF9
:103A9000CC2E872F4230FC30B5316E322733DF33E6
:103AA00097344E350436BA3670372538D9388D39C3
:103AB000403AF33AA53B573C083DB83D683E173FB6
:103AC000C63F74402141CE417A422643D1437B44D4
:103AD0002445CD4575461D47C4476A480F49B4493A
:103AE000584AFB4A9E4B404CE14C814D214EC04E02
:103AF0005E4FFB4F98503451CF51695203539B5343
:103B00003354CA546055F6558A561E57B157435818
:103B1000D4586459F459825A105B9D5B295CB45C9B
:103B20003E5DC85D505ED75E5E5FE45F6860EC60DE
:103B30006F61F1617262F2627163EF636C64E964F8
:103B40006465DE655766D0664767BD673268A768FB
:103B50001A698C69FD696E6ADD6A4B6BB86B246CFF
:103B60008F6CF96C626DCA6D316E976EFB6E5F6F14
:103B7000C26F23708370E37041719E71FA71557248
:103B8000AF7208735F73B6730B746074B3740575AA
:103B90005675A675F47542768E76D97623776C774E
:103BA000B477FB7740788578C8780A794A798A793A
:103BB000C979067A427A7D7AB77AEF7A277B5D7B7C
:103BC000927BC67BF97B2A7C5A7C897CB77CE47C1F
:103BD0000F7D3A7D637D8A7DB17DD67DFB7D1E7E26
:103BE0003F7E607E7F7E9D7EBA7ED67EF07E0A7F9F
:103BF000227F387F4E7F627F757F877F987FA77F88
:103C0000B57FC27FCE7FD97FE27FEA7FF17FF67FEB
:103C1000FA7FFE7FFF7F0020E412FB0911058B0273
:103C20004601A3005100290014000A00050003000A
:103C300001000100543C0000000000205C01000075
:103C400006030000943C00005C01002034050000E5
:103C500012330000013D3D0100C80070179A016059
:103C600000DC0506111400F40114B401401F032503
:103C7000D0070387580248151BFF7F02000442FE4D
:103C800033570133621173FF7F35307560F0031DC8
:043C9000A00F000081
:04000005000000C136
:00000001FF
